:10000000C4C20000F3C20000F1C20000EFC2000051
:10001000EDC20000EBC20000E9C20000E7C2000030
:10002000E5C20000E3C20000E1C20000DFC2000040
:10003000DDC20000DBC20000D9C20000D7C2000050
:10004000D5C20000D3C20000D1C20000CFC2000060
:10005000CDC20000CBC20000C9C200000C948E1FAC
:10006000C5C200000C948E1E0C94651EBFC2000019
:10007000BDC20000BBC20000B9C20000B7C2000090
:10008000B5C20000B3C20000B1C20000AFC20000A0
:100090000C943C1E0C94131EA9C200000C94D12495
:1000A000A5C20000A3C20000A1C200009FC20000C0
:1000B0009DC200009BC2000099C2000097C20000D0
:1000C00095C2000093C2000091C200008FC20000E0
:1000D0008DC200008BC200000C94EA1D0C94C11D5F
:1000E00085C2000014311B3148318831ED310332B3
:1000F0003E32623276325F1D621D511D551D5B1D01
:10010000991D661D6A1D701D741D781D7E1D821D42
:10011000861D991D8C1D901D941D07634236B79B4B
:10012000D8A71A39685618AEBAAB558C1D3CB7CC57
:100130005763BD6DEDFD753EF6177231BF000000CF
:10014000803F08000000BE922449123EABAAAA2AB2
:10015000BECDCCCC4C3E00000080BEABAAAAAA3ECD
:1001600000000000BF000000803F00000000000809
:100170004178D3BB4387D1133D190E3CC3BD4282A6
:10018000AD2B3E68EC8276BED98FE1A93E4C80EF64
:10019000FFBE01C4FF7F3F000000000000407A1056
:1001A000F35A00A0724E18090010A5D4E80000E828
:1001B0007648170000E40B54020000CA9A3B000086
:1001C00000E1F505000080969800000040420F0015
:1001D0000000A08601000000102700000000E803D6
:1001E000000000006400000000000A0000000000A1
:1001F0000100000000002C76D888DC674F0823DF60
:10020000C1DFAE59E1B1B796E5E3E453C63AE65132
:10021000997696E8E6C28426EB898C9B62ED407C59
:100220006FFCEFBC9C9F40F2BAA56FA5F490055AF5
:100230002AF75C936B6CF9676DC11BFCE0E40D471A
:10024000FEF520E6B500D0ED902E0300943577053D
:100250000080841E080000204E0A000000C80C33F5
:100260003333330F986E12831141EF8D2114893B84
:10027000E65516CFFEE6DB18D1844B381BF77C1D04
:10028000901DA4BBE424203284725E228100C9F157
:1002900024ECA1E53D2700002100240027002A00CE
:1002A0002D003000330001010000040107010A01A4
:1002B0000102102020080810204010204080020178
:1002C000020108040201010204081020408080405D
:1002D000201008040201800402018040201008045C
:1002E00002010804020101020408102040800102FA
:1002F00004081020408005050505070508080808C2
:10030000020202020A0A08080404040401010101AD
:1003100001010101030303030303030304070707A8
:100320000C0C0C0C0C0C0C0C02020202060606064D
:10033000060606060B0B0B0B0B0B0B0B302C302C95
:1003400042657374616E642061616E67656D6161A1
:100350006B740030354661696C656420746F20727F
:100360006561642066726F6D204448542073656E29
:10037000736F7221230030344661696C65642074A8
:100380006F20726561642066726F6D20444854204E
:1003900073656E736F722123003037636F756C6401
:1003A0006E74206372656174652066696C652300F4
:1003B000303643617264206661696C65642C206F1D
:1003C00072206E6F742070726573656E74230030D6
:1003D000366361726420696E697469616C697A65FB
:1003E000642300302C302C52657365742061726474
:1003F00075696E6F00302C302C416C6C6520736514
:100400006E736F72656E207374756B3A20676565E5
:100410006E20534D53206765737475757264003098
:100420002C302C416C6C652053656E736F72656E59
:10043000207374756B3A20534D5320676573747540
:1004400075726400302C302C546573746D65737351
:1004500061676520534D53206765737475757264C9
:1004600000302C302C506F6D7032207569743A203A
:100470006765656E20534D5320676573747575729B
:100480006400302C302C506F6D7032207569743AD6
:1004900020534D5320676573747575726400302C5A
:1004A000302C506F6D7031207569743A2067656526
:1004B0006E20534D532067657374757572640030F8
:1004C0002C302C506F6D7031207569743A20534D6B
:1004D0005320676573747575726400302C302C4C32
:1004E0004C20534D53206765737475757264007C9E
:1004F0003C3E5E2B3D3F2F5B5D3B2C2A225C001F68
:100500001C1F1E1F1E1F1F1E1F1E1F000022002556
:100510000028002B002E00310034000201000005ED
:100520000108010B01000020002300260029002CF7
:10053000002F003200000100000301060109010044
:10054000000A0B02090C0D0E08070304010000004D
:10055000000000000000000000000000000000009B
:100560000000000000000000000000121110000058
:10057000000000000000000000000000000000007B
:10058000000000000000993C563E11241FBECFEF32
:10059000D1E2DEBFCDBF00E00CBF19E0A0E0B2E0C9
:1005A000E4EFFFE800E00BBF02C007900D92A43714
:1005B000B107D9F72FE0A4E7B9E001C01D92A13936
:1005C000B207E1F712E0C4ECD2E000E006C02197E8
:1005D0000109802FFE010E949C46C33CD10780E0A8
:1005E0000807A9F70E94F42B0C94E94709CD089558
:1005F00080E090E00895EF92FF920F931F93CF93C6
:10060000DF9300D000D0CDB7DEB78C017B01CE01E7
:1006100001960E94D81F2A8180E2289F9001112410
:100620008B81A901482B8981282F30E02C5E3F4F18
:10063000322F2227330F242B352BF80131832083CF
:100640008D81F0E28F9F900111249C81892F90E091
:10065000982F8827990F990F990F822B932B2E8112
:1006600030E035952795822B932BF701918380837A
:1006700026960FB6F894DEBF0FBECDBFDF91CF91A7
:100680001F910F91FF90EF900895CF93DF93CDB717
:10069000DEB762970FB6F894DEBF0FBECDBF6EE82F
:1006A00072E0CE0101960E94F72A609101027091DA
:1006B0000202685071094AE0CE010D960E94982A04
:1006C00062EF73E0CE0107960E94F72ABE01635FD6
:1006D0007F4FCE0107960E94F32964EF76E00E94D7
:1006E000DC29BC01CE0101960E94192ACE01079691
:1006F0000E94672ACE010D960E94672ABE016F5F95
:100700007F4F87E39CE00E94B22B64E170E080E0C1
:1007100090E00E944A1FCE0101960E94672A6296CD
:100720000FB6F894DEBF0FBECDBFDF91CF91089515
:100730000F931F93CF93DF9300D000D0CDB7DEB7D8
:100740008C01E091060FF091070F309719F0858129
:10075000811106C061ED76E081E79DE00E949A2B51
:10076000CE0101960E94D81F96E0FE013196A7EEB9
:10077000BEE001900D929A95E1F7B8018DEE9EE0F2
:100780000E94B22B68EA74E08DEE9EE00E94B12BCD
:100790004091E70E50E04053584F052E000C660B79
:1007A000770B2AE08DEE9EE00E944F2B6DE28DEEDE
:1007B0009EE00E94AA2B4091E80E50E060E070E0BD
:1007C0002AE08DEE9EE00E944F2B6DE28DEE9EE0C2
:1007D0000E94AA2B4091E90E50E060E070E02AE010
:1007E0008DEE9EE00E944F2B61E775E08DEE9EE05E
:1007F0000E94B12B4091EA0E50E060E070E02AE0E8
:100800008DEE9EE00E944F2B63EE75E08DEE9EE034
:100810000E94B12B4091EB0E50E060E070E02AE0C6
:100820008DEE9EE00E944F2B63EE75E08DEE9EE014
:100830000E94B12B4091EC0E50E060E070E02AE0A5
:100840008DEE9EE00E944F2B68EA74E08DEE9EE0F4
:100850000E94B12B26960FB6F894DEBF0FBECDBF17
:10086000DF91CF911F910F9108950F931F93CF9315
:10087000DF9300D000D0CDB7DEB78C01809111029C
:10088000813309F0F9C06CE875E0C8010E94902935
:100890008823C9F06EEE76E0CE0101960E94F72A19
:1008A00062E37FE0CE0101960E94F32964EF76E0D7
:1008B0000E94DC29BC0187E39CE00E94B22BCE01A0
:1008C00001960E94672A60E874E0C8010E9490299E
:1008D0008823C9F06EEE76E0CE0101960E94F72AD9
:1008E0006CE27FE0CE0101960E94F32964EF76E08E
:1008F0000E94DC29BC0187E39CE00E94B22BCE0160
:1009000001960E94672A6DE774E0C8010E94902951
:100910008823C9F06EEE76E0CE0101960E94F72A98
:1009200066E27FE0CE0101960E94F32964EF76E053
:100930000E94DC29BC0187E39CE00E94B22BCE011F
:1009400001960E94672A6FE875E0C8010E9490290D
:100950008823C9F06EEE76E0CE0101960E94F72A58
:1009600060E27FE0CE0101960E94F32964EF76E019
:100970000E94DC29BC0187E39CE00E94B22BCE01DF
:1009800001960E94672A6EEF75E0C8010E949029C7
:100990008823C9F06EEE76E0CE0101960E94F72A18
:1009A0006AE17FE0CE0101960E94F32964EF76E0D0
:1009B0000E94DC29BC0187E39CE00E94B22BCE019F
:1009C00001960E94672A69EC73E0C8010E94902991
:1009D0008823C9F06EEE76E0CE0101960E94F72AD8
:1009E00064E17FE0CE0101960E94F32964EF76E096
:1009F0000E94DC29BC0187E39CE00E94B22BCE015F
:100A000001960E94672A60ED73E0C8010E94902958
:100A10008823C9F06EEE76E0CE0101960E94F72A97
:100A20006EE07FE0CE0101960E94F32964EF76E04C
:100A30000E94DC29BC0187E39CE00E94B22BCE011E
:100A400001960E94672AB801CE0101960E94EF2A02
:100A5000CE0101960E946726CE0101960E94672A68
:100A600061EF76E087E39CE00E94B12B66EF76E0D1
:100A700087E39CE00E94B12BB801CE0101960E9451
:100A8000EF2ACE01019654DECE0101960E94672A1C
:100A90006CE875E0C8010E949029882321F08BED55
:100AA00094E00E94A11A60E874E0C8010E949029B5
:100AB000882359F080911102813319F48FEB94E06F
:100AC00002C08EE994E00E94A11A6DE774E0C801AB
:100AD0000E949029882359F080911102813319F4E2
:100AE00082E894E002C081E694E00E94A11A6FE8D7
:100AF00075E0C8010E949029882321F084E494E0E5
:100B00000E94A11A6EEF75E0C8010E949029882307
:100B100059F080911102813319F48FE194E002C001
:100B200085EF93E00E94A11A8DEE9EE00E94DB0EFD
:100B300026960FB6F894DEBF0FBECDBFDF91CF91E2
:100B40001F910F910895CF93DF93CDB7DEB76297D2
:100B50000FB6F894DEBF0FBECDBF609188097091CB
:100B600089094AE0CE010D960E94982A60918A096F
:100B700070918B094AE0CE0107960E94982A6BEF8C
:100B800076E0CE0101960E94F72ABE01695F7F4F91
:100B9000CE0101960E94F329BE01635F7F4F0E9440
:100BA000F32964EF76E00E94DC29BC0187E39CE036
:100BB0000E94B22BCE0101960E94672ACE010796B1
:100BC0000E94672ACE010D960E94672A64E170E0B8
:100BD00080E090E00E944A1F62960FB6F894DEBF54
:100BE0000FBECDBFDF91CF9108954F925F926F926C
:100BF0007F928F929F92AF92BF92CF92DF92EF92AD
:100C0000FF92CF93DF93CDB7DEB762970FB6F8941C
:100C1000DEBF0FBECDBF2B013C0149015A016EEF73
:100C200076E081E79DE00E94B12B2AE0B301A201AA
:100C300081E79DE00E944F2B2AE0B501A40181E7E6
:100C40009DE00E944F2B81E79DE00E94972B88EE4C
:100C5000C82E83E0D82EE12CF12CC301B201A701EC
:100C600096010E941F44BA01A9012AE0CE0107960D
:100C70000E946C2AC501B401A70196010E941F447D
:100C8000BA01A9012AE0CE0101960E946C2A68E10E
:100C900077E0CE010D960E94F72ABE01695F7F4F73
:100CA000CE010D960E94F32965EE75E00E94DC29C5
:100CB000BE016F5F7F4F0E94F32964EF76E00E94D0
:100CC000DC29BC0187E39CE00E94B22BCE010D968B
:100CD0000E94672A64E170E080E090E00E944A1F71
:100CE000CE0101960E94672ACE0107960E94672ACC
:100CF00062960FB6F894DEBF0FBECDBFDF91CF91E5
:100D0000FF90EF90DF90CF90BF90AF909F908F902B
:100D10007F906F905F904F9008958F929F92AF92C7
:100D2000BF92CF92DF92EF92FF92CF93DF93CDB736
:100D3000DEB762970FB6F894DEBF0FBECDBF490194
:100D40005A0128EEC22E23E0D22EE12CF12CA7016D
:100D500096010E941F44BA01A9012AE0CE0107961C
:100D60000E946C2AC501B401A70196010E941F448C
:100D7000BA01A9012AE0CE0101960E946C2A6BE11A
:100D800077E0CE010D960E94F72ABE01695F7F4F82
:100D9000CE010D960E94F32965EE75E00E94DC29D4
:100DA000BE016F5F7F4F0E94F32964EF76E00E94DF
:100DB000DC29BC0187E39CE00E94B22BCE010D969A
:100DC0000E94672A64E170E080E090E00E944A1F80
:100DD000CE0101960E94672ACE0107960E94672ADB
:100DE00062960FB6F894DEBF0FBECDBFDF91CF91F4
:100DF000FF90EF90DF90CF90BF90AF909F908F903B
:100E00000895CF92DF92EF92FF92CF93DF93CDB709
:100E1000DEB768970FB6F894DEBF0FBECDBF609106
:100E2000840970918509809186099091870928EE3F
:100E3000C22E23E0D22EE12CF12CA70196010E94B4
:100E40001F44BA01A9012AE0CE0143960E946C2AF0
:100E500060918C0970918D0980918E0990918F0914
:100E6000A70196010E941F44BA01A9012AE0CE0100
:100E70000D960E946C2A6EE177E0CE0107960E94E3
:100E8000F72ABE01635F7F4FCE0107960E94F329C8
:100E900065EE75E00E94DC29BE016D5E7F4F0E9409
:100EA000F32964EF76E00E94DC29BC01CE010196B3
:100EB0000E94EF2ACE0107960E94672ACE010D9666
:100EC0000E94672ACE0143960E94672ABE016F5F87
:100ED0007F4F87E39CE00E94B22B64E170E080E0EA
:100EE00090E00E944A1FCE0101960E94672A6896F0
:100EF0000FB6F894DEBF0FBECDBFDF91CF91FF904C
:100F0000EF90DF90CF900895CF93DF93CDB7DEB70A
:100F100062970FB6F894DEBF0FBECDBF80919409E3
:100F200090919509049709F4B0DB6EE872E0CE0168
:100F300001960E94F72A60919409709195094AE000
:100F4000CE010D960E94982A60ED73E0CE010796BF
:100F50000E94F72ABE01635F7F4FCE0107960E9471
:100F6000F32964EF76E00E94DC29BC01CE010196F2
:100F70000E94192ACE0107960E94672ACE010D967B
:100F80000E94672ABE016F5F7F4F87E39CE00E944B
:100F9000B22B64E170E080E090E00E944A1FCE0135
:100FA00001960E94672A62960FB6F894DEBF0FBEC4
:100FB000CDBFDF91CF910895EF92FF920F931F93D2
:100FC000CF93DF93CDB7DEB72C970FB6F894DEBF83
:100FD0000FBECDBF7C01BC018FEB9EE00E94192AA1
:100FE00069EC73E0CE0107960E94F72AB701CE01A3
:100FF00007960E94F32964EF76E00E94DC29BC0189
:10100000CE0101960E94EF2ACE0107960E94672A20
:10101000BE016F5F7F4F87E39CE00E94B22B64E1CB
:1010200070E080E090E00E944A1F01E010E0C801FB
:101030000197F701248135818217930750F42081AD
:1010400031812115310529F0F901E80FF91F60817F
:1010500001C060E0C8010E94114464E170E080E0DA
:1010600090E00E944A1F61E277E081E79DE00E94E4
:101070009A2B0F5F1F4F0B301105C9F6CE01019659
:101080000E94672A2C960FB6F894DEBF0FBECDBF24
:10109000DF91CF911F910F91FF90EF900895CF9323
:1010A000DF93CDB7DEB72C970FB6F894DEBF0FBE37
:1010B000CDBF64E072E0CE0101960E94F72A8091D4
:1010C0007509882319F06FEC73E002C060EB73E0E0
:1010D00087E39CE00E94D02B64E170E080E090E028
:1010E0000E944A1F80917409882311F16EE577E010
:1010F000CE0107960E94F72ABE016F5F7F4FCE0197
:1011000007960E94F32964EF76E00E94DC29BC0177
:10111000CE0101960E94192ACE0107960E94672AE5
:10112000BE016F5F7F4F87E39CE00E94B22B06C039
:1011300069E973E087E39CE00E94D02B64E170E0F2
:1011400080E090E00E944A1FCE0101960E94672A2B
:101150002C960FB6F894DEBF0FBECDBFDF91CF91B6
:10116000089588E00E94B71E21E0892B09F420E051
:1011700020939109222319F061E677E002C066E628
:1011800077E087E39CE00E94B12B64E170E080E0AF
:1011900090E00C944A1F0F931F93CF93DF93CDB72A
:1011A000DEB7A9970FB6F894DEBF0FBECDBFCE0154
:1011B00001960E94D81F86E0FE013196A7EEBEE0A0
:1011C00001900D928A95E1F707EE1EE0F80180810B
:1011D00090E01DA21CA21FA21EA219A618A64AE0FA
:1011E000BE016F5F7F4F8053984F0E946240BE01E7
:1011F0006F5F7F4FCE0184960E94042A4AE0F80177
:101200006181CE014E960E94C32A4AE0F8016281B4
:10121000CE0148960E94C32A6BE677E0CE01429643
:101220000E94F72ABE01685E7F4FCE0142960E945F
:10123000F32963EE75E00E94DC29BE01625E7F4FF8
:101240000E94F32963EE75E00E94DC29BE016C5D0B
:101250007F4F0E94F32964EF76E00E94DC29BC01F5
:10126000CE0101960E94EF2ACE0142960E94672A83
:10127000CE0148960E94672ACE014E960E94672AA8
:10128000CE0184960E94672ABE016F5F7F4F87E37D
:101290009CE00E94B22B64E170E080E090E00E944C
:1012A0004A1FCE0101960E94672AA9960FB6F894AC
:1012B000DEBF0FBECDBFDF91CF911F910F9108957B
:1012C000CF93DF93CDB7DEB72C970FB6F894DEBF80
:1012D0000FBECDBF6EE872E0CE0101960E94F72AE4
:1012E0006AEB74E0CE0107960E94F72A65EC7EE077
:1012F000CE0107960E94F32964EF76E00E94DC2974
:10130000BC01CE0101960E94192ACE0107960E94C7
:10131000672ABE016F5F7F4F87E39CE00E94B22B7C
:1013200064E170E080E090E00E944A1FCE010196E7
:101330000E94672A2C960FB6F894DEBF0FBECDBF71
:10134000DF91CF910895CF92DF92EF92FF920F93AA
:101350001F93CF93DF938C017B016A01EC01EC16A4
:10136000FD06F4F09E01201B310BF601848195816E
:101370002817390748F480819181009729F0FC01F2
:10138000E20FF31F608101C060E0CE010E941144B2
:1013900064E170E080E090E00E944A1F2196DFCF78
:1013A000DF91CF911F910F91FF90EF90DF90CF9041
:1013B0000895CF93DF93CDB7DEB72C970FB6F8948F
:1013C000DEBF0FBECDBF6EE677E0CE0107960E946E
:1013D000F72A61ED7EE0CE0107960E94F32964EFC3
:1013E00076E00E94DC29BC01CE0101960E94EF2A22
:1013F000CE0107960E94672A60917C0970917D0951
:1014000080917E0990917F099B01AC010E947345F8
:10141000882339F066E773E087E39CE00E94D02BD5
:1014200007C0BE016F5F7F4F87E39CE00E94B22B35
:1014300064E170E080E090E00E944A1F61E777E09D
:10144000CE0107960E94F72A6BEC7EE0CE0107964C
:101450000E94F32964EF76E00E94DC29BC01CE01F2
:1014600001960E94192ACE0107960E94672A609170
:1014700078097091790980917A0990917B099B0193
:10148000AC010E947345882339F063E573E087E37C
:101490009CE00E94D02B07C0BE016F5F7F4F87E3A7
:1014A0009CE00E94B22B64E170E080E090E00E943A
:1014B0004A1FCE0101960E94672A2C960FB6F89417
:1014C000DEBF0FBECDBFDF91CF9108958F929F9267
:1014D000AF92BF92CF92DF92EF92FF920F931F9342
:1014E000CF93DF93CDB7DEB7C258D1090FB6F894CA
:1014F000DEBF0FBECDBF8C017B016DE774E087E3DB
:101500009CE00E94B12B8BE5C82ED12CCC0EDD1EA9
:101510008CE0C80ED11C5701EFEFAE1ABE0AF801DD
:10152000818C928CF4018581823008F471C0F401C1
:1015300082859385A485B5858F719927AA27BB27B6
:10154000892B8A2B8B2B09F063C040E250E0BE014F
:101550006F5F7F4FC40126D7803209F059C089815F
:10156000882309F455C0853E81F38E3271F38C8552
:1015700083FDEBCF22961FAE1EAE229785E492E04C
:101580009FAF8EAF24961FAE2497FE01319690E058
:1015900020E03EE28191803291F0283041F4A6E7CC
:1015A000B0E0AC0FBD1FA90FB11D3C939F5FA6E734
:1015B000B0E0AC0FBD1FA90FB11D8C939F5F2F5FD3
:1015C0002B3041F7E6E7F0E0EC0FFD1FE90FF11DCE
:1015D0001082F801618D728D21E0AE014A585F4F93
:1015E000CE01CE96F9D7882399F0BE01625C7F4F79
:1015F000CE0181960E94CC15AE014A585F4FBE01C4
:101600006F5D7F4FCE01855A9F4F0E94301605C0F7
:10161000CE01855A9F4F0E941D16E696EEADFFAD96
:10162000E697309719F08581811123C064E777E050
:1016300081E79DE00E949A2B64EF76E087E39CE0CF
:101640000E94B12BC8010E94B915CE57DF4F0FB6CB
:10165000F894DEBF0FBECDBFDF91CF911F910F91E8
:10166000FF90EF90DF90CF90BF90AF909F908F90C2
:10167000089580E0282F30E02E153F0514F48F5F89
:10168000F9CFB60187E39CE00E94B12BE6968EADC0
:101690009FADE697009709F43FC0FC0125812230F9
:1016A000D8F16F962EAD3FAD6F973C832B83A396F9
:1016B0004CAD5DAD6EAD7FADA3974D835E836F8303
:1016C0007887A7964CAD5DAD6EAD7FADA797498786
:1016D0005A876B877C8721E232E03A8329832DE0A9
:1016E000F601DE011D9601900D922A95E1F79B8F80
:1016F0008A8FB501CE010196E9DEE6968EAD9FADEB
:10170000E697009709F40BCFF3D3E6968EAD9FAD25
:10171000E6970E94463F03CF61E775E087E39CE0D0
:101720000E94B12BE696EEADFFADE697309729F01B
:10173000438954896589768903C040E050E0BA0145
:101740002AE087E39CE00E944F2B68EA74E087E37D
:101750009CE00E94B12BD1CFCF93DF9300D000D07B
:10176000CDB7DEB76EE872E0CE0101960E94F72A8F
:1017700080910002882319F063E877E002C06CE8EA
:1017800077E0CE0101960E94042ABE016F5F7F4F71
:1017900087E39CE00E94B22B64E170E080E090E07F
:1017A0000E944A1FCE0101960E94672A26960FB614
:1017B000F894DEBF0FBECDBFDF91CF9108951F9388
:1017C000CF93DF93CDB7DEB768970FB6F894DEBF3F
:1017D0000FBECDBF182F6EE872E0CE0107960E94B3
:1017E000F72A103319F463E977E002C067E977E07C
:1017F000CE0107960E94042ABE01695F7F4FCE0189
:1018000043960E94EF2A60E874E0CE010D960E9494
:10181000F72ABE016D5E7F4FCE010D960E94F3291F
:1018200064EF76E00E94DC29BC01CE0101960E94A3
:10183000EF2ACE010D960E94672ACE0143960E94A0
:10184000672ABE016F5F7F4F87E39CE00E94B22B47
:101850006091110280E090E00E941144CE01019657
:101860000E94672ACE0107960E94672A68960FB6E3
:10187000F894DEBF0FBECDBFDF91CF911F910895C9
:10188000CF93DF9300D000D0CDB7DEB708DC8091D6
:10189000110295DF6FEB7EE0CE0101960E94EF2AE8
:1018A000CE01019689DBCE0101960E94672A73DC86
:1018B0002BDB0E94450355DCA4DA45D926960FB6EA
:1018C000F894DEBF0FBECDBFDF91CF910895CF93C7
:1018D000DF93CDB7DEB72C970FB6F894DEBF0FBEFF
:1018E000CDBF6EE872E0CE0101960E94F72A83E038
:1018F00090E0909302028093010210929509109259
:101900009409109293091092920981E08093030246
:1019100060E083E00E94DF1E6AE977E0CE01019675
:101920000E94042ABE016F5F7F4F81E79DE00E9405
:10193000C02B10928B0910928A0960E08AE00E9405
:10194000DF1E6DEB77E0CE0101960E94042ABE01F6
:101950006F5F7F4F81E79DE00E94C02B1092890945
:101960001092880988E00E94B71E21E0892B09F4B3
:1019700020E02093900968EC72E0CE0107960E9467
:10198000F72ACE0107960E949803CE0107960E947F
:10199000672A83EE93E00E94A11A8DEE9EE00BD29F
:1019A0006FDF60918409709185098091860990911B
:1019B00087099B01AC01B1D960918C0970918D09A7
:1019C00080918E0990918F099B01AC010ED9BBD8F3
:1019D000CE0101960E94672A2C960FB6F894DEBFBE
:1019E0000FBECDBFDF91CF910895CF92DF92EF92DE
:1019F000FF920F931F93CF93DF93CDB7DEB72C9752
:101A00000FB6F894DEBF0FBECDBF8C017B016A011B
:101A10006EE872E00E94F72ACE14DF044CF1C70191
:101A20000E940944282F30E0B901605371094AE04F
:101A3000CE0107960E94982AB801CE0101960E9415
:101A4000EF2ABE01695F7F4FCE0101960E94F32904
:101A5000BC01C8010E94192ACE0101960E94672A82
:101A6000CE0107960E94672A8FEFE81AF80AD4CFB2
:101A7000C8012C960FB6F894DEBF0FBECDBFDF9124
:101A8000CF911F910F91FF90EF90DF90CF9008952D
:101A90000F931F93CF93DF9300D000D0CDB7DEB765
:101AA0008C0160EE77E0CE0101960E94F72AB80122
:101AB000CE0101960E94F32962EF77E00E94DC29B3
:101AC000BC0181E79DE00E94B22BCE0101960E94ED
:101AD000672A61E089E00E94DF1E68EE73E080E023
:101AE00090E00E944A1F60E089E00E94DF1E68E8E3
:101AF00073E180E090E00E944A1F6DEF77E0CE0135
:101B000001960E94F72AB801CE0101960E94F3299E
:101B100062EF77E00E94DC29BC0181E79DE00E9432
:101B2000C02BCE0101960E94672ACE0101960E9429
:101B3000AE17BE016F5F7F4F83EB9EE00E942E2A9F
:101B4000CE0101960E94672A6AE973E081E79DE071
:101B50000E94B12B63EB7EE081E79DE00E94C02BE9
:101B60006AE070E080E090E00E944A1F26960FB67F
:101B7000F894DEBF0FBECDBFDF91CF911F910F91C3
:101B80000895DC015996ED91FC915A973097B9F080
:101B900083899489A589B68942855385648575852D
:101BA000841B950BA60BB70B811520E89207A105A6
:101BB000B10538F08FEF9FE7A0E0B0E0089580E036
:101BC00090E00895CF93DF931F92CDB7DEB769837E
:101BD000DC01ED91FC910280F381E02D41E050E0C9
:101BE000BE016F5F7F4F19950F90DF91CF910895E0
:101BF0001F93CF93DF93EC0180E2689FF0011124E3
:101C00009F012853364FD9011B969C91917129F061
:101C1000842F827411F080E058C0142F6A8B809159
:101C2000120290911302A0911402B09115028E87B6
:101C30009F87A88BB98BE853F64F4489558960E09C
:101C400070E0BA01552744274F8B588F698F7A8FE0
:101C5000828D938DA0E0B0E0482B592B6A2B7B2B13
:101C60004F8B588F698F7A8FD9011B968C91887111
:101C700051F4848D958DA68DB78D8B8B9C8BAD8B00
:101C8000BE8B81E00DC0803131F69E012D5E3F4F4D
:101C90008B8D9C8D0E940022882309F4BCCF84E0A8
:101CA0008D83812F8F708C831E821F8218861986E8
:101CB0001A861B861C861D8616FF06C0CE01DF9184
:101CC000CF911F910C94D11781E0DF91CF911F919B
:101CD0000895CF93DF93EC01898D9A8D009739F4A5
:101CE00081E090E09B838A8380E090E00BC0FC0160
:101CF000138212820E946822E98DFA8D228133813B
:101D0000232B71F7DF91CF9108950F931F93CF93FA
:101D1000DF93EC018D81882309F447C08C8187FF14
:101D20003EC06E857F858889998941E00E94962012
:101D30008823D9F18A8920E2829FC0011124FC0105
:101D4000E853F64F309789F12D81223040F44B89CA
:101D50005C896D897E89448F558F668F778F4F8917
:101D6000588D698D7A8D8C010853164FF801538F69
:101D7000428F758B648BE0917609F09177093097EB
:101D800059F0BC016252764F8052964F1995F80176
:101D9000808D918D938B828B8C818F778C83DF915B
:101DA000CF911F910F910C945B2080E0DF91CF9138
:101DB0001F910F910895FC01818D928D009709F07C
:101DC000A4CF08958F929F92AF92BF92CF92DF924D
:101DD000EF92FF920F931F93CF93DF93EC018D81CE
:101DE000811102C080E077C00B891C892D893E8952
:101DF0000417150726073707A8F36A017B0182300D
:101E000029F4CA86DB86EC86FD860DC0C114D10498
:101E1000E104F10451F41E821F82188619861A8685
:101E20001B861C861D8681E056C08A849B84AC84F8
:101E3000BD84EB8DFC8D258530E0275F3F4FB501DC
:101E4000A4014150510961097109022E04C076951F
:101E50006795579547950A94D2F7D701C601019720
:101E6000A109B10904C0B695A795979587952A95BC
:101E7000D2F784179507A607B70720F089288A2884
:101E80008B2849F44F89588D698D7A8D4E835F83F5
:101E90006887798704C0841B950BA60BB70B4C0190
:101EA0005D018E010A5F1F4F81149104A104B104EA
:101EB00009F4A7CF4E815F816885798598018B8D64
:101EC0009C8D0E947D2191E0891A9108A108B1089A
:101ED0008111EACF87CFDF91CF911F910F91FF90B2
:101EE000EF90DF90CF90BF90AF909F908F9008952C
:101EF000CF93DF93EC0109DF882311F01D8281E08D
:101F0000DF91CF9108953F924F925F926F927F92AF
:101F10008F929F92AF92BF92CF92DF92EF92FF92F9
:101F20000F931F93CF93DF93CDB7DEB72C970FB6E8
:101F3000F894DEBF0FBECDBF5C01DC015B968D90D7
:101F40009C905C971696CD90DD90ED90FC90199743
:101F5000C114D104E104F10439F0BFEFCB1ADB0A5C
:101F6000EB0AFB0A312C07C0F401C080D180E2806B
:101F7000F38033243394F40181859285A385B4855D
:101F80009C01AD012F5F3F4F4F4F5F4F29873A872D
:101F90004B875C87260137011D821E821F821886AF
:101FA000F40181859285A385B4852D813E814F8181
:101FB0005885281739074A075B0708F063C08985E9
:101FC0009A85AB85BC858C159D05AE05BF0550F483
:101FD00082E0C82ED12CE12CF12C92E0492E512C1C
:101FE000612C712C9E012F5F3F4FB701A601C401E8
:101FF0000E947D21882309F445C089819A81AB81A3
:10200000BC81892B8A2B8B2B41F0260137019FEF56
:10201000491A590A690A790A05C0C414D504E604A4
:10202000F70491F02D813E814F8158852F5F3F4FFE
:102030004F4F5F4F2D833E834F8358873FEFC31A27
:10204000D30AE30AF30AACCF0FEF1FEF2FEF3FE005
:10205000B301A201C4010E94DE20882399F0D501BA
:1020600016964D915D916D917C9119974115510591
:102070006105710549F093018201C4010E94DE20CF
:10208000811102C080E02AC0D50116964D925D9262
:102090006D927C921997332051F0D301C2010196C1
:1020A000A11DB11DF40180839183A283B383F50147
:1020B0008789908DA18DB28D892B8A2B8B2B69F40A
:1020C000D50157964D925D926D927C925A971496D7
:1020D0008C911497806814968C9381E02C960FB69F
:1020E000F894DEBF0FBECDBFDF91CF911F910F914E
:1020F000FF90EF90DF90CF90BF90AF909F908F9028
:102100007F906F905F904F903F9008958FB7F894B5
:102110008091C7098FBF089561E0FC0184810E940E
:10212000DF1E8091C60981111092C60908958EBDE7
:1021300000000DB407FEFDCF8EB508958FEFF7CFE9
:102140000F931F93CF93DF93EB010E94821F8B01AC
:10215000F5DF8F3F49F00E94821F601B710B6C17E7
:102160007D07B0F380E001C081E0DF91CF911F9146
:102170000F910895CF93DF93EC018E81882379F03E
:102180008F8198859C012F5F3F4F38872F83823046
:10219000924010F4D3DFF4CFCE01BEDF1E82DF9178
:1021A000CF9108958CBD9DBD0895CF93DF93EC0131
:1021B0008091C609811108C081E08093C609809191
:1021C000560E9091570EEEDF60E08C81DF91CF913B
:1021D0000C94DF1ECF92DF92FF920F931F93CF9349
:1021E000DF9300D01F92CDB7DEB76C01F62E2983A6
:1021F0003A834B835C83BEDFC601D7DF6CE271E0BC
:10220000C6019EDF8F2D806492DF08E110E05C81C3
:102210004B813A812981DA01C901002E04C0B695AB
:10222000A795979587950A94D2F729833A834B838C
:102230005C837DDF0850110929813A814B815C81E3
:10224000083F8FEF180739F7FF2029F0E8E0FE126A
:1022500004C087E803C085E901C08FEF68DF10E0A4
:102260006DDFF601828787FF04C01F3F11F01F5FFB
:10227000F7CF0F900F900F900F90DF91CF911F919C
:102280000F91FF90DF90CF900895AF92BF92CF92C1
:10229000DF92EF92FF920F931F93CF93DF93EC01A6
:1022A0006901C801820F931F8130924008F06AC013
:1022B0008E81882371F088819981AA81BB8148171A
:1022C00059076A077B0729F48F819885C816D906B4
:1022D00098F5488359836A837B838B85833039F0F3
:1022E00089E0440F551F661F771F8A95D1F79A0121
:1022F000AB0161E1CE016EDF882319F083E08D83AD
:1023000041C00E94821F5B0119DF8A878F3F49F419
:102310000E94821F6A197B096D327140A8F38FE019
:1023200003C08E3F29F08DE08D83CE01F5DE2AC0FB
:1023300018861F8281E08E838F8198858C159D057C
:1023400038F4FCDE8F819885019698878F83F4CFCF
:102350006701E00EF11ECE14DF0429F0EFDEF60176
:1023600081936F01F8CF8F819885080F191F188707
:102370000F838985882319F00115124038F0CE01AA
:10238000F9DE04C0CE01C8DE80E001C081E0DF914B
:10239000CF911F910F91FF90EF90DF90CF90BF9062
:1023A000AF9008952F923F924F925F926F927F92DB
:1023B0008F929F92AF92BF92CF92DF92EF92FF9255
:1023C0000F931F93CF93DF93EC016B014A018D8133
:1023D000811103C08FEF9FEFD6C08C8180FFFACFB1
:1023E0004B885C886D887E884A855B856C857D8599
:1023F000C401A0E0B0E093018201041B150B260B81
:10240000370B081719072A073B0718F44201841AEB
:10241000950A54011E0126E0220E311CA114B104BC
:1024200009F47EC04A855B856C857D852A0181E043
:102430005822ED818A019B0189E0369527951795F1
:1024400007958A95D1F78B8D9C8DE23061F4FC0164
:10245000828D938DA48DB58DBC01CD01600F711F50
:10246000821F931F3FC0FC0174807A947022411434
:102470005104C9F4711017C0452B462B472B49F462
:102480008F89988DA98DBA8D8E839F83A887B987F0
:102490000AC04E815F816885798591010E947D2106
:1024A000882309F497CFEB8DFC8D8E819F81A885C1
:1024B000B9850297A109B109058404C0880F991F45
:1024C000AA1FBB1F0A94D2F7468557856089718978
:1024D000840F951FA61FB71FBC01CD01670D711D8D
:1024E000811D911D20E032E02419350935012A159E
:1024F0003B0508F439012C8126FD04C06114F2E08B
:102500007F0681F4009112021091130220911402AF
:10251000309115026017710782079307B1F402C06A
:10252000C40131C040E00E949620882309F452CFB4
:10253000F201E853F64FD601CF01860D971DE8173B
:10254000F90781F021912D93FACF76018301920151
:10255000AB01BC018091C80B9091C90B96DE88231A
:1025600009F438CFC60CD71C8A859B85AC85BD8500
:10257000860D971DA11DB11D8A879B87AC87BD87DE
:10258000A618B7084BCFDF91CF911F910F91FF9005
:10259000EF90DF90CF90BF90AF909F908F907F9003
:1025A0006F905F904F903F902F900895CF93DF935F
:1025B0001F92CDB7DEB741E050E0BE016F5F7F4FA5
:1025C000F1DE019719F4898190E002C08FEF9FEF4F
:1025D0000F90DF91CF9108954F925F926F927F920B
:1025E0009F92AF92BF92CF92DF92EF92FF920F93A2
:1025F0001F93CF93DF93CDB7DEB72B970FB6F89429
:10260000DEBF0FBECDBF7C01DC011596AC90A110E2
:1026100094C1FE0131966F0190E28BE08E0F919391
:102620008E13FDCFDA0130E087E09D91992339F1D7
:102630009E3219F0EFEEF4E00AC08A3009F47EC150
:1026400038E08AE0F2CF3196491709F477C1449116
:102650004111F9CF831708F471C14FED490F4E3581
:1026600008F06CC141E0430FF601E30FF11D3FE9B3
:10267000390F3A3108F490529083342FD6CF8981A4
:10268000803209F45BC1B22E8B01DB015B968D9128
:102690009C915C97F701948F838F16961D921D92E3
:1026A0001D921C921997FB011286138614861586BB
:1026B000712CF80182859385A485B5854389548959
:1026C0006589768984179507A607B70708F060C063
:1026D00025E0B695A795979587952A95D1F7F82F78
:1026E000FF709F2ED80115968C91823008F426C178
:1026F000C8015CDF97FD22C1F80182859385A4851E
:10270000B5854F96A11DB11D82879387A487B58794
:10271000F0E29F9EC0011124BC016853764F611501
:10272000710509F40BC1DB012C91222319F0253E20
:10273000C1F427C071100EC0F701928A40911202B5
:1027400050911302609114027091150246875787C9
:10275000608B718BFC01E853F64F8081811113C0AF
:1027600015C04BE050E0C6010E948F47892B09F04D
:10277000A0CF8B2D8073803309F4E0C04B2D692DE1
:10278000D8C07720C9F27724739493CF77247394B9
:102790008B2D8271823109F0D1C07720D1F0D70121
:1027A0001E966D917D918D919C91519741E00E9473
:1027B0009620882309F4C2C0F7010289F0E20F9F36
:1027C000800111240853164F0115110509F078C036
:1027D000B5C0D80115968C91823009F4AFC0C801FC
:1027E00092DB882309F4AAC0D8015B96ED91FC9195
:1027F0005C9716964D905D906D907C901997B2E025
:102800004B1A510861087108058404C0440C551C1A
:10281000661C771C0A94D2F786859785A089B189B2
:10282000480E591E6A1E7B1E9480E1E04E1A510824
:1028300061087108992009F10E945B20882309F43E
:102840007DC0E8ECF9E011922BE0E83CF207D9F703
:10285000D301C201890D911DA11DB11D80931202EA
:1028600090931302A0931402B09315028091380F35
:1028700081608093380F9A94DDCFD8015B96ED91FB
:10288000FC915C9780E092E0A0E0B0E0058404C099
:10289000880F991FAA1FBB1F0A94D2F7F80143891A
:1028A000548965897689840F951FA61FB71F838B6E
:1028B000948BA58BB68BD70152961C9208EC19E02D
:1028C00080E2F80111928A95E9F78BE0F601D801D0
:1028D00001900D928A95E1F7E0917609F0917709E0
:1028E000309739F0B801625F7F4FC8014096199563
:1028F0000DC081E298E2D80151969C938E93509737
:1029000080E098E01F969C938E931E97F801808933
:102910009189938B828B918F808F86859785978BFA
:10292000868B0E945B20882349F04B2DD70152965D
:102930006C91C7015DD9A82E01C0A12C8A2D2B96C0
:102940000FB6F894DEBF0FBECDBFDF91CF911F91C0
:102950000F91FF90EF90DF90CF90BF90AF909F903E
:102960007F906F905F904F900895CF93DF93CDB796
:10297000DEB76D970FB6F894DEBF0FBECDBF442310
:1029800099F1AB01BC011C821B8285E492E09A8321
:1029900089831E8222E0CE0101961EDE811102C0D3
:1029A00090E01DC0CE010196FCD28823C9F36F854B
:1029B000788989899A8941E00E949620882381F349
:1029C000EB8980E2E89FF0011124E853F64F30973D
:1029D00039F385EE80831E820E945B20982F81E070
:1029E000911103C080E001C081E06D960FB6F894AC
:1029F000DEBF0FBECDBFDF91CF9108951F93CF9360
:102A0000DF93CDB7DEB76D970FB6F894DEBF0FBE7C
:102A1000CDBFAB011C821B8225E432E03A832983BF
:102A20001E8221E0BC01CE010196D6DD11E08111AC
:102A300002C010E003C0CE0101965ADA812F6D96D4
:102A40000FB6F894DEBF0FBECDBFDF91CF911F91BF
:102A50000895FC01818D928D009709F0A7CD8FEF2D
:102A60009FEF08950F931F93CF93DF93FC01818D08
:102A7000928D0097A9F0EF0199DD8C010F3F8FEF48
:102A8000180789F0898D9A8DFC01428553856485EC
:102A90007585415051096109710994D9C80105C072
:102AA00080E090E002C08FEF9FEFDF91CF911F9108
:102AB0000F910895EF92FF920F931F93CF93DF939F
:102AC000EC017901411551056105710511F482E1AF
:102AD00034C08B85833039F089E0440F551F661F61
:102AE000771F8A95D1F79A01AB0168E1CE0172DBBD
:102AF000882311F084E021C08EEF19DB87018EEF6F
:102B0000F81AF80181918F0112DB0E151F05C9F724
:102B10008FEF0DDB8FEF0BDB11DB8A878F71853039
:102B200029F081E18D83CE01F7DA08C068E572E013
:102B3000CE0106DB811106C085E18D83CE01ECDA82
:102B400080E010C020E030E0A9016DE0CE0142DB62
:102B5000811103C0F3DA882311F084E1EECFCE01B6
:102B6000DBDA81E0DF91CF911F910F91FF90EF9021
:102B70000895DC015996ED91FC915A97309759F0E0
:102B80008581823040F01682178210861186128667
:102B90001386148615860895FC01DB0112968D912B
:102BA0009C9113979383828385E492E09183808341
:102BB00014968C911497848315968C911597858320
:102BC00016964D915D916D917C911997468357832F
:102BD000608771871A964D915D916D917C911D97DB
:102BE00042875387648775871E964D915D916D91DD
:102BF0007C91519746875787608B718B52968C9149
:102C00005297828B53964D915D916D917C91569721
:102C1000438B548B658B768B57964D915D916D915F
:102C20007C915A97478B508F618F728F5B968D91F5
:102C30009C915C97948F838F0895FC01138212827C
:102C400088EE93E0A0E0B0E084839583A683B78309
:102C500081E292E091838083128E118E1486089512
:102C6000EF92FF920F931F93CF93DF93EC017B01C1
:102C70008A011B821A8288EE93E0A0E0B0E08C8388
:102C80009D83AE83BF8381E292E0998388838DE147
:102C900090E00E94B13E9A8F898F009779F02DE1E4
:102CA000F701DC0101900D922A95E1F74CE050E02C
:102CB000B801CE010C960E94C047188EDF91CF91CB
:102CC0001F910F91FF90EF9008950F931F930E9413
:102CD000821F6093DC0C7093DD0C8093DE0C90936C
:102CE000DF0CE091D40CF091D50C0284F385E02D3B
:102CF00084ED9CE0199597FF1FC00E94821F0091F0
:102D0000DC0C1091DD0C2091DE0C3091DF0CDC012D
:102D1000CB01801B910BA20BB30B0091D80C10912F
:102D2000D90C2091DA0C3091DB0C80179107A207A7
:102D3000B307B8F28FEF9FEF1F910F910895909115
:102D4000140C9111FCCF613208F060E291E0909395
:102D5000140C9093130C2FEF2093120C1092110C63
:102D6000260F2093100C90930F0C90910F0C880F4E
:102D7000892B80930F0C80910E0C813061F410929E
:102D80000E0C80910F0C8093BB008091BC0083FDE2
:102D9000F8CF85EC01C085EE8093BC008091140CC7
:102DA0008130E1F38091110C861710F46091110CC1
:102DB000AEEEBBE027E13CE0F9018E2F821B8617C7
:102DC00018F48D918193F9CF1092160C6093150C25
:102DD000862F08952091ED0B9091EC0B213208F095
:102DE0004AC08091140C8111FCCF32E03093140C56
:102DF00031E03093130C3FEF3093120C1092110C12
:102E00002093100CACECBBE04EEE5BE0FA013E2FE1
:102E1000341B321718F43D913193F9CF10920F0CF7
:102E200020910F0C990F922B90930F0C90910E0CF8
:102E3000913061F410920E0C90910F0C9093BB00A6
:102E40009091BC0093FDF8CF95EC01C095EE909366
:102E5000BC009091140C9230E1F39091120C9F3FC2
:102E600079F08091120C803241F08091120C803305
:102E700031F084E005C081E003C082E001C083E05E
:102E80001092CB0B1092ED0B1092CA0B0895CF92BB
:102E9000DF92EF92FF920F931F93CF93DF93EC019A
:102EA0006A017B01E889F98982E080834115514EEE
:102EB00061057105B1F060E079E08DE390E0A70174
:102EC00096010E941F4489019A01015011092109AC
:102ED00031093695279517950795980101151041E9
:102EE000A8F0E889F989108260E874E88EE190E042
:102EF000A70196010E941F44DA01C9010197A109A7
:102F0000B109B695A795979587959C01EC85FD85A8
:102F10003083EE85FF852083188EEC89FD8986E05D
:102F20008083EA89FB89808180618083EA89FB89CB
:102F3000808188608083EA89FB89808180688083C2
:102F4000EA89FB8980818F7D8083DF91CF911F91FA
:102F50000F91FF90EF90DF90CF9008950F931F9304
:102F6000CF93DF931F921F92CDB7DEB78C016EE82F
:102F700072E00E94F72AA9DE97FD0BC089831A82AE
:102F800041E050E0BE016F5F7F4FC8010E94AF2952
:102F9000F2CFC8010F900F90DF91CF911F910F9149
:102FA00008958F929F92AF92BF92CF92DF92EF924D
:102FB000FF920F931F93CF93DF9300D01F92CDB753
:102FC000DEB7FC018581813079F5948191FF2CC0B9
:102FD0004389548965897689452B462B472B09F40B
:102FE0005CC07F0140E050E0BA01CF010E94E20ED8
:102FF0008823D1F0F7018788908CA18CB28CC38C88
:10300000D48C82E090E0A0E0B0E0F6018083918370
:10301000A283B3839E012F5F3F4FB501A401C60178
:103020000E947D21811102C080E037C000E010E0E5
:103030009801B501A401C6010E94DE208823A1F3F6
:1030400089809A80AB80BC80F6018789803129F025
:1030500088EF9FEFAFEFBFE004C088EF9FEFA0E0E5
:10306000B0E088169906AA06BB06A0F2F701178AF7
:10307000108E118E128E138A148A158A168A8481F4
:1030800080688483C7010E94850E882369F240E02E
:1030900050E0BA01C7010E94E20E0F900F900F900E
:1030A0000F90DF91CF911F910F91FF90EF90DF90E4
:1030B000CF90BF90AF909F908F900895CF93DF9364
:1030C000FC012581222311F080E049C0EC018091B0
:1030D0007B0E8031C1F482E08583178A108E118EB9
:1030E000128E80917C0E90917D0EA0E0B0E025E0E4
:1030F000880F991FAA1FBB1F2A95D1F7838B948B2A
:10310000A58BB68B19C08032F9F683E08583409198
:103110007E0E50917F0E6091800E7091810E478BD4
:10312000508F618F728F9F012D5E3F4F84E69EE02E
:103130000E940022882341F284E69EE09C8F8B8FC0
:1031400081E08C831E821F82188619861A861B8650
:103150001C861D861E861F86188A198A1A8ADF9188
:10316000CF9108952F923F924F925F926F927F92EC
:103170008F929F92AF92BF92CF92DF92EF92FF9287
:103180000F931F93CF93DF93CDB7DEB7C756D10907
:103190000FB6F894DEBF0FBECDBF3C015B01A69613
:1031A0004FAFA69719A218A285E492E09F8F8E8F49
:1031B0001BA21C821B829A8389831E824E018EE190
:1031C000880E911CC4017ADF7501FE0131966F01F2
:1031D00024011F016FE270E0C7010E94A54700971C
:1031E000E9F1F70120812F3221F4FFEFEF1AFF0AF6
:1031F000F1CF8E198D3008F08CE0082F10E0A80177
:10320000B701CE01885A9F4F0E94C047E8E5F0E021
:10321000EC0FFD1FE00FF11F1082C6010E94780F16
:1032200021E0AE01485A5F4FB201C601D5D98111E4
:103230000AC01EAE1DAE85E492E09CAF8BAF219616
:103240001FAE219716C0E00EF11EC2010E94780F3A
:10325000942D852D2601C92ED82EBCCFC7018A19E1
:103260009B09A8969FAF8EAFA897B201CE01CB96CF
:1032700093DCA896EEADFFADA897AE0EBF1EF5018C
:103280008081811108C0BE01655C7F4FC10184DC73
:1032900042EC55E02FC019A218A285E492E09F8F5E
:1032A0008E8F1BA221968FAD2197811103C0C30180
:1032B000C4DC23C0A6962FADA697A501BE01655C10
:1032C0007F4FC40189D9882391F3CE01CB960E9408
:1032D000780FA6968FADA6978670863039F449A9E7
:1032E0005AA96BA97CA9C4010E94E20EB401C101D4
:1032F00053DCA501B101C301B3DCC301C959DF4FE0
:103300000FB6F894DEBF0FBECDBFDF91CF911F91F6
:103310000F91FF90EF90DF90CF90BF90AF909F9074
:103320008F907F906F905F904F903F902F90089577
:103330000F931F93CF93DF9341155105E9F061156A
:103340007105D1F0FC01248135812115310519F475
:10335000FB01108211C0EA0121972C173D0708F4E8
:10336000E9018B01FC0160817181AE01C8010E94FD
:10337000C047C00FD11F1882DF91CF911F910F91CD
:1033800008956F927F928F929F92AF92BF92CF9249
:10339000DF92EF92FF920F931F93CF93DF93CDB7FE
:1033A000DEB7C754D1090FB6F894DEBF0FBECDBF4C
:1033B0006C015B0119A218A285E492E09F8F8E8FA9
:1033C0001BA21C821B829A8389831E82812C912CD2
:1033D0007E018EE1E80EF11C02E81EE07724739472
:1033E0009401F601E80DF91D80818F3211F42F5FF1
:1033F0003F4FFE01FB9680E090E0D601A20FB31F85
:103400004C914F3249F0442339F001962F5F3F4FE2
:1034100041938C30910589F7EBE3F0E0EC0FFD1F51
:10342000E80FF91F1082F601E20FF31F80818F323F
:1034300011F42F5F3F4F4901F601E20FF31F66249D
:1034400063948081811101C0612C20E030E0462D21
:103450004725BE01655C7F4FC801F50119958111B3
:1034600009C0FEE002381F0719F0C8010E94780F5A
:1034700080E028C06620B9F021E0AE01455C5F4FD6
:10348000B801C701A9D8682E8EE002381807A1F04C
:10349000C8010E94780F662059F3902F812F870171
:1034A000E92EF82E9DCFEEE002381E0719F0C80174
:1034B0000E94780F81E006C06620D1F28E010F5F76
:1034C0001F4FEBCFC95BDF4F0FB6F894DEBF0FBEC7
:1034D000CDBFDF91CF911F910F91FF90EF90DF90C3
:1034E000CF90BF90AF909F908F907F906F900895F6
:1034F000682F81EA9EE00C94A3241092160C10927F
:10350000150C1092CB0B1092ED0B1092140C81E065
:103510008093130C10920E0C61E084E150D461E0B2
:1035200085E14DD4E9EBF0E080818E7F808380815E
:103530008D7F808388E48093B80085E48093BC000D
:103540000895CF93DF93BC018DEE9EE00E94D02BB7
:10355000EC018DEE9EE00E94972B8C0F9D1FDF915A
:10356000CF9108958F929F92AF92BF92CF92DF92A8
:10357000EF92FF92CF93DF93C82F88E59EE0909360
:10358000C90B8093C80BCC2361F1C53010F080E0EB
:103590000BC140E060E070E0CB01C8D58823B9F3EF
:1035A00020E1C29FC00111248854964FFC01E254CF
:1035B000FE4F20812F7759F73C96408151816281DF
:1035C0007381443651056105710508F33497C08055
:1035D000D180E280F380C114D104E104F10421F42C
:1035E000D6CFC12CD12C760140E0C701B6019ED5C3
:1035F000882369F28091D3099091D4098115924072
:1036000031F6A091D809AA2309F4C1CF6091D60957
:103610007091D7096115710509F4B9CF2091D509C9
:10362000222309F4B4CFA093760E2093680E80E095
:1036300030E0E1E0F0E0C82FAF01082E02C0440FF7
:10364000551F0A94E2F72417350741F0982F8F5F32
:10365000983089F789E08093710E99CF8093710E2D
:103660002091DE093091DF092115310519F040E084
:1036700050E008C02091EC093091ED094091EE092D
:103680005091EF092093690E30936A0E40936B0EB0
:1036900050936C0E46015701860E971EA11CB11C5B
:1036A0008092770E9092780EA092790EB0927A0E58
:1036B000E091D909F091DA09F0937D0EE0937C0E48
:1036C000B0E00E944144860E971EA81EB91E80924B
:1036D0007E0E90927F0EA092800EB092810E85E0B9
:1036E000EE0FFF1F8A95E1F7E150FE4FEF2FFF2706
:1036F000E6958E0E9F1EA11CB11C8092720E9092B8
:10370000730EA092740EB092750E2091DB09309169
:10371000DC092115310521F0A90160E070E008C045
:103720004091E8095091E9096091EA097091EB092B
:10373000D701C60188199909AA09BB09840F951FE9
:10374000A61FB71F04C0B695A79597958795CA95EC
:10375000D2F780936D0E90936E0EA0936F0EB09380
:10376000700E853F2FE09207A105B10510F48CE0A3
:1037700018C0853F9F4FA105B10510F480E111C02D
:103780008091F4099091F509A091F609B091F7099B
:1037900080937E0E90937F0EA093800EB093810E47
:1037A00080E280937B0E81E0DF91CF91FF90EF90DC
:1037B000DF90CF90BF90AF909F908F9008951F9310
:1037C000CF93DF93EB019091E50E21E02093CA0B9C
:1037D0009093EC0B1092CB0B1092ED0B8F708068D6
:1037E00090E086DEF7DA8093E60E882311F080E021
:1037F00020C08091E50E62E070E0082E000C990B6D
:103800009EDA8091150C90E02091160C821B910994
:10381000029769F781EA9EE00E945824182F81EAF6
:103820009EE00E945824982F8827812B99838883B3
:1038300081E0DF91CF911F910895FC01A089B189AA
:103840008C91A689B78982FD0FC09C91818D8F5F75
:103850008F73228D821749F0218DDF01A20FB11DD8
:103860005D969C93818F08958C910895FC01538DF2
:10387000448D252F30E0842F90E0821B930B54174A
:1038800010F0CF96089501970895FC01918D828DD7
:10389000981761F0828DDF01A80FB11D5D968C91A4
:1038A000928D9F5F9F73928F90E008958FEF9FEFAF
:1038B0000895FC01918D828D981731F0828DE80F6B
:1038C000F11D858D90E008958FEF9FEF0895FC0125
:1038D000918D228D892F90E0805C9F4F821B9109F2
:1038E0008F739927089587E39CE0F1DF21E0892B0E
:1038F00009F420E0822F089584ED9CE0E8DF21E0C8
:10390000892B09F420E0822F089581E79DE0DFDF15
:1039100021E0892B09F420E0822F0895FC01848D99
:10392000DF01A80FB11DA35ABF4F2C91848D90E0E9
:1039300001968F739927848FA689B7892C93A089C4
:10394000B1898C9180648C93938D848D981306C07B
:103950000288F389E02D80818F7D80830895EF9226
:10396000FF920F931F93CF93DF93EC0181E0888F39
:103970009B8D8C8D981305C0E889F989808185FD20
:1039800023C0F62E0B8D10E00F5F1F4F0F73112712
:10399000E02E8C8DE8120BC00FB607FCFACFE88939
:1039A000F989808185FFF5CFCE01B8DFF2CF8B8D0D
:1039B000FE01E80FF11DE35AFF4FF0820B8FEA89F9
:1039C000FB898081806207C0EE89FF896083E88976
:1039D000F98980818064808381E090E0DF91CF91DC
:1039E0001F910F91FF90EF900895CF93DF93EC011B
:1039F000888D8823C1F0EA89FB89808185FD05C017
:103A0000A889B9898C9186FD0EC00FB607FCF5CF49
:103A1000808185FFF2CFA889B9898C9185FFEDCF90
:103A2000CE017CDFE8CFDF91CF91089580E090E078
:103A3000892B19F06ADF81111BC080E090E0892B8F
:103A400019F05ADF811117C080E090E0892B41F016
:103A500080E090E0892B21F00E94000081110EC0CF
:103A600080E090E0892B79F03EDF81110AC0089553
:103A70000E940000E2CF0E940000E6CF0E940000FA
:103A8000EFCF0C940000089590E0FC013197E231F3
:103A9000F10508F04EC08827E558FF4F8F4F0C9472
:103AA0009C46809180008F7703C0809180008F7D3D
:103AB00080938000089580918000877FF9CF84B53E
:103AC0008F7702C084B58F7D84BD08958091B0004A
:103AD0008F7703C08091B0008F7D8093B0000895F0
:103AE000809190008F7707C0809190008F7D03C0F8
:103AF00080919000877F8093900008958091A0002E
:103B00008F7707C08091A0008F7D03C08091A000B7
:103B1000877F8093A0000895809120018F7707C050
:103B2000809120018F7D03C080912001877F809349
:103B3000200108953FB7F8948091420F9091430F70
:103B4000A091440FB091450F26B5A89B05C02F3F0B
:103B500019F00196A11DB11D3FBFBA2FA92F982FB3
:103B60008827820F911DA11DB11DBC01CD0142E02E
:103B7000660F771F881F991F4A95D1F708950E94F5
:103B80008B471F920F920FB60F9211240BB60F9214
:103B90002F933F934F935F936F937F938F939F9355
:103BA000AF93BF93EF93FF9387E39CE0B7DEFF9162
:103BB000EF91BF91AF919F918F917F916F915F91A5
:103BC0004F913F912F910F900BBE0F900FBE0F9012
:103BD0001F9018951F920F920FB60F9211240BB6DB
:103BE0000F922F933F934F935F936F937F938F9396
:103BF0009F93AF93BF93EF93FF9387E39CE01DDE0A
:103C0000FF91EF91BF91AF919F918F917F916F91B4
:103C10005F914F913F912F910F900BBE0F900FBE70
:103C20000F901F9018951F920F920FB60F921124AC
:103C30000BB60F922F933F934F935F936F937F93A6
:103C40008F939F93AF93BF93EF93FF9384ED9CE08B
:103C500065DEFF91EF91BF91AF919F918F917F9121
:103C60006F915F914F913F912F910F900BBE0F90ED
:103C70000FBE0F901F9018951F920F920FB60F92C4
:103C800011240BB60F922F933F934F935F936F9333
:103C90007F938F939F93AF93BF93EF93FF9384EDA5
:103CA0009CE0CBDDFF91EF91BF91AF919F918F9100
:103CB0007F916F915F914F913F912F910F900BBE2C
:103CC0000F900FBE0F901F9018951F920F920FB676
:103CD0000F9211240BB60F922F933F934F935F9344
:103CE0006F937F938F939F93AF93BF93EF93FF93C4
:103CF00081E79DE013DEFF91EF91BF91AF919F911E
:103D00008F917F916F915F914F913F912F910F9084
:103D10000BBE0F900FBE0F901F9018951F920F9221
:103D20000FB60F9211240BB60F922F933F934F9320
:103D30005F936F937F938F939F93AF93BF93EF9313
:103D4000FF9381E79DE079DDFF91EF91BF91AF9106
:103D50009F918F917F916F915F914F913F912F91A3
:103D60000F900BBE0F900FBE0F901F901895CF9322
:103D7000DF93282F30E0F901E15CFA4F8491F901DB
:103D8000E055FD4FD491F901EA50FD4FC491CC2389
:103D900089F0811179DEEC2FF0E0EE0FFF1FEB5D73
:103DA000FA4FA591B491EC91ED2381E090E021F4DC
:103DB00080E002C080E090E0DF91CF9108951F93F2
:103DC000CF93DF93282F30E0F901E15CFA4F849123
:103DD000F901E055FD4FD491F901EA50FD4FC4912E
:103DE000CC23C1F0162F81114FDEEC2FF0E0EE0F47
:103DF000FF1FE55FFA4FA591B4918FB7F8941111A9
:103E000005C09C91ED2FE095E92302C0EC91ED2BCC
:103E1000EC938FBFDF91CF911F910895CF93DF93E4
:103E200090E0FC01E055FD4F2491FC01EA50FD4F6C
:103E30008491882361F190E0880F991FFC01EA5674
:103E4000FD4FC591D491FC01E55FFA4FA591B49166
:103E5000611109C09FB7F8948881209582238883D7
:103E6000EC912E230BC0623061F49FB7F894388137
:103E7000822F809583238883EC912E2B2C939FBFD8
:103E800006C08FB7F894E8812E2B28838FBFDF916F
:103E9000CF9108958F929F92AF92BF92CF92DF926F
:103EA000EF92FF926B017C0145DE4B015C01C11476
:103EB000D104E104F104E9F03DDEDC01CB01881915
:103EC0009909AA09BB09883E9340A105B10578F379
:103ED00021E0C21AD108E108F10888EE880E83E0DB
:103EE000981EA11CB11CC114D104E104F10421F7F6
:103EF000DECFFF90EF90DF90CF90BF90AF909F907C
:103F00008F9008952FB7F89460913E0F70913F0FF6
:103F10008091400F9091410F2FBF08951F920F92F3
:103F20000FB60F9211242F933F938F939F93AF93CC
:103F3000BF9380913E0F90913F0FA091400FB091A1
:103F4000410F30913D0F23E0230F2D3720F40196D0
:103F5000A11DB11D05C026E8230F0296A11DB11DAC
:103F600020933D0F80933E0F90933F0FA093400FFF
:103F7000B093410F8091420F9091430FA091440F55
:103F8000B091450F0196A11DB11D8093420F9093F2
:103F9000430FA093440FB093450FBF91AF919F91F2
:103FA0008F913F912F910F900FBE0F901F901895FA
:103FB000CF92DF92EF92FF920F931F93CF93DF93F5
:103FC000EC0181E08093CA0B88E68093EC0B1092A1
:103FD000CB0B1092ED0B60E081EA9EE0B4D40E941E
:103FE000EA1667E070E088E690E00E949F1681EA9A
:103FF0009EE05ED48F77982F92959F701AEF082FCE
:10400000919F000D112481EA9EE052D49C01332738
:1040100094E0359527959A95E1F7F82E129FF00CCC
:10402000112481EA9EE044D49C01332744E0359575
:1040300027954A95E1F7E82E129FE00C112481EABA
:104040009EE036D481EA9EE033D49C01332754E0CD
:10405000359527955A95E1F7D82E129FD00C11244B
:1040600081EA9EE025D49C01332764E035952795AD
:104070006A95E1F7C82E129FC00C112481EA9EE0D8
:1040800017D49C01332774E0359527957A95E1F78D
:10409000129F800D11248883C982DA82EB82FC8210
:1040A0000D83CE01DF91CF911F910F91FF90EF9083
:1040B000DF90CF9008958091380F8823A9F1409127
:1040C000120250911302609114027091150228ECB3
:1040D00039E08091C80B9091C90B0E945A1581114B
:1040E00002C080E008954091390F50913A0F6091DD
:1040F0003B0F70913C0F411551056105710591F021
:1041000028EC39E08091C80B9091C90B0E945A1598
:10411000882339F31092390F10923A0F10923B0F07
:1041200010923C0F1092380F81E008958F929F9269
:10413000AF92BF92EF92FF920F931F93CF934B01D9
:104140005C01C42F8091120290911302A09114027D
:10415000B091150288159905AA05BB05F9F0ABDFEA
:10416000811102C080E020C088ECE82E89E0F82EA2
:1041700000E012E020E030E0B501A4018091C80B1E
:104180009091C90B0E944511882361F3809212021D
:1041900090921302A0921402B09215028091380FEF
:1041A000C82BC093380F81E0CF911F910F91FF90E2
:1041B000EF90BF90AF909F908F9008954F925F9235
:1041C0006F927F928F929F92AF92BF92CF92DF9227
:1041D000EF92FF920F931F93CF93DF93EC016A014D
:1041E0007B0128013901423051056105710510F448
:1041F00080E072C089859A85AB85BC850196A11D3A
:10420000B11D84179507A607B70790F38B889C8884
:10421000AD88BE888F89803129F4BB27AF2D9E2DB4
:104220008D2D09C0DB01CA0147E0B695A79597958A
:1042300087954A95D1F7880E991EAA1EBB1E8091BC
:10424000120290911302A0911402B09115028816E7
:104250009906AA06BB0679F48F89803199F4DD248A
:10426000EE24FF24C601880F991FFC01E853F64F86
:104270005182408218C040E0C501B40157DF81116E
:10428000EBCFB6CFE894C7F8DD24EE24FF24C601B7
:10429000880F991F880F991FFC01E853F64F408241
:1042A0005182628273828091380F81608093380FCF
:1042B0008A89823080F08D819E81AF81B885880E99
:1042C000991EAA1EBB1E8092390F90923A0FA0929F
:1042D0003B0FB0923C0F81E0DF91CF911F910F9186
:1042E000FF90EF90DF90CF90BF90AF909F908F9016
:1042F0007F906F905F904F9008958F929F92AF92B2
:10430000BF92CF92DF92EF92FF920F931F93CF93C2
:10431000DF93FC0181859285A385B4850196A11D5B
:10432000B11D84179507A607B70710F480E05BC09E
:1043300083899489A589B689C789C03129F4852ED6
:10434000962EA72EBB2409C04A015B01C7E0B69494
:10435000A79497948794CA95D1F7E9016A017B01E4
:104360008F01BC01CD01680D791D8A1D9B1D8090B8
:10437000120290901302A0901402B09015026815DA
:1043800079058A059B0599F4F80187898031A1F4A4
:10439000B701A601552766277727440F551FFA0155
:1043A000E853F64F80819181A0E0B0E017C040E073
:1043B000BDDE8111E9CFBACFB701A6014F775527EE
:1043C00066277727440F551F440F551FFA01E853FE
:1043D000F64F80819181A281B381BF7088839983D8
:1043E000AA83BB8381E0DF91CF911F910F91FF9052
:1043F000EF90DF90CF90BF90AF909F908F900895F7
:104400004F925F926F927F92AF92BF92CF92DF9264
:10441000EF92FF920F931F93CF93DF9300D01F92E1
:10442000CDB7DEB78C0149835A836B837C835901F6
:10443000C12CD12C7601412C82E0582E612C712C9C
:1044400049815A816B817C819E012F5F3F4FC8015A
:1044500054DF882351F1D301C201F801058404C05F
:10446000880F991FAA1FBB1F0A94D2F7C80ED91E26
:10447000EA1EFB1E49815A816B817C8187898031CC
:1044800029F088EF9FEFAFEFBFE004C088EF9FEF08
:10449000A0E0B0E0481759076A077B0788F2F501EA
:1044A000C082D182E282F38281E00F900F900F9060
:1044B0000F90DF91CF911F910F91FF90EF90DF90C0
:1044C000CF90BF90AF907F906F905F904F90089586
:1044D0002F923F924F925F926F927F928F929F9214
:1044E000AF92BF92CF92DF92EF92FF920F931F9302
:1044F000CF93DF9300D01F92CDB7DEB78C016B0155
:104500003A01DC0115968C9115978130C9F4149607
:104510008C9181FF15C082FF1DC0F8014389548929
:104520006589768982859385A485B58584179507E5
:10453000A607B70779F0C8010E94E20E81110AC0F0
:1045400081E090E0D80113969C938E93129780E0BF
:1045500090E045C1430184C0D8015B968D919C9148
:104560005C97FC0154802FEF250D1A012B0139E0D7
:1045700056944794379427943A95D1F7522E522067
:104580007A01F1E0FF22552009F476C080E092E044
:104590008E199F0954018815990508F45C01D8010A
:1045A0005B962D913C915C9716968D919D910D9007
:1045B000BC91A02D0297A109B109F901058404C09D
:1045C000880F991FAA1FBB1F0A94D2F746855785EB
:1045D00060897189840F951FA61FB71F9C01AD01CB
:1045E000250D311D411D511D19012A01A11432E073
:1045F000B30609F087C08091120290911302A09136
:104600001402B091150282159305A405B50559F45D
:104610008FEF9FEFDC018093120290931302A0931F
:104620001402B09315029601B201A1018091C80B4A
:104630009091C90B0E945A15882309F481CF9EEFEF
:10464000D91A8A189B08F80182859385A485B585B7
:104650008A0D9B1DA11DB11D82879387A487B587F5
:10466000D8011A964D915D916D917C911D978114A1
:10467000910409F071CF84C0E114F10409F086CFF0
:1046800016964D915D916D917C911997411551054B
:104690006105710559F457968D919D910D90BC91CE
:1046A000A02D0097A105B10539F520C09E012F5F0F
:1046B0003F4F23DE882309F44BCF89819A81AB8158
:1046C000BC81F801238D348DF9012789203129F02F
:1046D00048EF5FEF6FEF7FE004C048EF5FEF60E00F
:1046E00070E084179507A607B70730F0C8010E944D
:1046F000830F81114BCF24CFF80186839783A08746
:10470000B18744CFE114F10421F5D8011A964D91F7
:104710005D916D917C911D9753968D919D910D901A
:10472000BC91A02D481759076A077B0790F0C3DC9E
:10473000882309F405CF209212023092130240928E
:104740001402509215028091380F81608093380FC7
:1047500007C041E0C201B101E9DC882309F4F0CED1
:10476000D601F701E853F64FCF018A0D9B1DE817DC
:10477000F90719F02D912193FACFCA0CDB1C61CFF8
:104780005396CD90DD90ED90FC90569714968C91B9
:10479000C416D506E606F70640F4F801438B548BA1
:1047A000658B768B806884830DC02091760930916B
:1047B0007709232B39F06114710421F08068D80146
:1047C00014968C93F801848183FD02C0C30107C055
:1047D000C8010E94850E882309F4B2CEF7CF0F904E
:1047E0000F900F900F90DF91CF911F910F91FF903D
:1047F000EF90DF90CF90BF90AF909F908F907F9081
:104800006F905F904F903F902F900895CF93DF93DC
:104810001F92CDB7DEB7698341E050E0BE016F5F04
:104820007F4F56DE0F90DF91CF91089585ED8093F5
:10483000BC008091BC0084FDFCCF1092140C089544
:104840004091680F262F30E0240F311D21323105B1
:10485000DCF42091140C2430C9F4FC0180E090E0D9
:10486000861758F43091680F2191DC01AA5BB04F94
:10487000A30FB11D2C930196F3CF8091680F680FA1
:104880006093680F80E0089581E0089582E00895C4
:104890000895E091160C8091150CE81730F4F0E0C3
:1048A000E95EF34F808190E008958FEF9FEF0895C8
:1048B0009091160C8091150C981750F4E92FF0E0A8
:1048C000E95EF34F208130E09F5F9093160C02C0A9
:1048D0002FEF3FEFC90108958091150C90E02091D2
:1048E000160C821B91090895CF92DF92EF92FF92EE
:1048F0000F931F93CF93DF937C01262F972F8A016D
:104900008091CA0B882391F0C62FD72F6E01C40E59
:10491000D51ECC15DD0569F06991D701ED91FC91AB
:104920000190F081E02DC7011995F3CF642F822FFC
:1049300087DFC801DF91CF911F910F91FF90EF901A
:10494000DF90CF900895CF93DF931F92CDB7DEB75E
:1049500069832091CA0B2223D1F02091ED0B2032E4
:1049600040F021E030E0FC013383228380E090E0DE
:1049700014C08091CB0BE82FF0E0E453F44F998101
:1049800090838F5F8093CB0B8093ED0B04C061E02D
:10499000CE01019655DF81E090E00F90DF91CF913D
:1049A00008951F920F920FB60F9211240BB60F921B
:1049B0002F933F934F935F936F937F938F939F9327
:1049C000AF93BF93EF93FF938091B900887F8036B8
:1049D00009F49CC068F5883209F45BC090F480311A
:1049E00009F454C038F4882309F4F6C0883009F477
:1049F0004DC0F5C0883109F44CC0803209F45DC067
:104A0000EEC0803409F468C048F4803309F455C01E
:104A1000883309F0E4C08093120CD8C0803509F4C3
:104A20004FC0883509F45DC0883409F0D8C0D6C0BD
:104A3000883909F4C7C0A8F4883709F467C038F486
:104A4000883609F463C0803709F460C0C8C088386C
:104A500009F4B8C0803909F45FC0803809F0BFC0DC
:104A60005BC0803B09F486C038F4803A09F466C024
:104A7000883A09F47FC0B3C0803C09F4A7C0883CE1
:104A800009F4A4C0883B09F48AC0A9C080910F0C26
:104A900010C09091110C8091100C981770F5E09156
:104AA000110C81E08E0F8093110CF0E0E251F44F75
:104AB00080818093BB0085EC86C08093120C8EC0F1
:104AC000E091110C81E08E0F8093110C8091BB005E
:104AD000F0E0E251F44F80839091110C8091100C22
:104AE0006EC0E091110C81E08E0F8093110C8091CB
:104AF000BB00F0E0E251F44F80838091130C8111F0
:104B00006DC081E080930E0C84EA61C083E08093E5
:104B1000140C10928C0FCFCF80918C0F803208F044
:104B200051C0E0918C0F81E08E0F80938C0F8091AB
:104B3000BB00F0E0E459F04F8083BDCF85EC80935B
:104B4000BC001092140C80918C0F803230F4E091F4
:104B50008C0FF0E0E459F04F108260918C0F70E000
:104B6000E0916A0FF0916B0F8CE69FE0199510921F
:104B70008C0F35C084E08093140C1092690F109252
:104B8000680FE091660FF091670F19958091680F9B
:104B9000811105C081E08093680F1092460FE0916B
:104BA000690F81E08E0F8093690FF0E0EA5BF04FB0
:104BB00080818093BB009091690F8091680F981756
:104BC00008F479CF85E88093BC0009C085EC809318
:104BD000BC001092140C03C01092120C27DEFF913F
:104BE000EF91BF91AF919F918F917F916F915F9165
:104BF0004F913F912F910F900BBE0F900FBE0F90D2
:104C00001F901895CF92DF92EF92FF920F931F9310
:104C1000CF93DF9300D000D0CDB7DEB76C0172D94F
:104C200000918009109181092091820930918309B6
:104C3000DC01CB01801B910BA20BB30B80369A4E8B
:104C4000A105B105A8F15ED960938009709381092F
:104C500080938209909383096EE677E0CE010196F6
:104C6000C6D4CE0101960E949803CE0101962FD49E
:104C70000D2C000CEE08FF08F7FE0DC06DE28DEE66
:104C80009EE068D544275527BA014C195D096E0985
:104C90007F092AE003C02AE0B701A6018DEE9EE05D
:104CA000FED48DEE9EE043D58DEE9EE00E94DB0E9D
:104CB00026960FB6F894DEBF0FBECDBFDF91CF9121
:104CC0001F910F91FF90EF90DF90CF9008950F9379
:104CD0001F93CF93DF93CDB7DEB76E970FB6F894DF
:104CE000DEBF0FBECDBF8C016EE872E0CE014396F1
:104CF0007ED46AE479E0CE01439686D3BE016D5E30
:104D00007F4F81E79DE03CD56BE573E0CE010196D6
:104D10006ED4BE016D5E7F4FCE01019664D364EF09
:104D200076E04AD3BC0187E39CE01CD5CE01019616
:104D3000CED367E579E0CE010D9659D469E579E0E7
:104D4000CE01079654D4BE01695F7F4FCE014996CC
:104D500046D4BE01635F7F4FCE01499644D36FEBCB
:104D60007EE041D3BE01635F7F4F3DD3BC01CE01E6
:104D7000019635D4CE014996AAD36CE773E084ED51
:104D80009CE0EFD464E670E080E090E083D8BE0160
:104D90006F5F7F4F84ED9CE0F3D464E670E080E0C9
:104DA00090E078D86CE875E0C801BAD2882351F059
:104DB00062E37FE084ED9CE0E3D462E37FE081E79F
:104DC0009DE0DED460E874E0C801AAD2882351F0E7
:104DD0006CE27FE084ED9CE0D3D46CE27FE081E77D
:104DE0009DE0CED46DE774E0C8019AD2882351F0DB
:104DF00066E27FE084ED9CE0C3D466E27FE081E779
:104E00009DE0BED46FE875E0C8018AD2882351F0D6
:104E100060E27FE084ED9CE0B3D460E27FE081E774
:104E20009DE0AED46EEF75E0C8017AD2882351F0D0
:104E30006AE17FE084ED9CE0A3D46AE17FE081E752
:104E40009DE09ED469EC73E0C8016AD2882351F0DA
:104E500064E17FE084ED9CE093D464E17FE081E74E
:104E60009DE08ED460ED73E0C8015AD2882351F0E2
:104E70006EE07FE084ED9CE083D46EE07FE081E72C
:104E80009DE07ED462EF73E0C8014AD2882351F0DE
:104E900068E07FE084ED9CE073D468E07FE081E728
:104EA0009DE06ED464E670E080E090E00E944A1FCE
:104EB0006AE184ED9CE04ED484ED9CE038D464E655
:104EC00070E080E090E00E944A1F84ED9CE02FD4C7
:104ED00068E873E180E090E00E944A1F66E679E0AE
:104EE00081E79DE03ED4BE016F5F7F4F81E79DE08B
:104EF00047D4CE010196EBD2CE010796E8D2CE017F
:104F00000D96E5D2CE014396E2D26E960FB6F89496
:104F1000DEBF0FBECDBFDF91CF911F910F910895DE
:104F20000895CF92DF92EF92FF920F931F93CF934A
:104F3000DF936C017A018B01C0E0D0E0CE15DF0574
:104F400089F0D8016D918D01D601ED91FC91019010
:104F5000F081E02DC6011995892B11F47E0102C064
:104F60002196ECCFC701DF91CF911F910F91FF9058
:104F7000EF90DF90CF9008956115710579F0FB01F6
:104F800001900020E9F73197AF01461B570BDC0178
:104F9000ED91FC910280F381E02D199480E090E086
:104FA0000895CF93DF93EC0188819981009711F0E8
:104FB0000E94463F198218821D821C821B821A821F
:104FC000DF91CF9108950F931F93CF93DF93EC015F
:104FD00088819981009729F02A813B81261737071C
:104FE00088F48B016F5F7F4F0E94A446009761F0A9
:104FF000998388831B830A832C813D81232B11F4A1
:10500000FC01108281E001C080E0DF91CF911F910F
:105010000F910895EF92FF920F931F93CF93DF9319
:10502000EC017B018A01BA01CEDF811103C0CE0100
:10503000B8DF07C01D830C83B701888199810E9466
:10504000B947CE01DF91CF911F910F91FF90EF9063
:105050000895EF92FF920F931F93CF93DF930E94D7
:10506000821F0091E00E1091E10E2091E20E30912E
:10507000E30E601771078207930740F41092E00E69
:105080001092E10E1092E20E1092E30E2091E40EC7
:10509000211115C00091E00E1091E10E2091E20E59
:1050A0003091E30EDC01CB01801B910BA20BB30B03
:1050B000803D9740A105B10510F481E089C01092B0
:1050C000E40E0E94821F6093E00E7093E10E8093C5
:1050D000E20E9093E30E1092DB0E1092DA0E109215
:1050E000D90E1092D80E1092D70E61E08091DD0E8D
:1050F0000E94DF1E6AEF70E080E090E00E944A1F8D
:1051000061E08091DD0E0E940E1F60E08091DD0E57
:105110000E94DF1E64E170E080E090E00E944A1F80
:10512000F89461E08091DD0E0E94DF1E8BE990E033
:105130000197F1F760E08091DD0E0E940E1F10E0F4
:10514000C0E081E0D0E0E82EF12C8091DD0E0E94DD
:10515000B71E8E159F0519F4DF5FDF3FB1F7809111
:10516000DD0E0E94B71EDF3FC1F0C43098F0C0FDD5
:1051700011C0E12FE695E695E695F0E0E952F14F92
:105180009081990F90832091DF0E2D1710F491607C
:1051900090831F5FCF5FC535A9F678941832B8F0B9
:1051A0002091DB0E30E04091D70E8091D80E90E038
:1051B000840F911D4091D90E840F911D4091DA0EFC
:1051C000840F911D99272817390709F476CF80E0BD
:1051D000DF91CF911F910F91FF90EF900895CF92A3
:1051E000DF92EF92FF92CF93DF93C82F32DF8823B5
:1051F00009F459C09091DE0E9B3031F008F453C091
:1052000095519230A0F04FC06091D90E70E080E0CF
:1052100090E00E94F442CC2309F44AC020E030E040
:1052200040E151E46B017C01C701B6012DC0D09172
:10523000D90E6D2F6F7770E080E090E00E94F6420B
:1052400020E030E040E853E40E9455436B017C01CC
:105250004091DA0E642F70E080E090E00E94F64208
:105260009B01AC01C701B6010E945B4420E030E025
:1052700040E251E40E94BF44D7FD9058CC23C1F0D6
:1052800020E030E040E151E40E94554320E030E06E
:1052900040EA50E40E94BF4420E030E040E052E4A5
:1052A0000E945B4405C040E030E020EC9FE703C073
:1052B000462F372F282FC42ED32EE22EF92EC701CA
:1052C000B601DF91CF91FF90EF90DF90CF900895DE
:1052D000FC0180819181009711F00C94DE3F60E029
:1052E00070E0CB010895CF93DF93FC0124813581D9
:1052F0004217530780F4FB01DC01CD91DC91608102
:105300007181CE01840F951F0E94CF47009719F03D
:105310008C1B9D0B02C08FEF9FEFDF91CF91089503
:10532000FC0124813581232B31F421E061157105C5
:10533000A1F0FB0108C0FC0180819181611571051C
:1053400031F421E0FC018081882339F005C00E94FE
:10535000B04721E0892B09F020E0822F0895EF92D9
:10536000FF920F931F93CF93DF93FC01248135812C
:105370006115710511F480E018C041155105A1F0C7
:105380007B01EC018A01020F131FB8011CDE882388
:1053900091F3288139818C819D81B701820F931F00
:1053A0000E94B9471D830C8381E0DF91CF911F914B
:1053B0000F91FF90EF900895CF93DF93EC0161156B
:1053C000710559F0FB0101900020E9F73197AF0119
:1053D000461B570BC4DF811102C0CE01E2DDCE01B6
:1053E000DF91CF910895CF93DF93EC01FB014481CE
:1053F000558160817181B3DF811102C0CE01D1DDA1
:10540000CE01DF91CF910895CF93DF93EC01611529
:10541000710551F0FB0101900020E9F73197AF01D0
:10542000461B570BF7DD01C0BCDDCE01DF91CF91EC
:105430000895CF93DF93EC01FB018617970751F096
:10544000608171816115710521F044815581E2DD32
:1054500001C0A7DDCE01DF91CF9108950F931F9377
:10546000CF93DF938C01EB01FC0180819181009748
:10547000B1F0688179816115710579F042815381BC
:105480002C813D814217530740F00E94B9478C811F
:105490009D81F8019583848313C00E94463F8881D3
:1054A0009981F801918380838A819B819383828390
:1054B0008C819D8195838483198218821B821A8234
:1054C0001D821C82DF91CF911F910F910895FC01E5
:1054D000808191810C94463F0F931F93CF93DF936C
:1054E000CDB7DEB7A1970FB6F894DEBF0FBECDBF24
:1054F0008C01CB01BA01F801118210821382128251
:105500001582148230E0AE014F5F5F4F0E942D4044
:10551000BE016F5F7F4FC80177DFA1960FB6F89489
:10552000DEBF0FBECDBFDF91CF911F910F910895C8
:105530000F931F93CF93DF93CDB7DEB762970FB66C
:10554000F894DEBF0FBECDBF8C01CB01F8011182F4
:105550001082138212821582148250E0BE016F5FA6
:105560007F4F0E940440BE016F5F7F4FC8014CDF38
:1055700062960FB6F894DEBF0FBECDBFDF91CF911C
:105580001F910F9108950F931F93CF93DF93CDB782
:10559000DEB729970FB6F894DEBF0FBECDBF8C01E2
:1055A000862FF801118210821382128215821482D2
:1055B00050E0BE016F5F7F4F90E00E945840BE01F7
:1055C0006F5F7F4FC80120DF29960FB6F894DEBFCA
:1055D0000FBECDBFDF91CF911F910F910895FC01B8
:1055E00011821082138212821582148222CFFC0152
:1055F0001182108213821282158214826115710544
:1056000049F0FB0101900020E9F73197AF01461BFB
:10561000570B00CD0895BF92CF92DF92EF92FF9289
:105620000F931F93CF93DF937C016B018A01E901F4
:105630002417350720F4812F8901C42FD82F6EE855
:1056400072E0C701D4DFD60114968D919C91159715
:1056500008171907C8F48C179D0708F4EC01D60148
:10566000ED91FC911197EC0FFD1FB08010824D91D0
:105670005C91BA01600F711FC701C6DED601ED91C2
:10568000FC91EC0FFD1FB082C701DF91CF911F91FC
:105690000F91FF90EF90DF90CF90BF9008954F92C1
:1056A0005F926F927F92EF92FF920F931F93CF932F
:1056B000DF93CDB7DEB7A1970FB6F894DEBF0FBE6C
:1056C000CDBF7C01FA01CB0119A2223008F42AE0F7
:1056D0008E010F5D1F4F422E512C612C712CBF018A
:1056E000A30192010E941F44F901CA01015011094E
:1056F0006A3014F4605D01C0695CD8016C93232B9F
:10570000242B252B61F7B801C70136DCA1960FB613
:10571000F894DEBF0FBECDBFDF91CF911F910F91E7
:10572000FF90EF907F906F905F904F9008956CE89E
:1057300072E022CC0F931F93CF93DF93EC011CDC1C
:105740008C01CE01F4DF800F911FDF91CF911F916B
:105750000F910895DC01ED91FC910190F081E02D15
:1057600019940ACCDC01ED91FC91DB0114964D916A
:105770005C9115976D917C910280F381E02D1994D5
:105780000F931F93CF93DF93EC01ECDF8C01CE01DD
:10579000CEDF800F911FDF91CF911F910F91089560
:1057A000EF92FF920F931F93CF93DF938C017B01B6
:1057B000C0E0D0E0F701EC0FFD1F6491662361F0BB
:1057C000D801ED91FC910190F081E02DC80119956F
:1057D000892B11F02196EECFCE01DF91CF911F9151
:1057E0000F91FF90EF900895CF93DF93CDB7DEB781
:1057F000C655D1090FB6F894DEBF0FBECDBF789461
:1058000084B5826084BD84B5816084BD85B58260C5
:1058100085BD85B5816085BD80916E008160809376
:105820006E001092810080918100826080938100DF
:1058300080918100816080938100809180008160EF
:10584000809380008091B10084608093B10080914A
:10585000B00081608093B00080919100826080935D
:1058600091008091910081608093910080919000DF
:105870008160809390008091A10082608093A1005C
:105880008091A10081608093A1008091A00081603F
:105890008093A000809121018260809321018091FA
:1058A000210181608093210180912001816080939A
:1058B000200180917A00846080937A0080917A0040
:1058C000826080937A0080917A00816080937A0070
:1058D00080917A00806880937A001092C1001092C3
:1058E000520E1092530E1092540E1092550E1092AA
:1058F000100E1092110E1092120E1092130E0E94A2
:10590000821F6B017C014B015C0128EB820E2BE0B6
:10591000921EA11CB11C0E94821F6C157D058E0574
:105920009F0528F086169706A806B906A0F781E716
:105930009DE09093510E8093500E40E855E260E058
:1059400070E00E9447170E94821F6093100E7093B0
:10595000110E8093120E9093130E6DE772E08091FA
:10596000500E9091510EFDDE0E94821F6B017C0152
:105970004B015C018AE0880E911CA11CB11C0E94A5
:10598000821F6C157D058E059F0528F086169706EB
:10599000A806B906A0F781E08093240E6EE872E0B5
:1059A000CE014C9624DE61E083E00E940E1F60E091
:1059B00083E00E94DF1E61E08AE00E940E1F60E02B
:1059C0008AE00E94DF1E60E08BE00E940E1F88E0EC
:1059D0000E94B71E21E0892B09F420E02093900952
:1059E00040E855E260E070E081E79DE00E944717E3
:1059F00040E05BE460E070E084ED9CE00E944717CB
:105A000040E05BE460E070E087E39CE00E944717C1
:105A100081E79DE08CDE6FE872E0CE014C96F4DC0D
:105A2000BE01645E7F4F81E79DE0AADE60E0809169
:105A3000DD0E0E940E1F61E08091DD0E0E94DF1ED0
:105A40001092E00E1092E10E1092E20E1092E30E10
:105A500061E085E30E940E1F8BEF92E0909377093F
:105A6000809376098091870E882321F082E89EE05A
:105A70000E94780F1092630E1092610E10925E0ECB
:105A800010925D0E85E380935C0E0E94821F8B0155
:105A900061E080915C0E0E940E1F61E080915C0EBF
:105AA0000E94DF1EFFB6F89480919609811127C0ED
:105AB000EBE2F3E08491E5EEF2E09491E82FF0E080
:105AC000EE0FFF1FEA56FD4FA591B491EC91E9232B
:105AD00021F461E085E30E94DF1E61E085E30E941E
