:10000000C4C20000F3C20000F1C20000EFC2000051
:10001000EDC20000EBC20000E9C20000E7C2000030
:10002000E5C20000E3C20000E1C20000DFC2000040
:10003000DDC20000DBC20000D9C20000D7C2000050
:10004000D5C20000D3C20000D1C20000CFC2000060
:10005000CDC20000CBC20000C9C200000C94351113
:10006000C5C200000C9435100C940C10BFC20000E7
:10007000BDC20000BBC20000B9C20000B7C2000090
:10008000B5C20000B3C20000B1C20000AFC20000A0
:100090000C94E30F0C94BA0FA9C200000C94FA2739
:1000A000A5C20000A3C20000A1C200009FC20000C0
:1000B0009DC200009BC2000099C2000097C20000D0
:1000C00095C2000093C2000091C200008FC20000E0
:1000D0008DC200008BC200000C94910F0C94680F2D
:1000E00085C200007F2E862EC02E0D2F722F882FE6
:1000F000CD2FF52F0830060F090FF80EFC0E020F5A
:10010000400F0D0F110F170F1B0F1F0F250F290F7A
:100110002D0F400F330F370F3B0F07634236B79B4E
:10012000D8A71A39685618AEBAAB558C1D3CB7CC57
:100130005763BD6DEDFD753EF6177231BF000000CF
:10014000803F08000000BE922449123EABAAAA2AB2
:10015000BECDCCCC4C3E00000080BEABAAAAAA3ECD
:1001600000000000BF000000803F00000000000809
:100170004178D3BB4387D1133D190E3CC3BD4282A6
:10018000AD2B3E68EC8276BED98FE1A93E4C80EF64
:10019000FFBE01C4FF7F3F000000000000002100FF
:1001A000240027002A002D00300033000101000048
:1001B000040107010A010102102020080810204054
:1001C000102040800201020108040201010204081B
:1001D00010204080804020100804020180040201A9
:1001E00080402010080402010804020101020408F2
:1001F00010204080010204081020408005050505FC
:10020000070508080808020202020A0A080804048E
:1002100004040101010101010101030303030303BC
:100220000303040707070C0C0C0C0C0C0C0C02024B
:10023000020206060606060606060B0B0B0B0B0B48
:100240000B0B302C302C42657374616E642061613D
:100250006E67656D61616B7400302C302C52657374
:1002600065742061726475696E6F0030354661692E
:100270006C656420746F20726561642066726F6DB6
:10028000204448542073656E736F7221230030340C
:100290004661696C656420746F20726561642066D4
:1002A000726F6D204448542073656E736F72212302
:1002B000003037636F756C646E74206372656174AF
:1002C000652066696C652300303643617264206680
:1002D00061696C65642C206F72206E6F742070727F
:1002E0006573656E74230030366361726420696ED5
:1002F000697469616C697A65642300302C302C4123
:100300006C6C652073656E736F72656E20737475A7
:100310006B3A206765656E20534D53206765737493
:100320007575726400302C302C416C6C65205365FF
:100330006E736F72656E207374756B3A20534D53F4
:1003400020676573747575726400302C302C5465A9
:1003500073746D65737361676520534D53206765D2
:1003600073747575726400302C302C506F6D703260
:10037000207569743A206765656E20534D53206778
:100380006573747575726400302C302C506F6D700D
:1003900032207569743A20534D5320676573747524
:1003A00075726400302C302C506F6D70312075697F
:1003B000743A206765656E20534D532067657374EA
:1003C0007575726400302C302C506F6D7031207553
:1003D00069743A20534D5320676573747575726460
:1003E00000302C302C4C4C20534D532067657374D7
:1003F000757572640000002200250028002B002E75
:10040000003100340002010000050108010B010069
:100410000020002300260029002C002F00320000BD
:1004200001000003010601090100000A0B02090C8A
:100430000D0E08070304010000000000000000008A
:1004400000000000000000000000000000000000AC
:100450000000000000121110000000000000000069
:100460000000000000000000000000000000007C10
:100470003C3E5E2B3D3F2F5B5D3B2C2A225C001FE8
:100480001C1F1E1F1E1F1F1E1F1E1F00407A10F361
:100490005A00A0724E18090010A5D4E80000E876B2
:1004A00048170000E40B54020000CA9A3B00000009
:1004B000E1F505000080969800000040420F000022
:1004C00000A08601000000102700000000E80300E3
:1004D0000000006400000000000A000000000001AD
:1004E00000000000002C76D888DC674F0823DFC1AD
:1004F000DFAE59E1B1B796E5E3E453C63AE6519968
:100500007696E8E6C28426EB898C9B62ED407C6F90
:10051000FCEFBC9C9F40F2BAA56FA5F490055A2A47
:10052000F75C936B6CF9676DC11BFCE0E40D47FE53
:10053000F520E6B500D0ED902E0300943577050048
:1005400080841E080000204E0A000000C80C3333CF
:1005500033330F986E12831141EF8D2114893BE6DE
:100560005516CFFEE6DB18D1844B381BF77C1D9067
:100570001DA4BBE424203284725E228100C9F124D0
:10058000ECA1E53D2700093AA23B11241FBECFEFA5
:10059000D1E2DEBFCDBF00E00CBF18E0A0E0B2E0CA
:1005A000E6E7FAE800E00BBF02C007900D92A43125
:1005B000B107D9F72EE0A4E1B8E001C01D92AD303B
:1005C000B207E1F712E0C4ECD2E000E006C02197E8
:1005D0000109802FFE010E94D23BC33CD10780E07D
:1005E0000807A9F70E94892A0C94294509CDEF92A2
:1005F000FF920F931F93CF93DF9300D000D0CDB71E
:10060000DEB78C017B01CE0101960E947F112A8109
:1006100080E2289F900111248B81A901482B8981B8
:10062000282F30E02C5E3F4F322F2227330F242B10
:10063000352BF801318320838D81F0E28F9F90016B
:1006400011249C81892F90E0982F8827990F990F6A
:10065000990F822B932B2E8130E035952795822B95
:10066000932BF7019183808326960FB6F894DEBF13
:100670000FBECDBFDF91CF911F910F91FF90EF90F3
:100680000895CF93DF93CDB7DEB762970FB6F89496
:10069000DEBF0FBECDBF62E872E0CE0101960E94C0
:1006A000782660910F0270911002685071094AE03B
:1006B000CE010D960E94192662E975E0CE010796DB
:1006C0000E947826BE01635F7F4FCE0107960E948D
:1006D00074256BE276E00E945D25BC01CE01019697
:1006E0000E949A25CE0107960E94E825CE010D961C
:1006F0000E94E825BE016F5F7F4F83EE98E00E9465
:100700002E2A64E170E080E090E00E94F110CE01BA
:1007100001960E94E82562960FB6F894DEBF0FBEE0
:10072000CDBFDF91CF9108950F931F93CF93DF93A8
:1007300000D000D0CDB7DEB78C01E091A00BF091D6
:10074000A10B309719F08581811106C065E975E02C
:100750008DE19AE00E941827CE0101960E947F1138
:1007600096E0FE013196A1E8BBE001900D929A95CA
:10077000E1F7B80187E89BE00E942E2A6FE873E05A
:1007800087E89BE00E94882A4091810B50E040530B
:10079000584F052E000C660B770B2AE087E89BE08C
:1007A0000E94D0266DE287E89BE00E94272A4091B4
:1007B000820B50E060E070E02AE087E89BE00E9456
:1007C000D0266DE287E89BE00E94272A4091830BA8
:1007D00050E060E070E02AE087E89BE00E94D026CD
:1007E00068E574E087E89BE00E94882A4091840BCA
:1007F00050E060E070E02AE087E89BE00E94D026AD
:100800006AEE74E087E89BE00E94882A4091850B9D
:1008100050E060E070E02AE087E89BE00E94D0268C
:100820006AEE74E087E89BE00E94882A4091860B7C
:1008300050E060E070E02AE087E89BE00E94D0266C
:100840006FE873E087E89BE00E94882A26960FB63F
:10085000F894DEBF0FBECDBFDF91CF911F910F91F6
:1008600008950F931F93CF93DF93CDB7DEB7AA9769
:100870000FB6F894DEBF0FBECDBF8C0162EB75E002
:10088000CE014F960E94782680911102813309F0A3
:1008900012C26DEC75E0CE0101960E947826BE0171
:1008A000615E7F4FCE0101960E9474256BE276E077
:1008B0000E945D25BC0183EE98E00E942E2ACE01A5
:1008C00001960E94E82563E974E0C8010E943E2574
:1008D0008823C9F060ED75E0CE0101960E9478266C
:1008E0006AEB7BE0CE0101960E9474256BE276E014
:1008F0000E945D25BC0183EE98E00E942E2ACE0165
:1009000001960E94E82567E673E0C8010E943E2533
:100910008823C9F060ED75E0CE0101960E9478262B
:1009200064EB7BE0CE0101960E9474256BE276E0D9
:100930000E945D25BC0183EE98E00E942E2ACE0124
:1009400001960E94E82564E673E0C8010E943E25F6
:100950008823C9F060ED75E0CE0101960E947826EB
:100960006EEA7BE0CE0101960E9474256BE276E090
:100970000E945D25BC0183EE98E00E942E2ACE01E4
:1009800001960E94E82566E974E0C8010E943E25B0
:100990008823C9F060ED75E0CE0101960E947826AB
:1009A00068EA7BE0CE0101960E9474256BE276E056
:1009B0000E945D25BC0183EE98E00E942E2ACE01A4
:1009C00001960E94E82565E075E0C8010E943E2579
:1009D0008823C9F060ED75E0CE0101960E9478266B
:1009E00062EA7BE0CE0101960E9474256BE276E01C
:1009F0000E945D25BC0183EE98E00E942E2ACE0164
:100A000001960E94E8250E94922963ED75E0CE01CF
:100A10004F960E948525BE01615E7F4F8DE19AE071
:100A20000E94782A6DEC75E0CE0101960E9478262E
:100A3000BE01615E7F4FCE0101960E9474256BE27C
:100A400076E00E945D25BC0183EE98E00E942E2A8C
:100A5000CE0101960E94E82560E177E280E090E017
:100A60000E94F110B801CE0185960E94702662E8BE
:100A700072E0CE0149960E94782663EF75E0CE01C0
:100A800049960E948525BE01675E7F4F8DE19AE001
:100A90000E94782A6DEC75E0CE0101960E947826BE
:100AA000BE01675E7F4FCE0101960E9474256BE206
:100AB00076E00E945D25BC0183EE98E00E942E2A1C
:100AC000CE0101960E94E82560E076E0CE014396D3
:100AD0000E94782662E076E0CE010D960E9478268C
:100AE000BE01635F7F4FCE0101960E947026BE015A
:100AF0006D5E7F4FCE0101960E94742569E57BE013
:100B00000E947425BE016D5E7F4F0E947425BC015A
:100B1000CE0107960E947026CE0101960E94E8251C
:100B20006FE076E080E899E00E94882A64E670E051
:100B300080E090E00E94F110BE01695F7F4F80E885
:100B400099E00E94782A64E670E080E090E00E94DC
:100B5000F11063E974E0CE0185960E943E2588235A
:100B600061F06AEB7BE080E899E00E94782A6AEB0A
:100B70007BE08DE19AE00E94782A67E673E0CE017F
:100B800085960E943E25882361F064EB7BE080E837
:100B900099E00E94782A64EB7BE08DE19AE00E9464
:100BA000782A64E673E0CE0185960E943E2588236C
:100BB00061F06EEA7BE080E899E00E94782A6EEAB4
:100BC0007BE08DE19AE00E94782A66E974E0CE012C
:100BD00085960E943E25882361F068EA7BE080E8E4
:100BE00099E00E94782A68EA7BE08DE19AE00E9411
:100BF000782A65E075E0CE0185960E943E2588231F
:100C000061F062EA7BE080E899E00E94782A62EA7B
:100C10007BE08DE19AE00E94782A64E670E080E053
:100C200090E00E94F1106AE180E899E00E94272A92
:100C300080E899E00E94752A64E670E080E090E028
:100C40000E94F11080E899E00E94752A68E873E13B
:100C500080E090E00E94F1106AE176E08DE19AE098
:100C60000E94882ABE01695F7F4F8DE19AE00E9451
:100C7000782ACE0107960E94E825CE010D960E94A3
:100C8000E825CE0143960E94E825CE0149960E94B0
:100C9000E825CE0185960E94E8250E94922968E207
:100CA00076E083EE98E00E94882A6DE276E083EE9B
:100CB00098E00E94882AB801CE0101960E94702611
:100CC000CE01019631DDCE0101960E94E82563E94F
:100CD00074E0C8010E943E25882321F081EE93E054
:100CE0000E945C2267E673E0C8010E943E258823CB
:100CF00059F080911102813319F485EC93E002C020
:100D000084EA93E00E945C2264E673E0C8010E94DA
:100D10003E25882359F080911102813319F488E827
:100D200093E002C087E693E00E945C2266E974E0EB
:100D3000C8010E943E25882321F08AE493E00E94A6
:100D40005C2265E075E0C8010E943E25882359F0C9
:100D500080911102813319F485E293E002C08BEF98
:100D600092E00E945C2287E89BE00E945C18CE0122
:100D70004F960E94E825AA960FB6F894DEBF0FBEE4
:100D8000CDBFDF91CF911F910F910895CF93DF9346
:100D9000CDB7DEB762970FB6F894DEBF0FBECDBFFA
:100DA00060912C0870912D084AE0CE010D960E94AA
:100DB000192660912E0870912F084AE0CE010796FF
:100DC0000E94192662E376E0CE0101960E94782601
:100DD000BE01695F7F4FCE0101960E947425BE015E
:100DE000635F7F4F0E9474256BE276E00E945D2571
:100DF000BC0183EE98E00E942E2ACE0101960E944B
:100E0000E825CE0107960E94E825CE010D960E94A6
:100E1000E82564E170E080E090E00E94F1106296C5
:100E20000FB6F894DEBF0FBECDBFDF91CF9108950E
:100E30004F925F926F927F928F929F92AF92BF92EA
:100E4000CF92DF92EF92FF92CF93DF93CDB7DEB7D1
:100E500062970FB6F894DEBF0FBECDBF2B013C01E9
:100E600049015A0165E376E08DE19AE00E94882A03
:100E70002AE0B301A2018DE19AE00E94D0262AE087
:100E8000B501A4018DE19AE00E94D0268DE19AE09F
:100E90000E94752A88EEC82E83E0D82EE12CF12C12
:100EA000C301B201A70196010E94EE44BA01A90153
:100EB0002AE0CE0107960E94ED25C501B401A701E5
:100EC00096010E94EE44BA01A9012AE0CE010196E2
:100ED0000E94ED256FE476E0CE010D960E94782603
:100EE000BE01695F7F4FCE010D960E9474256CEEA6
:100EF00074E00E945D25BE016F5F7F4F0E947425E4
:100F00006BE276E00E945D25BC0183EE98E00E94D2
:100F10002E2ACE010D960E94E82564E170E080E063
:100F200090E00E94F110CE0101960E94E825CE01CA
:100F300007960E94E82562960FB6F894DEBF0FBEB2
:100F4000CDBFDF91CF91FF90EF90DF90CF90BF901A
:100F5000AF909F908F907F906F905F904F9008958B
:100F60008F929F92AF92BF92CF92DF92EF92FF92B9
:100F7000CF93DF93CDB7DEB762970FB6F894DEBF9D
:100F80000FBECDBF49015A0128EEC22E23E0D22E5A
:100F9000E12CF12CA70196010E94EE44BA01A901AF
:100FA0002AE0CE0107960E94ED25C501B401A701F4
:100FB00096010E94EE44BA01A9012AE0CE010196F1
:100FC0000E94ED2562E576E0CE010D960E9478261E
:100FD000BE01695F7F4FCE010D960E9474256CEEB5
:100FE00074E00E945D25BE016F5F7F4F0E947425F3
:100FF0006BE276E00E945D25BC0183EE98E00E94E2
:101000002E2ACE010D960E94E82564E170E080E072
:1010100090E00E94F110CE0101960E94E825CE01D9
:1010200007960E94E82562960FB6F894DEBF0FBEC1
:10103000CDBFDF91CF91FF90EF90DF90CF90BF9029
:10104000AF909F908F900895CF92DF92EF92FF9292
:10105000CF93DF93CDB7DEB768970FB6F894DEBFB6
:101060000FBECDBF609128087091290880912A0891
:1010700090912B0828EEC22E23E0D22EE12CF12CE9
:10108000A70196010E94EE44BA01A9012AE0CE010F
:1010900043960E94ED256091240870912508809167
:1010A000260890912708A70196010E94EE44BA01F4
:1010B000A9012AE0CE010D960E94ED2565E576E0B6
:1010C000CE0107960E947826BE01635F7F4FCE0156
:1010D00007960E9474256CEE74E00E945D25BE01A7
:1010E0006D5E7F4F0E9474256BE276E00E945D2565
:1010F000BC01CE0101960E947026CE0107960E9487
:10110000E825CE010D960E94E825CE0143960E9467
:10111000E825BE016F5F7F4F83EE98E00E942E2A84
:1011200064E170E080E090E00E94F110CE01019651
:101130000E94E82568960FB6F894DEBF0FBECDBFBB
:10114000DF91CF91FF90EF90DF90CF900895CF93F4
:10115000DF93CDB7DEB762970FB6F894DEBF0FBE50
:10116000CDBF8091310890913208049709F489DA53
:1011700062E872E0CE0101960E9478266091310803
:10118000709132084AE0CE010D960E94192668E55A
:1011900076E0CE0107960E947826BE01635F7F4FFE
:1011A000CE0107960E9474256BE276E00E945D25D1
:1011B000BC01CE0101960E949A25CE0107960E949D
:1011C000E825CE010D960E94E825BE016F5F7F4F96
:1011D00083EE98E00E942E2A64E170E080E090E0C7
:1011E0000E94F110CE0101960E94E82562960FB68A
:1011F000F894DEBF0FBECDBFDF91CF910895EF927F
:10120000FF920F931F93CF93DF93CDB7DEB72C9749
:101210000FB6F894DEBF0FBECDBF7C01BC0189E5DF
:101220009BE00E949A256BE576E0CE0107960E942E
:101230007826B701CE0107960E9474256BE276E00E
:101240000E945D25BC01CE0101960E947026CE0150
:1012500007960E94E825BE016F5F7F4F83EE98E0FE
:101260000E942E2A64E170E080E090E0BAD701E0AD
:1012700010E0C8010197F701248135818217930797
:1012800050F4208131812115310529F0F901E80F51
:10129000F91F608101C060E0C8010E94E04464E180
:1012A00070E080E090E09DD76EE576E08DE19AE019
:1012B0000E9418270F5F1F4F0B301105D1F6CE018A
:1012C00001960E94E8252C960FB6F894DEBF0FBE5B
:1012D000CDBFDF91CF911F910F91FF90EF900895B7
:1012E000CF93DF93CDB7DEB72C970FB6F894DEBF60
:1012F0000FBECDBF61E072E0CE0101960E9478265C
:1013000080911508882319F067EE72E002C068EC3E
:1013100072E083EE98E00E943C2A64E170E080E095
:1013200090E05FD780911408882311F16BE976E093
:10133000CE0107960E947826BE016F5F7F4FCE01D7
:1013400007960E9474256BE276E00E945D25BC0141
:10135000CE0101960E949A25CE0107960E94E825AB
:10136000BE016F5F7F4F83EE98E00E942E2A06C079
:1013700061EB72E083EE98E00E943C2A64E170E049
:1013800080E090E02ED7CE0101960E94E8252C96B1
:101390000FB6F894DEBF0FBECDBFDF91CF91089599
:1013A00088E08CD621E0892B09F420E020933008D6
:1013B000222319F06EE976E002C063EA76E083EE5C
:1013C00098E00E94882A64E170E080E090E009C71C
:1013D0000F931F93CF93DF93CDB7DEB7A9970FB6C7
:1013E000F894DEBF0FBECDBFCE01019688D786E050
:1013F000FE013196A1E8BBE001900D928A95E1F7DC
:1014000001E81BE0F801808190E01DA21CA21FA250
:101410001EA219A618A64AE0BE016F5F7F4F805337
:10142000984F0E943141BE016F5F7F4FCE0184967D
:101430000E9485254AE0F8016181CE014E960E9406
:1014400044264AE0F8016281CE0148960E94442673
:1014500068EA76E0CE0142960E947826BE01685E78
:101460007F4FCE0142960E9474256AEE74E00E947E
:101470005D25BE01625E7F4F0E9474256AEE74E0B6
:101480000E945D25BE016C5D7F4F0E9474256BE25A
:1014900076E00E945D25BC01CE0101960E94702677
:1014A000CE0142960E94E825CE0148960E94E8258A
:1014B000CE014E960E94E825CE0184960E94E82532
:1014C000BE016F5F7F4F83EE98E00E942E2A64E199
:1014D00070E080E090E085D6CE0101960E94E8257C
:1014E000A9960FB6F894DEBF0FBECDBFDF91CF91A6
:1014F0001F910F910895CF93DF93CDB7DEB72C974F
:101500000FB6F894DEBF0FBECDBF62E872E0CE0129
:1015100001960E94782661EA73E0CE0107960E9448
:1015200078266FE57BE0CE0107960E9474256BE27A
:1015300076E00E945D25BC01CE0101960E949A25AD
:10154000CE0107960E94E825BE016F5F7F4F83EEB4
:1015500098E00E942E2A64E170E080E090E041D69D
:10156000CE0101960E94E8252C960FB6F894DEBFB6
:101570000FBECDBFDF91CF910895CF92DF92EF9252
:10158000FF920F931F93CF93DF938C017B016A012E
:10159000EC01EC16FD06ECF09E01201B310BF60170
:1015A000848195812817390748F4808191810097BB
:1015B00029F0FC01E20FF31F608101C060E0CE0161
:1015C0000E94E04464E170E080E090E00AD6219659
:1015D000E0CFDF91CF911F910F91FF90EF90DF90BF
:1015E000CF900895CF93DF93CDB7DEB72C970FB68A
:1015F000F894DEBF0FBECDBF6BEA76E0CE01079652
:101600000E9478266BE67BE0CE0107960E94742547
:101610006BE276E00E945D25BC01CE0101960E943E
:101620007026CE0107960E94E82560911C087091F3
:101630001D0880911E0890911F089B01AC010E941B
:10164000023D882339F06EE872E083EE98E00E9454
:101650003C2A07C0BE016F5F7F4F83EE98E00E9477
:101660002E2A64E170E080E090E0BBD56EEA76E07F
:10167000CE0107960E94782665E67BE0CE010796AC
:101680000E9474256BE276E00E945D25BC01CE01CC
:1016900001960E949A25CE0107960E94E825609146
:1016A00018087091190880911A0890911B089B01E5
:1016B000AC010E94023D882339F06BE672E083EEB4
:1016C00098E00E943C2A07C0BE016F5F7F4F83EE07
:1016D00098E00E942E2A64E170E080E090E081D5DD
:1016E000CE0101960E94E8252C960FB6F894DEBF35
:1016F0000FBECDBFDF91CF9108958F929F92AF9291
:10170000BF92CF92DF92EF92FF920F931F93CF93EE
:10171000DF93CDB7DEB7C258D1090FB6F894DEBF5C
:101720000FBECDBF8C017B0164E673E083EE98E0D1
:101730000E94882A8BE5C82ED12CCC0EDD1E8CE0B1
:10174000C80ED11C5701EFEFAE1ABE0AF801818C0A
:10175000928CF4018581823008F473C0F401828593
:101760009385A485B5858F719927AA27BB27892BD7
:101770008A2B8B2B09F065C040E250E0BE016F5F01
:101780007F4FC4010E94AA16803209F05AC0898195
:10179000882309F456C0853E79F38E3269F38C852F
:1017A00083FDEACF22961FAE1EAE229785E492E01B
:1017B0009FAF8EAF24961FAE2497FE01319690E026
:1017C00020E03EE28191803291F0283041F4A6E79A
:1017D000B0E0AC0FBD1FA90FB11D3C939F5FA6E702
:1017E000B0E0AC0FBD1FA90FB11D8C939F5F2F5FA1
:1017F0002B3041F7E6E7F0E0EC0FFD1FE90FF11D9C
:101800001082F801618D728D21E0AE014A585F4F60
:10181000CE01CE960E94B219882399F0BE01625C77
:101820007F4FCE0181960E94AE1DAE014A585F4F98
:10183000BE016F5D7F4FCE01855A9F4F0E94121EE1
:1018400005C0CE01855A9F4F0E94FF1DE696EEAD62
:10185000FFADE697309719F08581811123C061EBC8
:1018600076E08DE19AE00E9418276BE276E083EE45
:1018700098E00E94882AC8010E949B1DCE57DF4F26
:101880000FB6F894DEBF0FBECDBFDF91CF911F9191
:101890000F91FF90EF90DF90CF90BF90AF909F900F
:1018A0008F90089580E0282F30E02E153F0514F426
:1018B0008F5FF9CFB60183EE98E00E94882AE69602
:1018C0008EAD9FADE697009709F440C0FC012581DD
:1018D0002230E0F16F962EAD3FAD6F973C832B83A6
:1018E000A3964CAD5DAD6EAD7FADA3974D835E838A
:1018F0006F837887A7964CAD5DAD6EAD7FADA79732
:1019000049875A876B877C8725E232E03A832983AF
:101910002DE0F601DE011D9601900D922A95E1F76A
:101920009B8F8A8FB501CE010196E7DEE6968EADDC
:101930009FADE697009709F409CF0E94A718E69695
:101940008EAD9FADE6970E94154000CF68E574E02C
:1019500083EE98E00E94882AE696EEADFFADE6970A
:10196000309729F0438954896589768903C040E01E
:1019700050E0BA012AE083EE98E00E94D0266FE89A
:1019800073E083EE98E00E94882AD0CFCF93DF9354
:1019900000D000D0CDB7DEB762E872E0CE0101968C
:1019A0000E94782680910002882319F060EC76E08E
:1019B00002C069EC76E0CE0101960E948525BE0149
:1019C0006F5F7F4F83EE98E00E942E2A64E170E003
:1019D00080E090E006D4CE0101960E94E82526968C
:1019E0000FB6F894DEBF0FBECDBFDF91CF91089543
:1019F0001F93CF93DF93CDB7DEB768970FB6F894F8
:101A0000DEBF0FBECDBF182F62E872E0CE01079691
:101A10000E947826103319F460ED76E002C064ED80
:101A200076E0CE0107960E948525BE01695F7F4F53
:101A3000CE0143960E94702667E673E0CE010D96B4
:101A40000E947826BE016D5E7F4FCE010D960E94EA
:101A500074256BE276E00E945D25BC01CE01019603
:101A60000E947026CE010D960E94E825CE01439675
:101A70000E94E825BE016F5F7F4F83EE98E00E94D1
:101A80002E2A6091110280E090E00E94E044CE0195
:101A900001960E94E825CE0107960E94E8256896E7
:101AA0000FB6F894DEBF0FBECDBFDF91CF911F916F
:101AB0000895CF93DF9300D000D0CDB7DEB710DC10
:101AC0008091110295DF69E57BE0CE0101960E94CD
:101AD0007026CE01019693DBCE0101960E94E82587
:101AE00077DC35DB0E9441035BDCAEDA4FD926960A
:101AF0000FB6F894DEBF0FBECDBFDF91CF91089532
:101B0000CF92DF92EF92FF920F931F93CF93DF93C9
:101B1000CDB7DEB72C970FB6F894DEBF0FBECDBFA2
:101B20008C017B016A0162E872E00E947826CE1483
:101B3000DF044CF1C7010E94D844282F30E0B901DE
:101B4000605371094AE0CE0107960E941926B80138
:101B5000CE0101960E947026BE01695F7F4FCE01C3
:101B600001960E947425BC01C8010E949A25CE01ED
:101B700001960E94E825CE0107960E94E8258FEF86
:101B8000E81AF80AD4CFC8012C960FB6F894DEBF35
:101B90000FBECDBFDF91CF911F910F91FF90EF90BE
:101BA000DF90CF900895FC01A089B1898C91A6891E
:101BB000B78982FD0FC09C91818D8F5F8F73228DBD
:101BC000821749F0218DDF01A20FB11D5D969C9314
:101BD000818F08958C910895FC01918D828D9817C5
:101BE00061F0828DDF01A80FB11D5D968C91928D01
:101BF0009F5F9F73928F90E008958FEF9FEF0895FE
:101C0000FC01918D828D981731F0828DE80FF11DC6
:101C1000858D90E008958FEF9FEF0895FC01918DE1
:101C2000228D892F90E0805C9F4F821B91098F73DA
:101C30009927089583EE98E0F1DF21E0892B09F4DC
:101C400020E0822F089580E899E0E8DF21E0892BE9
:101C500009F420E0822F08958DE19AE0DFDF21E092
:101C6000892B09F420E0822F0895FC01848DDF0187
:101C7000A80FB11DA35ABF4F2C91848D90E00196FF
:101C80008F739927848FA689B7892C93A089B189EE
:101C90008C9180648C93938D848D981306C00288F8
:101CA000F389E02D80818F7D80830895EF92FF92EC
:101CB0000F931F93CF93DF93EC0181E0888F9B8D6F
:101CC0008C8D981305C0E889F989808185FD23C032
:101CD000F62E0B8D10E00F5F1F4F0F731127E02EB4
:101CE0008C8DE8120BC00FB607FCFACFE889F98992
:101CF000808185FFF5CFCE01B8DFF2CF8B8DFE015D
:101D0000E80FF11DE35AFF4FF0820B8FEA89FB8940
:101D10008081806207C0EE89FF896083E889F98944
:101D200080818064808381E090E0DF91CF911F917A
:101D30000F91FF90EF900895CF93DF93EC01888D82
:101D40008823C1F0EA89FB89808185FD05C0A889C7
:101D5000B9898C9186FD0EC00FB607FCF5CF808146
:101D600085FFF2CFA889B9898C9185FFEDCFCE018F
:101D70007CDFE8CFDF91CF91089580E090E0892B60
:101D800019F06ADF81111BC080E090E0892B19F007
:101D90005ADF811117C080E090E0892B41F080E08C
:101DA00090E0892B21F00E94000081110EC080E09C
:101DB00090E0892B79F03EDF81110AC008950E94DE
:101DC0000000E2CF0E940000E6CF0E940000EFCFAB
:101DD0000C940000089590E0FC013197E231F10588
:101DE00008F04EC08827E558FF4F8F4F0C94D23B28
:101DF000809180008F7703C0809180008F7D8093D9
:101E00008000089580918000877FF9CF84B58F7717
:101E100002C084B58F7D84BD08958091B0008F7716
:101E200003C08091B0008F7D8093B00008958091B1
:101E300090008F7707C0809190008F7D03C08091C4
:101E40009000877F8093900008958091A0008F7705
:101E500007C08091A0008F7D03C08091A000877F84
:101E60008093A0000895809120018F7707C0809112
:101E700020018F7D03C080912001877F8093200106
:101E800008953FB7F8948091700890917108A091DF
:101E90007208B091730826B5A89B05C02F3F19F0B2
:101EA0000196A11DB11D3FBFBA2FA92F982F8827DA
:101EB000820F911DA11DB11DBC01CD0142E0660F35
:101EC000771F881F991F4A95D1F708950E94033FF5
:101ED0001F920F920FB60F9211240BB60F922F93F1
:101EE0003F934F935F936F937F938F939F93AF93A2
:101EF000BF93EF93FF9383EE98E0B7DEFF91EF91EE
:101F0000BF91AF919F918F917F916F915F914F9111
:101F10003F912F910F900BBE0F900FBE0F901F900F
:101F200018951F920F920FB60F9211240BB60F92B5
:101F30002F933F934F935F936F937F938F939F93D1
:101F4000AF93BF93EF93FF9383EE98E02CDEFF9166
:101F5000EF91BF91AF919F918F917F916F915F9121
:101F60004F913F912F910F900BBE0F900FBE0F908E
:101F70001F9018951F920F920FB60F9211240BB657
:101F80000F922F933F934F935F936F937F938F9312
:101F90009F93AF93BF93EF93FF9380E899E065DE43
:101FA000FF91EF91BF91AF919F918F917F916F9131
:101FB0005F914F913F912F910F900BBE0F900FBEED
:101FC0000F901F9018951F920F920FB60F92112429
:101FD0000BB60F922F933F934F935F936F937F9323
:101FE0008F939F93AF93BF93EF93FF9380E899E014
:101FF000DADDFF91EF91BF91AF919F918F917F912A
:102000006F915F914F913F912F910F900BBE0F9069
:102010000FBE0F901F9018951F920F920FB60F9240
:1020200011240BB60F922F933F934F935F936F93AF
:102030007F938F939F93AF93BF93EF93FF938DE124
:102040009AE013DEFF91EF91BF91AF919F918F9135
:102050007F916F915F914F913F912F910F900BBEA8
:102060000F900FBE0F901F9018951F920F920FB6F2
:102070000F9211240BB60F922F933F934F935F93C0
:102080006F937F938F939F93AF93BF93EF93FF9340
:102090008DE19AE088DDFF91EF91BF91AF919F9123
:1020A0008F917F916F915F914F913F912F910F9001
:1020B0000BBE0F900FBE0F901F901895CF93DF931C
:1020C000282F30E0F901E75DFB4F8491F901EA54D4
:1020D000FE4FD491F901E450FE4FC491CC2389F016
:1020E000811179DEEC2FF0E0EE0FFF1FE15FFB4F77
:1020F000A591B491EC91ED2381E090E021F480E092
:1021000002C080E090E0DF91CF9108951F93CF93BC
:10211000DF93282F30E0F901E75DFB4F8491F9014F
:10212000EA54FE4FD491F901E450FE4FC491CC2300
:10213000C1F0162F81114FDEEC2FF0E0EE0FFF1FE4
:10214000EB50FC4FA591B4918FB7F894111105C0D5
:102150009C91ED2FE095E92302C0EC91ED2BEC93DF
:102160008FBFDF91CF911F910895CF93DF9390E0C0
:10217000FC01EA54FE4F2491FC01E450FE4F84918F
:10218000882361F190E0880F991FFC01E456FE4F0F
:10219000C591D491FC01EB50FC4FA591B491611114
:1021A00009C09FB7F8948881209582238883EC9199
:1021B0002E230BC0623061F49FB7F8943881822FD0
:1021C000809583238883EC912E2B2C939FBF06C090
:1021D0008FB7F894E8812E2B28838FBFDF91CF91A2
:1021E00008958F929F92AF92BF92CF92DF92EF921B
:1021F000FF926B017C0145DE4B015C01C114D104EF
:10220000E104F104E9F03DDEDC01CB018819990914
:10221000AA09BB09883E9340A105B10578F321E0E6
:10222000C21AD108E108F10888EE880E83E0981EF2
:10223000A11CB11CC114D104E104F10421F7DECFCB
:10224000FF90EF90DF90CF90BF90AF909F908F90D6
:1022500008952FB7F89460916C0870916D08809183
:102260006E0890916F082FBF08951F920F920FB6BE
:102270000F9211242F933F938F939F93AF93BF930C
:1022800080916C0890916D08A0916E08B0916F08D4
:1022900030916B0823E0230F2D3720F40196A11D08
:1022A000B11D05C026E8230F0296A11DB11D209384
:1022B0006B0880936C0890936D08A0936E08B093A0
:1022C0006F088091700890917108A0917208B09188
:1022D00073080196A11DB11D809370089093710839
:1022E000A0937208B0937308BF91AF919F918F91A3
:1022F0003F912F910F900FBE0F901F901895CF9286
:10230000DF92EF92FF920F931F93CF93DF93EC0135
:1023100081E08093760888E6809398081092770889
:102320001092990860E08DE49BE00E94B5270E941E
:10233000921E67E070E088E690E00E94471E8DE400
:102340009BE00E946A278F77982F92959F701AEFD3
:10235000082F919F000D11248DE49BE00E946A27B5
:102360009C01332794E0359527959A95E1F7F82E4F
:10237000129FF00C11248DE49BE00E946A279C01BF
:10238000332744E0359527954A95E1F7E82E129FCB
:10239000E00C11248DE49BE00E946A278DE49BE011
:1023A0000E946A279C01332754E0359527955A955A
:1023B000E1F7D82E129FD00C11248DE49BE00E94EF
:1023C0006A279C01332764E0359527956A95E1F7E4
:1023D000C82E129FC00C11248DE49BE00E946A2736
:1023E0009C01332774E0359527957A95E1F7129F84
:1023F000800D11248883C982DA82EB82FC820D83EE
:10240000CE01DF91CF911F910F91FF90EF90DF9060
:10241000CF900895809166088823A9F14091120217
:1024200050911302609114027091150220EC3BE070
:102430008091C00D9091C10D0E943C1D811102C080
:1024400080E008954091670850916808609169089C
:1024500070916A08411551056105710591F020ECF4
:102460003BE08091C00D9091C10D0E943C1D8823DE
:1024700039F3109267081092680810926908109258
:102480006A081092660881E008958F929F92AF9239
:10249000BF92EF92FF920F931F93CF934B015C017A
:1024A000C42F8091120290911302A0911402B09156
:1024B000150288159905AA05BB05F9F0ABDF811156
:1024C00002C080E020C080ECE82E8BE0F82E00E017
:1024D00012E020E030E0B501A4018091C00D9091A0
:1024E000C10D0E94AF1C882361F38092120290926A
:1024F0001302A0921402B092150280916608C82BB4
:10250000C093660881E0CF911F910F91FF90EF90EB
:10251000BF90AF909F908F9008954F925F926F926F
:102520007F928F929F92AF92BF92CF92DF92EF9263
:10253000FF920F931F93CF93DF93EC016A017B010E
:1025400028013901423051056105710510F480E020
:1025500072C089859A85AB85BC850196A11DB11D88
:1025600084179507A607B70790F38B889C88AD88DA
:10257000BE888F89803129F4BB27AF2D9E2D8D2DEC
:1025800009C0DB01CA0147E0B695A79597958795E5
:102590004A95D1F7880E991EAA1EBB1E8091120281
:1025A00090911302A0911402B09115028816990619
:1025B000AA06BB0679F48F89803199F4DD24EE24D4
:1025C000FF24C601880F991FFC01E054F44F51828B
:1025D000408218C040E0C501B40157DF8111EBCF44
:1025E000B6CFE894C7F8DD24EE24FF24C601880F97
:1025F000991F880F991FFC01E054F44F40825182CB
:1026000062827382809166088160809366088A89FD
:10261000823080F08D819E81AF81B885880E991EB1
:10262000AA1EBB1E8092670890926808A092690853
:10263000B0926A0881E0DF91CF911F910F91FF90D6
:10264000EF90DF90CF90BF90AF909F908F907F9052
:102650006F905F904F9008958F929F92AF92BF922C
:10266000CF92DF92EF92FF920F931F93CF93DF935E
:10267000FC0181859285A385B4850196A11DB11DBC
:1026800084179507A607B70710F480E05BC083891D
:102690009489A589B689C789C03129F4852E962EDB
:1026A000A72EBB2409C04A015B01C7E0B694A794DA
:1026B00097948794CA95D1F7E9016A017B018F014C
:1026C000BC01CD01680D791D8A1D9B1D80901202F1
:1026D00090901302A0901402B0901502681579052D
:1026E0008A059B0599F4F80187898031A1F4B70127
:1026F000A601552766277727440F551FFA01E05496
:10270000F44F80819181A0E0B0E017C040E0BDDED1
:102710008111E9CFBACFB701A6014F7755276627B8
:102720007727440F551F440F551FFA01E054F44F0B
:1027300080819181A281B381BF7088839983AA83AC
:10274000BB8381E0DF91CF911F910F91FF90EF90BC
:10275000DF90CF90BF90AF909F908F9008954F9251
:102760005F926F927F92AF92BF92CF92DF92EF9281
:10277000FF920F931F93CF93DF9300D01F92CDB79B
:10278000DEB78C0149835A836B837C835901C12C4A
:10279000D12C7601412C82E0582E612C712C49817C
:1027A0005A816B817C819E012F5F3F4FC80154DFAE
:1027B000882351F1D301C201F801058404C0880FB8
:1027C000991FAA1FBB1F0A94D2F7C80ED91EEA1E72
:1027D000FB1E49815A816B817C818789803129F078
:1027E00088EF9FEFAFEFBFE004C088EF9FEFA0E05E
:1027F000B0E0481759076A077B0788F2F501C082E5
:10280000D182E282F38281E00F900F900F900F90BF
:10281000DF91CF911F910F91FF90EF90DF90CF90BC
:10282000BF90AF907F906F905F904F9008950F93FF
:102830001F93CF93DF93EC018D81882309F445C06A
:102840008C8187FF3DC06E857F858889998941E0AD
:102850001CDE8823D1F18A8920E2829FC0011124E5
:10286000FC01E054F44F309781F12D81223040F487
:102870004B895C896D897E89448F558F668F778FF0
:102880004F89588D698D7A8D8C010054144FF80151
:10289000538F428F758B648BE0911608F091170867
:1028A000309759F0BC016A52744F8852944F199571
:1028B000F801808D918D938B828B8C818F778C83A7
:1028C000DF91CF911F910F91A5CD80E0DF91CF9146
:1028D0001F910F9108958F929F92AF92BF92CF92C6
:1028E000DF92EF92FF920F931F93CF93DF93EC0150
:1028F0008D81811102C080E076C00B891C892D89F1
:102900003E890417150726073707A8F36A017B01DC
:10291000823029F4CA86DB86EC86FD860DC0C114A0
:10292000D104E104F10451F41E821F821886198635
:102930001A861B861C861D8681E055C08A849B846E
:10294000AC84BD84EB8DFC8D258530E0275F3F4F47
:10295000B501A4014150510961097109022E04C059
:1029600076956795579547950A94D2F7D701C60192
:102970000197A109B10904C0B695A79597958795C8
:102980002A95D2F784179507A607B70720F089285C
:102990008A288B2849F44F89588D698D7A8D4E830A
:1029A0005F836887798704C0841B950BA60BB70BE0
:1029B0004C015D018E010A5F1F4F81149104A10437
:1029C000B10409F4A7CF4E815F81688579859801AC
:1029D0008B8D9C8D41DE91E0891A9108A108B10888
:1029E0008111EBCF88CFDF91CF911F910F91FF9095
:1029F000EF90DF90CF90BF90AF909F908F90089511
:102A00002F923F924F925F926F927F928F929F92FE
:102A1000AF92BF92CF92DF92EF92FF920F931F93EC
:102A2000CF93DF9300D01F92CDB7DEB78C016B013F
:102A30003A01DC0115968C9115978130C1F41496FA
:102A40008C9181FF14C082FF1CC0F8014389548916
:102A50006589768982859385A485B58584179507D0
:102A6000A607B70771F0C80136DF81110AC081E0FF
:102A700090E0D80113969C938E93129780E090E09B
:102A800042C1430183C0D8015B968D919C915C97B4
:102A9000FC0154802FEF250D1A012B0139E05694CB
:102AA0004794379427943A95D1F7522E52207A01C1
:102AB000F1E0FF22552009F475C080E092E08E1904
:102AC0009F0954018815990508F45C01D8015B96AB
:102AD0002D913C915C9716968D919D910D90BC9196
:102AE000A02D0297A109B109F901058404C0880F3E
:102AF000991FAA1FBB1F0A94D2F746855785608984
:102B00007189840F951FA61FB71F9C01AD01250D6C
:102B1000311D411D511D19012A01A11432E0B306D6
:102B200009F085C08091120290911302A0911402C5
:102B3000B091150282159305A405B50559F48FEFE0
:102B40009FEFDC018093120290931302A093140272
:102B5000B09315029601B201A1018091C00D909130
:102B6000C10D8AD7882309F482CF9EEFD91A8A181B
:102B70009B08F80182859385A485B5858A0D9B1DE8
:102B8000A11DB11D82879387A487B587D8011A96A6
:102B90004D915D916D917C911D978114910409F087
:102BA00072CF83C0E114F10409F087CF16964D91DE
:102BB0005D916D917C9119974115510561057105E4
:102BC00059F457968D919D910D90BC91A02D009731
:102BD000A105B10531F520C09E012F5F3F4F3CDDBF
:102BE000882309F44CCF89819A81AB81BC81F8019B
:102BF000238D348DF9012789203129F048EF5FEFCB
:102C00006FEF7FE004C048EF5FEF60E070E0841793
:102C10009507A607B70728F0C801A4D281114DCFA8
:102C200026CFF80186839783A087B18746CFE1142A
:102C3000F10421F5D8011A964D915D916D917C9129
:102C40001D9753968D919D910D90BC91A02D481785
:102C500059076A077B0790F0DDDB882309F407CF6B
:102C600020921202309213024092140250921502E6
:102C70008091660881608093660807C041E0C201C8
:102C8000B10103DC882309F4F2CED601F701E05448
:102C9000F44FCF018A0D9B1DE817F90719F02D910C
:102CA0002193FACFCA0CDB1C62CF5396CD90DD90F6
:102CB000ED90FC90569714968C91C416D506E606B6
:102CC000F70640F4F801438B548B658B768B806854
:102CD00084830DC02091160830911708232B39F0FA
:102CE0006114710421F08068D80114968C93F80166
:102CF000848183FD02C0C30106C0C80198DD88231A
:102D000009F4B5CEF8CF0F900F900F900F90DF9190
:102D1000CF911F910F91FF90EF90DF90CF90BF90D8
:102D2000AF909F908F907F906F905F904F903F906B
:102D30002F900895CF93DF931F92CDB7DEB76983AD
:102D400041E050E0BE016F5F7F4F5ADE0F90DF9190
:102D5000CF9108952F923F924F925F926F927F9200
:102D60008F929F92AF92BF92CF92DF92EF92FF929B
:102D70000F931F93CF93DF93EC016B014A018D8179
:102D8000811103C08FEF9FEFD4C08C8180FFFACFF9
:102D90004B885C886D887E884A855B856C857D85DF
:102DA000C401A0E0B0E093018201041B150B260BC7
:102DB000370B081719072A073B0718F44201841A32
:102DC000950A54011E0126E0220E311CA114B10403
:102DD00009F47DC04A855B856C857D852A0181E08B
:102DE0005822ED818A019B0189E036952795179538
:102DF00007958A95D1F78B8D9C8DE23061F4FC01AB
:102E0000828D938DA48DB58DBC01CD01600F711F96
:102E1000821F931F3EC0FC0174807A94702241147B
:102E20005104C1F4711016C0452B462B472B49F4B1
:102E30008F89988DA98DBA8D8E839F83A887B98736
:102E400009C04E815F8168857985910105DC882301
:102E500009F498CFEB8DFC8D8E819F81A885B98573
:102E60000297A109B109058404C0880F991FAA1F00
:102E7000BB1F0A94D2F74685578560897189840FF4
:102E8000951FA61FB71FBC01CD01670D711D811DC8
:102E9000911D20E032E02419350935012A153B0542
:102EA00008F439012C8126FD04C06114F2E07F068C
:102EB00081F40091120210911302209114023091BA
:102EC00015026017710782079307A9F402C0C401B5
:102ED00030C040E0DADA882309F454CFF201E0543C
:102EE000F44FD601CF01860D971DE817F90781F041
:102EF00021912D93FACF760183019201AB01BC01A0
:102F00008091C00D9091C10D2AD5882309F43ACF44
:102F1000C60CD71C8A859B85AC85BD85860D971D03
:102F2000A11DB11D8A879B87AC87BD87A618B708EE
:102F30004DCFDF91CF911F910F91FF90EF90DF90D8
:102F4000CF90BF90AF909F908F907F906F905F9049
:102F50004F903F902F900895DC015996ED91FC9190
:102F60005A973097B9F083899489A589B6894285A3
:102F7000538564857585841B950BA60BB70B81154E
:102F800020E89207A105B10538F08FEF9FE7A0E098
:102F9000B0E0089580E090E00895CF93DF931F9212
:102FA000CDB7DEB76983DC01ED91FC910280F3813E
:102FB000E02D41E050E0BE016F5F7F4F19950F900B
:102FC000DF91CF9108951F93CF93DF93EC0180E2BF
:102FD000689FF00111249F012054344FD9011B96A2
:102FE0009C91917129F0842F827411F080E056C079
:102FF000142F6A8B8091120290911302A0911402F7
:10300000B09115028E879F87A88BB98BE054F44F3F
:103010004489558960E070E0BA01552744274F8BF9
:10302000588F698F7A8F828D938DA0E0B0E0482B06
:10303000592B6A2B7B2B4F8B588F698F7A8FD90135
:103040001B968C91887151F4848D958DA68DB78DCA
:103050008B8B9C8BAD8BBE8B81E00CC0803131F6AD
:103060009E012D5E3F4F8B8D9C8D79DB882309F46B
:10307000BDCF84E08D83812F8F708C831E821F8251
:10308000188619861A861B861C861D8616FF05C0A3
:10309000CE01DF91CF911F9109C781E0DF91CF91E0
:1030A0001F910895FC01818D928D009711F00C9471
:1030B000E3278FEF9FEF0895FC01818D928D00979C
:1030C00009F0B5CB08950F931F93CF93DF93FC01C5
:1030D000818D928D0097B1F0EF010E94E3278C0162
:1030E0000F3F8FEF180789F0898D9A8DFC0142857B
:1030F0005385648575854150510961097109EBDB80
:10310000C80105C080E090E002C08FEF9FEFDF9123
:10311000CF911F910F910895CF93DF93EC01898D8B
:103120009A8D009739F481E090E09B838A8380E058
:1031300090E00AC0FC011382128262DCE98DFA8DF4
:1031400022813381232B79F7DF91CF910895CF939B
:10315000DF93EC016CDB882311F01D8281E0DF91AD
:10316000CF9108953F924F925F926F927F928F928C
:103170009F92AF92BF92CF92DF92EF92FF920F9306
:103180001F93CF93DF93CDB7DEB72C970FB6F8948C
:10319000DEBF0FBECDBF5C01DC015B968D909C90C5
:1031A0005C971696CD90DD90ED90FC901997C11428
:1031B000D104E104F10439F0BFEFCB1ADB0AEB0ACA
:1031C000FB0A312C07C0F401C080D180E280F3807B
:1031D00033243394F40181859285A385B4859C01C1
:1031E000AD012F5F3F4F4F4F5F4F29873A874B8786
:1031F0005C87260137011D821E821F821886F4011A
:1032000081859285A385B4852D813E814F81588526
:10321000281739074A075B0708F060C089859A8537
:10322000AB85BC858C159D05AE05BF0550F482E0CD
:10323000C82ED12CE12CF12C92E0492E512C612C7E
:10324000712C9E012F5F3F4FB701A601C40104DA24
:10325000882309F443C089819A81AB81BC81892B81
:103260008A2B8B2B41F0260137019FEF491A590A0F
:10327000690A790A05C0C414D504E604F70491F07C
:103280002D813E814F8158852F5F3F4F4F4F5F4FBC
:103290002D833E834F8358873FEFC31AD30AE30A37
:1032A000F30AADCF0FEF1FEF2FEF3FE0B301A20105
:1032B000C40133D9882391F0D50116964D915D91C3
:1032C0006D917C911997411551056105710541F08A
:1032D00093018201C40121D9811102C080E02AC07A
:1032E000D50116964D925D926D927C92199733207E
:1032F00051F0D301C2010196A11DB11DF4018083DB
:103300009183A283B383F5018789908DA18DB28DBE
:10331000892B8A2B8B2B69F4D50157964D925D92A0
:103320006D927C925A9714968C911497806814969B
:103330008C9381E02C960FB6F894DEBF0FBECDBF04
:10334000DF91CF911F910F91FF90EF90DF90CF9081
:10335000BF90AF909F908F907F906F905F904F90B5
:103360003F9008954F925F926F927F929F92AF929B
:10337000BF92CF92DF92EF92FF920F931F93CF9362
:10338000DF93CDB7DEB72B970FB6F894DEBF0FBE35
:10339000CDBF7C01DC011596AC90A11095C1FE015A
:1033A00031966F0190E28BE08E0F91938E13FDCFDB
:1033B000DA0130E087E09D91992339F19E3219F0CE
:1033C000EFE6F4E00AC08A3009F47FC138E08AE011
:1033D000F2CF3196491709F478C144914111F9CFE0
:1033E000831708F472C14FED490F4E3508F06DC1D7
:1033F00041E0430FF601E30FF11D3FE9390F3A3188
:1034000008F490529083342FD6CF8981803209F40A
:103410005CC1B22E8B01DB015B968D919C915C9718
:10342000F701948F838F16961D921D921D921C9208
:103430001997FB011286138614861586712CF801E4
:1034400082859385A485B585438954896589768964
:1034500084179507A607B70708F061C025E0B69561
:10346000A795979587952A95D1F7F82FFF709F2EEE
:10347000D80115968C91823008F427C1C8010E94AA
:10348000E32797FD22C1F80182859385A485B58540
:103490004F96A11DB11D82879387A487B587F0E25F
:1034A0009F9EC0011124BC016054744F61157105C9
:1034B00009F40BC1DB012C91222319F0253EC1F444
:1034C00027C071100EC0F701928A409112025091EC
:1034D0001302609114027091150246875787608B22
:1034E000718BFC01E054F44F8081811113C015C031
:1034F0004BE050E0C6010E94073F892B09F09FCFA7
:103500008B2D8073803309F4E0C04B2D692DD8C01A
:103510007720C9F27724739492CF772473948B2DFC
:103520008271823109F0D1C07720D1F0D7011E9687
:103530006D917D918D919C91519741E00E94451232
:10354000882309F4C2C0F7010289F0E20F9F8001CD
:1035500011240054144F0115110509F078C0B5C0AD
:10356000D80115968C91823009F4AFC0C801FADDFC
:10357000882309F4AAC0D8015B96ED91FC915C9771
:1035800016964D905D906D907C901997B2E04B1A15
:10359000510861087108058404C0440C551C661C60
:1035A000771C0A94D2F786859785A089B189480E41
:1035B000591E6A1E7B1E9480E1E04E1A5108610874
:1035C0007108992009F10E940A12882309F47DC02C
:1035D000E0ECFBE011922DE0E03CF207D9F7D301DB
:1035E000C201890D911DA11DB11D809312029093FE
:1035F0001302A0931402B0931502809166088160B3
:10360000809366089A94DDCFD8015B96ED91FC918A
:103610005C9780E092E0A0E0B0E0058404C0880FF1
:10362000991FAA1FBB1F0A94D2F7F8014389548936
:1036300065897689840F951FA61FB71F838B948B8E
:10364000A58BB68BD70152961C9200EC1BE080E252
:10365000F80111928A95E9F78BE0F601D801019003
:103660000D928A95E1F7E0911608F09117083097CE
:1036700039F0B801625F7F4FC801409619950DC0BF
:1036800081E298E2D80151969C938E93509780E006
:1036900098E01F969C938E931E97F80180899189DC
:1036A000938B828B918F808F86859785978B868B66
:1036B0000E940A12882349F04B2DD70152966C9133
:1036C000C70181DCA82E01C0A12C8A2D2B960FB634
:1036D000F894DEBF0FBECDBFDF91CF911F910F9148
:1036E000FF90EF90DF90CF90BF90AF909F907F9032
:1036F0006F905F904F900895CF93DF93CDB7DEB773
:103700006D970FB6F894DEBF0FBECDBF442399F17D
:10371000AB01BC011C821B8285E492E09A83898301
:103720001E8222E0CE0101961DDE811102C090E0D2
:103730001DC0CE010196BAD38823C9F36F8578895D
:1037400089899A8941E00E944512882381F3EB8997
:1037500080E2E89FF0011124E054F44F309739F3F0
:1037600085EE80831E820E940A12982F81E09111BB
:1037700003C080E001C081E06D960FB6F894DEBF13
:103780000FBECDBFDF91CF9108951F93CF93DF93ED
:10379000CDB7DEB76D970FB6F894DEBF0FBECDBFC5
:1037A000AB011C821B8225E432E03A8329831E820E
:1037B00021E0BC01CE010196D5DD11E0811102C0EE
:1037C00010E003C0CE010196C2DC812F6D960FB6CA
:1037D000F894DEBF0FBECDBFDF91CF911F9108954A
:1037E0008FB7F894809175088FBF089561E0FC0150
:1037F00084810E948610809174088111109274084F
:1038000008958EBD00000DB407FEFDCF8EB508955E
:103810008FEFF7CF0F931F93CF93DF93EB010E94AE
:1038200029118B01F5DF8F3F49F00E942911601BA0
:10383000710B6C177D07B0F380E001C081E0DF9170
:10384000CF911F910F910895CF93DF93EC018E815B
:10385000882379F08F8198859C012F5F3F4F3887AF
:103860002F838230924010F4D3DFF4CFCE01BEDF3D
:103870001E82DF91CF9108958CBD9DBD0895CF9399
:10388000DF93EC0180917408811108C081E080937E
:1038900074088091020B9091030BEEDF60E08C8145
:1038A000DF91CF910C948610CF92DF92FF920F930D
:1038B0001F93CF93DF9300D01F92CDB7DEB76C017B
:1038C000F62E29833A834B835C83BEDFC601D7DFA4
:1038D0006CE271E0C6019EDF8F2D806492DF08E10B
:1038E00010E05C814B813A812981DA01C901002E07
:1038F00004C0B695A795979587950A94D2F7298322
:103900003A834B835C837DDF0850110929813A811A
:103910004B815C81083F8FEF180739F7FF2029F0B2
:10392000E8E0FE1204C087E803C085E901C08FEF1C
:1039300068DF10E06DDFF601828787FF04C01F3F5C
:1039400011F01F5FF7CF0F900F900F900F90DF9146
:10395000CF911F910F91FF90DF90CF900895AF927C
:10396000BF92CF92DF92EF92FF920F931F93CF936C
:10397000DF93EC016901C801820F931F81309240EF
:1039800008F06AC08E81882371F088819981AA81AC
:10399000BB81481759076A077B0729F48F819885EF
:1039A000C816D90698F5488359836A837B838B852B
:1039B000833039F089E0440F551F661F771F8A95C1
:1039C000D1F79A01AB0161E1CE016EDF882319F0D6
:1039D00083E08D8341C00E9429115B0119DF8A8732
:1039E0008F3F49F40E9429116A197B096D32714099
:1039F000A8F38FE003C08E3F29F08DE08D83CE01C8
:103A0000F5DE2AC018861F8281E08E838F8198851B
:103A10008C159D0538F4FCDE8F819885019698877A
:103A20008F83F4CF6701E00EF11ECE14DF0429F07E
:103A3000EFDEF60181936F01F8CF8F819885080F33
:103A4000191F18870F838985882319F001151240E3
:103A500038F0CE01F9DE04C0CE01C8DE80E001C03E
:103A600081E0DF91CF911F910F91FF90EF90DF9058
:103A7000CF90BF90AF900895EF92FF920F931F9356
:103A8000CF93DF93EC017901411551056105710573
:103A900011F482E134C08B85833039F089E0440F22
:103AA000551F661F771F8A95D1F79A01AB0168E110
:103AB000CE01FADE882311F084E021C08EEFA1DE72
:103AC00087018EEFF81AF80181918F019ADE0E15A9
:103AD0001F05C9F78FEF95DE8FEF93DE99DE8A879A
:103AE0008F71853029F081E18D83CE017FDE08C0A2
:103AF00068E572E0CE018EDE811106C085E18D831E
:103B0000CE0174DE80E010C020E030E0A9016DE05D
:103B1000CE01CADE811103C07BDE882311F084E16F
:103B2000EECFCE0163DE81E0DF91CF911F910F9147
:103B3000FF90EF900895DC015996ED91FC915A9712
:103B4000309759F08581823040F0168217821086B6
:103B5000118612861386148615860895FC01DB01F2
:103B600012968D919C9113979383828385E492E0C2
:103B70009183808314968C911497848315968C91ED
:103B80001597858316964D915D916D917C9119974E
:103B900046835783608771871A964D915D916D9129
:103BA0007C911D9742875387648775871E964D9138
:103BB0005D916D917C91519746875787608B718B92
:103BC00052968C915297828B53964D915D916D9147
:103BD0007C915697438B548B658B768B57964D9182
:103BE0005D916D917C915A97478B508F618F728F49
:103BF0005B968D919C915C97948F838F0895FC01C7
:103C00001382128288EE93E0A0E0B0E08483958373
:103C1000A683B78385E292E091838083128E118E12
:103C200014860895EF92FF920F931F93CF93DF9323
:103C3000EC017B018A011B821A8288EE93E0A0E0EE
:103C4000B0E08C839D83AE83BF8385E292E099834D
:103C500088838DE190E00E94803F9A8F898F009742
:103C600079F02DE1F701DC0101900D922A95E1F741
:103C70004CE050E0B801CE010C960E94383F188EFF
:103C8000DF91CF911F910F91FF90EF900895909148
:103C9000C0089111FCCF613208F060E291E090938E
:103CA000C0089093BF082FEF2093BE081092BD0864
:103CB000260F2093BC089093BB089091BB08880FF7
:103CC000892B8093BB088091BA08813061F41092EF
:103CD000BA088091BB088093BB008091BC0083FD33
:103CE000F8CF85EC01C085EE8093BC008091C008C0
:103CF0008130E1F38091BD08861710F46091BD0812
:103D0000AAE9B8E023EC38E0F9018E2F821B861770
:103D100018F48D918193F9CF1092C2086093C10875
:103D2000862F08952091990890919808213208F0E3
:103D30004AC08091C0088111FCCF32E03093C008A6
:103D400031E03093BF083FEF3093BE081092BD08BA
:103D50002093BC08A8E7B8E04AE958E0FA013E2FF2
:103D6000341B321718F43D913193F9CF1092BB08F0
:103D70002091BB08990F922B9093BB089091BA08A1
:103D8000913061F41092BA089091BB089093BB00F7
:103D90009091BC0093FDF8CF95EC01C095EE909307
:103DA000BC009091C0089230E1F39091BE089F3F13
:103DB00079F08091BE08803241F08091BE08803356
:103DC00031F084E005C081E003C082E001C083E0FF
:103DD0001092770810929908109276080895CF9261
:103DE000DF92EF92FF920F931F93CF93DF93EC013B
:103DF0006A017B01E889F98982E080834115514E8F
:103E000061057105B1F060E079E08DE390E0A70114
:103E100096010E94EE4489019A010150110921097D
:103E20003109369527951795079598010115104189
:103E3000A8F0E889F989108260E874E88EE190E0E2
:103E4000A70196010E94EE44DA01C9010197A10978
:103E5000B109B695A795979587959C01EC85FD8549
:103E60003083EE85FF852083188EEC89FD8986E0FE
:103E70008083EA89FB89808180618083EA89FB896C
:103E8000808188608083EA89FB8980818068808363
:103E9000EA89FB8980818F7D8083DF91CF911F919B
:103EA0000F91FF90EF90DF90CF9008958F929F92A7
:103EB000AF92BF92CF92DF92EF92FF920F931F9338
:103EC000CF93DF9300D01F92CDB7DEB7FC01858181
:103ED000813079F5948191FF2CC04389548965899B
:103EE0007689452B462B472B09F45CC07F0140E0C7
:103EF00050E0BA01CF010E946B148823D1F0F70182
:103F00008788908CA18CB28CC38CD48C82E090E09A
:103F1000A0E0B0E0F60180839183A283B3839E0189
:103F20002F5F3F4FB501A401C6010E942C138111E0
:103F300002C080E037C000E010E09801B501A401A4
:103F4000C6010E948D128823A1F389809A80AB80DC
:103F5000BC80F6018789803129F088EF9FEFAFEFB1
:103F6000BFE004C088EF9FEFA0E0B0E0881699069C
:103F7000AA06BB06A0F2F701178A108E118E128EC8
:103F8000138A148A158A168A848180688483C701FB
:103F90000E941714882369F240E050E0BA01C7017B
:103FA0000E946B140F900F900F900F90DF91CF91A4
:103FB0001F910F91FF90EF90DF90CF90BF90AF9047
:103FC0009F908F9008952F923F924F925F926F92A1
:103FD0007F928F929F92AF92BF92CF92DF92EF9299
:103FE000FF920F931F93CF93DF93CDB7DEB7C756E2
:103FF000D1090FB6F894DEBF0FBECDBF3C015B0107
:10400000A6964FAFA6974E018EE1880E911C6EE2E8
:104010007BE0C401A3DD1C821B8285E492E09A83CD
:1040200089831E827501FE0131966F0124011F01F3
:104030006FE270E0C7010E941D3F0097D9F1F701C0
:1040400020812F3221F4FFEFEF1AFF0AF1CF8E19F2
:104050008D3008F08CE0082F10E0A801B701CE01E8
:10406000885A9F4F0E94383FE8E5F0E0EC0FFD1FB3
:10407000E00FF11F1082C6016AD821E0AE01485A54
:104080005F4FB201C6016ED981110AC01EAE1DAECE
:1040900085E492E09CAF8BAF21961FAE219715C0AF
:1040A000E00EF11EC20153D8942D852D2601C92E94
:1040B000D82EBECFC7018A199B09A8969FAF8EAF95
:1040C000A897B201CE01CB9649DDA896EEADFFAD23
:1040D000A897AE0EBF1EF5018081811108C0BE01F8
:1040E000655C7F4FC1013ADD49EC54E037C019A24D
:1040F00018A285E492E09F8F8E8F1BA221968FAD30
:104100002197811103C0C3017ADD2BC08250A6968E
:104110002FADA697A501823038F46EE27BE0C40192
:1041200021D981110BC0EFCFBE01655C7F4FC40167
:1041300019D9882341F3CE01CB9609D8A6968FAD25
:10414000A697867039F049A95AA96BA97CA9C40120
:104150000E946B14B401C10101DDA501B101C301CD
:1041600061DDC301C959DF4F0FB6F894DEBF0FBE42
:10417000CDBFDF91CF911F910F91FF90EF90DF9016
:10418000CF90BF90AF909F908F907F906F905F90F7
:104190004F903F902F9008950F931F93CF93DF93ED
:1041A00041155105E9F061157105D1F0FC0124813B
:1041B00035812115310519F4FB01108211C0EA0186
:1041C00021972C173D0708F4E9018B01FC01608160
:1041D0007181AE01C8010E94383FC00FD11F188203
:1041E000DF91CF911F910F9108956F927F928F92DF
:1041F0009F92AF92BF92CF92DF92EF92FF920F9376
:104200001F93CF93DF93CDB7DEB7C754D1090FB655
:10421000F894DEBF0FBECDBF6C015B0119A218A2DE
:1042200085E492E09F8F8E8F1BA21C821B829A8353
:1042300089831E82812C912C7E018EE1E80EF11C77
:104240000EE21BE0772473949401F601E80DF91D4A
:1042500080818F3211F42F5F3F4FFE01FB9680E08B
:1042600090E0D601A20FB31F4C914F3249F0442386
:1042700039F001962F5F3F4F41938C30910589F7BC
:10428000EBE3F0E0EC0FFD1FE80FF91F1082F601E1
:10429000E20FF31F80818F3211F42F5F3F4F4901EE
:1042A000F601E20FF31F662463948081811101C03F
:1042B000612C20E030E0462D4725BE01655C7F4F34
:1042C000C801F5011995811109C0FBE00E321F07E5
:1042D00019F0C8010E94A71880E028C06620B9F034
:1042E00021E0AE01455C5F4FB801C7013BD8682EA5
:1042F0008BE00E321807A1F0C8010E94A7186620B3
:1043000059F3902F812F8701E92EF82E9DCFEBE0F6
:104310000E321E0719F0C8010E94A71881E006C0DE
:104320006620D1F28E010F5F1F4FEBCFC95BDF4FCD
:104330000FB6F894DEBF0FBECDBFDF91CF911F91B6
:104340000F91FF90EF90DF90CF90BF90AF909F9034
:104350008F907F906F900895682F8DE49BE005C645
:104360000895CF93DF93EC0188819981009711F034
:104370000E941540198218821D821C821B821A829B
:10438000DF91CF9108950F931F93CF93DF93EC01AB
:1043900088819981009729F02A813B812617370768
:1043A00088F48B016F5F7F4F0E941F3E009761F082
:1043B000998388831B830A832C813D81232B11F4ED
:1043C000FC01108281E001C080E0DF91CF911F915C
:1043D0000F910895EF92FF920F931F93CF93DF9366
:1043E000FC01248135816115710511F480E018C04C
:1043F00041155105A1F07B01EC018A01020F131F49
:10440000B801C1DF882391F3288139818C819D8196
:10441000B701820F931F0E94313F1D830C8381E0FF
:10442000DF91CF911F910F91FF90EF900895EF9240
:10443000FF920F931F93CF93DF93EC017B018A01CF
:10444000BA01A1DF811103C0CE018BDF07C01D833C
:104450000C83B701888199810E94313FCE01DF91A1
:10446000CF911F910F91FF90EF9008951092C20885
:104470001092C10810927708109299081092C00803
:1044800081E08093BF081092BA0861E084E10E9445
:10449000861061E085E10E948610E9EBF0E0808102
:1044A0008E7F808380818D7F808388E48093B800B5
:1044B00085E48093BC000895CF93DF93BC0187E827
:1044C0009BE0DAD7EC0187E89BE00E94752A8C0F0D
:1044D0009D1FDF91CF9108958F929F92AF92BF92CF
:1044E000CF92DF92EF92FF92CF93DF93C82F84E0B9
:1044F0009BE09093C10D8093C00DCC2369F1C53032
:1045000010F080E00DC140E060E070E0CB010E945F
:1045100045128823B1F320E1C29FC00111248055C8
:10452000944FFC01E254FE4F20812F7751F73C96C7
:104530004081518162817381443651056105710565
:1045400000F33497C080D180E280F380C114D1049D
:10455000E104F10421F4D5CFC12CD12C760140E047
:10456000C701B6010E944512882359F28091CB0BF6
:104570009091CC0B8115924021F6A091D00BAA23EB
:1045800009F4BFCF6091CE0B7091CF0B611571050F
:1045900009F4B7CF2091CD0B222309F4B2CFA09319
:1045A000220B2093140B80E030E0E1E0F0E0C82F14
:1045B000AF01082E02C0440F551F0A94E2F72417DA
:1045C000350741F0982F8F5F983089F789E0809305
:1045D0001D0B97CF80931D0B2091D60B3091D70BDD
:1045E0002115310519F040E050E008C02091E40B9E
:1045F0003091E50B4091E60B5091E70B2093150BA2
:104600003093160B4093170B5093180B460157012C
:10461000860E971EA11CB11C8092230B9092240B36
:10462000A092250BB092260BE091D10BF091D20B0A
:10463000F093290BE093280BB0E00E941045860E02
:10464000971EA81EB91E80922A0B90922B0BA09247
:104650002C0BB0922D0B85E0EE0FFF1F8A95E1F732
:10466000E150FE4FEF2FFF27E6958E0E9F1EA11CF7
:10467000B11C80921E0B90921F0BA092200BB09247
:10468000210B2091D30B3091D40B2115310521F052
:10469000A90160E070E008C04091E00B5091E10B8F
:1046A0006091E20B7091E30BD701C601881999095B
:1046B000AA09BB09840F951FA61FB71F04C0B69592
:1046C000A79597958795CA95D2F78093190B9093E4
:1046D0001A0BA0931B0BB0931C0B853F2FE0920786
:1046E000A105B10510F48CE018C0853F9F4FA105CE
:1046F000B10510F480E111C08091EC0B9091ED0BAD
:10470000A091EE0BB091EF0B80932A0B90932B0BA3
:10471000A0932C0BB0932D0B80E28093270B81E0AC
:10472000DF91CF91FF90EF90DF90CF90BF90AF904F
:104730009F908F9008951F93CF93DF93EB019091FB
:104740007F0B21E0209376089093980810927708C9
:10475000109299088F70806890E0FEDDE3DA809314
:10476000800B882311F080E01EC080917F0B62E0F7
:1047700070E0082E000C990B8ADA8091C10890E055
:104780002091C208821B9109029769F78DE49BE092
:10479000A1D3182F8DE49BE09DD3982F8827812BE0
:1047A0009983888381E0DF91CF911F910895EF92E3
:1047B000FF920F931F93CF93DF930E9429110091D3
:1047C0007A0B10917B0B20917C0B30917D0B601745
:1047D00071078207930740F410927A0B10927B0BBB
:1047E00010927C0B10927D0B20917E0B211115C035
:1047F00000917A0B10917B0B20917C0B30917D0BFB
:10480000DC01CB01801B910BA20BB30B803D9740C9
:10481000A105B10510F481E089C010927E0B0E94C1
:10482000291160937A0B70937B0B80937C0B909390
:104830007D0B1092750B1092740B1092730B1092EB
:10484000720B1092710B61E08091770B0E948610C1
:104850006AEF70E080E090E00E94F11061E08091EA
:10486000770B0E94B51060E08091770B0E94861054
:1048700064E170E080E090E00E94F110F89461E063
:104880008091770B0E9486108BE990E00197F1F7F9
:1048900060E08091770B0E94B51010E0C0E081E0ED
:1048A000D0E0E82EF12C8091770B0E945E108E15DF
:1048B0009F0519F4DF5FDF3FB1F78091770B0E940E
:1048C0005E10DF3FC1F0C43098F0C0FD11C0E12F91
:1048D000E695E695E695F0E0EF58F44F9081990F54
:1048E00090832091790B2D1710F4916090831F5FB6
:1048F000CF5FC535A9F678941832B8F02091750BC2
:1049000030E04091710B8091720B90E0840F911D0B
:104910004091730B840F911D4091740B840F911D76
:1049200099272817390709F476CF80E0DF91CF91D6
:104930001F910F91FF90EF900895CF92DF92EF9229
:10494000FF92CF93DF93C82F32DF882309F459C039
:104950009091780B9B3031F008F453C09551923010
:10496000A0F04FC06091730B70E080E090E00E9477
:10497000C343CC2309F44AC020E030E040E151E4D5
:104980006B017C01C701B6012DC0D091730B6D2F57
:104990006F7770E080E090E00E94C54320E030E057
:1049A00040E853E40E9424446B017C014091740B65
:1049B000642F70E080E090E00E94C5439B01AC0151
:1049C000C701B6010E94DB3B20E030E040E251E449
:1049D0000E94463CD7FD9058CC23C1F020E030E047
:1049E00040E151E40E94244420E030E040EA50E4F9
:1049F0000E94463C20E030E040E052E40E94DB3B75
:104A000005C040E030E020EC9FE703C0462F372F81
:104A1000282FC42ED32EE22EF92EC701B601DF9126
:104A2000CF91FF90EF90DF90CF900895FC018081AF
:104A30009181009711F00C94AD4060E070E0CB01E3
:104A40000895CF93DF93FC012481358142175307EA
:104A500080F4FB01DC01CD91DC9160817181CE019C
:104A6000840F951F0E94473F009719F08C1B9D0BE8
:104A700002C08FEF9FEFDF91CF910895FC01248159
:104A80003581232B31F421E061157105A1F0FB0183
:104A900008C0FC01808191816115710531F421E02C
:104AA000FC018081882339F005C00E94283F21E065
:104AB000892B09F020E0822F0895CF93DF93EC013A
:104AC0006115710559F0FB0101900020E9F731975C
:104AD000AF01461B570B7EDC811102C0CE0141DCC9
:104AE000CE01DF91CF910895CF93DF93EC01FB01CD
:104AF00044815581608171816DDC811102C0CE01DC
:104B000030DCCE01DF91CF910895CF93DF93EC019C
:104B10006115710551F0FB0101900020E9F7319713
:104B2000AF01461B570B83DC01C01BDCCE01DF91BC
:104B3000CF910895CF93DF93EC01FB018617970780
:104B400051F0608171816115710521F044815581B9
:104B50006EDC01C006DCCE01DF91CF9108950F938A
:104B60001F93CF93DF938C01EB01FC018081918136
:104B70000097B1F0688179816115710579F0428102
:104B800053812C813D814217530740F00E94313FF1
:104B90008C819D81F8019583848313C00E94154008
:104BA00088819981F801918380838A819B81938395
:104BB00082838C819D8195838483198218821B82D4
:104BC0001A821D821C82DF91CF911F910F9108954F
:104BD000FC01808191810C9415400F931F93CF931A
:104BE000DF93CDB7DEB7A1970FB6F894DEBF0FBE47
:104BF000CDBF8C01CB01BA01F80111821082138262
:104C000012821582148230E0AE014F5F5F4F0E9426
:104C1000FC40BE016F5F7F4FC80177DFA1960FB6E2
:104C2000F894DEBF0FBECDBFDF91CF911F910F91E2
:104C300008950F931F93CF93DF93CDB7DEB762979D
:104C40000FB6F894DEBF0FBECDBF8C01CB01F801CB
:104C500011821082138212821582148250E0BE01EA
:104C60006F5F7F4F0E94D340BE016F5F7F4FC801CF
:104C70004CDF62960FB6F894DEBF0FBECDBFDF915A
:104C8000CF911F910F9108950F931F93CF93DF93AF
:104C9000CDB7DEB729970FB6F894DEBF0FBECDBFF4
:104CA0008C01862FF80111821082138212821582E4
:104CB000148250E0BE016F5F7F4F90E00E94274159
:104CC000BE016F5F7F4FC80120DF29960FB6F894B1
:104CD000DEBF0FBECDBFDF91CF911F910F91089521
:104CE000FC0111821082138212821582148222CF5B
:104CF000FC011182108213821282158214826115C6
:104D0000710549F0FB0101900020E9F73197AF01EF
:104D1000461B570B8CCB0895BF92CF92DF92EF9238
:104D2000FF920F931F93CF93DF937C016B018A0156
:104D3000E9012417350720F4812F8901C42FD82FCA
:104D400062E872E0C701D4DFD60114968D919C9180
:104D5000159708171907C8F48C179D0708F4EC017C
:104D6000D601ED91FC911197EC0FFD1FB0801082E0
:104D70004D915C91BA01600F711FC701C6DED6016B
:104D8000ED91FC91EC0FFD1FB082C701DF91CF9137
:104D90001F910F91FF90EF90DF90CF90BF900895FB
:104DA0004F925F926F927F92EF92FF920F931F93B9
:104DB000CF93DF93CDB7DEB7A1970FB6F894DEBFE0
:104DC0000FBECDBF7C01FA01CB0119A2223008F43D
:104DD0002AE08E010F5D1F4F422E512C612C712C49
:104DE000BF01A30192010E94EE44F901CA010150E2
:104DF00011096A3014F4605D01C0695CD8016C93DC
:104E0000232B242B252B61F7B801C70159D3A19679
:104E10000FB6F894DEBF0FBECDBFDF91CF911F91CB
:104E20000F91FF90EF907F906F905F904F9008955B
:104E30000F931F93CF93DF93EC0142D38C01CE01EC
:104E400054D3800F911FDF91CF911F910F9108953F
:104E500085ED8093BC008091BC0084FDFCCF109256
:104E6000C00808954091E40D262F30E0240F311D35
:104E700021323105DCF42091C0082430C9F4FC0152
:104E800080E090E0861758F43091E40D2191DC0128
:104E9000AE53B24FA30FB11D2C930196F3CF809167
:104EA000E40D680F6093E40D80E0089581E00895BB
:104EB00082E008950895E091C2088091C108E81742
:104EC00030F4F0E0ED53F74F808190E008958FEFDC
:104ED0009FEF08959091C2088091C108981750F4EF
:104EE000E92FF0E0ED53F74F208130E09F5F909382
:104EF000C20802C02FEF3FEFC90108958091C10899
:104F000090E02091C208821B91090895CF92DF9210
:104F1000EF92FF920F931F93CF93DF937C01262F85
:104F2000972F8A0180917608882391F0C62FD72F7A
:104F30006E01C40ED51ECC15DD0569F06991D7014F
:104F4000ED91FC910190F081E02DC7011995F3CF0F
:104F5000642F822F87DFC801DF91CF911F910F91BE
:104F6000FF90EF90DF90CF900895CF93DF931F9243
:104F7000CDB7DEB76983209176082223D1F0209146
:104F80009908203240F021E030E0FC013383228395
:104F900080E090E014C080917708E82FF0E0E858B6
:104FA000F74F998190838F5F80937708809399085A
:104FB00004C061E0CE01019655DF81E090E00F90E2
:104FC000DF91CF910895CF93DF931F92CDB7DEB7D6
:104FD00041E050E0BE016F5F7F4F0E94AA1601972B
:104FE00019F4898190E002C08FEF9FEF0F90DF915D
:104FF000CF9108951F920F920FB60F9211240BB606
:105000000F922F933F934F935F936F937F938F9361
:105010009F93AF93BF93EF93FF938091B900887FE5
:10502000803609F49CC068F5883209F45BC090F4BE
:10503000803109F454C038F4882309F4F6C088306C
:1050400009F44DC0F5C0883109F44CC0803209F430
:105050005DC0EEC0803409F468C048F4803309F4C0
:1050600055C0883309F0E4C08093BE08D8C08035AD
:1050700009F44FC0883509F45DC0883409F0D8C000
:10508000D6C0883909F4C7C0A8F4883709F467C0C6
:1050900038F4883609F463C0803709F460C0C8C0AA
:1050A000883809F4B8C0803909F45FC0803809F045
:1050B000BFC05BC0803B09F486C038F4803A09F475
:1050C00066C0883A09F47FC0B3C0803C09F4A7C029
:1050D000883C09F4A4C0883B09F48AC0A9C0809127
:1050E000BB0810C09091BD088091BC08981770F55E
:1050F000E091BD0881E08E0F8093BD08F0E0E65698
:10510000F74F80818093BB0085EC86C08093BE08FA
:105110008EC0E091BD0881E08E0F8093BD08809124
:10512000BB00F0E0E656F74F80839091BD08809178
:10513000BC086EC0E091BD0881E08E0F8093BD0871
:105140008091BB00F0E0E656F74F80838091BF0866
:1051500081116DC081E08093BA0884EA61C083E068
:105160008093C0081092080ECFCF8091080E803235
:1051700008F051C0E091080E81E08E0F8093080E78
:105180008091BB00F0E0E851F24F8083BDCF85EC09
:105190008093BC001092C0088091080E803230F4D9
:1051A000E091080EF0E0E851F24F10826091080E95
:1051B00070E0E091E60DF091E70D88EE9DE0199525
:1051C0001092080E35C084E08093C0081092E50D5F
:1051D0001092E40DE091E20DF091E30D19958091AC
:1051E000E40D811105C081E08093E40D1092C20DA1
:1051F000E091E50D81E08E0F8093E50DF0E0EE5338
:10520000F24F80818093BB009091E50D8091E40D79
:10521000981708F479CF85E88093BC0009C085EC25
:105220008093BC001092C00803C01092BE0810DE2C
:10523000FF91EF91BF91AF919F918F917F916F916E
:105240005F914F913F912F910F900BBE0F900FBE2A
:105250000F901F901895CF92DF92EF92FF920F93CD
:105260001F93CF93DF9300D000D0CDB7DEB76C0192
:105270000E942911009120081091210820912208F4
:1052800030912308DC01CB01801B910BA20BB30BE7
:10529000803C9742A940B105B0F10E94291160936A
:1052A00020087093210880932208909323086BEACA
:1052B00076E0CE0101961CDDCE0101960E9494039A
:1052C000CE01019685DC0D2C000CEE08FF08F7FEE0
:1052D0000DC06DE287E89BE0BAD044275527BA019C
:1052E0004C195D096E097F092AE003C02AE0B70165
:1052F000A60187E89BE054DD87E89BE0F6D087E8CD
:105300009BE00E945C1826960FB6F894DEBF0FBE95
:10531000CDBFDF91CF911F910F91FF90EF90DF9064
:10532000CF900895CF93DF93CDB7DEB72C970FB60C
:10533000F894DEBF0FBECDBF64ED77E0CE010196DD
:10534000D7DCBE016F5F7F4F8DE19AE0D1D06DEC6D
:1053500075E0CE010796CCDCBE016F5F7F4FCE01BA
:105360000796C2DB6BE276E0A8DBBC0183EE98E037
:1053700075D0CE0107962CDC61E087E00E94861094
:1053800068EE73E080E090E00E94F11060E087E05A
:105390000E94861068E873E180E090E00E94F110BE
:1053A00066EF77E0CE010196B0DBBE016F5F7F4F05
:1053B0008DE19AE09DD06DEC75E0CE01079698DC0A
:1053C000BE016F5F7F4FCE0107968EDB6BE276E00A
:1053D00074DBBC0183EE98E041D0CE010796F8DB88
:1053E000CE010196F5DB2C960FB6F894DEBF0FBE0A
:1053F000CDBFDF91CF910895CF92DF92EF92FF92D0
:105400000F931F93CF93DF936C017A018B01C0E060
:10541000D0E0CE15DF0589F0D8016D918D01D60160
:10542000ED91FC910190F081E02DC6011995892B39
:1054300011F47E0102C02196ECCFC701DF91CF911C
:105440001F910F91FF90EF90DF90CF900895DC01B6
:10545000ED91FC910190F081E02D1994DC01ED912A
:10546000FC91DB0114964D915C9115976D917C91A7
:105470000280F381E02D1994EF92FF920F931F9316
:10548000CF93DF938C017B01C0E0D0E0F701EC0FFC
:10549000FD1F6491662361F0D801ED91FC910190AC
:1054A000F081E02DC8011995892B11F02196EECFDE
:1054B000CE01DF91CF911F910F91FF90EF90089552
:1054C0006115710579F0FB0101900020E9F7319732
:1054D000AF01461B570BDC01ED91FC910280F3817B
:1054E000E02D199480E090E0089560E872E0E8CF44
:1054F0000F931F93CF93DF93EC01B0DF8C01CE01AC
:10550000F4DF800F911FDF91CF911F910F910895CC
:10551000D7CFCF93DF93CDB7DEB7C655D1090FB63E
:10552000F894DEBF0FBECDBF789484B5826084BD91
:1055300084B5816084BD85B5826085BD85B5816097
:1055400085BD80916E00816080936E001092810015
:1055500080918100826080938100809181008160D0
:105560008093810080918000816080938000809191
:10557000B10084608093B1008091B000816080931D
:10558000B0008091910082608093910080919100A1
:105590008160809391008091900081608093900061
:1055A0008091A10082608093A1008091A100816020
:1055B0008093A1008091A00081608093A0008091E1
:1055C000210182608093210180912101816080937B
:1055D00021018091200181608093200180917A00D7
:1055E000846080937A0080917A00826080937A0050
:1055F00080917A00816080937A0080917A0080683F
:1056000080937A001092C1001092FE0A1092FF0A55
:105610001092000B1092010B1092BC0A1092BD0A5E
:105620001092BE0A1092BF0A60ED77E080E090E031
:105630000E94F1108DE19AE09093FD0A8093FC0A9C
:1056400040E855E260E070E00E94EF1E0E942911E0
:105650006093BC0A7093BD0A8093BE0A9093BF0A00
:1056600061E772E08091FC0A9091FD0A51DF6AE0E7
:1056700070E080E090E00E94F11081E08093D00A19
:1056800062E872E0CE014C9633DB61E089E00E9473
:10569000B51060E089E00E94861061E08AE00E9417
:1056A000B51060E08AE00E94861060E08BE00E9406
:1056B000B51088E00E945E1021E0892B09F420E0FB
:1056C0002093630840E855E260E070E08DE19AE0E5
:1056D0000E94EF1E40E05BE460E070E080E899E04B
:1056E0000E94EF1E40E05BE460E070E083EE98E033
:1056F0000E94EF1E8DE19AE0F8DE63E872E0CE01D1
:105700004C9603DABE01645E7F4F8DE19AE0F0DED5
:1057100060E08091770B0E94B51061E08091770B7B
:105720000E94861010927A0B10927B0B10927C0BC9
:1057300010927D0B61E085E30E94B51087EF92E047
:10574000909317088093160810920F0B10920D0B70
:1057500010920A0B1092090B85E38093080B0E94AC
:1057600029118B0161E08091080B0E94B51061E066
:105770008091080B0E948610FFB6F8948091330840
:10578000811127C0E1E3F2E08491EBEEF1E0949126
:10579000E82FF0E0EE0FFF1FE456FE4FA591B49105
:1057A000EC91E92321F461E085E30E94861061E039
:1057B00085E30E94B5108CB580618CBD8CB580648A
:1057C0008CBD61E084E30E94B51061E083E30E9438
:1057D000B510809133088F5F80933308FFBE82E558
:1057E0008093020B1092030B8091020B9091030B9C
:1057F0000E943C1C6AE0F62E8FEF0E94011CFA9476
:10580000F110FACF84E09BE00E943F1C20E030E0E2
:10581000A90160E084E09BE00E94541CF82E809374
:105820000E0B81E0F81649F00E942911601B710BE4
:10583000613D774058F381E056C02AEA31E040E00C
:1058400050E068E084E09BE00E94541C82FF03C0AB
:10585000F0920F0B10C054E0F52E0E94081C8093AC
:105860000E0BFA94F110F9CF8A3A11F082E03BC0A6
:1058700082E080930F0B80910F0B823021F0C12CBE
:10588000D12C760105C0C12CD12CE12C40E4F42EA2
:1058900020E030E0A90167E384E09BE00E94541C13
:1058A000A701960169E284E09BE00E94541C80936A
:1058B0000E0B882349F00E942911601B710B613D7A
:1058C000774030F388E00FC080910F0B823001F5F4
:1058D00020E030E0A9016AE384E09BE00E94541CD0
:1058E000882341F086E08093090B84E09BE00E94CE
:1058F000F61B90C00E94081C807C803C19F483E059
:1059000080930F0B0E94081C0E94081C0E94081C18
:1059100084E09BE00E94F61B80E58093020B1092CE
:10592000030B81E00E946C22882329F08091330BC5
:10593000882341F06FC080E00E946C22882309F424
:1059400069C0F4CF8091270B803109F582E0809304
:10595000330B1092450B1092460B1092470B10928E
:10596000480B8091280B9091290BA0E0B0E035E026
:10597000880F991FAA1FBB1F3A95D1F78093410B3F
:105980009093420BA093430BB093440B1EC0803204
:1059900009F040C083E08093330B40912A0B509173
:1059A0002B0B60912C0B70912D0B4093450B50935A
:1059B000460B6093470B7093480B21E43BE080E17A
:1059C0009BE00E94AF13882329F180E19BE0909334
:1059D0004A0B8093490B81E08093320B1092340B79
:1059E0001092350B1092360B1092370B1092380B29
:1059F0001092390B10923A0B10923B0B10923C0B09
:105A000010923D0B10923E0B10923F0B1092400BE8
:105A10008093150810E00AE0812F602F0E94C63B9A
:105A2000805D80930702905D9093080265EC7BE1B6
:105A300081E092E00E94F520811135C043E161E0F0
:105A400072E0CE0101960E94E31F8B819C819093AE
:105A50008A0B8093890B8D819E81AF81B88580935D
:105A60008B0B90938C0BA0938D0BB0938E0B898531
:105A70009A85AB85BC8580938F0B9093900BA093F8
:105A8000910BB093920B8DE0FE013D96A3E9BBE034
:105A900001900D928A95E1F78A8D9B8D9093A10BD1
:105AA0008093A00B04C01F5F143609F0B5CFE091BE
:105AB000A00BF091A10B309731F08581882319F06C
:105AC00081E0809314080E9436220E9436226CEBFB
:105AD00072E0CE0101960CD9CE0101960E9494038A
