:10000000C4C20000F3C20000F1C20000EFC2000051
:10001000EDC20000EBC20000E9C20000E7C2000030
:10002000E5C20000E3C20000E1C20000DFC2000040
:10003000DDC20000DBC20000D9C20000D7C2000050
:10004000D5C20000D3C20000D1C20000CFC2000060
:10005000CDC20000CBC20000C9C200000C94C21B7C
:10006000C5C200000C94C21A0C94991ABFC20000B9
:10007000BDC20000BBC20000B9C20000B7C2000090
:10008000B5C20000B3C20000B1C20000AFC20000A0
:100090000C94701A0C94471AA9C20000DCC300002B
:1000A000A5C20000A3C20000A1C200009FC20000C0
:1000B0009DC200009BC2000099C2000097C20000D0
:1000C00095C2000093C2000091C200008FC20000E0
:1000D0008DC200008BC200000C941E1A0C94F519FE
:1000E00085C200009A2EA12ED42E1A2F7F2F962F74
:1000F000D32FFA2F0B3093199619851989198F1957
:10010000CD199A199E19A419A819AC19B219B619C2
:10011000BA19CD19C019C419C81907634236B79B5B
:10012000D8A71A39685618AEBAAB558C1D3CB7CC57
:100130005763BD6DEDFD753EF6177231BF000000CF
:10014000803F08000000BE922449123EABAAAA2AB2
:10015000BECDCCCC4C3E00000080BEABAAAAAA3ECD
:1001600000000000BF000000803F00000000000809
:100170004178D3BB4387D1133D190E3CC3BD4282A6
:10018000AD2B3E68EC8276BED98FE1A93E4C80EF64
:10019000FFBE01C4FF7F3F000000000000002100FF
:1001A000240027002A002D00300033000101000048
:1001B000040107010A010102102020080810204054
:1001C000102040800201020108040201010204081B
:1001D00010204080804020100804020180040201A9
:1001E00080402010080402010804020101020408F2
:1001F00010204080010204081020408005050505FC
:10020000070508080808020202020A0A080804048E
:1002100004040101010101010101030303030303BC
:100220000303040707070C0C0C0C0C0C0C0C02024B
:10023000020206060606060606060B0B0B0B0B0B48
:100240000B0B302C302C42657374616E642061613D
:100250006E67656D61616B7400302C302C52657374
:1002600065742061726475696E6F00302C302C41AA
:100270006C6C652073656E736F72656E2073747538
:100280006B3A206765656E20534D53206765737424
:100290007575726400302C302C416C6C6520536590
:1002A0006E736F72656E207374756B3A20534D5385
:1002B00020676573747575726400302C302C54653A
:1002C00073746D65737361676520534D5320676563
:1002D00073747575726400302C302C506F6D7032F1
:1002E000207569743A206765656E20534D53206709
:1002F0006573747575726400302C302C506F6D709E
:1003000032207569743A20534D53206765737475B4
:1003100075726400302C302C506F6D70312075690F
:10032000743A206765656E20534D5320676573747A
:100330007575726400302C302C506F6D70312075E3
:1003400069743A20534D53206765737475757264F0
:1003500000302C302C4C4C20534D53206765737467
:10036000757572640030354661696C656420746F20
:1003700020726561642066726F6D2044485420735A
:10038000656E736F7221230030344661696C656459
:1003900020746F20726561642066726F6D2044481E
:1003A000542073656E736F722123003037636F754D
:1003B0006C646E74206372656174652066696C6537
:1003C0002300303643617264206661696C65642C79
:1003D000206F72206E6F742070726573656E742367
:1003E0000030366361726420696E697469616C699A
:1003F0007A656423007C3C3E5E2B3D3F2F5B5D3B7A
:100400002C2A225C0000002200250028002B002E50
:10041000003100340002010000050108010B010059
:100420000020002300260029002C002F00320000AD
:1004300001000003010601090100000A0B02090C7A
:100440000D0E08070304010000000000000000007A
:10045000000000000000000000000000000000009C
:100460000000000000121110000000000000000059
:100470000000000000000000000000000000001F5D
:100480001C1F1E1F1E1F1F1E1F1E1F00407A10F361
:100490005A00A0724E18090010A5D4E80000E876B2
:1004A00048170000E40B54020000CA9A3B00000009
:1004B000E1F505000080969800000040420F000022
:1004C00000A08601000000102700000000E80300E3
:1004D0000000006400000000000A000000000001AD
:1004E00000000000002C76D888DC674F0823DFC1AD
:1004F000DFAE59E1B1B796E5E3E453C63AE6519968
:100500007696E8E6C28426EB898C9B62ED407C6F90
:10051000FCEFBC9C9F40F2BAA56FA5F490055A2A47
:10052000F75C936B6CF9676DC11BFCE0E40D47FE53
:10053000F520E6B500D0ED902E0300943577050048
:1005400080841E080000204E0A000000C80C3333CF
:1005500033330F986E12831141EF8D2114893BE6DE
:100560005516CFFEE6DB18D1844B381BF77C1D9067
:100570001DA4BBE424203284725E228100C9F124D0
:10058000ECA1E53D27008839643911241FBECFEF67
:10059000D1E2DEBFCDBF00E00CBF17E0A0E0B2E0CB
:1005A000ECE2F9E800E00BBF02C007900D92A63420
:1005B000B107D9F72DE0A6E4B7E001C01D92AA3338
:1005C000B207E1F712E0C4ECD2E000E006C02197E8
:1005D0000109802FFE010E942D3BC33CD10780E022
:1005E0000807A9F70E94AC2A0C94844409CD85ED34
:1005F0008093BC008091BC0084FDFCCF1092340835
:1006000008954091B507262F30E0240F311D213287
:100610003105DCF4209134082430C9F4FC0180E079
:1006200090E0861758F43091B5072191DC01AD5662
:10063000B84FA30FB11D2C930196F3CF8091B5074E
:10064000680F6093B50780E0089581E0089582E027
:1006500008950895E091360880913508E81730F440
:10066000F0E0E95CF74F808190E008958FEF9FEF15
:1006700008959091360880913508981750F4E92F25
:10068000F0E0E95CF74F208130E09F5F90933608FF
:1006900002C02FEF3FEFC90108958091350890E027
:1006A00020913608821B91090895CF92DF92EF9234
:1006B000FF920F931F93CF93DF937C01262F972FE9
:1006C0008A018091EA07882391F0C62FD72F6E0107
:1006D000C40ED51ECC15DD0569F06991D701ED91E9
:1006E000FC910190F081E02DC7011995F3CF642FA3
:1006F000822F87DFC801DF91CF911F910F91FF906B
:10070000EF90DF90CF900895CF93DF931F92CDB7F6
:10071000DEB769832091EA072223D1F020910D08EA
:10072000203240F021E030E0FC013383228380E07E
:1007300090E014C08091EB07E82FF0E0E451F84F0F
:10074000998190838F5F8093EB0780930D0804C09D
:1007500061E0CE01019655DF81E090E00F90DF91DE
:10076000CF910895CF93DF93CDB7DEB72C970FB617
:10077000F894DEBF0FBECDBF63EC74E0CE010196EE
:100780000E946029BE016F5F7F4F81E999E00E945E
:10079000222A65EE74E0CE0107960E946029BE0110
:1007A0006F5F7F4FCE0107960E945C286CE975E071
:1007B0000E944528BC0187E598E00E94642ACE018A
:1007C00007960E94D02861E087E00E94131B68EE24
:1007D00073E080E090E00E947E1B60E087E00E9472
:1007E000131B68E873E180E090E00E947E1B68EED6
:1007F00074E0CE0101960E946D28BE016F5F7F4FAD
:1008000081E999E00E94222A65EE74E0CE01079604
:100810000E946029BE016F5F7F4FCE0107960E9444
:100820005C286CE975E00E944528BC0187E598E0EA
:100830000E94642ACE0107960E94D028CE0101961C
:100840000E94D0282C960FB6F894DEBF0FBECDBF05
:10085000DF91CF9108951F920F920FB60F9211243E
:100860000BB60F922F933F934F935F936F937F93AA
:100870008F939F93AF93BF93EF93FF938091B900B2
:10088000887F803609F49CC068F5883209F45BC023
:1008900090F4803109F454C038F4882309F4F6C088
:1008A000883009F44DC0F5C0883109F44CC080325D
:1008B00009F45DC0EEC0803409F468C048F48033A8
:1008C00009F455C0883309F0E4C080933208D8C0D9
:1008D000803509F44FC0883509F45DC0883409F0CB
:1008E000D8C0D6C0883909F4C7C0A8F4883709F43D
:1008F00067C038F4883609F463C0803709F460C0F3
:10090000C8C0883809F4B8C0803909F45FC080389D
:1009100009F0BFC05BC0803B09F486C038F4803A60
:1009200009F466C0883A09F47FC0B3C0803C09F47A
:10093000A7C0883C09F4A4C0883B09F48AC0A9C0B8
:1009400080912F0810C0909131088091300898173D
:1009500070F5E091310881E08E0F80933108F0E06E
:10096000E25FF74F80818093BB0085EC86C0809367
:1009700032088EC0E091310881E08E0F80933108FB
:100980008091BB00F0E0E25FF74F808390913108E7
:10099000809130086EC0E091310881E08E0F809325
:1009A00031088091BB00F0E0E25FF74F80838091D7
:1009B000330881116DC081E080932E0884EA61C004
:1009C00083E0809334081092D907CFCF8091D90764
:1009D000803208F051C0E091D90781E08E0F8093FA
:1009E000D9078091BB00F0E0E754F84F8083BDCF7A
:1009F00085EC8093BC00109234088091D907803236
:100A000030F4E091D907F0E0E754F84F108260919C
:100A1000D90770E0E091B707F091B80789EB97E04C
:100A200019951092D90735C084E08093340810924C
:100A3000B6071092B507E091B307F091B407199586
:100A40008091B507811105C081E08093B5071092B0
:100A50009307E091B60781E08E0F8093B607F0E030
:100A6000ED56F84F80818093BB009091B60780913E
:100A7000B507981708F479CF85E88093BC0009C0C2
:100A800085EC8093BC001092340803C010923208A9
:100A9000AEDDFF91EF91BF91AF919F918F917F91CB
:100AA0006F915F914F913F912F910F900BBE0F90DF
:100AB0000FBE0F901F9018950F931F93CF93DF9346
:100AC00000D000D0CDB7DEB78C01E091140BF091CF
:100AD000150B309719F08581811106C066E075E02D
:100AE00081E999E00E94122ACE0101960E940C1C15
:100AF00096E0FE013196A5EFBAE001900D929A952D
:100B0000E1F7B8018BEF9AE00E94642A6FE873E086
:100B10008BEF9AE00E94AB2A4091F50A50E04053D7
:100B2000584F052E000C660B770B2AE08BEF9AE0EE
:100B30000E94B8296DE28BEF9AE00E945D2A4091F5
:100B4000F60A50E060E070E02AE08BEF9AE00E9445
:100B5000B8296DE28BEF9AE00E945D2A4091F70A76
:100B600050E060E070E02AE08BEF9AE00E94B82944
:100B70006AED72E08BEF9AE00E94AB2A4091F80A8E
:100B800050E060E070E02AE08BEF9AE00E94B82924
:100B90006BE174E08BEF9AE00E94AB2A4091F90A76
:100BA00050E060E070E02AE08BEF9AE00E94B82904
:100BB0006BE174E08BEF9AE00E94AB2A4091FA0A55
:100BC00050E060E070E02AE08BEF9AE00E94B829E4
:100BD0006FE873E08BEF9AE00E94AB2A26960FB67F
:100BE000F894DEBF0FBECDBFDF91CF911F910F9163
:100BF0000895CF92DF92EF92FF920F931F93CF93BE
:100C0000DF9300D000D0CDB7DEB76C010E94B61BD9
:100C100000915207109153072091540730915507C6
:100C2000DC01CB01801B910BA20BB30B803C9742E4
:100C3000A940B105D0F10E94B61B60935207709392
:100C40005307809354079093550763E275E0CE01F4
:100C500001960E946029CE0101962EDFCE010196F9
:100C60000E94D0280D2C000CEE08FF08F7FE0EC0E5
:100C70006DE28BEF9AE00E945D2A44275527BA0166
:100C80004C195D096E097F092AE003C02AE0B7010B
:100C9000A6018BEF9AE00E94B8298BEF9AE00E94A0
:100CA000002A8BEF9AE00E94521126960FB6F89414
:100CB000DEBF0FBECDBFDF91CF911F910F91FF908F
:100CC000EF90DF90CF9008950F931F93CF93DF9312
:100CD000CDB7DEB7AA970FB6F894DEBF0FBECDBF73
:100CE0008C0166E275E0CE014F960E9460298091EA
:100CF0001102813309F010C265EE74E0CE01019655
:100D00000E946029BE01615E7F4FCE0101960E9464
:100D10005C286CE975E00E944528BC0187E598E0F5
:100D20000E94642ACE0101960E94D02864EC73E0F0
:100D3000C8010E9426288823C9F061E475E0CE012D
:100D400001960E9460296EE27BE0CE0101960E942E
:100D50005C286CE975E00E944528BC0187E598E0B5
:100D60000E94642ACE0101960E94D02867E673E0B3
:100D7000C8010E9426288823C9F061E475E0CE01ED
:100D800001960E94602968E27BE0CE0101960E94F4
:100D90005C286CE975E00E944528BC0187E598E075
:100DA0000E94642ACE0101960E94D02864E673E076
:100DB000C8010E9426288823C9F061E475E0CE01AD
:100DC00001960E94602962E27BE0CE0101960E94BA
:100DD0005C286CE975E00E944528BC0187E598E035
:100DE0000E94642ACE0101960E94D02867EC73E02D
:100DF000C8010E9426288823C9F061E475E0CE016D
:100E000001960E9460296CE17BE0CE0101960E9470
:100E10005C286CE975E00E944528BC0187E598E0F4
:100E20000E94642ACE0101960E94D02866E374E0F5
:100E3000C8010E9426288823C9F061E475E0CE012C
:100E400001960E94602966E17BE0CE0101960E9436
:100E50005C286CE975E00E944528BC0187E598E0B4
:100E60000E94642ACE0101960E94D0287BDC64E4B3
:100E700075E0CE014F960E946D28BE01615E7F4FE6
:100E800081E999E00E94222A65EE74E0CE01019684
:100E90000E946029BE01615E7F4FCE0101960E94D3
:100EA0005C286CE975E00E944528BC0187E598E064
:100EB0000E94642ACE0101960E94D02860E177E268
:100EC00080E090E00E947E1BB801CE0185960E94D2
:100ED000582962E872E0CE0149960E94602964E6D2
:100EE00075E0CE0149960E946D28BE01675E7F4F76
:100EF00081E999E00E94222A65EE74E0CE01019614
:100F00000E946029BE01675E7F4FCE0101960E945C
:100F10005C286CE975E00E944528BC0187E598E0F3
:100F20000E94642ACE0101960E94D02861E775E0F4
:100F3000CE0143960E94602963E775E0CE010D96CD
:100F40000E946029BE01635F7F4FCE0101960E941F
:100F50005829BE016D5E7F4FCE0101960E945C282C
:100F60006DEC7AE00E945C28BE016D5E7F4F0E94AE
:100F70005C28BC01CE0107960E945829CE0101963B
:100F80000E94D02860E875E084EF98E00E94AB2AC8
:100F900064E670E080E090E00E947E1BBE01695F25
:100FA0007F4F84EF98E00E94222A64E670E080E0A0
:100FB00090E00E947E1B64EC73E0CE0185960E9457
:100FC0002628882361F06EE27BE084EF98E00E949F
:100FD000222A6EE27BE081E999E00E94222A67E6FC
:100FE00073E0CE0185960E942628882361F068E28E
:100FF0007BE084EF98E00E94222A68E27BE081E9AE
:1010000099E00E94222A64E673E0CE0185960E9450
:101010002628882361F062E27BE084EF98E00E945A
:10102000222A62E27BE081E999E00E94222A67ECB1
:1010300073E0CE0185960E942628882361F06CE13A
:101040007BE084EF98E00E94222A6CE17BE081E95A
:1010500099E00E94222A66E374E0CE0185960E9400
:101060002628882361F066E17BE084EF98E00E9407
:10107000222A66E17BE081E999E00E94222A64E667
:1010800070E080E090E00E947E1B6AE184EF98E0CF
:101090000E945D2A84EF98E00E94002A64E670E0D6
:1010A00080E090E00E947E1B84EF98E00E94002A7E
:1010B00068E873E180E090E00E947E1B6BE875E0D9
:1010C00081E999E00E94AB2ABE01695F7F4F81E907
:1010D00099E00E94222ACE0107960E94D028CE01D4
:1010E0000D960E94D028CE0143960E94D028CE01B2
:1010F00049960E94D028CE0185960E94D02832DBE6
:1011000069E975E087E598E00E94AB2A6EE975E031
:1011100087E598E00E94AB2AB801CE0101960E94B3
:101120005829CE010196C8DCCE0101960E94D02834
:1011300064EC73E0C8010E942628882321F081E531
:1011400093E00E94032A67E673E0C8010E94262804
:10115000882359F080911102813319F485E393E0DB
:1011600002C084E193E00E94032A64E673E0C801B0
:101170000E942628882359F080911102813319F4A6
:1011800088EF92E002C087ED92E00E94032A67ECAC
:1011900073E0C8010E942628882321F08AEB92E0A0
:1011A0000E94032A66E374E0C8010E94262888236F
:1011B00059F080911102813319F485E992E002C05F
:1011C0008BE692E00E94032A8BEF9AE00E94521174
:1011D000CE014F960E94D028AA960FB6F894DEBF93
:1011E0000FBECDBFDF91CF911F910F910895CF9387
:1011F000DF93CDB7DEB762970FB6F894DEBF0FBEB0
:10120000CDBF62E872E0CE0101960E946029609134
:101210000F0270911002685071094AE0CE010D96DC
:101220000E94012963EA75E0CE0107960E946029B9
:10123000BE01635F7F4FCE0107960E945C286CE978
:1012400075E00E944528BC01CE0101960E948228CB
:10125000CE0107960E94D028CE010D960E94D0287C
:10126000BE016F5F7F4F87E598E00E94642A64E1CA
:1012700070E080E090E00E947E1BCE0101960E940B
:10128000D02862960FB6F894DEBF0FBECDBFDF91B7
:10129000CF910895EF92FF920F931F93CF93DF9317
:1012A00000D000D0CDB7DEB78C017B01CE01019616
:1012B0000E940C1C2A8180E2289F900111248B81BE
:1012C000A901482B8981282F30E02C5E3F4F322F17
:1012D0002227330F242B352BF801318320838D8176
:1012E000F0E28F9F900111249C81892F90E0982F2C
:1012F0008827990F990F990F822B932B2E8130E01D
:1013000035952795822B932BF70191838083269621
:101310000FB6F894DEBF0FBECDBFDF91CF911F9106
:101320000F91FF90EF900895CF93DF93CDB7DEB785
:1013300062970FB6F894DEBF0FBECDBF60915E0717
:1013400070915F074AE0CE010D960E9401296091DD
:101350006007709161074AE0CE0107960E9401295B
:1013600066EA75E0CE0101960E946029BE01695FC0
:101370007F4FCE0101960E945C28BE01635F7F4FC4
:101380000E945C286CE975E00E944528BC0187E555
:1013900098E00E94642ACE0101960E94D028CE01D6
:1013A00007960E94D028CE010D960E94D02864E1B5
:1013B00070E080E090E00E947E1B62960FB6F89489
:1013C000DEBF0FBECDBFDF91CF9108954F925F92E8
:1013D0006F927F928F929F92AF92BF92CF92DF9245
:1013E000EF92FF92CF93DF93CDB7DEB762970FB640
:1013F000F894DEBF0FBECDBF2B013C0149015A015D
:1014000069EA75E081E999E00E94AB2A2AE0B3011C
:10141000A20181E999E00E94B8292AE0B501A4015E
:1014200081E999E00E94B82981E999E00E94002AA7
:1014300088EEC82E83E0D82EE12CF12CC301B20136
:10144000A70196010E944944BA01A9012AE0CE01F0
:1014500007960E94D528C501B401A70196010E94F4
:101460004944BA01A9012AE0CE0101960E94D5287B
:1014700063EC75E0CE010D960E946029BE01695FA4
:101480007F4FCE010D960E945C286DE174E00E94B2
:101490004528BE016F5F7F4F0E945C286CE975E0B4
:1014A0000E944528BC0187E598E00E94642ACE018D
:1014B0000D960E94D02864E170E080E090E00E94E8
:1014C0007E1BCE0101960E94D028CE0107960E9475
:1014D000D02862960FB6F894DEBF0FBECDBFDF9165
:1014E000CF91FF90EF90DF90CF90BF90AF909F9003
:1014F0008F907F906F905F904F9008958F929F9202
:10150000AF92BF92CF92DF92EF92FF92CF93DF9391
:10151000CDB7DEB762970FB6F894DEBF0FBECDBF72
:1015200049015A0128EEC22E23E0D22EE12CF12CE3
:10153000A70196010E944944BA01A9012AE0CE01FF
:1015400007960E94D528C501B401A70196010E9403
:101550004944BA01A9012AE0CE0101960E94D5288A
:1015600066EC75E0CE010D960E946029BE01695FB0
:101570007F4FCE010D960E945C286DE174E00E94C1
:101580004528BE016F5F7F4F0E945C286CE975E0C3
:101590000E944528BC0187E598E00E94642ACE019C
:1015A0000D960E94D02864E170E080E090E00E94F7
:1015B0007E1BCE0101960E94D028CE0107960E9484
:1015C000D02862960FB6F894DEBF0FBECDBFDF9174
:1015D000CF91FF90EF90DF90CF90BF90AF909F9012
:1015E0008F900895CF92DF92EF92FF92CF93DF9387
:1015F000CDB7DEB768970FB6F894DEBF0FBECDBF8C
:1016000060915A0770915B0780915C0790915D072C
:1016100028EEC22E23E0D22EE12CF12CA701960158
:101620000E944944BA01A9012AE0CE0143960E94D2
:10163000D52860915607709157078091580790916F
:101640005907A70196010E944944BA01A9012AE05D
:10165000CE010D960E94D52869EC75E0CE01079663
:101660000E946029BE01635F7F4FCE0107960E94F2
:101670005C286DE174E00E944528BE016D5E7F4FDD
:101680000E945C286CE975E00E944528BC01CE01EF
:1016900001960E945829CE0107960E94D028CE01BB
:1016A0000D960E94D028CE0143960E94D028BE01FC
:1016B0006F5F7F4F87E598E00E94642A64E170E0E5
:1016C00080E090E00E947E1BCE0101960E94D0280F
:1016D00068960FB6F894DEBF0FBECDBFDF91CF91F5
:1016E000FF90EF90DF90CF900895CF93DF93CDB729
:1016F000DEB762970FB6F894DEBF0FBECDBF809104
:10170000630790916407049709F471DD62E872E061
:10171000CE0101960E946029609163077091640771
:101720004AE0CE010D960E9401296CEC75E0CE01D5
:1017300007960E946029BE01635F7F4FCE01079626
:101740000E945C286CE975E00E944528BC01CE012E
:1017500001960E948228CE0107960E94D028CE01D1
:101760000D960E94D028BE016F5F7F4F87E598E0FD
:101770000E94642A64E170E080E090E00E947E1B99
:10178000CE0101960E94D02862960FB6F894DEBF73
:101790000FBECDBFDF91CF910895EF92FF920F93CF
:1017A0001F93CF93DF93CDB7DEB72C970FB6F89486
:1017B000DEBF0FBECDBF7C01BC018DEC9AE00E9464
:1017C00082286FEC75E0CE0107960E946029B70170
:1017D000CE0107960E945C286CE975E00E944528BE
:1017E000BC01CE0101960E945829CE0107960E94A5
:1017F000D028BE016F5F7F4F87E598E00E94642A82
:1018000064E170E080E090E00E947E1B01E010E067
:10181000C8010197F701248135818217930750F49D
:10182000208131812115310529F0F901E80FF91FD7
:10183000608101C060E0C8010E943B4464E170E047
:1018400080E090E00E947E1B62ED75E081E999E006
:101850000E94122A0F5F1F4F0B301105C9F6CE01EF
:1018600001960E94D0282C960FB6F894DEBF0FBECA
:10187000CDBFDF91CF911F910F91FF90EF90089511
:10188000CF93DF93CDB7DEB72C970FB6F894DEBFBA
:101890000FBECDBF61E072E0CE0101960E946029CB
:1018A00080914707882319F061EE73E002C062EC73
:1018B00073E087E598E00E94722A64E170E080E0BE
:1018C00090E00E947E1B80914607882311F16FE013
:1018D00076E0CE0107960E946029BE016F5F7F4FC0
:1018E000CE0107960E945C286CE975E00E944528AD
:1018F000BC01CE0101960E948228CE0107960E946B
:10190000D028BE016F5F7F4F87E598E00E94642A70
:1019100006C06BEA73E087E598E00E94722A64E1F2
:1019200070E080E090E00E947E1BCE0101960E9454
:10193000D0282C960FB6F894DEBF0FBECDBFDF9136
:10194000CF91089588E00E94EB1A21E0892B09F4D9
:1019500020E020936207222319F062E176E002C0C2
:1019600067E176E087E598E00E94AB2A64E170E0E9
:1019700080E090E00C947E1B0F931F93CF93DF9336
:10198000CDB7DEB7A9970FB6F894DEBF0FBECDBFB7
:10199000CE0101960E940C1C86E0FE013196A5EF57
:1019A000BAE001900D928A95E1F705EF1AE0F8018F
:1019B000808190E01DA21CA21FA21EA219A618A63B
:1019C0004AE0BE016F5F7F4F8053984F0E948C406A
:1019D000BE016F5F7F4FCE0184960E946D284AE062
:1019E000F8016181CE014E960E942C294AE0F8014F
:1019F0006281CE0148960E942C296CE176E0CE01EE
:101A000042960E946029BE01685E7F4FCE014296D9
:101A10000E945C286BE174E00E944528BE01625E72
:101A20007F4F0E945C286BE174E00E944528BE0154
:101A30006C5D7F4F0E945C286CE975E00E94452830
:101A4000BC01CE0101960E945829CE0142960E9407
:101A5000D028CE0148960E94D028CE014E960E94F2
:101A6000D028CE0184960E94D028BE016F5F7F4FA0
:101A700087E598E00E94642A64E170E080E090E0ED
:101A80000E947E1BCE0101960E94D028A9960FB617
:101A9000F894DEBF0FBECDBFDF91CF911F910F91A4
:101AA0000895CF93DF93CDB7DEB72C970FB6F89498
:101AB000DEBF0FBECDBF62E872E0CE0101960E948C
:101AC000602961EA73E0CE0107960E94602963ED08
:101AD0007AE0CE0107960E945C286CE975E00E94CE
:101AE0004528BC01CE0101960E948228CE010796AE
:101AF0000E94D028BE016F5F7F4F87E598E00E946B
:101B0000642A64E170E080E090E00E947E1BCE01D8
:101B100001960E94D0282C960FB6F894DEBF0FBE17
:101B2000CDBFDF91CF910895CF92DF92EF92FF92D8
:101B30000F931F93CF93DF938C017B016A01EC011C
:101B4000EC16FD06F4F09E01201B310BF60184819A
:101B500095812817390748F480819181009729F0F1
:101B6000FC01E20FF31F608101C060E0CE010E9422
:101B70003B4464E170E080E090E00E947E1B21968F
:101B8000DFCFDF91CF911F910F91FF90EF90DF900A
:101B9000CF900895CF93DF93CDB7DEB72C970FB6D4
:101BA000F894DEBF0FBECDBF63E275E0CE010796AD
:101BB0000E9460296FED7AE0CE0107960E945C28B2
:101BC0006CE975E00E944528BC01CE0101960E9497
:101BD0005829CE0107960E94D02860914E07709137
:101BE0004F0780915007909151079B01AC010E94D3
:101BF0005D3C882339F068E873E087E598E00E944F
:101C0000722A07C0BE016F5F7F4F87E598E00E9490
:101C1000642A64E170E080E090E00E947E1B6FE146
:101C200076E0CE0107960E94602969ED7AE0CE0148
:101C300007960E945C286CE975E00E944528BC016B
:101C4000CE0101960E948228CE0107960E94D028DC
:101C500060914A0770914B0780914C0790914D0716
:101C60009B01AC010E945D3C882339F065E673E07E
:101C700087E598E00E94722A07C0BE016F5F7F4F20
:101C800087E598E00E94642A64E170E080E090E0DB
:101C90000E947E1BCE0101960E94D0282C960FB682
:101CA000F894DEBF0FBECDBFDF91CF9108958F9224
:101CB0009F92AF92BF92CF92DF92EF92FF920F93DB
:101CC0001F93CF93DF93CDB7DEB7C258D1090FB6BC
:101CD000F894DEBF0FBECDBF8C017B0164E673E0DC
:101CE00087E598E00E94AB2A8BE5C82ED12CCC0E5C
:101CF000DD1E8CE0C80ED11C5701EFEFAE1ABE0AF4
:101D0000F801818C928CF4018581823008F471C0D5
:101D1000F40182859385A485B5858F719927AA27BB
:101D2000BB27892B8A2B8B2B09F063C040E250E044
:101D3000BE016F5F7F4FC40134D5803209F059C0B6
:101D40008981882309F455C0853E81F38E3271F371
:101D50008C8583FDEBCF22961FAE1EAE229785E4C5
:101D600092E09FAF8EAF24961FAE2497FE0131966E
:101D700090E020E03EE28191803291F0283041F401
:101D8000A6E7B0E0AC0FBD1FA90FB11D3C939F5F4C
:101D9000A6E7B0E0AC0FBD1FA90FB11D8C939F5FEC
:101DA0002F5F2B3041F7E6E7F0E0EC0FFD1FE90F66
:101DB000F11D1082F801618D728D21E0AE014A584B
:101DC0005F4FCE01CE9607D6882399F0BE01625CA4
:101DD0007F4FCE0181960E94C717AE014A585F4FD0
:101DE000BE016F5D7F4FCE01855A9F4F0E942B1819
:101DF00005C0CE01855A9F4F0E941818E696EEAD99
:101E0000FFADE697309719F08581811123C062E21A
:101E100076E081E999E00E94122A6CE975E087E595
:101E200098E00E94AB2AC8010E94B417CE57DF4F3A
:101E30000FB6F894DEBF0FBECDBFDF91CF911F91DB
:101E40000F91FF90EF90DF90CF90BF90AF909F9059
:101E50008F90089580E0282F30E02E153F0514F470
:101E60008F5FF9CFB60187E598E00E94AB2AE6962E
:101E70008EAD9FADE697009709F43FC0FC01258128
:101E80002230D8F16F962EAD3FAD6F973C832B83F8
:101E9000A3964CAD5DAD6EAD7FADA3974D835E83D4
:101EA0006F837887A7964CAD5DAD6EAD7FADA7977C
:101EB00049875A876B877C8725E232E03A832983FA
:101EC0002DE0F601DE011D9601900D922A95E1F7B5
:101ED0009B8F8A8FB501CE010196E9DEE6968EAD25
:101EE0009FADE697009709F40BCF00D2E6968EAD32
:101EF0009FADE6970E94703F03CF6AED72E087E5E1
:101F000098E00E94AB2AE696EEADFFADE6973097DB
:101F100029F0438954896589768903C040E050E0FF
:101F2000BA012AE087E598E00E94B8296FE873E0DB
:101F300087E598E00E94AB2AD1CFCF93DF9300D002
:101F400000D0CDB7DEB762E872E0CE0101960E9404
:101F5000602980910002882319F061E376E002C0D5
:101F60006AE376E0CE0101960E946D28BE016F5FA4
:101F70007F4F87E598E00E94642A64E170E080E08A
:101F800090E00E947E1BCE0101960E94D0282696EA
:101F90000FB6F894DEBF0FBECDBFDF91CF9108958D
:101FA0001F93CF93DF93CDB7DEB768970FB6F89442
:101FB000DEBF0FBECDBF182F62E872E0CE010796DC
:101FC0000E946029103319F461E476E002C065E4F0
:101FD00076E0CE0107960E946D28BE01695F7F4FB3
:101FE000CE0143960E94582967E673E0CE010D9614
:101FF0000E946029BE016D5E7F4FCE010D960E944A
:102000005C286CE975E00E944528BC01CE01019670
:102010000E945829CE010D960E94D028CE014396E9
:102020000E94D028BE016F5F7F4F87E598E00E9435
:10203000642A6091110280E090E00E943B44CE014E
:1020400001960E94D028CE0107960E94D02868965B
:102050000FB6F894DEBF0FBECDBFDF91CF911F91B9
:102060000895CF93DF9300D000D0CDB7DEB708DC62
:102070008091110295DF6DEC7AE0CE0101960E940D
:102080005829CE01019689DBCE0101960E94D02805
:1020900073DC2BDBACD856DCA5DA46D926960FB616
:1020A000F894DEBF0FBECDBFDF91CF910895CF92E0
:1020B000DF92EF92FF920F931F93CF93DF93CDB7F1
:1020C000DEB72C970FB6F894DEBF0FBECDBF8C01E4
:1020D0007B016A0162E872E00E946029CE14DF048D
:1020E0004CF1C7010E943344282F30E0B9016053FE
:1020F00071094AE0CE0107960E940129B801CE017C
:1021000001960E945829BE01695F7F4FCE0101965A
:102110000E945C28BC01C8010E948228CE01019661
:102120000E94D028CE0107960E94D0288FEFE81A8F
:10213000F80AD4CFC8012C960FB6F894DEBF0FBEB4
:10214000CDBFDF91CF911F910F91FF90EF90DF9066
:10215000CF900895DC015996ED91FC915A973097F4
:10216000B9F083899489A589B689428553856485A8
:102170007585841B950BA60BB70B811520E892077C
:10218000A105B10538F08FEF9FE7A0E0B0E008951A
:1021900080E090E00895CF93DF931F92CDB7DEB734
:1021A0006983DC01ED91FC910280F381E02D41E037
:1021B00050E0BE016F5F7F4F19950F90DF91CF9177
:1021C00008951F93CF93DF93EC0180E2689FF001A5
:1021D00011249F012C5C344FD9011B969C91917165
:1021E00029F0842F827411F080E058C0142F6A8B7C
:1021F0008091120290911302A0911402B0911502E5
:102200008E879F87A88BB98BEC5CF44F44895589E6
:1022100060E070E0BA01552744274F8B588F698FD3
:102220007A8F828D938DA0E0B0E0482B592B6A2BDA
:102230007B2B4F8B588F698F7A8FD9011B968C918E
:10224000887151F4848D958DA68DB78D8B8B9C8B69
:10225000AD8BBE8B81E00DC0803131F69E012D5ECD
:102260003F4F8B8D9C8D0E94381E882309F4BCCF74
:1022700084E08D83812F8F708C831E821F8218864D
:1022800019861A861B861C861D8616FF06C0CE017F
:10229000DF91CF911F910C94442281E0DF91CF9187
:1022A0001F910895FC01818D928D009711F00C947F
:1022B000A01E0895CF93DF93EC01898D9A8D00972E
:1022C00039F481E090E09B838A8380E090E00BC04A
:1022D000FC01138212820E94891FE98DFA8D2281EE
:1022E0003381232B71F7DF91CF910895CF93DF9343
:1022F000EC010E94A01E882311F01D8281E0DF9175
:10230000CF9108953F924F925F926F927F928F92FA
:102310009F92AF92BF92CF92DF92EF92FF920F9374
:102320001F93CF93DF93CDB7DEB72C970FB6F894FA
:10233000DEBF0FBECDBF5C01DC015B968D909C9033
:102340005C971696CD90DD90ED90FC901997C11496
:10235000D104E104F10439F0BFEFCB1ADB0AEB0A38
:10236000FB0A312C07C0F401C080D180E280F380E9
:1023700033243394F40181859285A385B4859C012F
:10238000AD012F5F3F4F4F4F5F4F29873A874B87F4
:102390005C87260137011D821E821F821886F40188
:1023A00081859285A385B4852D813E814F81588595
:1023B000281739074A075B0708F063C089859A85A3
:1023C000AB85BC858C159D05AE05BF0550F482E03C
:1023D000C82ED12CE12CF12C92E0492E512C612CED
:1023E000712C9E012F5F3F4FB701A601C4010E94CF
:1023F000B51D882309F445C089819A81AB81BC81D0
:10240000892B8A2B8B2B41F0260137019FEF491A2C
:10241000590A690A790A05C0C414D504E604F70408
:1024200091F02D813E814F8158852F5F3F4F4F4F57
:102430005F4F2D833E834F8358873FEFC31AD30AE4
:10244000E30AF30AACCF0FEF1FEF2FEF3FE0B3012A
:10245000A201C4010E94161D882399F0D501169689
:102460004D915D916D917C911997411551056105D3
:10247000710549F093018201C4010E94161D81116A
:1024800002C080E02AC0D50116964D925D926D92F1
:102490007C921997332051F0D301C2010196A11DFE
:1024A000B11DF40180839183A283B383F5018789F1
:1024B000908DA18DB28D892B8A2B8B2B69F4D50140
:1024C00057964D925D926D927C925A9714968C918C
:1024D0001497806814968C9381E02C960FB6F8942C
:1024E000DEBF0FBECDBFDF91CF911F910F91FF9047
:1024F000EF90DF90CF90BF90AF909F908F907F90A4
:102500006F905F904F903F9008958FB7F8948091AF
:10251000DB078FBF089561E0FC0184810E94131BDB
:102520008091DA0781111092DA0708958EBD0000BC
:102530000DB407FEFDCF8EB508958FEFF7CF0F9343
:102540001F93CF93DF93EB010E94B61B8B01F5DF46
:102550008F3F49F00E94B61B601B710B6C177D0703
:10256000B0F380E001C081E0DF91CF911F910F9126
:102570000895CF93DF93EC018E81882379F08F81CA
:1025800098859C012F5F3F4F38872F838230924080
:1025900010F4D3DFF4CFCE01BEDF1E82DF91CF91E6
:1025A00008958CBD9DBD0895CF93DF93EC0180917C
:1025B000DA07811108C081E08093DA078091760AFA
:1025C0009091770AEEDF60E08C81DF91CF910C94DF
:1025D000131BCF92DF92FF920F931F93CF93DF9342
:1025E00000D01F92CDB7DEB76C01F62E29833A8357
:1025F0004B835C83BEDFC601D7DF6CE271E0C601AE
:102600009EDF8F2D806492DF08E110E05C814B81BA
:102610003A812981DA01C901002E04C0B695A79537
:10262000979587950A94D2F729833A834B835C83E5
:102630007DDF0850110929813A814B815C81083F77
:102640008FEF180739F7FF2029F0E8E0FE1204C0E9
:1026500087E803C085E901C08FEF68DF10E06DDF18
:10266000F601828787FF04C01F3F11F01F5FF7CF7D
:102670000F900F900F900F90DF91CF911F910F91BE
:10268000FF90DF90CF900895AF92BF92CF92DF92EC
:10269000EF92FF920F931F93CF93DF93EC016901A9
:1026A000C801820F931F8130924008F06AC08E816A
:1026B000882371F088819981AA81BB8148175907C5
:1026C0006A077B0729F48F819885C816D90698F583
:1026D000488359836A837B838B85833039F089E013
:1026E000440F551F661F771F8A95D1F79A01AB01DA
:1026F00061E1CE016EDF882319F083E08D8341C054
:102700000E94B61B5B0119DF8A878F3F49F40E9444
:10271000B61B6A197B096D327140A8F38FE003C0C4
:102720008E3F29F08DE08D83CE01F5DE2AC018861C
:102730001F8281E08E838F8198858C159D0538F4EA
:10274000FCDE8F819885019698878F83F4CF67018F
:10275000E00EF11ECE14DF0429F0EFDEF6018193C6
:102760006F01F8CF8F819885080F191F18870F8385
:102770008985882319F00115124038F0CE01F9DE61
:1027800004C0CE01C8DE80E001C081E0DF91CF91BE
:102790001F910F91FF90EF90DF90CF90BF90AF907F
:1027A00008952F923F924F925F926F927F928F92F5
:1027B0009F92AF92BF92CF92DF92EF92FF920F93D0
:1027C0001F93CF93DF93EC016B014A018D8181113F
:1027D00003C08FEF9FEFD6C08C8180FFFACF4B886C
:1027E0005C886D887E884A855B856C857D85C401A3
:1027F000A0E0B0E093018201041B150B260B370B00
:10280000081719072A073B0718F44201841A950A8A
:1028100054011E0126E0220E311CA114B10409F45A
:102820007EC04A855B856C857D852A0181E05822C2
:10283000ED818A019B0189E03695279517950795CB
:102840008A95D1F78B8D9C8DE23061F4FC01828DED
:10285000938DA48DB58DBC01CD01600F711F821FBA
:10286000931F3FC0FC0174807A947022411451047C
:10287000C9F4711017C0452B462B472B49F48F899B
:10288000988DA98DBA8D8E839F83A887B9870AC03A
:102890004E815F816885798591010E94B51D8823ED
:1028A00009F497CFEB8DFC8D8E819F81A885B9852A
:1028B0000297A109B109058404C0880F991FAA1FB6
:1028C000BB1F0A94D2F74685578560897189840FAA
:1028D000951FA61FB71FBC01CD01670D711D811D7E
:1028E000911D20E032E02419350935012A153B05F8
:1028F00008F439012C8126FD04C06114F2E07F0642
:1029000081F400911202109113022091140230916F
:1029100015026017710782079307B1F402C0C40162
:1029200031C040E00E94CE1C882309F452CFF2014E
:10293000EC5CF44FD601CF01860D971DE817F9071F
:1029400081F021912D93FACF760183019201AB01A1
:10295000BC018091340D9091350D96DE882309F4E9
:1029600038CFC60CD71C8A859B85AC85BD85860D66
:10297000971DA11DB11D8A879B87AC87BD87A618AF
:10298000B7084BCFDF91CF911F910F91FF90EF9040
:10299000DF90CF90BF90AF909F908F907F906F907F
:1029A0005F904F903F902F900895CF93DF931F92A9
:1029B000CDB7DEB741E050E0BE016F5F7F4FF1DE83
:1029C000019719F4898190E002C08FEF9FEF0F907B
:1029D000DF91CF9108954F925F926F927F929F9275
:1029E000AF92BF92CF92DF92EF92FF920F931F931D
:1029F000CF93DF93CDB7DEB72B970FB6F894DEBF3A
:102A00000FBECDBF7C01DC011596AC90A11091C129
:102A1000FE0131966F0190E28BE08E0F91938E1341
:102A2000FDCFDA0130E087E09D91992339F19E32A4
:102A300019F0E5EFF3E00AC08A3009F47BC138E011
:102A40008AE0F2CF3196491709F474C144914111DB
:102A5000F9CF831708F46EC14FED490F4E3508F0DA
:102A600069C141E0430FF601E30FF11D3FE9390F62
:102A70003A3108F490529083342FD6CF8981803236
:102A800009F458C1B22E8B01DB015B968D919C91AC
:102A90005C97F701948F838F16961D921D921D925D
:102AA0001C921997FB011286138614861586712CC9
:102AB000F80182859385A485B58543895489658904
:102AC000768984179507A607B70708F060C025E048
:102AD000B695A795979587952A95D1F7F82FFF700A
:102AE0009F2ED80115968C91823008F423C1C8011D
:102AF0005CDF97FD1FC1F80182859385A485B585AC
:102B00004F96A11DB11D82879387A487B587F0E2F8
:102B10009F9EC0011124BC016C5C744F611571054E
:102B200009F408C1DB012C91222319F0253EC1F4E0
:102B300027C071100EC0F701928A40911202509185
:102B40001302609114027091150246875787608BBB
:102B5000718BFC01EC5CF44F8081811113C015C0B6
:102B60004BE050E0C6010E94623E892B09F0A0CFE5
:102B70008B2D8073803309F4DDC04B2D692DD5C0BA
:102B80007720C9F27724739493CF772473948B2D95
:102B90008271823109F0CEC07720C9F0D7011E962C
:102BA0006D917D918D919C91519741E0F7D688234D
:102BB00009F4C0C0F7010289F0E20F9F80011124DF
:102BC0000C5C144F0115110509F077C0B3C0D80192
:102BD00015968C91823009F4ADC0C80193DB88232F
:102BE00009F4A8C0D8015B96ED91FC915C9716960C
:102BF0004D905D906D907C901997B2E04B1A510802
:102C000061087108058404C0440C551C661C771CBF
:102C10000A94D2F786859785A089B189480E591EF6
:102C20006A1E7B1E9480E1E04E1A5108610871080B
:102C3000992001F17AD6882309F47CC0E4E3FBE013
:102C400011922DE0E433F207D9F7D301C201890DC7
:102C5000911DA11DB11D8093120290931302A093A8
:102C60001402B09315028091DC0781608093DC0729
:102C70009A94DECFD8015B96ED91FC915C9780E051
:102C800092E0A0E0B0E0058404C0880F991FAA1F5D
:102C9000BB1F0A94D2F7F801438954896589768964
:102CA000840F951FA61FB71F838B948BA58BB68BA4
:102CB000D70152961C9204E31BE080E2F8011192C6
:102CC0008A95E9F78BE0F601D80101900D928A957B
:102CD000E1F7E0914807F0914907309739F0B801E2
:102CE000625F7F4FC801409619950DC081E298E25E
:102CF000D80151969C938E93509780E098E01F9650
:102D00009C938E931E97F80180899189938B828B77
:102D1000918F808F86859785978B868B06D68823A3
:102D200049F04B2DD70152966C91C7014ADAA82E73
:102D300001C0A12C8A2D2B960FB6F894DEBF0FBED2
:102D4000CDBFDF91CF911F910F91FF90EF90DF905A
:102D5000CF90BF90AF909F907F906F905F904F907B
:102D60000895CF93DF93CDB7DEB76D970FB6F89484
:102D7000DEBF0FBECDBF442391F1AB01BC011C826D
:102D80001B8285E492E09A8389831E8222E0CE0131
:102D9000019621DE811102C090E01CC0CE01019697
:102DA0000E9444228823C1F36F85788989899A8992
:102DB00041E0F4D5882381F3EB8980E2E89FF001BC
:102DC0001124EC5CF44F309739F385EE80831E823A
:102DD000ACD5982F81E0911103C080E001C081E063
:102DE0006D960FB6F894DEBF0FBECDBFDF91CF91C9
:102DF00008951F93CF93DF93CDB7DEB76D970FB6CE
:102E0000F894DEBF0FBECDBFAB011C821B8225E450
:102E100032E03A8329831E8221E0BC01CE01019673
:102E2000DADD11E0811102C010E003C0CE0101968D
:102E30005DDA812F6D960FB6F894DEBF0FBECDBF61
:102E4000DF91CF911F910895FC01818D928D0097A4
:102E500009F0ABCD8FEF9FEF08950F931F93CF93A2
:102E6000DF93FC01818D928D0097A9F0EF019DDD2C
:102E70008C010F3F8FEF180789F0898D9A8DFC0127
:102E800042855385648575854150510961097109F1
:102E9000ABD7C80105C080E090E002C08FEF9FEF84
:102EA000DF91CF911F910F910895EF92FF920F93B1
:102EB0001F93CF93DF93EC01790141155105610513
:102EC000710511F482E134C08B85833039F089E0DB
:102ED000440F551F661F771F8A95D1F79A01AB01E2
:102EE00068E1CE0176DB882311F084E021C08EEF0B
:102EF0001DDB87018EEFF81AF80181918F0116DB37
:102F00000E151F05C9F78FEF11DB8FEF0FDB15DBF8
:102F10008A878F71853029F081E18D83CE01FBDABC
:102F200008C068E572E0CE010ADB811106C085E1C8
:102F30008D83CE01F0DA80E010C020E030E0A901FE
:102F40006DE0CE0146DB811103C0F7DA882311F072
:102F500084E1EECFCE01DFDA81E0DF91CF911F91E6
:102F60000F91FF90EF900895DC015996ED91FC913F
:102F70005A97309759F08581823040F01682178237
:102F80001086118612861386148615860895FC0114
:102F9000DB0112968D919C9113979383828385E434
:102FA00092E09183808314968C9114978483159674
:102FB0008C911597858316964D915D916D917C91BD
:102FC000199746835783608771871A964D915D9153
:102FD0006D917C911D9742875387648775871E96F4
:102FE0004D915D916D917C91519746875787608B8C
:102FF000718B52968C915297828B53964D915D9125
:103000006D917C915697438B548B658B768B57963D
:103010004D915D916D917C915A97478B508F618F47
:10302000728F5B968D919C915C97948F838F08959E
:10303000FC011382128288EE93E0A0E0B0E084836A
:103040009583A683B78385E292E091838083128E75
:10305000118E14860895EF92FF920F931F93CF93D2
:10306000DF93EC017B018A011B821A8288EE93E0D8
:10307000A0E0B0E08C839D83AE83BF8385E292E0C5
:10308000998388838DE190E00E94DB3E9A8F898F3F
:10309000009779F02DE1F701DC0101900D922A955E
:1030A000E1F74CE050E0B801CE010C960E94933E4F
:1030B000188EDF91CF911F910F91FF90EF9008959F
:1030C000FC01A089B1898C91A689B78982FD0FC0C6
:1030D0009C91818D8F5F8F73228D821749F0218D96
:1030E000DF01A20FB11D5D969C93818F08958C9195
:1030F0000895FC01918D828D981761F0828DDF011A
:10310000A80FB11D5D968C91928D9F5F9F73928FDA
:1031100090E008958FEF9FEF0895FC01918D828DCF
:10312000981731F0828DE80FF11D858D90E008959C
:103130008FEF9FEF0895FC01918D228D892F90E0F4
:10314000805C9F4F821B91098F739927089587E5B3
:1031500098E0F1DF21E0892B09F420E0822F089527
:1031600084EF98E0E8DF21E0892B09F420E0822F4A
:10317000089581E999E0DFDF21E0892B09F420E05F
:10318000822F0895FC01848DDF01A80FB11DA35A81
:10319000BF4F2C91848D90E001968F739927848F77
:1031A000A689B7892C93A089B1898C9180648C936E
:1031B000938D848D981306C00288F389E02D808159
:1031C0008F7D80830895EF92FF920F931F93CF938B
:1031D000DF93EC0181E0888F9B8D8C8D981305C067
:1031E000E889F989808185FD23C0F62E0B8D10E0DA
:1031F0000F5F1F4F0F731127E02E8C8DE8120BC04D
:103200000FB607FCFACFE889F989808185FFF5CFF1
:10321000CE01B8DFF2CF8B8DFE01E80FF11DE35A2E
:10322000FF4FF0820B8FEA89FB898081806207C0A3
:10323000EE89FF896083E889F989808180648083D1
:1032400081E090E0DF91CF911F910F91FF90EF907F
:103250000895CF93DF93EC01888D8823C1F0EA892C
:10326000FB89808185FD05C0A889B9898C9186FD7F
:103270000EC00FB607FCF5CF808185FFF2CFA8897D
:10328000B9898C9185FFEDCFCE017CDFE8CFDF914E
:10329000CF91089580E090E0892B19F06ADF8111C9
:1032A0001BC080E090E0892B19F05ADF811117C014
:1032B00080E090E0892B41F080E090E0892B21F0C4
:1032C0000E94000081110EC080E090E0892B79F00F
:1032D0003EDF81110AC008950E940000E2CF0E94E3
:1032E0000000E6CF0E940000EFCF0C94000008958C
:1032F00090E0FC013197E231F10508F04EC08827DB
:10330000E558FF4F8F4F0C942D3B809180008F77B5
:1033100003C0809180008F7D80938000089580910C
:103320008000877FF9CF84B58F7702C084B58F7D09
:1033300084BD08958091B0008F7703C08091B00064
:103340008F7D8093B0000895809190008F7707C0A3
:10335000809190008F7D03C080919000877F809343
:10336000900008958091A0008F7707C08091A00001
:103370008F7D03C08091A000877F8093A000089577
:10338000809120018F7707C0809120018F7D03C03D
:1033900080912001877F8093200108953FB7F894A2
:1033A0008091E6079091E707A091E807B091E907BF
:1033B00026B5A89B05C02F3F19F00196A11DB11D90
:1033C0003FBFBA2FA92F982F8827820F911DA11DCB
:1033D000B11DBC01CD0142E0660F771F881F991F08
:1033E0004A95D1F708950E945E3E1F920F920FB644
:1033F0000F9211240BB60F922F933F934F935F932D
:103400006F937F938F939F93AF93BF93EF93FF93AC
:1034100087E598E0B7DEFF91EF91BF91AF919F9163
:103420008F917F916F915F914F913F912F910F906D
:103430000BBE0F900FBE0F901F9018951F920F920A
:103440000FB60F9211240BB60F922F933F934F9309
:103450005F936F937F938F939F93AF93BF93EF93FC
:10346000FF9387E598E02CDEFF91EF91BF91AF913C
:103470009F918F917F916F915F914F913F912F918C
:103480000F900BBE0F900FBE0F901F9018951F92BC
:103490000F920FB60F9211240BB60F922F933F93FA
:1034A0004F935F936F937F938F939F93AF93BF934C
:1034B000EF93FF9384EF98E065DEFF91EF91BF916A
:1034C000AF919F918F917F916F915F914F913F91BC
:1034D0002F910F900BBE0F900FBE0F901F9018955D
:1034E0001F920F920FB60F9211240BB60F922F93CB
:1034F0003F934F935F936F937F938F939F93AF937C
:10350000BF93EF93FF9384EF98E0DADDFF91EF91A3
:10351000BF91AF919F918F917F916F915F914F91EB
:103520003F912F910F900BBE0F900FBE0F901F90E9
:1035300018951F920F920FB60F9211240BB60F928F
:103540002F933F934F935F936F937F938F939F93AB
:10355000AF93BF93EF93FF9381E999E013DEFF915F
:10356000EF91BF91AF919F918F917F916F915F91FB
:103570004F913F912F910F900BBE0F900FBE0F9068
:103580001F9018951F920F920FB60F9211240BB631
:103590000F922F933F934F935F936F937F938F93EC
:1035A0009F93AF93BF93EF93FF9381E999E088DDF9
:1035B000FF91EF91BF91AF919F918F917F916F910B
:1035C0005F914F913F912F910F900BBE0F900FBEC7
:1035D0000F901F901895CF93DF93282F30E0F901BB
:1035E000E75CFB4F8491F901EA54FE4FD491F90155
:1035F000E450FE4FC491CC2389F0811179DEEC2F89
:10360000F0E0EE0FFF1FE15EFB4FA591B491EC914E
:10361000ED2381E090E021F480E002C080E090E0C2
:10362000DF91CF9108951F93CF93DF93282F30E040
:10363000F901E75CFB4F8491F901EA54FE4FD49104
:10364000F901E450FE4FC491CC23C1F0162F811133
:103650004FDEEC2FF0E0EE0FFF1FEB5FFB4FA5916D
:10366000B4918FB7F894111105C09C91ED2FE0959E
:10367000E92302C0EC91ED2BEC938FBFDF91CF914A
:103680001F910895CF93DF9390E0FC01EA54FE4F21
:103690002491FC01E450FE4F8491882361F190E075
:1036A000880F991FFC01E456FE4FC591D491FC018F
:1036B000EB5FFB4FA591B491611109C09FB7F894DE
:1036C0008881209582238883EC912E230BC0623061
:1036D00061F49FB7F8943881822F80958323888383
:1036E000EC912E2B2C939FBF06C08FB7F894E881E6
:1036F0002E2B28838FBFDF91CF9108958F929F92B9
:10370000AF92BF92CF92DF92EF92FF926B017C015A
:1037100045DE4B015C01C114D104E104F104E9F080
:103720003DDEDC01CB0188199909AA09BB09883E55
:103730009340A105B10578F321E0C21AD108E10850
:10374000F10888EE880E83E0981EA11CB11CC114FC
:10375000D104E104F10421F7DECFFF90EF90DF9078
:10376000CF90BF90AF909F908F9008952FB7F8940F
:103770006091E2077091E3078091E4079091E5077B
:103780002FBF08951F920F920FB60F9211242F93FF
:103790003F938F939F93AF93BF938091E207909154
:1037A000E307A091E407B091E5073091E10723E03A
:1037B000230F2D3720F40196A11DB11D05C026E869
:1037C000230F0296A11DB11D2093E1078093E2070C
:1037D0009093E307A093E407B093E5078091E60791
:1037E0009091E707A091E807B091E9070196A11D24
:1037F000B11D8093E6079093E707A093E807B09385
:10380000E907BF91AF919F918F913F912F910F90B9
:103810000FBE0F901F901895CF92DF92EF92FF92FC
:103820000F931F93CF93DF93EC0181E08093EA071E
:1038300088E680930C081092EB0710920D0860E068
:1038400081EC9AE00E9484035BD567E070E088E633
:1038500090E00BD581EC9AE00E9439038F77982F86
:1038600092959F701AEF082F919F000D112481EC03
:103870009AE00E9439039C01332794E035952795FF
:103880009A95E1F7F82E129FF00C112481EC9AE042
:103890000E9439039C01332744E0359527954A95CA
:1038A000E1F7E82E129FE00C112481EC9AE00E94CF
:1038B000390381EC9AE00E9439039C01332754E0DC
:1038C000359527955A95E1F7D82E129FD00C1124E3
:1038D00081EC9AE00E9439039C01332764E035951E
:1038E00027956A95E1F7C82E129FC00C112481EC30
:1038F0009AE00E9439039C01332774E0359527959F
:103900007A95E1F7129F800D11248883C982DA82AB
:10391000EB82FC820D83CE01DF91CF911F910F913D
:10392000FF90EF90DF90CF9008958091DC0788237F
:1039300099F140911202509113026091140270911A
:10394000150224E33BE08091340D9091350DADDA02
:10395000811102C080E008954091DD075091DE079B
:103960006091DF077091E007411551056105710510
:1039700089F024E33BE08091340D9091350D95DA88
:10398000882341F31092DD071092DE071092DF07C3
:103990001092E0071092DC0781E008958F929F92C9
:1039A000AF92BF92EF92FF920F931F93CF934B0171
:1039B0005C01C42F8091120290911302A091140215
:1039C000B091150288159905AA05BB05F9F0ADDF80
:1039D000811102C080E020C084E3E82E8BE0F82E45
:1039E00000E012E020E030E0B501A4018091340D48
:1039F0009091350D0E944413882361F38092120246
:103A000090921302A0921402B09215028091DC07EA
:103A1000C82BC093DC0781E0CF911F910F91FF90DD
:103A2000EF90BF90AF909F908F9008954F925F92CC
:103A30006F927F928F929F92AF92BF92CF92DF92BE
:103A4000EF92FF920F931F93CF93DF93EC016A01E4
:103A50007B0128013901423051056105710510F4DF
:103A600080E072C089859A85AB85BC850196A11DD1
:103A7000B11D84179507A607B70790F38B889C881C
:103A8000AD88BE888F89803129F4BB27AF2D9E2D4C
:103A90008D2D09C0DB01CA0147E0B695A795979522
:103AA00087954A95D1F7880E991EAA1EBB1E809154
:103AB000120290911302A0911402B091150288167F
:103AC0009906AA06BB0679F48F89803199F4DD2422
:103AD000EE24FF24C601880F991FFC01EC5CF44F13
:103AE0005182408218C040E0C501B40157DF811106
:103AF000EBCFB6CFE894C7F8DD24EE24FF24C6014F
:103B0000880F991F880F991FFC01EC5CF44F4082CD
:103B10005182628273828091DC0781608093DC072E
:103B20008A89823080F08D819E81AF81B885880E30
:103B3000991EAA1EBB1E8092DD079092DE07A092FE
:103B4000DF07B092E00781E0DF91CF911F910F91E5
:103B5000FF90EF90DF90CF90BF90AF909F908F90AD
:103B60007F906F905F904F9008958F929F92AF9249
:103B7000BF92CF92DF92EF92FF920F931F93CF935A
:103B8000DF93FC0181859285A385B4850196A11DF3
:103B9000B11D84179507A607B70710F480E05BC036
:103BA00083899489A589B689C789C03129F4852E6E
:103BB000962EA72EBB2409C04A015B01C7E0B6942C
:103BC000A79497948794CA95D1F7E9016A017B017C
:103BD0008F01BC01CD01680D791D8A1D9B1D809050
:103BE000120290901302A0901402B0901502681572
:103BF00079058A059B0599F4F80187898031A1F43C
:103C0000B701A601552766277727440F551FFA01EC
:103C1000EC5CF44F80819181A0E0B0E017C040E0FF
:103C2000BDDE8111E9CFBACFB701A6014F77552785
:103C300066277727440F551F440F551FFA01EC5C88
:103C4000F44F80819181A281B381BF708883998371
:103C5000AA83BB8381E0DF91CF911F910F91FF90E9
:103C6000EF90DF90CF90BF90AF909F908F9008958E
:103C70004F925F926F927F92AF92BF92CF92DF92FC
:103C8000EF92FF920F931F93CF93DF9300D01F9279
:103C9000CDB7DEB78C0149835A836B837C8359018E
:103CA000C12CD12C7601412C82E0582E612C712C34
:103CB00049815A816B817C819E012F5F3F4FC801F2
:103CC00054DF882351F1D301C201F801058404C0F7
:103CD000880F991FAA1FBB1F0A94D2F7C80ED91EBE
:103CE000EA1EFB1E49815A816B817C818789803164
:103CF00029F088EF9FEFAFEFBFE004C088EF9FEFA0
:103D0000A0E0B0E0481759076A077B0788F2F50181
:103D1000C082D182E282F38281E00F900F900F90F7
:103D20000F90DF91CF911F910F91FF90EF90DF9057
:103D3000CF90BF90AF907F906F905F904F9008951D
:103D40000F931F93CF93DF93EC018D81882309F4A8
:103D500045C08C8187FF3DC06E857F8588899989A4
:103D600041E01CDE8823D1F18A8920E2829FC001D4
:103D70001124FC01EC5CF44F309781F12D8122304D
:103D800040F44B895C896D897E89448F558F668F9D
:103D9000778F4F89588D698D7A8D8C010C5C144F0B
:103DA000F801538F428F758B648BE0914807F09137
:103DB0004907309759F0BC01665B744F845B944FA0
:103DC0001995F801808D918D938B828B8C818F77E3
:103DD0008C83DF91CF911F910F91A7CD80E0DF9170
:103DE000CF911F910F9108958F929F92AF92BF92A2
:103DF000CF92DF92EF92FF920F931F93CF93DF93B7
:103E0000EC018D81811102C080E076C00B891C8994
:103E10002D893E890417150726073707A8F36A017D
:103E20007B01823029F4CA86DB86EC86FD860DC0D4
:103E3000C114D104E104F10451F41E821F821886DA
:103E400019861A861B861C861D8681E055C08A84C9
:103E50009B84AC84BD84EB8DFC8D258530E0275F91
:103E60003F4FB501A4014150510961097109022E6A
:103E700004C076956795579547950A94D2F7D70170
:103E8000C6010197A109B10904C0B695A7959795F8
:103E900087952A95D2F784179507A607B70720F0CC
:103EA00089288A288B2849F44F89588D698D7A8D05
:103EB0004E835F836887798704C0841B950BA60BAC
:103EC000B70B4C015D018E010A5F1F4F81149104F5
:103ED000A104B10409F4A7CF4E815F81688579857B
:103EE00098018B8D9C8D41DE91E0891A9108A10883
:103EF000B1088111EBCF88CFDF91CF911F910F9146
:103F0000FF90EF90DF90CF90BF90AF909F908F90F9
:103F100008952F923F924F925F926F927F928F926D
:103F20009F92AF92BF92CF92DF92EF92FF920F9348
:103F30001F93CF93DF9300D01F92CDB7DEB78C01D4
:103F40006B013A01DC0115968C9115978130C1F413
:103F500014968C9181FF14C082FF1CC0F801438924
:103F600054896589768982859385A485B58584176A
:103F70009507A607B70771F0C80136DF81110AC09F
:103F800081E090E0D80113969C938E93129780E085
:103F900090E044C1430184C0D8015B968D919C910F
:103FA0005C97FC0154802FEF250D1A012B0139E09D
:103FB00056944794379427943A95D1F7522E52202D
:103FC0007A01F1E0FF22552009F476C080E092E00A
:103FD0008E199F0954018815990508F45C01D801D0
:103FE0005B962D913C915C9716968D919D910D90CD
:103FF000BC91A02D0297A109B109F901058404C063
:10400000880F991FAA1FBB1F0A94D2F746855785B0
:1040100060897189840F951FA61FB71F9C01AD0190
:10402000250D311D411D511D19012A01A11432E038
:10403000B30609F087C08091120290911302A091FB
:104040001402B091150282159305A405B50559F423
:104050008FEF9FEFDC018093120290931302A093E5
:104060001402B09315029601B201A1018091340DA2
:104070009091350D0E945517882309F481CF9EEF4A
:10408000D91A8A189B08F80182859385A485B5857D
:104090008A0D9B1DA11DB11D82879387A487B587BB
:1040A000D8011A964D915D916D917C911D97811467
:1040B000910409F071CF84C0E114F10409F086CFB6
:1040C00016964D915D916D917C9119974115510511
:1040D0006105710559F457968D919D910D90BC9194
:1040E000A02D0097A105B10539F520C09E012F5FD5
:1040F0003F4F3BDD882309F44BCF89819A81AB8107
:10410000BC81F801238D348DF9012789203129F0F4
:1041100048EF5FEF6FEF7FE004C048EF5FEF60E0D4
:1041200070E084179507A607B70730F0C8010E9412
:10413000821181114BCF24CFF80186839783A0870A
:10414000B18744CFE114F10421F5D8011A964D91BD
:104150005D916D917C911D9753968D919D910D90E0
:10416000BC91A02D481759076A077B0790F0DDDB4B
:10417000882309F405CF2092120230921302409254
:104180001402509215028091DC0781608093DC0755
:1041900007C041E0C201B10101DC882309F4F0CE7F
:1041A000D601F701EC5CF44FCF018A0D9B1DE81797
:1041B000F90719F02D912193FACFCA0CDB1C61CFBE
:1041C0005396CD90DD90ED90FC90569714968C917F
:1041D000C416D506E606F70640F4F801438B548B67
:1041E000658B768B806884830DC020914807309161
:1041F0004907232B39F06114710421F08068D8013C
:1042000014968C93F801848183FD02C0C30106C01B
:10421000C80196DD882309F4B3CEF8CF0F900F9034
:104220000F900F90DF91CF911F910F91FF90EF9022
:10423000DF90CF90BF90AF909F908F907F906F90C6
:104240005F904F903F902F900895CF93DF931F92F0
:10425000CDB7DEB7698341E050E0BE016F5F7F4FAD
:1042600058DE0F90DF91CF9108959091340891110D
:10427000FCCF613208F060E291E0909334089093B3
:1042800033082FEF2093320810923108260F209325
:10429000300890932F0890912F08880F892B8093D6
:1042A0002F0880912E08813061F410922E088091A1
:1042B0002F088093BB008091BC0083FDF8CF85EC74
:1042C00001C085EE8093BC00809134088130E1F319
:1042D00080913108861710F460913108AEE0B8E0A3
:1042E00027E338E0F9018E2F821B861718F48D9191
:1042F0008193F9CF1092360860933508862F089580
:1043000020910D0890910C08213208F04AC080914C
:1043100034088111FCCF32E03093340831E030931F
:1043200033083FEF30933208109231082093300861
:10433000ACEEB7E04EE058E0FA013E2F341B3217E6
:1043400018F43D913193F9CF10922F0820912F0846
:10435000990F922B90932F0890912E08913061F431
:1043600010922E0890912F089093BB009091BC0062
:1043700093FDF8CF95EC01C095EE9093BC00909121
:1043800034089230E1F3909132089F3F79F08091A8
:104390003208803241F080913208803331F084E07D
:1043A00005C081E003C082E001C083E01092EB070A
:1043B00010920D081092EA070895CF92DF92EF92C3
:1043C000FF920F931F93CF93DF93EC016A017B0160
:1043D000E889F98982E080834115514E61057105B4
:1043E000B1F060E079E08DE390E0A70196010E94D2
:1043F000494489019A010150110921093109369571
:10440000279517950795980101151041A8F0E8899F
:10441000F989108260E874E88EE190E0A7019601C6
:104420000E944944DA01C9010197A109B109B69571
:10443000A795979587959C01EC85FD853083EE8542
:10444000FF852083188EEC89FD8986E08083EA89C8
:10445000FB89808180618083EA89FB898081886013
:104460008083EA89FB89808180688083EA89FB896F
:1044700080818F7D8083DF91CF911F910F91FF907D
:10448000EF90DF90CF9008958F929F92AF92BF925E
:10449000CF92DF92EF92FF920F931F93CF93DF9310
:1044A00000D01F92CDB7DEB7FC018581813069F560
:1044B000948191FF2AC04389548965897689452B67
:1044C000462B472B09F457C07F0140E050E0BA016A
:1044D000CF018ADC8823C9F0F7018788908CA18CF2
:1044E000B28CC38CD48C82E090E0A0E0B0E0F60106
:1044F00080839183A283B3839E012F5F3F4FB501D9
:10450000A401C60132DB811102C080E034C000E0AA
:1045100010E09801B501A401C60188DA8823A9F347
:1045200089809A80AB80BC80F6018789803129F030
:1045300088EF9FEFAFEFBFE004C088EF9FEFA0E0F0
:10454000B0E088169906AA06BB06B0F2F701178AF2
:10455000108E118E128E138A148A158A168A8481FF
:1045600080688483C701ECDB882379F240E050E067
:10457000BA01C70139DC0F900F900F900F90DF91B7
:10458000CF911F910F91FF90EF90DF90CF90BF9050
:10459000AF909F908F9008952F923F924F925F928D
:1045A0006F927F928F929F92AF92BF92CF92DF9243
:1045B000EF92FF920F931F93CF93DF93CDB7DEB7A8
:1045C000C756D1090FB6F894DEBF0FBECDBF3C0170
:1045D0005B01A6964FAFA6974E018EE1880E911C07
:1045E00062EA7AE0C4010E94C7171C821B8285E43C
:1045F00092E09A8389831E827501FE0131966F01D4
:1046000024011F016FE270E0C7010E94783E00970D
:10461000F1F1F70120812F3221F4FFEFEF1AFF0AA9
:10462000F1CF8E198D3008F08CE0082F10E0A80132
:10463000B701CE01885A9F4F0E94933EE8E5F0E013
:10464000EC0FFD1FE00FF11F1082C6010E947611D2
:1046500021E0AE01485A5F4FB201C6010E94EB143F
:1046600081110AC01EAE1DAE85E492E09CAF8BAFF7
:1046700021961FAE219717C0E00EF11EC2010E94C5
:104680007611942D852D2601C92ED82EBBCFC701BA
:104690008A199B09A8969FAF8EAFA897B201CE0149
:1046A000CB960E94C717A896EEADFFADA897AE0EA9
:1046B000BF1EF5018081811109C0BE01655C7F4F7D
:1046C000C1010E94C7174AEF53E03BC019A218A2CC
:1046D00085E492E09F8F8E8F1BA221968FAD21974C
:1046E000811104C0C3010E9418182FC08250A696E1
:1046F0002FADA697A501823040F462EA7AE0C401AA
:104700000E94EB1481110DC0EDCFBE01655C7F4F9F
:10471000C4010E94EB14882329F3CE01CB960E949A
:104720007611A6968FADA697867031F049A95AA941
:104730006BA97CA9C40158DBB401C1010E94C71751
:10474000A501B101C3010E942B18C301C959DF4F54
:104750000FB6F894DEBF0FBECDBFDF91CF911F9192
:104760000F91FF90EF90DF90CF90BF90AF909F9010
:104770008F907F906F905F904F903F902F90089513
:104780000F931F93CF93DF9341155105E9F0611506
:104790007105D1F0FC01248135812115310519F411
:1047A000FB01108211C0EA0121972C173D0708F484
:1047B000E9018B01FC0160817181AE01C8010E9499
:1047C000933EC00FD11F1882DF91CF911F910F919F
:1047D00008956F927F928F929F92AF92BF92CF92E5
:1047E000DF92EF92FF920F931F93CF93DF93CDB79A
:1047F000DEB7C754D1090FB6F894DEBF0FBECDBFE8
:104800006C015B0119A218A285E492E09F8F8E8F44
:104810001BA21C821B829A8389831E82812C912C6D
:104820007E018EE1E80EF11C02EA1AE0772473940F
:104830009401F601E80DF91D80818F3211F42F5F8C
:104840003F4FFE01FB9680E090E0D601A20FB31F20
:104850004C914F3249F0442339F001962F5F3F4F7E
:1048600041938C30910589F7EBE3F0E0EC0FFD1FED
:10487000E80FF91F1082F601E20FF31F80818F32DB
:1048800011F42F5F3F4F4901F601E20FF31F662439
:1048900063948081811101C0612C20E030E0462DBD
:1048A0004725BE01655C7F4FC801F501199581114F
:1048B00009C0FAE0023A1F0719F0C8010E947611F8
:1048C00080E029C06620C1F021E0AE01455C5F4F69
:1048D000B801C7010E94EB14682E8AE0023A18075B
:1048E000A1F0C8010E947611662051F3902F812F0C
:1048F0008701E92EF82E9CCFEAE0023A1E0719F054
:10490000C8010E94761181E006C06620C9F28E01BE
:104910000F5F1F4FEBCFC95BDF4F0FB6F894DEBFC1
:104920000FBECDBFDF91CF911F910F91FF90EF9000
:10493000DF90CF90BF90AF909F908F907F906F90BF
:104940000895682F81EC9AE00C9484030895CF9326
:10495000DF93EC0188819981009711F00E94703FEC
:10496000198218821D821C821B821A82DF91CF91CC
:1049700008950F931F93CF93DF93EC018881998162
:10498000009729F02A813B812617370788F48B018D
:104990006F5F7F4F0E947A3D009761F09983888313
:1049A0001B830A832C813D81232B11F4FC0110828F
:1049B00081E001C080E0DF91CF911F910F910895B8
:1049C000EF92FF920F931F93CF93DF93FC0124810B
:1049D00035816115710511F480E018C0411551054C
:1049E000A1F07B01EC018A01020F131FB801C1DFA6
:1049F000882391F3288139818C819D81B701820FB1
:104A0000931F0E948C3E1D830C8381E0DF91CF9128
:104A10001F910F91FF90EF900895EF92FF920F93E7
:104A20001F93CF93DF93EC017B018A01BA01A1DFD1
:104A3000811103C0CE018BDF07C01D830C83B7013A
:104A4000888199810E948C3ECE01DF91CF911F9188
:104A50000F91FF90EF90089510923608109235084C
:104A60001092EB0710920D081092340881E08093A9
:104A7000330810922E0861E084E10E94131B61E06C
:104A800085E10E94131BE9EBF0E080818E7F80833B
:104A900080818D7F808388E48093B80085E4809353
:104AA000BC0008958F929F92AF92BF92CF92DF92F7
:104AB000EF92FF92CF93DF93C82F88E79AE090930D
:104AC000350D8093340DCC2369F1C53010F080E0B2
:104AD0000DC140E060E070E0CB010E94CE1C882355
:104AE000B1F320E1C29FC00111248C5D944FFC0101
:104AF000E254FE4F20812F7751F73C96408151813F
:104B000062817381443651056105710500F3349764
:104B1000C080D180E280F380C114D104E104F104AB
:104B200021F4D5CFC12CD12C760140E0C701B601CC
:104B30000E94CE1C882359F280913F0B9091400B2C
:104B40008115924021F6A091440BAA2309F4BFCF0E
:104B50006091420B7091430B6115710509F4B7CF59
:104B60002091410B222309F4B2CFA093960A2093FF
:104B7000880A80E030E0E1E0F0E0C82FAF01082EC5
:104B800002C0440F551F0A94E2F72417350741F07D
:104B9000982F8F5F983089F789E08093910A97CF9B
:104BA0008093910A20914A0B30914B0B21153105CE
:104BB00019F040E050E008C02091580B3091590B9B
:104BC00040915A0B50915B0B2093890A30938A0ACB
:104BD00040938B0A50938C0A46015701860E971E0C
:104BE000A11CB11C8092970A9092980AA092990AEF
:104BF000B0929A0AE091450BF091460BF0939D0A12
:104C0000E0939C0AB0E00E946B44860E971EA81E9B
:104C1000B91E80929E0A90929F0AA092A00AB0921A
:104C2000A10A85E0EE0FFF1F8A95E1F7E150FE4FE4
:104C3000EF2FFF27E6958E0E9F1EA11CB11C8092C0
:104C4000920A9092930AA092940AB092950A2091A7
:104C5000470B3091480B2115310521F0A90160E087
:104C600070E008C04091540B5091550B6091560B69
:104C70007091570BD701C60188199909AA09BB0978
:104C8000840F951FA61FB71F04C0B695A7959795CB
:104C90008795CA95D2F780938D0A90938E0AA09338
:104CA0008F0AB093900A853F2FE09207A105B105C6
:104CB00010F48CE018C0853F9F4FA105B10510F49A
:104CC00080E111C08091600B9091610BA091620B0B
:104CD000B091630B80939E0A90939F0AA093A00AC1
:104CE000B093A10A80E280939B0A81E0DF91CF918B
:104CF000FF90EF90DF90CF90BF90AF909F908F90FC
:104D000008951F93CF93DF93EB019091F30A21E075
:104D10002093EA0790930C081092EB0710920D086D
:104D20008F70806890E00DDEEBDA8093F40A8823C0
:104D300011F080E020C08091F30A62E070E0082E5C
:104D4000000C990B92DA8091350890E0209136089A
:104D5000821B9109029769F781EC9AE00E9439035E
:104D6000182F81EC9AE00E943903982F8827812B15
:104D70009983888381E0DF91CF911F910895EF920D
:104D8000FF920F931F93CF93DF930E94B61B009166
:104D9000EE0A1091EF0A2091F00A3091F10A6017A3
:104DA00071078207930740F41092EE0A1092EF0AFF
:104DB0001092F00A1092F10A2091F20A211115C006
:104DC0000091EE0A1091EF0A2091F00A3091F10A59
:104DD000DC01CB01801B910BA20BB30B803D9740F4
:104DE000A105B10510F481E089C01092F20A0E9479
:104DF000B61B6093EE0A7093EF0A8093F00A9093CB
:104E0000F10A1092E90A1092E80A1092E70A109249
:104E1000E60A1092E50A61E08091EB0A0E94131BFA
:104E20006AEF70E080E090E00E947E1B61E080917C
:104E3000EB0A0E94421B60E08091EB0A0E94131B68
:104E400064E170E080E090E00E947E1BF89461E0F5
:104E50008091EB0A0E94131B8BE990E00197F1F718
:104E600060E08091EB0A0E94421B10E0C0E081E00C
:104E7000D0E0E82EF12C8091EB0A0E94EB1A8E15FF
:104E80009F0519F4DF5FDF3FB1F78091EB0A0E94C5
:104E9000EB1ADF3FC1F0C43098F0C0FD11C0E12F24
:104EA000E695E695E695F0E0EB51F54F9081990F88
:104EB00090832091ED0A2D1710F4916090831F5F6D
:104EC000CF5FC535A9F678941832B8F02091E90A79
:104ED00030E04091E50A8091E60A90E0840F911D50
:104EE0004091E70A840F911D4091E80A840F911DBB
:104EF00099272817390709F476CF80E0DF91CF9101
:104F00001F910F91FF90EF900895CF92DF92EF9253
:104F1000FF92CF93DF93C82F32DF882309F459C063
:104F20009091EC0A9B3031F008F453C095519230C7
:104F3000A0F04FC06091E70A70E080E090E00E942E
:104F40001E43CC2309F44AC020E030E040E151E4A4
:104F50006B017C01C701B6012DC0D091E70A6D2F0E
:104F60006F7770E080E090E00E94204320E030E026
:104F700040E853E40E947F436B017C014091E80AC2
:104F8000642F70E080E090E00E9420439B01AC0120
:104F9000C701B6010E94363B20E030E040E251E418
:104FA0000E94A13BD7FD9058CC23C1F020E030E017
:104FB00040E151E40E947F4320E030E040EA50E4C9
:104FC0000E94A13B20E030E040E052E40E94363BEA
:104FD00005C040E030E020EC9FE703C0462F372FAC
:104FE000282FC42ED32EE22EF92EC701B601DF9151
:104FF000CF91FF90EF90DF90CF900895FC018081DA
:105000009181009711F00C94084060E070E0CB01B2
:105010000895CF93DF93FC01248135814217530714
:1050200080F4FB01DC01CD91DC9160817181CE01C6
:10503000840F951F0E94A23E009719F08C1B9D0BB8
:1050400002C08FEF9FEFDF91CF910895FC01248183
:105050003581232B31F421E061157105A1F0FB01AD
:1050600008C0FC01808191816115710531F421E056
:10507000FC018081882339F005C00E94833E21E035
:10508000892B09F020E0822F0895CF93DF93EC0164
:105090006115710559F0FB0101900020E9F7319786
:1050A000AF01461B570B8CDC811102C0CE014FDCD7
:1050B000CE01DF91CF910895CF93DF93EC01FB01F7
:1050C00044815581608171817BDC811102C0CE01F8
:1050D0003EDCCE01DF91CF910895CF93DF93EC01B9
:1050E0006115710551F0FB0101900020E9F731973E
:1050F000AF01461B570B91DC01C029DCCE01DF91CB
:10510000CF910895CF93DF93EC01FB0186179707AA
:1051100051F0608171816115710521F044815581E3
:105120007CDC01C014DCCE01DF91CF9108950F9398
:105130001F93CF93DF938C01EB01FC018081918160
:105140000097B1F0688179816115710579F042812C
:1051500053812C813D814217530740F00E948C3EC1
:105160008C819D81F8019583848313C00E94703FD8
:1051700088819981F801918380838A819B819383BF
:1051800082838C819D8195838483198218821B82FE
:105190001A821D821C82DF91CF911F910F91089579
:1051A000FC01808191810C94703F0F931F93CF93EA
:1051B000DF93CDB7DEB7A1970FB6F894DEBF0FBE71
:1051C000CDBF8C01CB01BA01F8011182108213828C
:1051D00012821582148230E0AE014F5F5F4F0E9451
:1051E0005740BE016F5F7F4FC80177DFA1960FB6B2
:1051F000F894DEBF0FBECDBFDF91CF911F910F910D
:1052000008950F931F93CF93DF93CDB7DEB76297C7
:105210000FB6F894DEBF0FBECDBF8C01CB01F801F5
:1052200011821082138212821582148250E0BE0114
:105230006F5F7F4F0E942E40BE016F5F7F4FC8019E
:105240004CDF62960FB6F894DEBF0FBECDBFDF9184
:10525000CF911F910F9108950F931F93CF93DF93D9
:10526000CDB7DEB729970FB6F894DEBF0FBECDBF1E
:105270008C01862FF801118210821382128215820E
:10528000148250E0BE016F5F7F4F90E00E94824029
:10529000BE016F5F7F4FC80120DF29960FB6F894DB
:1052A000DEBF0FBECDBFDF91CF911F910F9108954B
:1052B000FC0111821082138212821582148222CF85
:1052C000FC011182108213821282158214826115F0
:1052D000710549F0FB0101900020E9F73197AF011A
:1052E000461B570B9ACB0895BF92CF92DF92EF9255
:1052F000FF920F931F93CF93DF937C016B018A0181
:10530000E9012417350720F4812F8901C42FD82FF4
:1053100062E872E0C701D4DFD60114968D919C91AA
:10532000159708171907C8F48C179D0708F4EC01A6
:10533000D601ED91FC911197EC0FFD1FB08010820A
:105340004D915C91BA01600F711FC701C6DED60195
:10535000ED91FC91EC0FFD1FB082C701DF91CF9161
:105360001F910F91FF90EF90DF90CF90BF90089525
:105370004F925F926F927F92EF92FF920F931F93E3
:10538000CF93DF93CDB7DEB7A1970FB6F894DEBF0A
:105390000FBECDBF7C01FA01CB0119A2223008F467
:1053A0002AE08E010F5D1F4F422E512C612C712C73
:1053B000BF01A30192010E944944F901CA010150B1
:1053C00011096A3014F4605D01C0695CD8016C9306
:1053D000232B242B252B61F7B801C701A7D0A19659
:1053E0000FB6F894DEBF0FBECDBFDF91CF911F91F6
:1053F0000F91FF90EF907F906F905F904F90089586
:1054000060E872E093C0CF93DF93BC018BEF9AE02A
:1054100069D0EC018BEF9AE0F3DF8C0F9D1FDF91D9
:10542000CF9108950F931F93CF93DF93EC017ED01C
:105430008C01CE01E5DF800F911FDF91CF911F918D
:105440000F9108950F931F93CF93DF93EC013CD0FE
:105450008C01CE01D5DF800F911FDF91CF911F917D
:105460000F910895CF92DF92EF92FF920F931F93C7
:10547000CF93DF936C017A018B01C0E0D0E0CE15B1
:10548000DF0589F0D8016D918D01D601ED91FC9178
:105490000190F081E02DC6011995892B11F47E0150
:1054A00002C02196ECCFC701DF91CF911F910F91E0
:1054B000FF90EF90DF90CF900895DC01ED91FC918B
:1054C0000190F081E02D1994DC01ED91FC91DB015C
:1054D00014964D915C9115976D917C910280F381AA
:1054E000E02D1994EF92FF920F931F93CF93DF93C8
:1054F0008C017B01C0E0D0E0F701EC0FFD1F64914F
:10550000662361F0D801ED91FC910190F081E02DCE
:10551000C8011995892B11F02196EECFCE01DF91AC
:10552000CF911F910F91FF90EF9008956115710534
:1055300079F0FB0101900020E9F73197AF01461B9C
:10554000570BDC01ED91FC910280F381E02D199461
:1055500080E090E00895EACFCF93DF93CDB7DEB738
:10556000C655D1090FB6F894DEBF0FBECDBF7894F3
:1055700084B5826084BD84B5816084BD85B5826058
:1055800085BD85B5816085BD80916E008160809309
:105590006E00109281008091810082608093810072
:1055A0008091810081608093810080918000816082
:1055B000809380008091B10084608093B1008091DD
:1055C000B00081608093B0008091910082608093F0
:1055D0009100809191008160809391008091900072
:1055E0008160809390008091A10082608093A100EF
:1055F0008091A10081608093A1008091A0008160D2
:105600008093A0008091210182608093210180918C
:10561000210181608093210180912001816080932C
:10562000200180917A00846080937A0080917A00D2
:10563000826080937A0080917A00816080937A0002
:1056400080917A00806880937A001092C100109255
:10565000720A1092730A1092740A1092750A1092CC
:10566000300A1092310A1092320A1092330A60ED19
:1056700077E080E090E00E947E1B81E999E09093C2
:10568000710A8093700A40E855E260E070E00E9481
:10569000DD210E94B61B6093300A7093310A80931B
:1056A000320A9093330A61E772E08091700A909118
:1056B000710A51DF6AE070E080E090E00E947E1B9A
:1056C00081E08093440A62E872E0CE014C96F8DDF6
:1056D00061E089E00E94421B60E089E00E94131BA8
:1056E00061E08AE00E94421B60E08AE00E94131B96
:1056F00060E08BE00E94421B88E00E94EB1A21E0F0
:10570000892B09F420E02093900740E855E260E0FF
:1057100070E081E999E00E94DD2140E05BE460E017
:1057200070E084EF98E00E94DD2140E05BE460E0FF
:1057300070E087E598E00E94DD2181E999E060DE74
:1057400063E872E0CE014C96C8DCBE01645E7F4F18
:1057500081E999E077DE60E08091EB0A0E94421BCC
:1057600061E08091EB0A0E94131B1092EE0A1092E6
:10577000EF0A1092F00A1092F10A61E085E30E94AC
:10578000421B8AE499E0909349078093480710925E
:10579000830A1092810A10927E0A10927D0A85E394
:1057A00080937C0A0E94B61B8B0161E080917C0A89
:1057B0000E94421B61E080917C0A0E94131BFFB68D
:1057C000F89480916507811127C0E1E3F2E08491AC
:1057D000EBEEF1E09491E82FF0E0EE0FFF1FE456BE
:1057E000FE4FA591B491EC91E92321F461E085E3AA
:1057F0000E94131B61E085E30E94421B8CB580610F
:105800008CBD8CB580648CBD61E084E30E94421B3A
:1058100061E083E30E94421B809165078F5F809364
:105820006507FFBE82E58093760A1092770A809121
:10583000760A9091770A0E94D1127AE0F72E8FEFC4
:105840000E949612FA94F110FACF88E79AE00E942B
:10585000D41220E030E0A90160E088E79AE00E94DD
:10586000E912F82E8093820A81E0F81649F00E942E
:10587000B61B601B710B613D774058F381E056C049
:105880002AEA31E040E050E068E088E79AE00E94D0
:10589000E91282FF03C0F092830A10C064E0F62E82
:1058A0000E949D128093820AFA94F110F9CF8A3AED
:1058B00011F082E03BC082E08093830A8091830AEA
:1058C000823021F0C12CD12C760105C0C12CD12C05
:1058D000E12C50E4F52E20E030E0A90167E388E7F1
:1058E0009AE00E94E912A701960169E288E79AE02E
:1058F0000E94E9128093820A882349F00E94B61B15
:10590000601B710B613D774030F388E00FC08091E0
:10591000830A823001F520E030E0A9016AE388E7DC
:105920009AE00E94E912882341F086E080937D0A84
:1059300088E79AE00E948B128EC00E949D12807CA4
:10594000803C19F483E08093830A0E949D120E9498
:105950009D120E949D1288E79AE00E948B1280E5BA
:105960008093760A1092770A81E09CD8882329F0E8
:105970008091A70A882339F06EC080E093D88823ED
:1059800009F469C0F5CF80919B0A803109F582E066
:105990008093A70A1092B90A1092BA0A1092BB0A11
:1059A0001092BC0A80919C0A90919D0AA0E0B0E000
:1059B00045E0880F991FAA1FBB1F4A95D1F7809316
:1059C000B50A9093B60AA093B70AB093B80A1EC05E
:1059D000803209F040C083E08093A70A40919E0A7C
:1059E00050919F0A6091A00A7091A10A4093B90A50
:1059F0005093BA0A6093BB0A7093BC0A25EB3AE055
:105A000084E89AE00E94381E882329F184E89AE00D
:105A10009093BE0A8093BD0A81E08093A60A1092FB
:105A2000A80A1092A90A1092AA0A1092AB0A109220
:105A3000AC0A1092AD0A1092AE0A1092AF0A109200
:105A4000B00A1092B10A1092B20A1092B30A1092E0
:105A5000B40A8093470710E00AE0812F602F0E946C
:105A6000213B805D80930702905D9093080269EF6F
:105A700076E181E092E00E94E923811135C043E1A3
:105A800061E072E0CE0101960E94CC228B819C8164
:105A90009093FE0A8093FD0A8D819E81AF81B88527
:105AA0008093FF0A9093000BA093010BB093020B1D
:105AB00089859A85AB85BC858093030B9093040BF5
:105AC000A093050BB093060B8DE0FE013D96A7E079
:105AD000BBE001900D928A95E1F78A8D9B8D9093A2
