:10000000C4C20000F3C20000F1C20000EFC2000051
:10001000EDC20000EBC20000E9C20000E7C2000030
:10002000E5C20000E3C20000E1C20000DFC2000040
:10003000DDC20000DBC20000D9C20000D7C2000050
:10004000D5C20000D3C20000D1C20000CFC2000060
:10005000CDC20000CBC20000C9C200000C94351113
:10006000C5C200000C9435100C940C10BFC20000E7
:10007000BDC20000BBC20000B9C20000B7C2000090
:10008000B5C20000B3C20000B1C20000AFC20000A0
:100090000C94E30F0C94BA0FA9C200000C94841DB9
:1000A000A5C20000A3C20000A1C200009FC20000C0
:1000B0009DC200009BC2000099C2000097C20000D0
:1000C00095C2000093C2000091C200008FC20000E0
:1000D0008DC200008BC200000C94910F0C94680F2D
:1000E00085C20000A52EAC2EE62E332F982FAF2F01
:1000F000F32F1C302F30060F090FF80EFC0E020FE5
:10010000400F0D0F110F170F1B0F1F0F250F290F7A
:100110002D0F400F330F370F3B0F07634236B79B4E
:10012000D8A71A39685618AEBAAB558C1D3CB7CC57
:100130005763BD6DEDFD753EF6177231BF000000CF
:10014000803F08000000BE922449123EABAAAA2AB2
:10015000BECDCCCC4C3E00000080BEABAAAAAA3ECD
:1001600000000000BF000000803F00000000000809
:100170004178D3BB4387D1133D190E3CC3BD4282A6
:10018000AD2B3E68EC8276BED98FE1A93E4C80EF64
:10019000FFBE01C4FF7F3F000000000000002100FF
:1001A000240027002A002D00300033000101000048
:1001B000040107010A010102102020080810204054
:1001C000102040800201020108040201010204081B
:1001D00010204080804020100804020180040201A9
:1001E00080402010080402010804020101020408F2
:1001F00010204080010204081020408005050505FC
:10020000070508080808020202020A0A080804048E
:1002100004040101010101010101030303030303BC
:100220000303040707070C0C0C0C0C0C0C0C02024B
:10023000020206060606060606060B0B0B0B0B0B48
:100240000B0B302C302C42657374616E642061613D
:100250006E67656D61616B7400302C302C52657374
:1002600065742061726475696E6F0030354661692E
:100270006C656420746F20726561642066726F6DB6
:10028000204448542073656E736F7221230030340C
:100290004661696C656420746F20726561642066D4
:1002A000726F6D204448542073656E736F72212302
:1002B000003037636F756C646E74206372656174AF
:1002C000652066696C652300303643617264206680
:1002D00061696C65642C206F72206E6F742070727F
:1002E0006573656E74230030366361726420696ED5
:1002F000697469616C697A65642300302C302C4123
:100300006C6C652073656E736F72656E20737475A7
:100310006B3A206765656E20534D53206765737493
:100320007575726400302C302C416C6C65205365FF
:100330006E736F72656E207374756B3A20534D53F4
:1003400020676573747575726400302C302C5465A9
:1003500073746D65737361676520534D53206765D2
:1003600073747575726400302C302C506F6D703260
:10037000207569743A206765656E20534D53206778
:100380006573747575726400302C302C506F6D700D
:1003900032207569743A20534D5320676573747524
:1003A00075726400302C302C506F6D70312075697F
:1003B000743A206765656E20534D532067657374EA
:1003C0007575726400302C302C506F6D7031207553
:1003D00069743A20534D5320676573747575726460
:1003E00000302C302C4C4C20534D532067657374D7
:1003F000757572640000002200250028002B002E75
:10040000003100340002010000050108010B010069
:100410000020002300260029002C002F00320000BD
:1004200001000003010601090100000A0B02090C8A
:100430000D0E08070304010000000000000000008A
:1004400000000000000000000000000000000000AC
:100450000000000000121110000000000000000069
:100460000000000000000000000000000000001F6D
:100470001C1F1E1F1E1F1F1E1F1E1F7C3C3E5E2BAF
:100480003D3F2F5B5D3B2C2A225C0000407A10F33D
:100490005A00A0724E18090010A5D4E80000E876B2
:1004A00048170000E40B54020000CA9A3B00000009
:1004B000E1F505000080969800000040420F000022
:1004C00000A08601000000102700000000E80300E3
:1004D0000000006400000000000A000000000001AD
:1004E00000000000002C76D888DC674F0823DFC1AD
:1004F000DFAE59E1B1B796E5E3E453C63AE6519968
:100500007696E8E6C28426EB898C9B62ED407C6F90
:10051000FCEFBC9C9F40F2BAA56FA5F490055A2A47
:10052000F75C936B6CF9676DC11BFCE0E40D47FE53
:10053000F520E6B500D0ED902E0300943577050048
:1005400080841E080000204E0A000000C80C3333CF
:1005500033330F986E12831141EF8D2114893BE6DE
:100560005516CFFEE6DB18D1844B381BF77C1D9067
:100570001DA4BBE424203284725E228100C9F124D0
:10058000ECA1E53D27009839113B11241FBECFEFA8
:10059000D1E2DEBFCDBF00E00CBF17E0A0E0B2E0CB
:1005A000E4E5F9E800E00BBF02C007900D92A63425
:1005B000B107D9F72DE0A6E4B7E001C01D92A9323A
:1005C000B207E1F712E0C4ECD2E000E006C02197E8
:1005D0000109802FFE010E94413BC33CD10780E00E
:1005E0000807A9F70E949C2A0C94984409CDEF9221
:1005F000FF920F931F93CF93DF9300D000D0CDB71E
:10060000DEB78C017B01CE0101960E947F112A8109
:1006100080E2289F900111248B81A901482B8981B8
:10062000282F30E02C5E3F4F322F2227330F242B10
:10063000352BF801318320838D81F0E28F9F90016B
:1006400011249C81892F90E0982F8827990F990F6A
:10065000990F822B932B2E8130E035952795822B95
:10066000932BF7019183808326960FB6F894DEBF13
:100670000FBECDBFDF91CF911F910F91FF90EF90F3
:100680000895CF93DF93CDB7DEB762970FB6F89496
:10069000DEBF0FBECDBF62E872E0CE0101960E94C0
:1006A000572460910F0270911002685071094AE05E
:1006B000CE010D960E94F82363EC74E0CE010796FC
:1006C0000E945724BE01635F7F4FCE0107960E94B0
:1006D00053236CE575E00E943C23BC01CE010196DA
:1006E0000E947923CE0107960E94C723CE010D9662
:1006F0000E94C723BE016F5F7F4F85E498E00E9490
:100700005A2A64E170E080E090E00E94F110CE018E
:1007100001960E94C72362960FB6F894DEBF0FBE03
:10072000CDBFDF91CF9108950F931F93CF93DF93A8
:1007300000D000D0CDB7DEB78C01E091BA0AF091BD
:10074000BB0A309719F08581811106C066EC74E010
:100750008FE799E00E94422ACE0101960E947F1104
:1007600096E0FE013196ABE9BAE001900D929A95C0
:10077000E1F7B80181EA9AE00E945A2A6FE873E033
:1007800081EA9AE00E94592A40919B0A50E0405326
:10079000584F052E000C660B770B2AE081EA9AE091
:1007A0000E94F7296DE281EA9AE00E94522A409164
:1007B0009C0A50E060E070E02AE081EA9AE00E9442
:1007C000F7296DE281EA9AE00E94522A40919D0A3F
:1007D00050E060E070E02AE081EA9AE00E94F729A8
:1007E0006AED72E081EA9AE00E94592A40919E0ADD
:1007F00050E060E070E02AE081EA9AE00E94F72988
:100800006BE174E081EA9AE00E94592A40919F0AC4
:1008100050E060E070E02AE081EA9AE00E94F72967
:100820006BE174E081EA9AE00E94592A4091A00AA3
:1008300050E060E070E02AE081EA9AE00E94F72947
:100840006FE873E081EA9AE00E94592A26960FB673
:10085000F894DEBF0FBECDBFDF91CF911F910F91F6
:1008600008950F931F93CF93DF93CDB7DEB7AA9769
:100870000FB6F894DEBF0FBECDBF8C0163EE74E0FF
:10088000CE014F960E94572480911102813309F0C6
:1008900012C26EEF74E0CE0101960E945724BE0191
:1008A000615E7F4FCE0101960E9453236CE575E097
:1008B0000E943C23BC0185E498E00E945A2ACE01A4
:1008C00001960E94C72364EC73E0C8010E941D23B7
:1008D0008823C9F061E075E0CE0101960E9457249B
:1008E00064ED7AE0CE0101960E9453236CE575E039
:1008F0000E943C23BC0185E498E00E945A2ACE0164
:1009000001960E94C72367E673E0C8010E941D2379
:100910008823C9F061E075E0CE0101960E9457245A
:100920006EEC7AE0CE0101960E9453236CE575E0EF
:100930000E943C23BC0185E498E00E945A2ACE0123
:1009400001960E94C72364E673E0C8010E941D233C
:100950008823C9F061E075E0CE0101960E9457241A
:1009600068EC7AE0CE0101960E9453236CE575E0B5
:100970000E943C23BC0185E498E00E945A2ACE01E3
:1009800001960E94C72367EC73E0C8010E941D23F3
:100990008823C9F061E075E0CE0101960E945724DA
:1009A00062EC7AE0CE0101960E9453236CE575E07B
:1009B0000E943C23BC0185E498E00E945A2ACE01A3
:1009C00001960E94C72366E374E0C8010E941D23BC
:1009D0008823C9F061E075E0CE0101960E9457249A
:1009E0006CEB7AE0CE0101960E9453236CE575E032
:1009F0000E943C23BC0185E498E00E945A2ACE0163
:100A000001960E94C7230E941E1F64E075E0CE017C
:100A10004F960E946423BE01615E7F4F8FE799E08D
:100A20000E94682A6EEF74E0CE0101960E9457245E
:100A3000BE01615E7F4FCE0101960E9453236CE59B
:100A400075E00E943C23BC0185E498E00E945A2A8C
:100A5000CE0101960E94C72360E177E280E090E03A
:100A60000E94F110B801CE0185960E944F2462E8E1
:100A700072E0CE0149960E94572464E275E0CE01EF
:100A800049960E946423BE01675E7F4F8FE799E01D
:100A90000E94682A6EEF74E0CE0101960E945724EE
:100AA000BE01675E7F4FCE0101960E9453236CE525
:100AB00075E00E943C23BC0185E498E00E945A2A1C
:100AC000CE0101960E94C72361E375E0CE014396F3
:100AD0000E94572463E375E0CE010D960E945724CF
:100AE000BE01635F7F4FCE0101960E944F24BE017D
:100AF0006D5E7F4FCE0101960E94532363E77AE03B
:100B00000E945323BE016D5E7F4F0E945323BC01A0
:100B1000CE0107960E944F24CE0101960E94C72362
:100B200060E475E082EE98E00E94592A64E670E085
:100B300080E090E00E94F110BE01695F7F4F82EE7D
:100B400098E00E94682A64E670E080E090E00E94ED
:100B5000F11064EC73E0CE0185960E941D2388237A
:100B600061F064ED7AE082EE98E00E94682A64ED1C
:100B70007AE08FE799E00E94682A67E673E0CE0189
:100B800085960E941D23882361F06EEC7AE082EE48
:100B900098E00E94682A6EEC7AE08FE799E00E9464
:100BA000682A64E673E0CE0185960E941D2388239F
:100BB00061F068EC7AE082EE98E00E94682A68ECC6
:100BC0007AE08FE799E00E94682A67EC73E0CE0133
:100BD00085960E941D23882361F062EC7AE082EE04
:100BE00098E00E94682A62EC7AE08FE799E00E9420
:100BF000682A66E374E0CE0185960E941D2388234F
:100C000061F06CEB7AE082EE98E00E94682A6CEB6F
:100C10007AE08FE799E00E94682A64E670E080E05D
:100C200090E00E94F1106AE182EE98E00E94522A60
:100C300082EE98E00E943F2A64E670E080E090E057
:100C40000E94F11082EE98E00E943F2A68E873E16A
:100C500080E090E00E94F1106BE475E08FE799E08E
:100C60000E94592ABE01695F7F4F8FE799E00E9479
:100C7000682ACE0107960E94C723CE010D960E94D6
:100C8000C723CE0143960E94C723CE0149960E94F6
:100C9000C723CE0185960E94C7230E941E1F69E5C7
:100CA00075E085E498E00E94592A6EE575E085E4D8
:100CB00098E00E94592AB801CE0101960E944F2463
:100CC000CE01019631DDCE0101960E94C72364EC6E
:100CD00073E0C8010E941D23882321F081EE93E078
:100CE0000E94382067E673E0C8010E941D23882314
:100CF00059F080911102813319F485EC93E002C020
:100D000084EA93E00E94382064E673E0C8010E9400
:100D10001D23882359F080911102813319F488E84A
:100D200093E002C087E693E00E94382067EC73E00E
:100D3000C8010E941D23882321F08AE493E00E94C9
:100D4000382066E374E0C8010E941D23882359F00F
:100D500080911102813319F485E293E002C08BEF98
:100D600092E00E94382081EA9AE00E94801CCE0125
:100D70004F960E94C723AA960FB6F894DEBF0FBE07
:100D8000CDBFDF91CF911F910F910895CF93DF9346
:100D9000CDB7DEB762970FB6F894DEBF0FBECDBFFA
:100DA00060915E0770915F074AE0CE010D960E9448
:100DB000F82360916007709161074AE0CE010796C1
:100DC0000E94F82363E675E0CE0101960E94572445
:100DD000BE01695F7F4FCE0101960E945323BE0181
:100DE000635F7F4F0E9453236CE575E00E943C23B4
:100DF000BC0185E498E00E945A2ACE0101960E9427
:100E0000C723CE0107960E94C723CE010D960E94EC
:100E1000C72364E170E080E090E00E94F1106296E8
:100E20000FB6F894DEBF0FBECDBFDF91CF9108950E
:100E30004F925F926F927F928F929F92AF92BF92EA
:100E4000CF92DF92EF92FF92CF93DF93CDB7DEB7D1
:100E500062970FB6F894DEBF0FBECDBF2B013C01E9
:100E600049015A0166E675E08FE799E00E94592A28
:100E70002AE0B301A2018FE799E00E94F7292AE056
:100E8000B501A4018FE799E00E94F7298FE799E067
:100E90000E943F2A88EEC82E83E0D82EE12CF12C48
:100EA000C301B201A70196010E945D44BA01A901E4
:100EB0002AE0CE0107960E94CC23C501B401A70108
:100EC00096010E945D44BA01A9012AE0CE01019673
:100ED0000E94CC2360E875E0CE010D960E94572455
:100EE000BE01695F7F4FCE010D960E9453236DE1D5
:100EF00074E00E943C23BE016F5F7F4F0E9453232A
:100F00006CE575E00E943C23BC0185E498E00E94FA
:100F10005A2ACE010D960E94C72364E170E080E05A
:100F200090E00E94F110CE0101960E94C723CE01ED
:100F300007960E94C72362960FB6F894DEBF0FBED5
:100F4000CDBFDF91CF91FF90EF90DF90CF90BF901A
:100F5000AF909F908F907F906F905F904F9008958B
:100F60008F929F92AF92BF92CF92DF92EF92FF92B9
:100F7000CF93DF93CDB7DEB762970FB6F894DEBF9D
:100F80000FBECDBF49015A0128EEC22E23E0D22E5A
:100F9000E12CF12CA70196010E945D44BA01A90140
:100FA0002AE0CE0107960E94CC23C501B401A70117
:100FB00096010E945D44BA01A9012AE0CE01019682
:100FC0000E94CC2363E875E0CE010D960E94572461
:100FD000BE01695F7F4FCE010D960E9453236DE1E4
:100FE00074E00E943C23BE016F5F7F4F0E94532339
:100FF0006CE575E00E943C23BC0185E498E00E940A
:101000005A2ACE010D960E94C72364E170E080E069
:1010100090E00E94F110CE0101960E94C723CE01FC
:1010200007960E94C72362960FB6F894DEBF0FBEE4
:10103000CDBFDF91CF91FF90EF90DF90CF90BF9029
:10104000AF909F908F900895CF92DF92EF92FF9292
:10105000CF93DF93CDB7DEB768970FB6F894DEBFB6
:101060000FBECDBF60915A0770915B0780915C07FE
:1010700090915D0728EEC22E23E0D22EE12CF12CB8
:10108000A70196010E945D44BA01A9012AE0CE01A0
:1010900043960E94CC236091560770915707809128
:1010A000580790915907A70196010E945D44BA0123
:1010B000A9012AE0CE010D960E94CC2366E875E0D6
:1010C000CE0107960E945724BE01635F7F4FCE0179
:1010D00007960E9453236DE174E00E943C23BE01F9
:1010E0006D5E7F4F0E9453236CE575E00E943C23A8
:1010F000BC01CE0101960E944F24CE0107960E94AA
:10110000C723CE010D960E94C723CE0143960E94AD
:10111000C723BE016F5F7F4F85E498E00E945A2A83
:1011200064E170E080E090E00E94F110CE01019651
:101130000E94C72368960FB6F894DEBF0FBECDBFDE
:10114000DF91CF91FF90EF90DF90CF900895CF93F4
:10115000DF93CDB7DEB762970FB6F894DEBF0FBE50
:10116000CDBF8091630790916407049709F489DAF1
:1011700062E872E0CE0101960E94572460916307F5
:10118000709164074AE0CE010D960E94F82369E849
:1011900075E0CE0107960E945724BE01635F7F4F22
:1011A000CE0107960E9453236CE575E00E943C2314
:1011B000BC01CE0101960E947923CE0107960E94C0
:1011C000C723CE010D960E94C723BE016F5F7F4FDC
:1011D00085E498E00E945A2A64E170E080E090E0A3
:1011E0000E94F110CE0101960E94C72362960FB6AD
:1011F000F894DEBF0FBECDBFDF91CF910895EF927F
:10120000FF920F931F93CF93DF93CDB7DEB72C9749
:101210000FB6F894DEBF0FBECDBF7C01BC0183E7E3
:101220009AE00E9479236CE875E0CE0107960E944F
:101230005724B701CE0107960E9453236CE575E051
:101240000E943C23BC01CE0101960E944F24CE0196
:1012500007960E94C723BE016F5F7F4F85E498E029
:101260000E945A2A64E170E080E090E0BAD701E081
:1012700010E0C8010197F701248135818217930797
:1012800050F4208131812115310529F0F901E80F51
:10129000F91F608101C060E0C8010E944F4464E111
:1012A00070E080E090E09DD76FE875E08FE799E00F
:1012B0000E94422A0F5F1F4F0B301105D1F6CE015D
:1012C00001960E94C7232C960FB6F894DEBF0FBE7E
:1012D000CDBFDF91CF911F910F91FF90EF900895B7
:1012E000CF93DF93CDB7DEB72C970FB6F894DEBF60
:1012F0000FBECDBF61E072E0CE0101960E9457247F
:1013000080914707882319F067EE72E002C068EC0D
:1013100072E085E498E00E94782A64E170E080E061
:1013200090E05FD780914607882311F16CEC75E05F
:10133000CE0107960E945724BE016F5F7F4FCE01FA
:1013400007960E9453236CE575E00E943C23BC0184
:10135000CE0101960E947923CE0107960E94C723F1
:10136000BE016F5F7F4F85E498E00E945A2A06C055
:1013700061EB72E085E498E00E94782A64E170E015
:1013800080E090E02ED7CE0101960E94C7232C96D4
:101390000FB6F894DEBF0FBECDBFDF91CF91089599
:1013A00088E08CD621E0892B09F420E020936207A5
:1013B000222319F06FEC75E002C064ED75E085E45E
:1013C00098E00E94592A64E170E080E090E009C74B
:1013D0000F931F93CF93DF93CDB7DEB7A9970FB6C7
:1013E000F894DEBF0FBECDBFCE01019688D786E050
:1013F000FE013196ABE9BAE001900D928A95E1F7D2
:101400000BE91AE0F801808190E01DA21CA21FA246
:101410001EA219A618A64AE0BE016F5F7F4F805337
:10142000984F0E94A040BE016F5F7F4FCE0184960F
:101430000E9464234AE0F8016181CE014E960E9429
:1014400023244AE0F8016281CE0148960E942324B9
:1014500069ED75E0CE0142960E945724BE01685E98
:101460007F4FCE0142960E9453236BE174E00E94AD
:101470003C23BE01625E7F4F0E9453236BE174E008
:101480000E943C23BE016C5D7F4F0E9453236CE59C
:1014900075E00E943C23BC01CE0101960E944F24BE
:1014A000CE0142960E94C723CE0148960E94C723D0
:1014B000CE014E960E94C723CE0184960E94C72378
:1014C000BE016F5F7F4F85E498E00E945A2A64E175
:1014D00070E080E090E085D6CE0101960E94C7239F
:1014E000A9960FB6F894DEBF0FBECDBFDF91CF91A6
:1014F0001F910F910895CF93DF93CDB7DEB72C974F
:101500000FB6F894DEBF0FBECDBF62E872E0CE0129
:1015100001960E94572461EA73E0CE0107960E946B
:10152000572469E77AE0CE0107960E9453236CE5C1
:1015300075E00E943C23BC01CE0101960E947923F4
:10154000CE0107960E94C723BE016F5F7F4F85E4DF
:1015500098E00E945A2A64E170E080E090E041D671
:10156000CE0101960E94C7232C960FB6F894DEBFD9
:101570000FBECDBFDF91CF910895CF92DF92EF9252
:10158000FF920F931F93CF93DF938C017B016A012E
:10159000EC01EC16FD06ECF09E01201B310BF60170
:1015A000848195812817390748F4808191810097BB
:1015B00029F0FC01E20FF31F608101C060E0CE0161
:1015C0000E944F4464E170E080E090E00AD62196EA
:1015D000E0CFDF91CF911F910F91FF90EF90DF90BF
:1015E000CF900895CF93DF93CDB7DEB72C970FB68A
:1015F000F894DEBF0FBECDBF6CED75E0CE0107964F
:101600000E94572465E87AE0CE0107960E94532392
:101610006CE575E00E943C23BC01CE0101960E945E
:101620004F24CE0107960E94C72360914E07709108
:101630004F0780915007909151079B01AC010E9488
:10164000713C882339F06EE872E085E498E00E94EE
:10165000782A07C0BE016F5F7F4F85E498E00E9443
:101660005A2A64E170E080E090E0BBD56FED75E050
:10167000CE0107960E9457246FE77AE0CE010796C5
:101680000E9453236CE575E00E943C23BC01CE010F
:1016900001960E947923CE0107960E94C72360918C
:1016A0004A0770914B0780914C0790914D079B0121
:1016B000AC010E94713C882339F06BE672E085E44E
:1016C00098E00E94782A07C0BE016F5F7F4F85E4D3
:1016D00098E00E945A2A64E170E080E090E081D5B1
:1016E000CE0101960E94C7232C960FB6F894DEBF58
:1016F0000FBECDBFDF91CF9108958F929F92AF9291
:10170000BF92CF92DF92EF92FF920F931F93CF93EE
:10171000DF93CDB7DEB7C258D1090FB6F894DEBF5C
:101720000FBECDBF8C017B0164E673E085E498E0D9
:101730000E94592A8BE5C82ED12CCC0EDD1E8CE0E0
:10174000C80ED11C5701EFEFAE1ABE0AF801818C0A
:10175000928CF4018581823008F473C0F401828593
:101760009385A485B5858F719927AA27BB27892BD7
:101770008A2B8B2B09F065C040E250E0BE016F5F01
:101780007F4FC4010E94AA16803209F05AC0898195
:10179000882309F456C0853E79F38E3269F38C852F
:1017A00083FDEACF22961FAE1EAE229785E492E01B
:1017B0009FAF8EAF24961FAE2497FE01319690E026
:1017C00020E03EE28191803291F0283041F4A6E79A
:1017D000B0E0AC0FBD1FA90FB11D3C939F5FA6E702
:1017E000B0E0AC0FBD1FA90FB11D8C939F5F2F5FA1
:1017F0002B3041F7E6E7F0E0EC0FFD1FE90FF11D9C
:101800001082F801618D728D21E0AE014A585F4F60
:10181000CE01CE960E942F26882399F0BE01625CED
:101820007F4FCE0181960E94A31CAE014A585F4FA4
:10183000BE016F5D7F4FCE01855A9F4F0E94071DED
:1018400005C0CE01855A9F4F0E94F41CE696EEAD6E
:10185000FFADE697309719F08581811123C062EEC4
:1018600075E08FE799E00E94422A6CE575E085E417
:1018700098E00E94592AC8010E94A429CE57DF4F40
:101880000FB6F894DEBF0FBECDBFDF91CF911F9191
:101890000F91FF90EF90DF90CF90BF90AF909F900F
:1018A0008F90089580E0282F30E02E153F0514F426
:1018B0008F5FF9CFB60185E498E00E94592AE69639
:1018C0008EAD9FADE697009709F440C0FC012581DD
:1018D0002230E0F16F962EAD3FAD6F973C832B83A6
:1018E000A3964CAD5DAD6EAD7FADA3974D835E838A
:1018F0006F837887A7964CAD5DAD6EAD7FADA79732
:1019000049875A876B877C8725E232E03A832983AF
:101910002DE0F601DE011D9601900D922A95E1F76A
:101920009B8F8A8FB501CE010196E7DEE6968EADDC
:101930009FADE697009709F409CF0E942025E6960F
:101940008EAD9FADE6970E94843F00CF6AED72E0B6
:1019500085E498E00E94592AE696EEADFFADE69741
:10196000309729F0438954896589768903C040E01E
:1019700050E0BA012AE085E498E00E94F7296FE878
:1019800073E085E498E00E94592AD0CFCF93DF938B
:1019900000D000D0CDB7DEB762E872E0CE0101968C
:1019A0000E94572480910002882319F061EF75E0AE
:1019B00002C06AEF75E0CE0101960E946423BE0169
:1019C0006F5F7F4F85E498E00E945A2A64E170E0DF
:1019D00080E090E006D4CE0101960E94C7232696AF
:1019E0000FB6F894DEBF0FBECDBFDF91CF91089543
:1019F0001F93CF93DF93CDB7DEB768970FB6F894F8
:101A0000DEBF0FBECDBF182F62E872E0CE01079691
:101A10000E945724103319F461E076E002C065E0BB
:101A200076E0CE0107960E946423BE01695F7F4F76
:101A3000CE0143960E944F2467E673E0CE010D96D7
:101A40000E945724BE016D5E7F4FCE010D960E940D
:101A500053236CE575E00E943C23BC01CE01019646
:101A60000E944F24CE010D960E94C723CE014396BB
:101A70000E94C723BE016F5F7F4F85E498E00E94FC
:101A80005A2A6091110280E090E00E944F44CE01FA
:101A900001960E94C723CE0107960E94C72368962D
:101AA0000FB6F894DEBF0FBECDBFDF91CF911F916F
:101AB0000895CF93DF9300D000D0CDB7DEB710DC10
:101AC0008091110295DF63E77AE0CE0101960E94D2
:101AD0004F24CE01019693DBCE0101960E94C723CD
:101AE00077DC35DB0E9441035BDCAEDA4FD926960A
:101AF0000FB6F894DEBF0FBECDBFDF91CF91089532
:101B0000CF92DF92EF92FF920F931F93CF93DF93C9
:101B1000CDB7DEB72C970FB6F894DEBF0FBECDBFA2
:101B20008C017B016A0162E872E00E945724CE14A6
:101B3000DF044CF1C7010E944744282F30E0B9016F
:101B4000605371094AE0CE0107960E94F823B8015C
:101B5000CE0101960E944F24BE01695F7F4FCE01E6
:101B600001960E945323BC01C8010E947923CE0133
:101B700001960E94C723CE0107960E94C7238FEFCC
:101B8000E81AF80AD4CFC8012C960FB6F894DEBF35
:101B90000FBECDBFDF91CF911F910F91FF90EF90BE
:101BA000DF90CF900895FC01A089B1898C91A6891E
:101BB000B78982FD0FC09C91818D8F5F8F73228DBD
:101BC000821749F0218DDF01A20FB11D5D969C9314
:101BD000818F08958C910895FC01918D828D9817C5
:101BE00061F0828DDF01A80FB11D5D968C91928D01
:101BF0009F5F9F73928F90E008958FEF9FEF0895FE
:101C0000FC01918D828D981731F0828DE80FF11DC6
:101C1000858D90E008958FEF9FEF0895FC01918DE1
:101C2000228D892F90E0805C9F4F821B91098F73DA
:101C30009927089585E498E0F1DF21E0892B09F4E4
:101C400020E0822F089582EE98E0E8DF21E0892BE2
:101C500009F420E0822F08958FE799E0DFDF21E08B
:101C6000892B09F420E0822F0895FC01848DDF0187
:101C7000A80FB11DA35ABF4F2C91848D90E00196FF
:101C80008F739927848FA689B7892C93A089B189EE
:101C90008C9180648C93938D848D981306C00288F8
:101CA000F389E02D80818F7D80830895EF92FF92EC
:101CB0000F931F93CF93DF93EC0181E0888F9B8D6F
:101CC0008C8D981305C0E889F989808185FD23C032
:101CD000F62E0B8D10E00F5F1F4F0F731127E02EB4
:101CE0008C8DE8120BC00FB607FCFACFE889F98992
:101CF000808185FFF5CFCE01B8DFF2CF8B8DFE015D
:101D0000E80FF11DE35AFF4FF0820B8FEA89FB8940
:101D10008081806207C0EE89FF896083E889F98944
:101D200080818064808381E090E0DF91CF911F917A
:101D30000F91FF90EF900895CF93DF93EC01888D82
:101D40008823C1F0EA89FB89808185FD05C0A889C7
:101D5000B9898C9186FD0EC00FB607FCF5CF808146
:101D600085FFF2CFA889B9898C9185FFEDCFCE018F
:101D70007CDFE8CFDF91CF91089580E090E0892B60
:101D800019F06ADF81111BC080E090E0892B19F007
:101D90005ADF811117C080E090E0892B41F080E08C
:101DA00090E0892B21F00E94000081110EC080E09C
:101DB00090E0892B79F03EDF81110AC008950E94DE
:101DC0000000E2CF0E940000E6CF0E940000EFCFAB
:101DD0000C940000089590E0FC013197E231F10588
:101DE00008F04EC08827E558FF4F8F4F0C94413BB9
:101DF000809180008F7703C0809180008F7D8093D9
:101E00008000089580918000877FF9CF84B58F7717
:101E100002C084B58F7D84BD08958091B0008F7716
:101E200003C08091B0008F7D8093B00008958091B1
:101E300090008F7707C0809190008F7D03C08091C4
:101E40009000877F8093900008958091A0008F7705
:101E500007C08091A0008F7D03C08091A000877F84
:101E60008093A0000895809120018F7707C0809112
:101E700020018F7D03C080912001877F8093200106
:101E800008953FB7F8948091D4079091D507A09119
:101E9000D607B091D70726B5A89B05C02F3F19F0EC
:101EA0000196A11DB11D3FBFBA2FA92F982F8827DA
:101EB000820F911DA11DB11DBC01CD0142E0660F35
:101EC000771F881F991F4A95D1F708950E94723E87
:101ED0001F920F920FB60F9211240BB60F922F93F1
:101EE0003F934F935F936F937F938F939F93AF93A2
:101EF000BF93EF93FF9385E498E0B7DEFF91EF91F6
:101F0000BF91AF919F918F917F916F915F914F9111
:101F10003F912F910F900BBE0F900FBE0F901F900F
:101F200018951F920F920FB60F9211240BB60F92B5
:101F30002F933F934F935F936F937F938F939F93D1
:101F4000AF93BF93EF93FF9385E498E02CDEFF916E
:101F5000EF91BF91AF919F918F917F916F915F9121
:101F60004F913F912F910F900BBE0F900FBE0F908E
:101F70001F9018951F920F920FB60F9211240BB657
:101F80000F922F933F934F935F936F937F938F9312
:101F90009F93AF93BF93EF93FF9382EE98E065DE3C
:101FA000FF91EF91BF91AF919F918F917F916F9131
:101FB0005F914F913F912F910F900BBE0F900FBEED
:101FC0000F901F9018951F920F920FB60F92112429
:101FD0000BB60F922F933F934F935F936F937F9323
:101FE0008F939F93AF93BF93EF93FF9382EE98E00D
:101FF000DADDFF91EF91BF91AF919F918F917F912A
:102000006F915F914F913F912F910F900BBE0F9069
:102010000FBE0F901F9018951F920F920FB60F9240
:1020200011240BB60F922F933F934F935F936F93AF
:102030007F938F939F93AF93BF93EF93FF938FE71C
:1020400099E013DEFF91EF91BF91AF919F918F9136
:102050007F916F915F914F913F912F910F900BBEA8
:102060000F900FBE0F901F9018951F920F920FB6F2
:102070000F9211240BB60F922F933F934F935F93C0
:102080006F937F938F939F93AF93BF93EF93FF9340
:102090008FE799E088DDFF91EF91BF91AF919F911C
:1020A0008F917F916F915F914F913F912F910F9001
:1020B0000BBE0F900FBE0F901F901895CF93DF931C
:1020C000282F30E0F901E75DFB4F8491F901EA54D4
:1020D000FE4FD491F901E450FE4FC491CC2389F016
:1020E000811179DEEC2FF0E0EE0FFF1FE15FFB4F77
:1020F000A591B491EC91ED2381E090E021F480E092
:1021000002C080E090E0DF91CF9108951F93CF93BC
:10211000DF93282F30E0F901E75DFB4F8491F9014F
:10212000EA54FE4FD491F901E450FE4FC491CC2300
:10213000C1F0162F81114FDEEC2FF0E0EE0FFF1FE4
:10214000EB50FC4FA591B4918FB7F894111105C0D5
:102150009C91ED2FE095E92302C0EC91ED2BEC93DF
:102160008FBFDF91CF911F910895CF93DF9390E0C0
:10217000FC01EA54FE4F2491FC01E450FE4F84918F
:10218000882361F190E0880F991FFC01E456FE4F0F
:10219000C591D491FC01EB50FC4FA591B491611114
:1021A00009C09FB7F8948881209582238883EC9199
:1021B0002E230BC0623061F49FB7F8943881822FD0
:1021C000809583238883EC912E2B2C939FBF06C090
:1021D0008FB7F894E8812E2B28838FBFDF91CF91A2
:1021E00008958F929F92AF92BF92CF92DF92EF921B
:1021F000FF926B017C0145DE4B015C01C114D104EF
:10220000E104F104E9F03DDEDC01CB018819990914
:10221000AA09BB09883E9340A105B10578F321E0E6
:10222000C21AD108E108F10888EE880E83E0981EF2
:10223000A11CB11CC114D104E104F10421F7DECFCB
:10224000FF90EF90DF90CF90BF90AF909F908F90D6
:1022500008952FB7F8946091D0077091D1078091BD
:10226000D2079091D3072FBF08951F920F920FB6F8
:102270000F9211242F933F938F939F93AF93BF930C
:102280008091D0079091D107A091D207B091D30748
:102290003091CF0723E0230F2D3720F40196A11DA5
:1022A000B11D05C026E8230F0296A11DB11D209384
:1022B000CF078093D0079093D107A093D207B09314
:1022C000D3078091D4079091D507A091D607B091FC
:1022D000D7070196A11DB11D8093D4079093D50710
:1022E000A093D607B093D707BF91AF919F918F91DD
:1022F0003F912F910F900FBE0F901F901895CF9286
:10230000DF92EF92FF920F931F93CF93DF93EC0135
:1023100081E08093D80788E68093FA071092D90766
:102320001092FB0760E087E69AE00E94DB1B60D614
:1023300067E070E088E690E010D687E69AE00E94B9
:10234000901B8F77982F92959F701AEF082F919F6F
:10235000000D112487E69AE00E94901B9C01332710
:1023600094E0359527959A95E1F7F82E129FF00C99
:10237000112487E69AE00E94901B9C01332744E0D9
:10238000359527954A95E1F7E82E129FE00C112428
:1023900087E69AE00E94901B87E69AE00E94901BD5
:1023A0009C01332754E0359527955A95E1F7D82EAF
:1023B000129FD00C112487E69AE00E94901B9C018A
:1023C000332764E0359527956A95E1F7C82E129F6B
:1023D000C00C112487E69AE00E94901B9C013327D1
:1023E00074E0359527957A95E1F7129F800D1124B9
:1023F0008883C982DA82EB82FC820D83CE01DF9171
:10240000CF911F910F91FF90EF90DF90CF900895A3
:102410008091CA078823A9F14091120250911302BA
:10242000609114027091150221E23BE08091210D30
:102430009091220D0E944529811102C080E00895EB
:102440004091CB075091CC076091CD077091CE079A
:10245000411551056105710591F021E23BE0809144
:10246000210D9091220D0E944529882339F3109265
:10247000CB071092CC071092CD071092CE07109286
:10248000CA0781E008958F929F92AF92BF92EF9218
:10249000FF920F931F93CF934B015C01C42F809148
:1024A000120290911302A0911402B09115028815A6
:1024B0009905AA05BB05F9F0ABDF811102C080E0E8
:1024C00020C081E2E82E8BE0F82E00E012E020E050
:1024D00030E0B501A4018091210D9091220D0E9460
:1024E000B828882361F38092120290921302A0927E
:1024F0001402B09215028091CA07C82BC093CA0774
:1025000081E0CF911F910F91FF90EF90BF90AF901E
:102510009F908F9008954F925F926F927F928F92CB
:102520009F92AF92BF92CF92DF92EF92FF920F9362
:102530001F93CF93DF93EC016A017B0128013901DE
:10254000423051056105710510F480E072C0898543
:102550009A85AB85BC850196A11DB11D8417950791
:10256000A607B70790F38B889C88AD88BE888F89B3
:10257000803129F4BB27AF2D9E2D8D2D09C0DB01A5
:10258000CA0147E0B695A795979587954A95D1F7E3
:10259000880E991EAA1EBB1E8091120290911302F2
:1025A000A0911402B091150288169906AA06BB06DE
:1025B00079F48F89803199F4DD24EE24FF24C6015B
:1025C000880F991FFC01EF5DF44F5182408218C0C3
:1025D00040E0C501B40157DF8111EBCFB6CFE894DD
:1025E000C7F8DD24EE24FF24C601880F991F880F49
:1025F000991FFC01EF5DF44F408251826282738229
:102600008091CA0781608093CA078A89823080F0EE
:102610008D819E81AF81B885880E991EAA1EBB1E32
:102620008092CB079092CC07A092CD07B092CE07B4
:1026300081E0DF91CF911F910F91FF90EF90DF909C
:10264000CF90BF90AF909F908F907F906F905F9052
:102650004F9008958F929F92AF92BF92CF92DF9248
:10266000EF92FF920F931F93CF93DF93FC0181852D
:102670009285A385B4850196A11DB11D8417950788
:10268000A607B70710F480E05BC083899489A58909
:10269000B689C789C03129F4852E962EA72EBB2472
:1026A00009C04A015B01C7E0B694A7949794879448
:1026B000CA95D1F7E9016A017B018F01BC01CD0107
:1026C000680D791D8A1D9B1D809012029090130247
:1026D000A0901402B0901502681579058A059B0533
:1026E00099F4F80187898031A1F4B701A601552733
:1026F00066277727440F551FFA01EF5DF44F80815D
:102700009181A0E0B0E017C040E0BDDE8111E9CFCB
:10271000BACFB701A6014F77552766277727440F11
:10272000551F440F551FFA01EF5DF44F80819181D1
:10273000A281B381BF7088839983AA83BB8381E020
:10274000DF91CF911F910F91FF90EF90DF90CF908D
:10275000BF90AF909F908F9008954F925F926F922D
:102760007F92AF92BF92CF92DF92EF92FF920F9340
:102770001F93CF93DF9300D01F92CDB7DEB78C01AC
:1027800049835A836B837C835901C12CD12C7601F8
:10279000412C82E0582E612C712C49815A816B8129
:1027A0007C819E012F5F3F4FC80154DF882351F188
:1027B000D301C201F801058404C0880F991FAA1F24
:1027C000BB1F0A94D2F7C80ED91EEA1EFB1E498110
:1027D0005A816B817C818789803129F088EF9FEF56
:1027E000AFEFBFE004C088EF9FEFA0E0B0E0481774
:1027F00059076A077B0788F2F501C082D182E2821D
:10280000F38281E00F900F900F900F90DF91CF91A6
:102810001F910F91FF90EF90DF90CF90BF90AF90FE
:102820007F906F905F904F9008950F931F93CF9379
:10283000DF93EC018D81882309F445C08C8187FFEB
:102840003DC06E857F858889998941E01CDE88239B
:10285000D1F18A8920E2829FC0011124FC01EF5D41
:10286000F44F309781F12D81223040F44B895C89FF
:102870006D897E89448F558F668F778F4F89588DEC
:10288000698D7A8D8C010F5D144FF801538F428F43
:10289000758B648BE0914807F0914907309759F0A8
:1028A000BC01695C744F875C944F1995F801808D69
:1028B000918D938B828B8C818F778C83DF91CF91DD
:1028C0001F910F91A5CD80E0DF91CF911F910F91C6
:1028D00008958F929F92AF92BF92CF92DF92EF9224
:1028E000FF920F931F93CF93DF93EC018D818111A2
:1028F00002C080E076C00B891C892D893E890417AF
:10290000150726073707A8F36A017B01823029F4EF
:10291000CA86DB86EC86FD860DC0C114D104E104B5
:10292000F10451F41E821F82188619861A861B86AE
:102930001C861D8681E055C08A849B84AC84BD843E
:10294000EB8DFC8D258530E0275F3F4FB501A4015D
:102950004150510961097109022E04C076956795AD
:10296000579547950A94D2F7D701C6010197A10957
:10297000B10904C0B695A795979587952A95D2F782
:1029800084179507A607B70720F089288A288B287F
:1029900049F44F89588D698D7A8D4E835F8368879E
:1029A000798704C0841B950BA60BB70B4C015D0106
:1029B0008E010A5F1F4F81149104A104B10409F430
:1029C000A7CF4E815F816885798598018B8D9C8D1D
:1029D00041DE91E0891A9108A108B1088111EBCF7D
:1029E00088CFDF91CF911F910F91FF90EF90DF90F3
:1029F000CF90BF90AF909F908F9008952F923F926D
:102A00004F925F926F927F928F929F92AF92BF92FE
:102A1000CF92DF92EF92FF920F931F93CF93DF93AA
:102A200000D01F92CDB7DEB78C016B013A01DC01FB
:102A300015968C9115978130C1F414968C9181FF75
:102A400014C082FF1CC0F8014389548965897689C6
:102A500082859385A485B58584179507A607B70752
:102A600071F0C80136DF81110AC081E090E0D80121
:102A700013969C938E93129780E090E044C143019B
:102A800084C0D8015B968D919C915C97FC01548029
:102A90002FEF250D1A012B0139E0569447943794F6
:102AA00027943A95D1F7522E52207A01F1E0FF2275
:102AB000552009F476C080E092E08E199F095401F8
:102AC0008815990508F45C01D8015B962D913C911D
:102AD0005C9716968D919D910D90BC91A02D0297BB
:102AE000A109B109F901058404C0880F991FAA1F23
:102AF000BB1F0A94D2F74685578560897189840F78
:102B0000951FA61FB71F9C01AD01250D311D411D4D
:102B1000511D19012A01A11432E0B30609F087C042
:102B20008091120290911302A0911402B0911502AB
:102B300082159305A405B50559F48FEF9FEFDC01CD
:102B40008093120290931302A0931402B093150283
:102B50009601B201A1018091210D9091220D0E9458
:102B60004529882309F481CF9EEFD91A8A189B083A
:102B7000F80182859385A485B5858A0D9B1DA11DCD
:102B8000B11D82879387A487B587D8011A964D9186
:102B90005D916D917C911D978114910409F071CF25
:102BA00084C0E114F10409F086CF16964D915D9131
:102BB0006D917C911997411551056105710559F485
:102BC00057968D919D910D90BC91A02D0097A105D8
:102BD000B10539F520C09E012F5F3F4F3BDD8823B3
:102BE00009F44BCF89819A81AB81BC81F801238D97
:102BF000348DF9012789203129F048EF5FEF6FEF1D
:102C00007FE004C048EF5FEF60E070E08417950755
:102C1000A607B70730F0C8010E942C2581114BCFC1
:102C200024CFF80186839783A087B18744CFE1142E
:102C3000F10421F5D8011A964D915D916D917C9129
:102C40001D9753968D919D910D90BC91A02D481785
:102C500059076A077B0790F0DBDB882309F405CF6F
:102C600020921202309213024092140250921502E6
:102C70008091CA0781608093CA0707C041E0C20102
:102C8000B10101DC882309F4F0CED601F701EF5D34
:102C9000F44FCF018A0D9B1DE817F90719F02D910C
:102CA0002193FACFCA0CDB1C61CF5396CD90DD90F7
:102CB000ED90FC90569714968C91C416D506E606B6
:102CC000F70640F4F801438B548B658B768B806854
:102CD00084830DC02091480730914907232B39F098
:102CE0006114710421F08068D80114968C93F80166
:102CF000848183FD02C0C30106C0C80196DD88231C
:102D000009F4B3CEF8CF0F900F900F900F90DF9192
:102D1000CF911F910F91FF90EF90DF90CF90BF90D8
:102D2000AF909F908F907F906F905F904F903F906B
:102D30002F900895CF93DF931F92CDB7DEB76983AD
:102D400041E050E0BE016F5F7F4F58DE0F90DF9192
:102D5000CF9108952F923F924F925F926F927F9200
:102D60008F929F92AF92BF92CF92DF92EF92FF929B
:102D70000F931F93CF93DF93EC016B014A018D8179
:102D8000811103C08FEF9FEFD5C08C8180FFFACFF8
:102D90004B885C886D887E884A855B856C857D85DF
:102DA000C401A0E0B0E093018201041B150B260BC7
:102DB000370B081719072A073B0718F44201841A32
:102DC000950A54011E0126E0220E311CA114B10403
:102DD00009F47DC04A855B856C857D852A0181E08B
:102DE0005822ED818A019B0189E036952795179538
:102DF00007958A95D1F78B8D9C8DE23061F4FC01AB
:102E0000828D938DA48DB58DBC01CD01600F711F96
:102E1000821F931F3EC0FC0174807A94702241147B
:102E20005104C1F4711016C0452B462B472B49F4B1
:102E30008F89988DA98DBA8D8E839F83A887B98736
:102E400009C04E815F8168857985910103DC882303
:102E500009F498CFEB8DFC8D8E819F81A885B98573
:102E60000297A109B109058404C0880F991FAA1F00
:102E7000BB1F0A94D2F74685578560897189840FF4
:102E8000951FA61FB71FBC01CD01670D711D811DC8
:102E9000911D20E032E02419350935012A153B0542
:102EA00008F439012C8126FD04C06114F2E07F068C
:102EB00081F40091120210911302209114023091BA
:102EC00015026017710782079307A9F402C0C401B5
:102ED00031C040E0D8DA882309F454CFF201EF5D25
:102EE000F44FD601CF01860D971DE817F90789F039
:102EF00021912D93FACF760183019201AB01BC01A0
:102F00008091210D9091220D0E94B828882309F408
:102F100039CFC60CD71C8A859B85AC85BD85860DAF
:102F2000971DA11DB11D8A879B87AC87BD87A618F9
:102F3000B7084CCFDF91CF911F910F91FF90EF9089
:102F4000DF90CF90BF90AF909F908F907F906F90C9
:102F50005F904F903F902F9008959091220891118B
:102F6000FCCF613208F060E291E0909322089093E8
:102F700021082FEF2093200810921F08260F20937E
:102F80001E0890931D0890911D08880F892B80932F
:102F90001D0880911C08813061F410921C088091FA
:102FA0001D088093BB008091BC0083FDF8CF85ECA9
:102FB00001C085EE8093BC00809122088130E1F34E
:102FC00080911F08861710F460911F08ACEFB7E0DE
:102FD00025E238E0F9018E2F821B861718F48D91B7
:102FE0008193F9CF1092240860932308862F0895C7
:102FF0002091FB079091FA07213208F04AC0809196
:1030000022088111FCCF32E03093220831E0309366
:1030100021083FEF3093200810921F0820931E08CC
:10302000AAEDB7E04CEF57E0FA013E2F341B321700
:1030300018F43D913193F9CF10921D0820911D088D
:10304000990F922B90931D0890911C08913061F478
:1030500010921C0890911D089093BB009091BC00A9
:1030600093FDF8CF95EC01C095EE9093BC00909144
:1030700022089230E1F3909120089F3F79F08091EF
:103080002008803241F080912008803331F084E0C4
:1030900005C081E003C082E001C083E01092D9073F
:1030A0001092FB071092D8070895CF92DF92EF920B
:1030B000FF920F931F93CF93DF93EC016A017B0183
:1030C000E889F98982E080834115514E61057105D7
:1030D000B1F060E079E08DE390E0A70196010E94F5
:1030E0005D4489019A010150110921093109369580
:1030F000279517950795980101151041A8F0E889C3
:10310000F989108260E874E88EE190E0A7019601E9
:103110000E945D44DA01C9010197A109B109B69580
:10312000A795979587959C01EC85FD853083EE8565
:10313000FF852083188EEC89FD8986E08083EA89EB
:10314000FB89808180618083EA89FB898081886036
:103150008083EA89FB89808180688083EA89FB8992
:1031600080818F7D8083DF91CF911F910F91FF90A0
:10317000EF90DF90CF9008958F929F92AF92BF9281
:10318000CF92DF92EF92FF920F931F93CF93DF9333
:1031900000D01F92CDB7DEB7FC018581813069F583
:1031A000948191FF2AC04389548965897689452B8A
:1031B000462B472B09F457C07F0140E050E0BA018D
:1031C000CF0187DB8823C9F0F7018788908CA18C19
:1031D000B28CC38CD48C82E090E0A0E0B0E0F60129
:1031E00080839183A283B3839E012F5F3F4FB501FC
:1031F000A401C6012FDA811102C080E034C000E0D2
:1032000010E09801B501A401C60185D98823A9F36E
:1032100089809A80AB80BC80F6018789803129F053
:1032200088EF9FEFAFEFBFE004C088EF9FEFA0E013
:10323000B0E088169906AA06BB06B0F2F701178A15
:10324000108E118E128E138A148A158A168A848122
:1032500080688483C701E9DA882379F240E050E08E
:10326000BA01C70136DB0F900F900F900F90DF91DE
:10327000CF911F910F91FF90EF90DF90CF90BF9073
:10328000AF909F908F9008952F923F924F925F92B0
:103290006F927F928F929F92AF92BF92CF92DF9266
:1032A000EF92FF920F931F93CF93DF93CDB7DEB7CB
:1032B000C756D1090FB6F894DEBF0FBECDBF3C0193
:1032C0005B01A6964FAFA6974E018EE1880E911C2A
:1032D00068E47AE0C40137D31C821B8285E492E063
:1032E0009A8389831E827501FE0131966F01240144
:1032F0001F016FE270E0C7010E948C3E0097F1F160
:10330000F70120812F3221F4FFEFEF1AFF0AF1CFEE
:103310008E198D3008F08CE0082F10E0A801B7015D
:10332000CE01885A9F4F0E94A73EE8E5F0E0EC0FDF
:10333000FD1FE00FF11F1082C6010E94202521E031
:10334000AE01485A5F4FB201C6010E942F2681117B
:103350000AC01EAE1DAE85E492E09CAF8BAF2196F5
:103360001FAE219716C0E00EF11EC2010E9420255B
:10337000942D852D2601C92ED82EBBCFC7018A19C1
:103380009B09A8969FAF8EAFA897B201CE01CB96AE
:10339000DAD2A896EEADFFADA897AE0EBF1EF5012E
:1033A0008081811108C0BE01655C7F4FC101CBD215
:1033B0004AEF53E039C019A218A285E492E09F8F2A
:1033C0008E8F1BA221968FAD2197811103C0C3015F
:1033D0000BD32DC08250A6962FADA697A5018230A3
:1033E00040F468E47AE0C4010E942F2681110DC0E8
:1033F000EECFBE01655C7F4FC4010E942F2688235B
:1034000031F3CE01CB960E942025A6968FADA697CC
:10341000867031F049A95AA96BA97CA9C40159DA6F
:10342000B401C10190D2A501B101C301F0D2C30121
:10343000C959DF4F0FB6F894DEBF0FBECDBFDF9185
:10344000CF911F910F91FF90EF90DF90CF90BF90A1
:10345000AF909F908F907F906F905F904F903F9034
:103460002F9008950F931F93CF93DF93411551052C
:10347000E9F061157105D1F0FC0124813581211538
:10348000310519F4FB01108211C0EA0121972C17B4
:103490003D0708F4E9018B01FC0160817181AE01F7
:1034A000C8010E94A73EC00FD11F1882DF91CF91A3
:1034B0001F910F9108956F927F928F929F92AF927A
:1034C000BF92CF92DF92EF92FF920F931F93CF9311
:1034D000DF93CDB7DEB7C754D1090FB6F894DEBF7E
:1034E0000FBECDBF6C015B0119A218A285E492E06A
:1034F0009F8F8E8F1BA21C821B829A8389831E82C0
:10350000812C912C7E018EE1E80EF11C08E41AE07A
:10351000772473949401F601E80DF91D80818F32B0
:1035200011F42F5F3F4FFE01FB9680E090E0D60143
:10353000A20FB31F4C914F3249F0442339F001964A
:103540002F5F3F4F41938C30910589F7EBE3F0E01B
:10355000EC0FFD1FE80FF91F1082F601E20FF31FB9
:1035600080818F3211F42F5F3F4F4901F601E20F46
:10357000F31F662463948081811101C0612C20E0D7
:1035800030E0462D4725BE01655C7F4FC801F5013F
:103590001995811109C0FAE008341F0719F0C80114
:1035A0000E94202580E029C06620C1F021E0AE0104
:1035B000455C5F4FB801C7010E942F26682E8AE044
:1035C00008341807A1F0C8010E942025662051F395
:1035D000902F812F8701E92EF82E9CCFEAE0083446
:1035E0001E0719F0C8010E94202581E006C0662050
:1035F000C9F28E010F5F1F4FEBCFC95BDF4F0FB6D4
:10360000F894DEBF0FBECDBFDF91CF911F910F9118
:10361000FF90EF90DF90CF90BF90AF909F908F90F2
:103620007F906F900895682F87E69AE0C4C0DC0110
:103630005996ED91FC915A973097B9F08389948906
:10364000A589B6894285538564857585841B950B4C
:10365000A60BB70B811520E89207A105B10538F03C
:103660008FEF9FE7A0E0B0E0089580E090E008953C
:10367000CF93DF931F92CDB7DEB76983DC01ED9165
:10368000FC910280F381E02D41E050E0BE016F5FCC
:103690007F4F19950F90DF91CF91089585ED80931D
:1036A000BC008091BC0084FDFCCF109222080895DC
:1036B0004091FC0A262F30E0240F311D21323105C4
:1036C000DCF4209122082430C9F4FC0180E090E071
:1036D000861758F43091FC0A2191DC01A652B54FAF
:1036E000A30FB11D2C930196F3CF8091FC0A680FB4
:1036F0006093FC0A80E0089581E0089582E00895D7
:103700000895E091240880912308E81730F4F0E050
:10371000EB5DF74F808190E008958FEF9FEF089564
:103720009091240880912308981750F4E92FF0E035
:10373000EB5DF74F208130E09F5F9093240802C03B
:103740002FEF3FEFC90108958091230890E0209169
:103750002408821B91090895CF92DF92EF92FF9285
:103760000F931F93CF93DF937C01262F972F8A010E
:103770008091D807882391F0C62FD72F6E01C40EF1
:10378000D51ECC15DD0569F06991D701ED91FC914D
:103790000190F081E02DC7011995F3CF642F822F9E
:1037A00087DFC801DF91CF911F910F91FF90EF90BC
:1037B000DF90CF900895CF93DF931F92CDB7DEB700
:1037C00069832091D8072223D1F02091FB07203272
:1037D00040F021E030E0FC013383228380E090E080
:1037E00014C08091D907E82FF0E0E652F84F998194
:1037F00090838F5F8093D9078093FB0704C061E0BB
:10380000CE01019655DF81E090E00F90DF91CF91DE
:103810000895CF93DF93CDB7DEB76D970FB6F894C9
:10382000DEBF0FBECDBF4423A1F1AB01BC011C82A2
:103830001B8285E492E09A8389831E8222E0CE0176
:1038400001960E942F26811102C090E01DC0CE017A
:10385000019692DC8823C9F36F85788989899A89D2
:1038600041E00E944312882381F3EB8980E2E89FC4
:10387000F0011124EF5DF44F309739F385EE80832A
:103880001E820E940812982F81E0911103C080E0EF
:1038900001C081E06D960FB6F894DEBF0FBECDBFBC
:1038A000DF91CF9108951F93CF93DF93CDB7DEB70C
:1038B0006D970FB6F894DEBF0FBECDBFAB011C8273
:1038C0001B8225E432E03A8329831E8221E0BC0179
:1038D000CE0101960E942F2611E0811102C010E056
:1038E00004C0CE0101960E942025812F6D960FB64F
:1038F000F894DEBF0FBECDBFDF91CF911F91089529
:10390000FC01818D928D009711F00C94151408958F
:10391000CF93DF93EC01898D9A8D009739F481E084
:1039200090E09B838A8380E090E00AC0FC011382D0
:10393000128264D8E98DFA8D22813381232B79F7A5
:10394000DF91CF910895FC01DB0112968D919C913E
:1039500013979383828385E492E091838083149606
:103960008C911497848315968C9115978583169660
:103970004D915D916D917C91199746835783608736
:1039800071871A964D915D916D917C911D9742873B
:103990005387648775871E964D915D916D917C91DB
:1039A000519746875787608B718B52968C915297AF
:1039B000828B53964D915D916D917C915697438B7F
:1039C000548B658B768B57964D915D916D917C9163
:1039D0005A97478B508F618F728F5B968D919C9118
:1039E0005C97948F838F0895FC011382128288EE76
:1039F00093E0A0E0B0E084839583A683B78385E25B
:103A000092E091838083128E118E14860895EF9236
:103A1000FF920F931F93CF93DF93EC017B018A01F9
:103A20001B821A8288EE93E0A0E0B0E08C839D8335
:103A3000AE83BF8385E292E0998388838DE190E035
:103A40000E94EF3E9A8F898F009779F02DE1F70160
:103A5000DC0101900D922A95E1F74CE050E0B801AD
:103A6000CE010C960E94A73E188EDF91CF911F9138
:103A70000F91FF90EF900895CF93DF931F92CDB7F2
:103A8000DEB741E050E0BE016F5F7F4F63D9019721
:103A900019F4898190E002C08FEF9FEF0F90DF91C2
:103AA000CF910895FC01818D928D009709F0E4CFAC
:103AB0008FEF9FEF08950F931F93CF93DF93FC0138
:103AC000818D928D0097B1F0EF01D6DF8C010F3F11
:103AD0008FEF180791F0898D9A8DFC0142855385EF
:103AE0006485758541505109610971090E94691405
:103AF000C80105C080E090E002C08FEF9FEFDF912A
:103B0000CF911F910F9108951F920F920FB60F92B0
:103B100011240BB60F922F933F934F935F936F93A4
:103B20007F938F939F93AF93BF93EF93FF93809176
:103B3000B900887F803609F49CC068F5883209F4A2
:103B40005BC090F4803109F454C038F4882309F440
:103B5000F6C0883009F44DC0F5C0883109F44CC076
:103B6000803209F45DC0EEC0803409F468C048F4C6
:103B7000803309F455C0883309F0E4C080932008ED
:103B8000D8C0803509F44FC0883509F45DC0883449
:103B900009F0D8C0D6C0883909F4C7C0A8F488375E
:103BA00009F467C038F4883609F463C0803709F433
:103BB00060C0C8C0883809F4B8C0803909F45FC053
:103BC000803809F0BFC05BC0803B09F486C038F480
:103BD000803A09F466C0883A09F47FC0B3C0803CDB
:103BE00009F4A7C0883C09F4A4C0883B09F48AC042
:103BF000A9C080911D0810C090911F0880911E08D7
:103C0000981770F5E0911F0881E08E0F80931F08D0
:103C1000F0E0E450F84F80818093BB0085EC86C0D3
:103C2000809320088EC0E0911F0881E08E0F809362
:103C30001F088091BB00F0E0E450F84F8083909122
:103C40001F0880911E086EC0E0911F0881E08E0F52
:103C500080931F088091BB00F0E0E450F84F808310
:103C60008091210881116DC081E080931C0884EA55
:103C700061C083E0809322081092200BCFCF809107
:103C8000200B803208F051C0E091200B81E08E0FB4
:103C90008093200B8091BB00F0E0E050F54F8083D3
:103CA000BDCF85EC8093BC00109222088091200B40
:103CB000803230F4E091200BF0E0E050F54F1082BC
:103CC0006091200B70E0E091FE0AF091FF0A80E025
:103CD0009BE019951092200B35C084E08093220858
:103CE0001092FD0A1092FC0AE091FA0AF091FB0A88
:103CF00019958091FC0A811105C081E08093FC0A2E
:103D00001092DA0AE091FD0A81E08E0F8093FD0A9D
:103D1000F0E0E652F54F80818093BB009091FD0A60
:103D20008091FC0A981708F479CF85E88093BC004D
:103D300009C085EC8093BC001092220803C0109249
:103D40002008ACDCFF91EF91BF91AF919F918F91D3
:103D50007F916F915F914F913F912F910F900BBE8B
:103D60000F900FBE0F901F901895CF92DF92EF9299
:103D7000FF920F931F93CF93DF9300D000D0CDB766
:103D8000DEB76C010E942911009152071091530770
:103D90002091540730915507DC01CB01801B910B1A
:103DA000A20BB30B803C9742A940B105C0F10E9421
:103DB000291160935207709353078093540790938F
:103DC00055076CED75E0CE01019671D5CE010196D7
:103DD0000E949403CE010196DAD40D2C000CEE085B
:103DE000FF08F7FE0EC06DE281EA9AE00E94522AB7
:103DF00044275527BA014C195D096E097F092AE04D
:103E000003C02AE0B701A60181EA9AE00E94F729DF
:103E100081EA9AE00E943F2A81EA9AE071DD2696C3
:103E20000FB6F894DEBF0FBECDBFDF91CF911F91CB
:103E30000F91FF90EF90DF90CF900895CF93DF9395
:103E4000CDB7DEB72C970FB6F894DEBF0FBECDBF4F
:103E500065E077E0CE0101962AD5BE016F5F7F4F06
:103E60008FE799E00E94682A6EEF74E0CE01079612
:103E70001ED5BE016F5F7F4FCE01079614D46CE54F
:103E800075E0FAD3BC0185E498E00E945A2ACE017D
:103E900007967DD461E087E00E94861068EE73E0AB
:103EA00080E090E00E94F11060E087E00E948610C0
:103EB00068E873E180E090E00E94F11067E277E04B
:103EC000CE01019601D4BE016F5F7F4F8FE799E06D
:103ED0000E94682A6EEF74E0CE010796E8D4BE0116
:103EE0006F5F7F4FCE010796DED36CE575E0C4D3DC
:103EF000BC0185E498E00E945A2ACE01079647D477
:103F0000CE01019644D42C960FB6F894DEBF0FBEB6
:103F1000CDBFDF91CF9108950895CF93DF93EC014A
:103F200088819981009711F00E94843F198218823C
:103F30001D821C821B821A82DF91CF9108950F93FC
:103F40001F93CF93DF93EC0188819981009729F02B
:103F50002A813B812617370788F48B016F5F7F4FDB
:103F60000E948E3D009761F0998388831B830A83AA
:103F70002C813D81232B11F4FC01108281E001C0D2
:103F800080E0DF91CF911F910F910895EF92FF9202
:103F90000F931F93CF93DF93FC012481358161152B
:103FA000710511F480E018C041155105A1F07B01A5
:103FB000EC018A01020F131FB801C1DF882391F3BE
:103FC000288139818C819D81B701820F931F0E94C6
:103FD000A03E1D830C8381E0DF91CF911F910F9153
:103FE000FF90EF900895EF92FF920F931F93CF935E
:103FF000DF93EC017B018A01BA01A1DF811103C0CB
:10400000CE018BDF07C01D830C83B70188819981A6
:104010000E94A03ECE01DF91CF911F910F91FF90A2
:10402000EF90089510922408109223081092D90757
:104030001092FB071092220881E0809321081092D1
:104040001C0861E084E10E94861061E085E10E9425
:104050008610E9EBF0E080818E7F808380818D7F08
:10406000808388E48093B80085E48093BC00089541
:10407000CF93DF93BC0181EA9AE00E94782AEC0199
:1040800081EA9AE00E943F2A8C0F9D1FDF91CF9119
:1040900008958F929F92AF92BF92CF92DF92EF924C
:1040A000FF92CF93DF93C82F8EE19AE09093220D79
:1040B0008093210DCC2369F1C53010F080E00DC153
:1040C00040E060E070E0CB010E9443128823B1F32E
:1040D00020E1C29FC00111248F5E944FFC01E25485
:1040E000FE4F20812F7751F73C96408151816281AC
:1040F0007381443651056105710500F33497C08022
:10410000D180E280F380C114D104E104F10421F4F0
:10411000D5CFC12CD12C760140E0C701B6010E9459
:104120004312882359F280912C0B90912D0B81150D
:10413000924021F6A091310BAA2309F4BFCF6091E0
:104140002F0B7091300B6115710509F4B7CF2091D9
:104150002E0B222309F4B2CFA0933C0A20932E0AFF
:1041600080E030E0E1E0F0E0C82FAF01082E02C0AF
:10417000440F551F0A94E2F72417350741F0982F92
:104180008F5F983089F789E08093370A97CF8093C3
:10419000370A2091370B3091380B2115310519F072
:1041A00040E050E008C02091450B3091460B409113
:1041B000470B5091480B20932F0A3093300A4093BD
:1041C000310A5093320A46015701860E971EA11CF0
:1041D000B11C80923D0A90923E0AA0923F0AB09292
:1041E000400AE091320BF091330BF093430AE093D5
:1041F000420AB0E00E947F44860E971EA81EB91E98
:104200008092440A9092450AA092460AB092470AC8
:1042100085E0EE0FFF1F8A95E1F7E150FE4FEF2F8B
:10422000FF27E6958E0E9F1EA11CB11C8092380AB6
:104230009092390AA0923A0AB0923B0A2091340B2C
:104240003091350B2115310521F0A90160E070E0B6
:1042500008C04091410B5091420B6091430B70910B
:10426000440BD701C60188199909AA09BB09840F13
:10427000951FA61FB71F04C0B695A795979587955C
:10428000CA95D2F78093330A9093340AA093350AE3
:10429000B093360A853F2FE09207A105B10510F4CF
:1042A0008CE018C0853F9F4FA105B10510F480E157
:1042B00011C080914D0B90914E0BA0914F0BB0917E
:1042C000500B8093440A9093450AA093460AB093FA
:1042D000470A80E28093410A81E0DF91CF91FF900D
:1042E000EF90DF90CF90BF90AF909F908F90089508
:1042F0001F93CF93DF93EB019091990A21E02093D4
:10430000D8079093FA071092D9071092FB078F7085
:10431000806890E088D90E94F81780939A0A8823D1
:1043200011F080E01FC08091990A62E070E0082ED1
:10433000000C990B0E94AD178091230890E020910A
:104340002408821B9109029761F787E69AE0E8D971
:10435000182F87E69AE0E4D9982F8827812B998334
:10436000888381E0DF91CF911F910895EF92FF92B2
:104370000F931F93CF93DF930E9429110091940A0A
:104380001091950A2091960A3091970A601771074B
:104390008207930740F41092940A1092950A1092A3
:1043A000960A1092970A2091980A211115C000913F
:1043B000940A1091950A2091960A3091970ADC018F
:1043C000CB01801B910BA20BB30B803D9740A10545
:1043D000B10510F481E089C01092980A0E94291159
:1043E0006093940A7093950A8093960A9093970A23
:1043F00010928F0A10928E0A10928D0A10928C0AD7
:1044000010928B0A61E08091910A0E9486106AEFF7
:1044100070E080E090E00E94F11061E08091910AEC
:104420000E94B51060E08091910A0E94861064E1BC
:1044300070E080E090E00E94F110F89461E08091DB
:10444000910A0E9486108BE990E00197F1F760E0F5
:104450008091910A0E94B51010E0C0E081E0D0E0A8
:10446000E82EF12C8091910A0E945E108E159F0516
:1044700019F4DF5FDF3FB1F78091910A0E945E106F
:10448000DF3FC1F0C43098F0C0FD11C0E12FE695C8
:10449000E695E695F0E0E557F54F9081990F90830A
:1044A0002091930A2D1710F4916090831F5FCF5FC6
:1044B000C535A9F678941832B8F020918F0A30E00B
:1044C00040918B0A80918C0A90E0840F911D40915D
:1044D0008D0A840F911D40918E0A840F911D99279A
:1044E0002817390709F476CF80E0DF91CF911F912B
:1044F0000F91FF90EF900895CF92DF92EF92FF928D
:10450000CF93DF93C82F32DF882309F459C09091ED
:10451000920A9B3031F008F453C095519230A0F0CC
:104520004FC060918D0A70E080E090E00E943243BD
:10453000CC2309F44AC020E030E040E151E46B01B3
:104540007C01C701B6012DC0D0918D0A6D2F6F7708
:1045500070E080E090E00E94344320E030E040E8EA
:1045600053E40E9493436B017C0140918E0A642FB7
:1045700070E080E090E00E9434439B01AC01C701F1
:10458000B6010E944A3B20E030E040E251E40E9444
:10459000B53BD7FD9058CC23C1F020E030E040E19E
:1045A00051E40E94934320E030E040EA50E40E944E
:1045B000B53B20E030E040E052E40E944A3B05C0B9
:1045C00040E030E020EC9FE703C0462F372F282F34
:1045D000C42ED32EE22EF92EC701B601DF91CF9162
:1045E000FF90EF90DF90CF900895FC018081918142
:1045F000009711F00C941C4060E070E0CB0108952E
:10460000CF93DF93FC01248135814217530780F457
:10461000FB01DC01CD91DC9160817181CE01840FC1
:10462000951F0E94B63E009719F08C1B9D0B02C08F
:104630008FEF9FEFDF91CF910895FC0124813581A9
:10464000232B31F421E061157105A1F0FB0108C0B5
:10465000FC01808191816115710531F421E0FC013B
:104660008081882339F005C00E94973E21E0892B84
:1046700009F020E0822F0895CF93DF93EC016115BC
:10468000710559F0FB0101900020E9F73197AF0166
:10469000461B570B7BDC811102C0CE013EDCCE01F4
:1046A000DF91CF910895CF93DF93EC01FB0144811B
:1046B0005581608171816ADC811102C0CE012DDCDF
:1046C000CE01DF91CF910895CF93DF93EC01611577
:1046D000710551F0FB0101900020E9F73197AF011E
:1046E000461B570B80DC01C018DCCE01DF91CF9157
:1046F0000895CF93DF93EC01FB018617970751F0E4
:10470000608171816115710521F0448155816BDCF7
:1047100001C003DCCE01DF91CF9108950F931F9369
:10472000CF93DF938C01EB01FC0180819181009795
:10473000B1F0688179816115710579F04281538109
:104740002C813D814217530740F00E94A03E8C818E
:104750009D81F8019583848313C00E94843F8881E2
:104760009981F801918380838A819B8193838283DD
:104770008C819D8195838483198218821B821A8281
:104780001D821C82DF91CF911F910F910895FC0132
:10479000808191810C94843F0F931F93CF93DF937B
:1047A000CDB7DEB7A1970FB6F894DEBF0FBECDBF71
:1047B0008C01CB01BA01F80111821082138212829E
:1047C0001582148230E0AE014F5F5F4F0E946B4054
:1047D000BE016F5F7F4FC80177DFA1960FB6F894D7
:1047E000DEBF0FBECDBFDF91CF911F910F91089516
:1047F0000F931F93CF93DF93CDB7DEB762970FB6BA
:10480000F894DEBF0FBECDBF8C01CB01F801118241
:104810001082138212821582148250E0BE016F5FF3
:104820007F4F0E944240BE016F5F7F4FC8014CDF47
:1048300062960FB6F894DEBF0FBECDBFDF91CF9169
:104840001F910F9108950F931F93CF93DF93CDB7CF
:10485000DEB729970FB6F894DEBF0FBECDBF8C012F
:10486000862FF8011182108213821282158214821F
:1048700050E0BE016F5F7F4F90E00E949640BE0106
:104880006F5F7F4FC80120DF29960FB6F894DEBF17
:104890000FBECDBFDF91CF911F910F910895FC0105
:1048A00011821082138212821582148222CFFC019F
:1048B0001182108213821282158214826115710591
:1048C00049F0FB0101900020E9F73197AF01461B49
:1048D000570B89CB0895BF92CF92DF92EF92FF9250
:1048E0000F931F93CF93DF937C016B018A01E90142
:1048F0002417350720F4812F8901C42FD82F62E8AF
:1049000072E0C701D4DFD60114968D919C91159762
:1049100008171907C8F48C179D0708F4EC01D60195
:10492000ED91FC911197EC0FFD1FB08010824D911D
:104930005C91BA01600F711FC701C6DED601ED910F
:10494000FC91EC0FFD1FB082C701DF91CF911F9149
:104950000F91FF90EF90DF90CF90BF9008951F933D
:10496000CF93DF93EC0180E2689FF00111249F0157
:104970002F5D344FD9011B969C91917129F0842FA2
:10498000827411F080E058C0142F6A8B809112025B
:1049900090911302A0911402B09115028E879F8707
:1049A000A88BB98BEF5DF44F4489558960E070E0C6
:1049B000BA01552744274F8B588F698F7A8F828D84
:1049C000938DA0E0B0E0482B592B6A2B7B2B4F8BAB
:1049D000588F698F7A8FD9011B968C91887151F409
:1049E000848D958DA68DB78D8B8B9C8BAD8BBE8B5F
:1049F00081E00DC0803131F69E012D5E3F4F8B8DE1
:104A00009C8D0E94AD13882309F4BCCF84E08D8374
:104A1000812F8F708C831E821F82188619861A86BA
:104A20001B861C861D8616FF06C0CE01DF91CF9126
:104A30001F910C94BC1881E0DF91CF911F910895D4
:104A4000CF93DF93EC010E941514882311F01D828F
:104A500081E0DF91CF9108953F924F925F926F92E4
:104A60007F928F929F92AF92BF92CF92DF92EF92FE
:104A7000FF920F931F93CF93DF93CDB7DEB72C97A1
:104A80000FB6F894DEBF0FBECDBF5C01DC015B96B4
:104A90008D909C905C971696CD90DD90ED90FC905B
:104AA0001997C114D104E104F10439F0BFEFCB1A16
:104AB000DB0AEB0AFB0A312C07C0F401C080D1806D
:104AC000E280F38033243394F40181859285A385B9
:104AD000B4859C01AD012F5F3F4F4F4F5F4F29873A
:104AE0003A874B875C87260137011D821E821F8211
:104AF0001886F40181859285A385B4852D813E8138
:104B00004F815885281739074A075B0708F063C0AB
:104B100089859A85AB85BC858C159D05AE05BF053D
:104B200050F482E0C82ED12CE12CF12C92E0492ED9
:104B3000512C612C712C9E012F5F3F4FB701A601B4
:104B4000C4010E942A13882309F445C089819A81EF
:104B5000AB81BC81892B8A2B8B2B41F0260137013D
:104B60009FEF491A590A690A790A05C0C414D50485
:104B7000E604F70491F02D813E814F8158852F5F27
:104B80003F4F4F4F5F4F2D833E834F8358873FEFFB
:104B9000C31AD30AE30AF30AACCF0FEF1FEF2FEFCC
:104BA0003FE0B301A201C4010E948B12882399F057
:104BB000D50116964D915D916D917C911997411596
:104BC00051056105710549F093018201C4010E94FC
:104BD0008B12811102C080E02AC0D50116964D9239
:104BE0005D926D927C921997332051F0D301C201EE
:104BF0000196A11DB11DF40180839183A283B3832B
:104C0000F5018789908DA18DB28D892B8A2B8B2BF5
:104C100069F4D50157964D925D926D927C925A97A8
:104C200014968C911497806814968C9381E02C963E
:104C30000FB6F894DEBF0FBECDBFDF91CF911F91AD
:104C40000F91FF90EF90DF90CF90BF90AF909F902B
:104C50008F907F906F905F904F903F9008954F920C
:104C60005F926F927F929F92AF92BF92CF92DF92AC
:104C7000EF92FF920F931F93CF93DF93CDB7DEB7E1
:104C80002B970FB6F894DEBF0FBECDBF7C01DC01C1
:104C90001596AC90A11095C1FE0131966F0190E27E
:104CA0008BE08E0F91938E13FDCFDA0130E087E019
:104CB0009D91992339F19E3219F0EBE7F4E00AC097
:104CC0008A3009F47FC138E08AE0F2CF3196491783
:104CD00009F478C144914111F9CF831708F472C1E6
:104CE0004FED490F4E3508F06DC141E0430FF6011D
:104CF000E30FF11D3FE9390F3A3108F490529083E8
:104D0000342FD6CF8981803209F45CC1B22E8B0159
:104D1000DB015B968D919C915C97F701948F838F5B
:104D200016961D921D921D921C921997FB011286D8
:104D3000138614861586712CF80182859385A485C7
:104D4000B585438954896589768984179507A607AF
:104D5000B70708F061C025E0B695A79597958795A8
:104D60002A95D1F7F82FFF709F2ED80115968C91B8
:104D7000823008F427C1C8010E943C1D97FD22C162
:104D8000F80182859385A485B5854F96A11DB11D37
:104D900082879387A487B587F0E29F9EC001112484
:104DA000BC016F5D744F6115710509F40BC1DB0126
:104DB0002C91222319F0253EC1F427C071100EC09A
:104DC000F701928A409112025091130260911402ED
:104DD0007091150246875787608B718BFC01EF5DE0
:104DE000F44F8081811113C015C04BE050E0C60123
:104DF0000E94763E892B09F09FCF8B2D80738033E4
:104E000009F4E0C04B2D692DD8C07720C9F2772472
:104E1000739492CF772473948B2D8271823109F031
:104E2000D1C07720D1F0D7011E966D917D918D91E3
:104E30009C91519741E00E944312882309F4C2C01B
:104E4000F7010289F0E20F9F800111240F5D144FDA
:104E50000115110509F078C0B5C0D80115968C91DF
:104E6000823009F4AFC0C801F7DD882309F4AAC075
:104E7000D8015B96ED91FC915C9716964D905D90F4
:104E80006D907C901997B2E04B1A51086108710837
:104E9000058404C0440C551C661C771C0A94D2F788
:104EA00086859785A089B189480E591E6A1E7B1E8A
:104EB0009480E1E04E1A510861087108992009F1C7
:104EC0000E940812882309F47DC0E1E2FBE0119200
:104ED0002DE0E132F207D9F7D301C201890D911D0E
:104EE000A11DB11D8093120290931302A09314028E
:104EF000B09315028091CA0781608093CA079A9483
:104F0000DDCFD8015B96ED91FC915C9780E092E05B
:104F1000A0E0B0E0058404C0880F991FAA1FBB1F42
:104F20000A94D2F7F8014389548965897689840FF8
:104F3000951FA61FB71F838B948BA58BB68BD701AC
:104F400052961C9201E21BE080E2F80111928A95D0
:104F5000E9F78BE0F601D80101900D928A95E1F70F
:104F6000E0914807F0914907309739F0B801625F46
:104F70007F4FC801409619950DC081E298E2D80193
:104F800051969C938E93509780E098E01F969C9347
:104F90008E931E97F80180899189938B828B918FD4
:104FA000808F86859785978B868B0E940812882331
:104FB00049F04B2DD70152966C91C701D0DCA82E39
:104FC00001C0A12C8A2D2B960FB6F894DEBF0FBE20
:104FD000CDBFDF91CF911F910F91FF90EF90DF90A8
:104FE000CF90BF90AF909F907F906F905F904F90C9
:104FF00008958FB7F8948091240D8FBF089561E0D4
:10500000FC0184810E9486108091230D81111092F1
:10501000230D08958EBD00000DB407FEFDCF8EB5A3
:1050200008958FEFF7CF0F931F93CF93DF93EB018B
:105030000E9429118B01F5DF8F3F49F00E94291151
:10504000601B710B6C177D07B0F380E001C081E03D
:10505000DF91CF911F910F910895CF93DF93EC01D2
:105060008E81882379F08F8198859C012F5F3F4F37
:1050700038872F838230924010F4D3DFF4CFCE01F3
:10508000BEDF1E82DF91CF9108958CBD9DBD089536
:10509000CF93DF93EC018091230D811108C081E053
:1050A0008093230D80911C0A90911D0AEEDF60E031
:1050B0008C81DF91CF910C948610CF92DF92FF927A
:1050C0000F931F93CF93DF9300D01F92CDB7DEB71E
:1050D0006C01F62E29833A834B835C83BEDFC601C5
:1050E000D7DF6CE271E0C6019EDF8F2D806492DF16
:1050F00008E110E05C814B813A812981DA01C90124
:10510000002E04C0B695A795979587950A94D2F777
:1051100029833A834B835C837DDF08501109298101
:105120003A814B815C81083F8FEF180739F7FF20E8
:1051300029F0E8E0FE1204C087E803C085E901C059
:105140008FEF68DF10E06DDFF601828787FF04C014
:105150001F3F11F01F5FF7CF0F900F900F900F9030
:10516000DF91CF911F910F91FF90DF90CF90089525
:10517000AF92BF92CF92DF92EF92FF920F931F9365
:10518000CF93DF93EC016901C801820F931F813037
:10519000924008F06AC08E81882371F088819981DD
:1051A000AA81BB81481759076A077B0729F48F81B9
:1051B0009885C816D90698F5488359836A837B83F6
:1051C0008B85833039F089E0440F551F661F771FA8
:1051D0008A95D1F79A01AB0161E1CE016EDF882398
:1051E00019F083E08D8341C00E9429115B0119DF12
:1051F0008A878F3F49F40E9429116A197B096D3211
:105200007140A8F38FE003C08E3F29F08DE08D83BD
:10521000CE01F5DE2AC018861F8281E08E838F8141
:1052200098858C159D0538F4FCDE8F819885019654
:1052300098878F83F4CF6701E00EF11ECE14DF0450
:1052400029F0EFDEF60181936F01F8CF8F81988509
:10525000080F191F18870F838985882319F00115F6
:10526000124038F0CE01F9DE04C0CE01C8DE80E085
:1052700001C081E0DF91CF911F910F91FF90EF90DE
:10528000DF90CF90BF90AF900895EF92FF920F9371
:105290001F93CF93DF93EC0179014115510561050F
:1052A000710511F482E134C08B85833039F089E0D7
:1052B000440F551F661F771F8A95D1F79A01AB01DE
:1052C00068E1CE01FADE882311F084E021C08EEF80
:1052D000A1DE87018EEFF81AF80181918F019ADE25
:1052E0000E151F05C9F78FEF95DE8FEF93DE99DE60
:1052F0008A878F71853029F081E18D83CE017FDE31
:1053000008C068E572E0CE018EDE811106C085E13D
:105310008D83CE0174DE80E010C020E030E0A90172
:105320006DE0CE01CADE811103C07BDE882311F05F
:1053300084E1EECFCE0163DE81E0DF91CF911F915A
:105340000F91FF90EF900895DC015996ED91FC913B
:105350005A97309759F08581823040F01682178233
:105360001086118612861386148615860895CF92AC
:10537000DF92EF92FF920F931F93CF93DF936C0115
:105380007A018B01C0E0D0E0CE15DF0589F0D801AD
:105390006D918D01D601ED91FC910190F081E02D90
:1053A000C6011995892B11F47E0102C02196ECCF1C
:1053B000C701DF91CF911F910F91FF90EF90DF9088
:1053C000CF9008956115710579F0FB0101900020DF
:1053D000E9F73197AF01461B570BDC01ED91FC91CA
:1053E0000280F381E02D199480E090E008954F92BF
:1053F0005F926F927F92EF92FF920F931F93CF93E2
:10540000DF93CDB7DEB7A1970FB6F894DEBF0FBE1E
:10541000CDBF7C01FA01CB0119A2223008F42AE0A9
:105420008E010F5D1F4F422E512C612C712CBF013C
:10543000A30192010E945D44F901CA0101501109C2
:105440006A3014F4605D01C0695CD8016C93232B51
:10545000242B252B61F7B801C701B4DFA1960FB645
:10546000F894DEBF0FBECDBFDF91CF911F910F919A
:10547000FF90EF907F906F905F904F90089560E85D
:1054800072E0A0CF0F931F93CF93DF93EC019ADFCD
:105490008C01CE01F4DF800F911FDF91CF911F911E
:1054A0000F910895DC01ED91FC910190F081E02DC8
:1054B000199488CFDC01ED91FC91DB0114964D919C
:1054C0005C9115976D917C910280F381E02D199488
:1054D0000F931F93CF93DF93EC01ECDF8C01CE0190
:1054E000CEDF800F911FDF91CF911F910F91089513
:1054F000EF92FF920F931F93CF93DF938C017B0169
:10550000C0E0D0E0F701EC0FFD1F6491662361F06D
:10551000D801ED91FC910190F081E02DC801199521
:10552000892B11F02196EECFCE01DF91CF911F9103
:105530000F91FF90EF900895CF93DF93CDB7DEB733
:10554000C655D1090FB6F894DEBF0FBECDBF789413
:1055500084B5826084BD84B5816084BD85B5826078
:1055600085BD85B5816085BD80916E008160809329
:105570006E00109281008091810082608093810092
:1055800080918100816080938100809180008160A2
:10559000809380008091B10084608093B1008091FD
:1055A000B00081608093B000809191008260809310
:1055B0009100809191008160809391008091900092
:1055C0008160809390008091A10082608093A1000F
:1055D0008091A10081608093A1008091A0008160F2
:1055E0008093A000809121018260809321018091AD
:1055F000210181608093210180912001816080934D
:10560000200180917A00846080937A0080917A00F2
:10561000826080937A0080917A00816080937A0022
:1056200080917A00806880937A001092C100109275
:10563000990710929A0710929B0710929C0710925C
:105640006707109268071092690710926A0760ED69
:1056500077E080E090E00E94F1108FE799E090936E
:1056600098078093970740E855E260E070E00E9459
:1056700055180E9429110091670710916807209121
:10568000690730916A07DC01CB01801B910BA20BEB
:10569000B30BC297A105B10538F463E070E080E078
:1056A00090E00E94F110E5CF0E94291160936707F6
:1056B000709368078093690790936A0761E772E0C7
:1056C0008091970790919807F4DE6AE070E080E09F
:1056D00090E00E94F11081E080936B0762E872E035
:1056E000CE014C96E4D861E089E00E94B51060E0FC
:1056F00089E00E94861061E08AE00E94B51060E0B7
:105700008AE00E94861060E08BE00E94B51088E07D
:105710000E945E1021E0892B09F420E02093C70746
:1057200040E855E260E070E08FE799E00E9455188C
:1057300040E05BE460E070E082EE98E00E94551883
:1057400040E05BE460E070E085E498E00E9455187A
:105750008FE799E094DE63E872E0CE014C960E94F8
:105760006423BE01645E7F4F8FE799E0B1DE60E0A5
:105770008091910A0E94B51061E08091910A0E9487
:1057800086101092940A1092950A1092960A10921E
:10579000970A61E085E30E94B51087EF92E090934D
:1057A0004907809348071092290A1092270A1092FD
:1057B000240A1092230A85E38093220A0E94291169
:1057C0008B0161E08091220A0E94B51061E0809116
:1057D000220A0E948610FFB6F89480916507811115
:1057E00027C0E1E3F2E08491EBEEF1E09491E82F41
:1057F000F0E0EE0FFF1FE456FE4FA591B491EC913F
:10580000E92321F461E085E30E94861061E085E3ED
:105810000E94B5108CB580618CBD8CB580648CBD48
:1058200061E084E30E94B51061E083E30E94B5105B
:10583000809165078F5F80936507FFBE82E5809347
:105840001C0A10921D0A80911C0A90911D0A1DDCF1
:105850007AE0F72E8FEFDEDBFA94F110FBCF8EE1CA
:105860009AE016DC20E030E0A90160E08EE19AE0E9
:1058700024DCF82E8093280A81E0F81649F00E9473
:105880002911601B710B613D774060F381E051C0CD
:105890002AEA31E040E050E068E08EE19AE00DDC79
:1058A00082FF03C0F092290A0FC064E0F62EB9DB34
:1058B0008093280AFA94F110FACF8A3A11F082E024
:1058C00038C082E08093290A8091290A823021F031
:1058D000C12CD12C760105C0C12CD12CE12C50E477
:1058E000F52E20E030E0A90167E38EE19AE0E5DBE8
:1058F000A701960169E28EE19AE0DFDB8093280A36
:10590000882349F00E942911601B710B613D77408B
:1059100040F388E00EC08091290A8230D1F420E063
:1059200030E0A9016AE38EE19AE0C7DB882339F011
:1059300086E08093230A8EE19AE061DB8BC071DB05
:10594000807C803C19F483E08093290A6ADB69DB60
:1059500068DB8EE19AE053DB80E580931C0A1092AD
:105960001D0A81E00E944920882329F080914D0A78
:10597000882341F06FC080E00E944920882309F409
:1059800069C0F4CF8091410A803109F582E08093AB
:105990004D0A10925F0A1092600A1092610A1092EA
:1059A000620A8091420A9091430AA0E0B0E045E08B
:1059B000880F991FAA1FBB1F4A95D1F780935B0AD6
:1059C00090935C0AA0935D0AB0935E0A1EC0803279
:1059D00009F040C083E080934D0A4091440A509101
:1059E000450A6091460A7091470A40935F0A5093B6
:1059F000600A6093610A7093620A2BE53AE08AE2DA
:105A00009AE00E94AD13882329F18AE29AE09093EC
:105A1000640A8093630A81E080934C0A10924E0AD4
:105A200010924F0A1092500A1092510A1092520A84
:105A30001092530A1092540A1092550A1092560A64
:105A40001092570A1092580A1092590A10925A0A44
:105A50008093470710E00AE0812F602F0E94353BBA
:105A6000805D80930702905D9093080263E57CE17E
:105A700081E092E00E945B1A811135C043E161E050
:105A800072E0CE0101960E9444198B819C81909313
:105A9000A40A8093A30A8D819E81AF81B8858093EB
:105AA000A50A9093A60AA093A70AB093A80A89858D
:105AB0009A85AB85BC858093A90A9093AA0AA09386
:105AC000AB0AB093AC0A8DE0FE013D96ADEABAE0B8
:105AD00001900D928A95E1F78A8D9B8D9093BB0A78
