:100000000C9437030C9468030C9468030C946803F5
:100010000C9468030C9468030C9468030C946803B4
:100020000C9468030C9468030C9468030C946803A4
:100030000C9468030C9468030C9468030C94680394
:100040000C9468030C9468030C9468030C94680384
:100050000C9468030C9468030C9468030C94033CA0
:100060000C9468030C94963F0C94CC3F0C9468035A
:100070000C9468030C9468030C9468030C94680354
:100080000C9468030C9468030C9468030C94680344
:100090000C9443400C9479400C9468030C94D23A2D
:1000A0000C9468030C9468030C9468030C94680324
:1000B0000C9468030C9468030C9468030C94680314
:1000C0000C9468030C9468030C9468030C94680304
:1000D0000C9468030C9468030C94F0400C94264133
:1000E0000C946803B218B918C318E0182719391905
:1000F000491969194F3D523D413D453D4B3D893DB3
:10010000563D5A3D603D643D683D6E3D723D763DD5
:10011000893D7C3D803D843D07634236B79BD8A72F
:100120001A39685618AEBAAB558C1D3CB7CC57631C
:10013000BD6DEDFD753EF6177231BF000000803FCA
:1001400008000000BE922449123EABAAAA2ABECDE6
:10015000CCCC4C3E00000080BEABAAAAAA3E000058
:100160000000BF000000803F000000000008417850
:10017000D3BB4387D1133D190E3CC3BD4282AD2B87
:100180003E68EC8276BED98FE1A93E4C80EFFFBE7F
:1001900001C4FF7F3F00000000000C94803D0C94E0
:1001A0005A3D0C94843D0C94B2180C946E1E0C9421
:1001B000F8220C94EC380C94AD3E0C94E0180C949E
:1001C0006A030C94683D0C94B9180C94DC380C94B8
:1001D000413D0C949F1E0C94241D0C94BE1E0C9447
:1001E00000400C94763D0C944F3D0C944B3D0C9488
:1001F000CF3E0C94E91F0C945A410C942D3E0C9464
:10020000EB380C944F3E0C9439190C946E3D0C94C1
:100210006E1F0C947C3D0C94603D0C94F52D0C9459
:10022000723D0C94643D0C943B3E0C94E8390C9464
:10023000893D0C94563D0C9419390C94C31C0C94B4
:10024000C9380C94C1380C9449190C94BC1F0C94F7
:100250003E260C94453D0C94C81E0C94A3400C946F
:1002600050410C94F63F0C94841E0C94523D0C9417
:10027000C3180C94AD400C94AD410C9427190C9408
:10028000223E0C946919302C302C416C6C65207323
:10029000656E736F72656E207374756B3A20676557
:1002A000656E20534D5320676573747575726400D5
:1002B000302C302C416C6C652053656E736F726509
:1002C0006E207374756B3A20534D532067657374B9
:1002D0007575726400302C302C546573746D6573C1
:1002E0007361676520534D5320676573747575722C
:1002F0006400302C302C506F6D7032207569743A68
:10030000206765656E20534D53206765737475755E
:10031000726400302C302C506F6D7032207569740F
:100320003A20534D532067657374757572640030BD
:100330002C302C506F6D7031207569743A206765D0
:10034000656E20534D532067657374757572640034
:10035000302C302C506F6D7031207569743A2053F9
:100360004D5320676573747575726400302C302CA2
:100370004C4C20534D53206765737475757264003F
:100380003037636F756C646E742063726561746579
:100390002066696C652300303643617264206661B3
:1003A000696C65642C206F72206E6F7420707265AA
:1003B00073656E74230030366361726420696E6900
:1003C0007469616C697A6564230030354661696CD3
:1003D000656420746F20726561642066726F6D20A1
:1003E0004448542073656E736F7221230030344685
:1003F00061696C656420746F207265616420667247
:100400006F6D204448542073656E736F7221230012
:10041000302C302C42657374616E642061616E67AC
:10042000656D61616B74007C3C3E5E2B3D3F2F5BD4
:100430005D3B2C2A225C001F1C1F1E1F1E1F1F1E3F
:100440001F1E1F00000A0B02090C0D0E08070304F3
:10045000010000000000000000000000000000009B
:10046000000000000000000000000000000000127A
:10047000111000000000000000000000000000005B
:100480000000000000000000000102102020080809
:1004900010204010204080020102010804020101E6
:1004A00002040810204080804020100804020180CF
:1004B0000402018040201008040201080402010126
:1004C000020408102040800102040810204080052A
:1004D000050505070508080808020202020A0A08BD
:1004E00008040404040101010101010101030303E3
:1004F0000303030303040707070C0C0C0C0C0C0C80
:100500000C0202020206060606060606060B0B0B86
:100510000B0B0B0B0B000020002300260029002CE6
:10052000002F003200000100000301060109010054
:10053000002200250028002B002E0031003400028C
:10054000010000050108010B010000210024002723
:10055000002A002D003000330001010000040107D3
:10056000010A0100407A10F35A00A0724E180900E7
:1005700010A5D4E80000E87648170000E40B540208
:100580000000CA9A3B000000E1F505000080969843
:1005900000000040420F000000A086010000001093
:1005A0002700000000E803000000006400000000D5
:1005B000000A00000000000100000000002C76D8B6
:1005C00088DC674F0823DFC1DFAE59E1B1B796E59C
:1005D000E3E453C63AE651997696E8E6C28426EB00
:1005E000898C9B62ED407C6FFCEFBC9C9F40F2BA13
:1005F000A56FA5F490055A2AF75C936B6CF9676DAB
:10060000C11BFCE0E40D47FEF520E6B500D0ED90FF
:100610002E0300943577050080841E080000204ECC
:100620000A000000C80C333333330F986E12831165
:1006300041EF8D2114893BE65516CFFEE6DB18D13C
:10064000844B381BF77C1D901DA4BBE4242032840E
:10065000725E228100C9F124ECA1E53D2700C31C94
:10066000F8223E26E8390040AD405A41241D1124AD
:100670001FBECFEFD1E2DEBFCDBF00E00CBF15E063
:10068000A0E0B2E0EAEEFFE900E00BBF02C0079095
:100690000D92A83DB107D9F72BE0A8EDB5E001C058
:1006A0001D92A83DB207E1F716E0CCE6D6E000E0E7
:1006B00006C022970109FE010BBF0E94344ACE35C5
:1006C000D10780E00807A9F70E949E410C94E34FF0
:1006D0000C940000EF92FF920F931F93CF93DF9340
:1006E00000D000D0CDB7DEB77C018B01CE010196E2
:1006F0000E949C342A8180E2289F900111248B81E2
:10070000282B498150E04C5E5F4F542F4427550FF2
:10071000242B352BF701318320838D81F0E28F9FCD
:10072000C00111242C8130E0322F2227330F330FE8
:10073000330F822B932B2E8130E035952795822B1A
:10074000932BF8019183808326960FB6F894DEBF31
:100750000FBECDBFDF91CF911F910F91FF90EF9012
:10076000089583FF02C098E201C098E08770892B4A
:1007700028E130E00FB6F894A895209360000FBEF2
:1007800080936000FFCFCF92DF92EF92FF920F93A2
:100790001F93CF93DF93CDB7DEB72C970FB6F894A6
:1007A000DEBF0FBECDBF8C017B016A016AEC75E034
:1007B0000E94B943CE14DF0444F1C7010E94674D83
:1007C000682F70E0605371094AE0CE0107960E94DD
:1007D0008F44B801CE0101960E941C44BE01695F9E
:1007E0007F4FCE0101960E944045BC01C8010E9486
:1007F0000544CE0101960E944B43CE0107960E940C
:100800004B438FEFE81AF80AD5CFC8012C960FB6E4
:10081000F894DEBF0FBECDBFDF91CF911F910F9136
:10082000FF90EF90DF90CF9008951F93CF93DF93C9
:10083000CDB7DEB768970FB6F894DEBF0FBECDBF59
:10084000182F6AEC75E0CE0143960E94B94310332D
:1008500019F463E272E002C067E272E0CE014396EF
:100860000E943144BE016D5E7F4FCE0107960E940B
:100870001C446AE272E0CE0101960E94B943BE01B7
:10088000695F7F4FCE0101960E94404567E974E0A1
:100890000E945345BC01CE010D960E941C44CE011E
:1008A00001960E944B43CE0107960E944B43BE0126
:1008B000635F7F4F87E39BE00E940E4260910A02D4
:1008C00080E090E00E946F4DCE010D960E944B4358
:1008D000CE0143960E944B4368960FB6F894DEBF54
:1008E0000FBECDBFDF91CF911F910895CF93DF93BE
:1008F000CDB7DEB72C970FB6F894DEBF0FBECDBFD5
:100900006AEC75E0CE0107960E94B9436DE272E091
:10091000CE0101960E94B94362E576E0CE010196D0
:100920000E94404567E974E00E945345BC01CE0136
:1009300007960E940544CE0101960E944B436091A8
:100940006A0670916B0680916C0690916D069B0112
:10095000AC010E94A148882339F06DEE73E087E373
:100960009BE00E94EB4107C0BE01695F7F4F87E3B8
:100970009BE00E940E4264E170E080E090E00E9403
:100980007C3C60E372E0CE0101960E94B9436CE4C6
:1009900076E0CE0101960E94404567E974E00E942E
:1009A0005345BC01CE0107960E940544CE01019635
:1009B0000E944B43609166067091670680916806BD
:1009C000909169069B01AC010E94A148882339F0EF
:1009D0006AEC73E087E39BE00E94EB4107C0BE0135
:1009E000695F7F4F87E39BE00E940E4264E170E005
:1009F00080E090E00E947C3CCE0107960E944B4331
:100A00002C960FB6F894DEBF0FBECDBFDF91CF910D
:100A10000895CF93DF93CDB7DEB72C970FB6F89438
:100A2000DEBF0FBECDBF6AEC75E0CE0107960E9417
:100A3000B94363E372E0CE0101960E94B9436EE3CD
:100A400076E0CE0101960E94404567E974E00E947D
:100A50005345BC01CE0107960E940544CE01019684
:100A60000E944B43BE01695F7F4F87E39BE00E947A
:100A70000E4264E170E080E090E00E947C3CCE0198
:100A800007960E944B432C960FB6F894DEBF0FBE1C
:100A9000CDBFDF91CF910895CF93DF93CDB7DEB770
:100AA00062970FB6F894DEBF0FBECDBF6AEC75E05B
:100AB000CE010D960E94B9436091090670910A0615
:100AC0004AE0CE0107960E948F4466E372E0CE01B1
:100AD00001960E94B943BE01695F7F4FCE01019626
:100AE0000E94404567E974E00E945345BC01CE0175
:100AF0000D960E940544CE0101960E944B43CE0103
:100B000007960E944B43BE01635F7F4F87E39BE0E4
:100B10000E940E4264E170E080E090E00E947C3C24
:100B200060910706709108064AE0CE0107960E9480
:100B30008F4469E372E0CE0101960E94B943BE0181
:100B4000695F7F4FCE0101960E94404567E974E0DE
:100B50000E945345BC01CE010D960E940544CE0172
:100B600001960E944B43CE0107960E944B43BE0163
:100B7000635F7F4F87E39BE00E940E4264E170E079
:100B800080E090E00E947C3C609105067091060632
:100B90004AE0CE0107960E948F446CE372E0CE01DA
:100BA00001960E94B943BE01695F7F4FCE01019655
:100BB0000E94404567E974E00E945345BC01CE01A4
:100BC0000D960E940544CE0101960E944B43CE0132
:100BD00007960E944B43BE01635F7F4F87E39BE014
:100BE0000E940E4264E170E080E090E00E947C3C54
:100BF000CE010D960E944B4362960FB6F894DEBF6D
:100C00000FBECDBFDF91CF910895CF93DF93CDB7C6
:100C1000DEB762970FB6F894DEBF0FBECDBF6AECA9
:100C200075E0CE010D960E94B94360910306709164
:100C300004064AE0CE0107960E948F446FE372E0FB
:100C4000CE0101960E94B943BE01695F7F4FCE017C
:100C500001960E94404567E974E00E945345BC013B
:100C6000CE010D960E940544CE0101960E944B4391
:100C7000CE0107960E944B43BE01635F7F4F87E31F
:100C80009BE00E940E4264E170E080E090E00E94F0
:100C90007C3C60910106709102064AE0CE01079605
:100CA0000E948F4462E472E0CE0101960E94B94333
:100CB000BE01695F7F4FCE0101960E94404567E902
:100CC00074E00E945345BC01CE010D960E9405447C
:100CD000CE0101960E944B43CE0107960E944B43E2
:100CE000BE01635F7F4F87E39BE00E940E4264E199
:100CF00070E080E090E00E947C3C6091FF05709184
:100D000000064AE0CE0107960E948F4465E472E037
:100D1000CE0101960E94B943BE01695F7F4FCE01AB
:100D200001960E94404567E974E00E945345BC016A
:100D3000CE010D960E940544CE0101960E944B43C0
:100D4000CE0107960E944B43BE01635F7F4F87E34E
:100D50009BE00E940E4264E170E080E090E00E941F
:100D60007C3CCE010D960E944B4362960FB6F894E0
:100D7000DEBF0FBECDBFDF91CF910895CF92DF923E
:100D8000EF92FF920F931F93CF93DF938C017B0120
:100D90006A01EC01EC16FD0664F0BE01601B710BEC
:100DA000C6010E949D45682FCE010E946F4D21967D
:100DB000F1CFDF91CF911F910F91FF90EF90DF90D6
:100DC000CF9008959F92AF92BF92CF92DF92EF9211
:100DD000FF920F931F93CF93DF93CDB7DEB7E697C4
:100DE0000FB6F894DEBF0FBECDBF8C017B0168E467
:100DF00072E087E39BE00E941C4264E9C62E65E036
:100E0000D62E7DE0972E57018FEFA81AB80A41E041
:100E1000B801CE014C960E947A22CE014C960E94D7
:100E2000AF1F882311F020E021C06BE472E08DEF4A
:100E300099E00E944D4267E974E087E39BE00E94DD
:100E40001C42C8010E94E422E6960FB6F894DEBF69
:100E50000FBECDBFDF91CF911F910F91FF90EF900B
:100E6000DF90CF90BF90AF909F900895822F90E039
:100E70008E159F0514F42F5FF9CFCE014C960E947A
:100E80003F1FBC0187E39BE00E941C42CE014C96B1
:100E90000E94411F882349F18E8D9F8D9C838B83F7
:100EA00088A199A1AAA1BBA18D839E83AF83B88796
:100EB0008CA19DA1AEA1BFA189879A87AB87BC8772
:100EC000DA82C982FE01B896DE011D96892D019055
:100ED0000D928A95E1F78DA99EA99B8F8A8FB50106
:100EE000CE0101960E94E20618C06DE273E087E32E
:100EF0009BE00E941C42CE014C960E945E1FAB01FB
:100F0000BC012AE030E087E39BE00E942C436AE5C5
:100F100072E087E39BE00E941C42CE014C960E9447
:100F20009D1F75CFCF93DF93CDB7DEB7E6970FB692
:100F3000F894DEBF0FBECDBFCE014C960E942C1F91
:100F400021E04CE552E06BED76E0CE0101960E9487
:100F5000D6218B819C819F8F8E8F8D819E81AF81C9
:100F6000B88588A399A3AAA3BBA389859A85AB85D5
:100F7000BC858CA39DA3AEA3BFA38DE0FE013D96CF
:100F8000DE01989601900D928A95E1F78A8D9B8DEE
:100F90009EAB8DABCE014C960E94E4228E8D9F8D30
:100FA0009C838B8388A199A1AAA1BBA18D839E83D9
:100FB000AF83B8878CA19DA1AEA1BFA189879A8775
:100FC000AB87BC8784E995E09A8389838DE0FE0135
:100FD000B896DE011D9601900D928A95E1F78DA9D4
:100FE0009EA99B8F8A8F60E070E0CE0101960E94DF
:100FF000E206E6960FB6F894DEBF0FBECDBFDF91D6
:10100000CF910895AF92BF92CF92DF92EF92FF926D
:101010000F931F93CF93DF93CDB7DEB76B970FB6C8
:10102000F894DEBF0FBECDBF6C01ADB6BEB6FC01FD
:10103000048115810F5F1F4F6EE572E08DEF99E01F
:101040000E941C42B6018DEF99E00E943B428DB791
:101050009EB7801B910B0FB6F8949EBF0FBE8DBF3D
:10106000EDB7FEB731967F0120E030E0A801BF0167
:10107000C6010E949F4521E0A7016BED76E0CE01FD
:1010800001960E94D621CE0101960E94AF1F8823AF
:10109000E1F1CE0101960E946E1F892BF9F068E6FE
:1010A00072E087E39BE00E941C42CE0101960E9401
:1010B000BE1E8A3061F0E091370BF091380B019041
:1010C000F081E02D682F87E39BE01995EECF67E96B
:1010D00074E087E39BE00E941C42DBCFCE010196C7
:1010E0000E949D1F68E672E087E39BE00E941C421D
:1010F0006BE672E087E39BE00E941C4267E974E0C4
:1011000087E39BE00E941C4219C061E772E08DEF0B
:1011100099E00E941C426701C6018E199F09801741
:10112000910744F4F60161916F018DEF99E00E94FF
:101130001E42F2CF8DEF99E00E9425420FB6F8943F
:10114000BEBE0FBEADBE6B960FB6F894DEBF0FBE2F
:10115000CDBFDF91CF911F910F91FF90EF90DF9066
:10116000CF90BF90AF9008950F931F93CF93DF93CD
:10117000CDB7DEB76E970FB6F894DEBF0FBECDBF0A
:10118000CE0101960E949C3486E0FE013196A9E8CA
:10119000B6E001900D928A95E1F709E816E04AE081
:1011A000F8016581CE0101960E9462444AE0F8018F
:1011B0006481CE0107960E9462444AE0F80163818F
:1011C000CE0143960E94624460E872E0CE010D9623
:1011D0000E94B943BE016D5E7F4FCE010D960E9405
:1011E000404563E872E00E945345BE01695F7F4F4E
:1011F0000E94404563E872E00E945345BE016F5F64
:101200007F4F0E94404567E974E00E945345BC014E
:10121000CE0149960E941C44CE010D960E944B437C
:10122000CE0143960E944B43CE0107960E944B434A
:10123000CE0101960E944B43BE01675E7F4F87E35C
:101240009BE00E940E4264E170E080E090E00E942A
:101250007C3CCE0149960E944B436E960FB6F894A3
:10126000DEBF0FBECDBFDF91CF911F910F910895CB
:10127000CF93DF93CDB7DEB762970FB6F894DEBF9A
:101280000FBECDBF6AEC75E0CE010D960E94B9434A
:101290008091F305882319F065E872E010C0209171
:1012A000090630910A068091EE059091EF05281706
:1012B00039071CF462E972E002C068E972E0CE010D
:1012C0000D960E943144BE01635F7F4FCE010796A9
:1012D0000E941C446CE972E0CE0101960E94B94361
:1012E000BE01695F7F4FCE0101960E94404567E9CC
:1012F00074E00E945345BC01CE010D960E94054446
:10130000CE0101960E944B43CE0107960E944B43AB
:10131000BE01635F7F4F87E39BE00E940E4264E162
:1013200070E080E090E00E947C3C8091F205882390
:1013300019F065E872E010C02091070630910806A8
:101340008091EC059091ED05281739071CF462E9AE
:1013500072E002C068E972E0CE010D960E9431444D
:10136000BE01635F7F4FCE0107960E941C446FE968
:1013700072E0CE0101960E94B943BE01695F7F4FC2
:10138000CE0101960E94404567E974E00E945345F2
:10139000BC01CE010D960E940544CE0101960E942B
:1013A0004B43CE0107960E944B43BE01635F7F4FC4
:1013B00087E39BE00E940E4264E170E080E090E0F1
:1013C0000E947C3C8091F105882319F065E872E069
:1013D00010C020910506309106068091EA05909193
:1013E000EB05281739071CF462E972E002C068E9CE
:1013F00072E0CE010D960E943144BE01635F7F4FC3
:10140000CE0107960E941C4462EA72E0CE0101966A
:101410000E94B943BE01695F7F4FCE0101960E94D1
:10142000404567E974E00E945345BC01CE010D962A
:101430000E940544CE0101960E944B43CE010796BF
:101440000E944B43BE01635F7F4F87E39BE00E9496
:101450000E4264E170E080E090E00E947C3CCE01AE
:101460000D960E944B4362960FB6F894DEBF0FBEF6
:10147000CDBFDF91CF9108950F931F93CF93DF934B
:10148000CDB7DEB76E970FB6F894DEBF0FBECDBFF7
:10149000CE0101960E949C3486E0FE013196A9E8B7
:1014A000B6E001900D928A95E1F709E816E0F8019F
:1014B000608170E06053784F4AE0CE0101960E944F
:1014C000BB444AE0F8016181CE0107960E94624464
:1014D0004AE0F8016281CE0143960E94624465EAC7
:1014E00072E0CE010D960E94B943BE016D5E7F4F42
:1014F000CE010D960E94404563E872E00E9453457C
:10150000BE01695F7F4F0E94404563E872E00E9420
:101510005345BE016F5F7F4F0E94404567E974E00D
:101520000E945345BC01CE0149960E941C44CE0145
:101530000D960E944B43CE0143960E944B43CE0131
:1015400007960E944B43CE0101960E944B43BE0179
:10155000675E7F4F87E39BE00E940E4264E170E08C
:1015600080E090E00E947C3CCE0149960E944B4373
:101570006E960FB6F894DEBF0FBECDBFDF91CF9150
:101580001F910F910895CF92DF92EF92FF920F93E8
:101590001F93CF93DF93CDB7DEB78C01CDB6DEB608
:1015A000FC01448155814F5F5F4F8DB79EB7841B0F
:1015B000950B0FB6F8949EBF0FBE8DBFEDB7FEB76B
:1015C00031967F0120E030E0BF01C8010E949F45B5
:1015D00061E172E0C8010E946D458823F9F068EA74
:1015E00072E08DEF99E00E941C42B8018DEF99E006
:1015F0000E940E426FEA72E08DEF99E00E944D4228
:101600006FEB72E087E39BE00E941C42B80187E326
:101610009BE00E940E4262EC72E049C0B7018BED84
:1016200096E00E946422882321F1B7018BED96E0B9
:101630000E946F2268EA72E08DEF99E00E941C42DE
:10164000B8018DEF99E00E940E4263ED72E08DEFDC
:1016500099E00E944D426FEB72E087E39BE00E94AD
:101660001C42B80187E39BE00E940E426DED72E0E0
:101670001EC068EA72E08DEF99E00E941C42B8013A
:101680008DEF99E00E940E4267EE72E08DEF99E0D7
:101690000E944D426FEB72E087E39BE00E941C4288
:1016A000B80187E39BE00E940E4266EF72E087E399
:1016B0009BE00E941C420FB6F894DEBE0FBECDBE6A
:1016C000DF91CF911F910F91FF90EF90DF90CF901E
:1016D00008958091D805882319F066E073E002C070
:1016E0006BE073E087E39BE00E941C4264E170E0E2
:1016F00080E090E00C947C3CCF93DF93CDB7DEB7D5
:101700002C970FB6F894DEBF0FBECDBF61E172E03B
:10171000CE0107960E94B94380919006882319F064
:1017200066EB73E002C067E973E087E39BE00E9429
:10173000EB4164E170E080E090E00E947C3C8091AD
:101740008F06882311F160E173E0CE0101960E94BB
:10175000B943BE01695F7F4FCE0101960E944045AB
:1017600067E974E00E945345BC01CE0107960E94D0
:101770000544CE0101960E944B43BE01695F7F4F35
:1017800087E39BE00E940E4206C060E873E087E3B7
:101790009BE00E94EB4164E170E080E090E00E94F9
:1017A0007C3CCE0107960E944B432C960FB6F894D2
:1017B000DEBF0FBECDBFDF91CF910895EF92FF92B4
:1017C0000F931F93CF93DF93CDB7DEB72C970FB650
:1017D000F894DEBF0FBECDBF7C0163E173E0CE01A4
:1017E00001960E94B943B701CE0101960E9440457F
:1017F00067E974E00E945345BC01CE0107960E9440
:101800001C44CE0101960E944B43BE01695F7F4F8D
:1018100087E39BE00E940E4264E170E080E090E08C
:101820000E947C3C01E010E0B80161507109C701E1
:101830000E949D45682FC8010E946F4D0F5F1F4F8A
:101840000B30110589F7CE0107960E944B432C9669
:101850000FB6F894DEBF0FBECDBFDF91CF911F91C1
:101860000F91FF90EF900895CF93DF93CDB7DEB740
:1018700062970FB6F894DEBF0FBECDBF6AEC75E07D
:10188000CE010D960E94B94360910F027091100233
:10189000685071094AE0CE0107960E948F4466E1C4
:1018A00073E0CE0101960E94B943BE01695F7F4F8C
:1018B000CE0101960E94404567E974E00E945345BD
:1018C000BC01CE010D960E940544CE0101960E94F6
:1018D0004B43CE0107960E944B43BE01635F7F4F8F
:1018E00087E39BE00E940E4264E170E080E090E0BC
:1018F0000E947C3CCE010D960E944B4362960FB62F
:10190000F894DEBF0FBECDBFDF91CF910895CF9386
:10191000DF93CDB7DEB762970FB6F894DEBF0FBE88
:10192000CDBF8091770690917806049711F40E94BC
:10193000340C6AEC75E0CE010D960E94B9436091BB
:101940007706709178064AE0CE0107960E948F4490
:1019500069E173E0CE0101960E94B943BE01695F5F
:101960007F4FCE0101960E94404567E974E00E94D6
:101970005345BC01CE010D960E940544CE0101964F
:101980000E944B43CE0107960E944B43BE01635F0A
:101990007F4F87E39BE00E940E4264E170E080E0AD
:1019A00090E00E947C3CCE010D960E944B436296D3
:1019B0000FB6F894DEBF0FBECDBFDF91CF91089573
:1019C0002091770630917806809175069091760681
:1019D0002817390751F00E94870C80917706909163
:1019E000780690937606809375060E9476040E948E
:1019F00009050E944C050E9405060E94380988E0EE
:101A00000E94F93D21E0892B09F420E02093D805BC
:101A100080917406281731F00E94690B8091D805D7
:101A2000809374060C94B408CF93DF93CDB7DEB7E0
:101A3000E6970FB6F894DEBF0FBECDBF8091720659
:101A40009091730668EE73E00E94DE494AE0CE0191
:101A500001960E948F4460910C0270910D024AE041
:101A6000CE0107960E948F446091E0057091E105D8
:101A70004AE0CE010D960E948F446091E605709178
:101A8000E7058091E8059091E90528EE33E040E014
:101A900050E00E94F249BA01A9012AE0CE01439622
:101AA0000E94E7446091EA057091EB054AE0CE019F
:101AB00049960E948F446091EC057091ED054AE0D3
:101AC000CE014F960E948F446091EE057091EF0514
:101AD0004AE0CE018B960E948F446CE173E0CE0108
:101AE00085960E94B943BE01655D7F4FCE01859604
:101AF0000E9440456FE173E00E945345BE01615E64
:101B00007F4F0E9440456FE173E00E945345BE0144
:101B1000675E7F4F0E9440456FE173E00E9453452E
:101B2000BE016D5E7F4F0E9440456FE173E00E94F1
:101B30005345BE01635F7F4F0E9440456FE173E0F4
:101B40000E945345BE01695F7F4F0E9440456FE18F
:101B500073E00E945345BE016F5F7F4F0E94404576
:101B600067E974E00E945345BC01CE01C1960E9412
:101B70001C44CE0185960E944B43CE018B960E9459
:101B80004B43CE014F960E944B43CE0149960E9493
:101B90004B43CE0143960E944B43CE010D960E94CB
:101BA0004B43CE0107960E944B43CE0101960E9403
:101BB0004B43BE016F5C7F4F87E39BE00E940E4268
:101BC00064E170E080E090E00E947C3CCE01C19630
:101BD0000E944B43E6960FB6F894DEBF0FBECDBF12
:101BE000DF91CF9108954F925F926F927F928F9283
:101BF0009F92AF92BF92CF92DF92EF92FF92CF93DC
:101C0000DF93CDB7DEB7E0970FB6F894DEBF0FBE17
:101C1000CDBF5C016FE173E0CE0101960E94B94334
:101C2000BE016F5F7F4FC5010E94E5457C01CE017B
:101C300001960E944B43970140E050E0B501CE0170
:101C40008B960E94E945CE018B960E942E4670939A
:101C5000EF056093EE05BE01655D7F4FCE010196F5
:101C60000E941C44AE014F5F5F4F6EE070E08BE05E
:101C700090E00E94BE06CE0101960E944B4361E2B5
:101C800073E08DEF99E00E941C426091EE05709127
:101C9000EF054AE050E08DEF99E00E9414438FEF8A
:101CA000E81AF80A6FE173E0CE0101960E94B94389
:101CB000A701BE016F5F7F4FC5010E94C9456C013E
:101CC000CE0101960E944B439601A701B501CE01BA
:101CD00085960E94E945CE0185960E942E46709316
:101CE000ED056093EC05BE016B5D7F4FCE01019663
:101CF0000E941C44AE014F5F5F4F62E170E08FE0D5
:101D000090E00E94BE06CE0101960E944B436FE216
:101D100073E08DEF99E00E941C426091EC05709198
:101D2000ED054AE050E08DEF99E00E9414438FEFFB
:101D3000C81AD80A6FE173E0CE0101960E94B94338
:101D4000A601BE016F5F7F4FC5010E94C9457C019E
:101D5000CE0101960E944B439701A601B501CE0129
:101D60004F960E94E945CE014F960E942E467093F1
:101D7000EB056093EA05BE01615E7F4FCE010196DF
:101D80000E941C44AE014F5F5F4F66E170E083E14B
:101D900090E00E94BE06CE0101960E944B436DE387
:101DA00073E08DEF99E00E941C426091EA0570910A
:101DB000EB054AE050E08DEF99E00E9414438FEF6D
:101DC000E81AF80A6FE173E0CE0101960E94B94368
:101DD000A701BE016F5F7F4FC5010E94C9453C014D
:101DE000CE0101960E944B439301A701B501CE019C
:101DF00049960E94E945CE0149960E942E466B0104
:101E00007C01BE01675E7F4FCE0101960E941C449B
:101E1000AE014F5F5F4F6AE170E087E190E00E94A2
:101E2000BE06CE0101960E944B436BE473E08DEF3A
:101E300099E00E941C424AE050E0B6018DEF99E023
:101E40000E9414438FEF681A780A6FE173E0CE01A5
:101E500001960E94B943A301BE016F5F7F4FC50188
:101E60000E94C9454C01CE0101960E944B4394014A
:101E7000A301B501CE0143960E94E945CE014396E8
:101E80000E942E467093E1056093E005BE016D5EF1
:101E90007F4FCE0101960E941C44AE014F5F5F4F01
:101EA0006EE170E08BE190E00E94BE06CE010196EB
:101EB0000E944B436AE573E08DEF99E00E941C425B
:101EC0006091E0057091E1054AE050E08DEF99E006
:101ED0000E94144334018FEF681A780A6FE173E0AF
:101EE000CE0101960E94B943A301BE016F5F7F4FEF
:101EF000C5010E94C9454C01CE0101960E944B4389
:101F00009401A301B501CE010D960E94E945CE01D1
:101F10000D960E942E462B013C01BE01635F7F4F50
:101F2000CE0101960E941C44AE014F5F5F4F62E2FA
:101F300070E08FE190E00E94BE06CE0101960E9403
:101F40004B436BE673E08DEF99E00E941C424AE040
:101F500050E0B2018DEF99E00E9414438FEF881A90
:101F6000980A6FE173E0CE0101960E94B943A40183
:101F7000BE016F5F7F4FC5010E94C9453C01CE0184
:101F800001960E944B439301A401B501CE0107962F
:101F90000E94E945CE0107960E942E464B015C0146
:101FA000BE01695F7F4FCE0101960E941C44AE01C5
:101FB0004F5F5F4F66E270E083E290E00E94BE06F2
:101FC000CE0101960E944B436AE773E08DEF99E0E2
:101FD0000E941C424AE050E0B4018DEF99E00E945B
:101FE000144328EE33E02C9DC0012D9D900D3C9DA7
:101FF000900D1124AA2797FDA095BA2F8093E6058E
:102000009093E705A093E805B093E905289DC001EA
:10201000299D900D389D900D112490937306809307
:1020200072060E94140DCE0107960E944B43CE010A
:102030000D960E944B43CE0143960E944B43CE0126
:1020400049960E944B43CE014F960E944B43CE01CE
:1020500085960E944B43CE018B960E944B43E0969F
:102060000FB6F894DEBF0FBECDBFDF91CF91FF90CA
:10207000EF90DF90CF90BF90AF909F908F907F9028
:102080006F905F904F900895CF93DF9300D000D072
:10209000CDB7DEB780910A020E9415046AED75E0A3
:1020A000CE0101960E941C44CE0101960E94DE0BD7
:1020B000CE0101960E944B430E94870C0E94340C73
:1020C0000E943C0A0E94690B0E94140D26960FB6CE
:1020D000F894DEBF0FBECDBFDF91CF910895CF92B0
:1020E000DF92EF92FF920F931F93CF93DF93CDB7C1
:1020F000DEB762970FB6F894DEBF0FBECDBF6B019F
:102100007C018A016CE873E08DEF99E00E941C422B
:102110002AE030E0B701A6018DEF99E00E942C4340
:102120004AE050E0B8018DEF99E00E941443C701E6
:10213000B60128EE33E040E050E00E94F249BA01D7
:10214000A9012AE0CE010D960E94E744C80168EE7D
:1021500073E00E94DE494AE0CE0107960E948F4458
:102160006DE973E0CE0101960E94B943BE01635F41
:102170007F4FCE0101960E9440456FE173E00E94BF
:102180005345BE01695F7F4F0E94404567E974E097
:102190000E945345BC0187E39BE00E940E42CE01A2
:1021A00001960E944B4364E170E080E090E00E9461
:1021B0007C3CCE0107960E944B43CE010D960E94B7
:1021C0004B4362960FB6F894DEBF0FBECDBFDF91D2
:1021D000CF911F910F91FF90EF90DF90CF900895D6
:1021E000CF92DF92EF92FF920F931F93CF93DF93E3
:1021F000CDB7DEB762970FB6F894DEBF0FBECDBF86
:102200006B017C018A016CE873E08DEF99E00E941C
:102210001C422AE030E0B701A6018DEF99E00E9450
:102220002C434AE050E0B8018DEF99E00E9414433E
:10223000C701B60128EE33E040E050E00E94F249C9
:10224000BA01A9012AE0CE010D960E94E744C80117
:1022500068EE73E00E94DE494AE0CE0107960E94D4
:102260008F4460EA73E0CE0101960E94B943BE013B
:10227000635F7F4FCE0101960E9440456FE173E09E
:102280000E945345BE01695F7F4F0E94404567E948
:1022900074E00E945345BC0187E39BE00E940E421C
:1022A000CE0101960E944B4364E170E080E090E033
:1022B0000E947C3CCE0107960E944B43CE010D96B6
:1022C0000E944B4362960FB6F894DEBF0FBECDBF9F
:1022D000DF91CF911F910F91FF90EF90DF90CF9002
:1022E0000895CF93DF93C9E8D6E0688170E060532A
:1022F000784F4AE050E081E996E00E9440436DE269
:1023000081E996E00E941E424AE050E0698181E93D
:1023100096E00E9439436DE281E996E00E941E42F8
:102320004AE050E06A8181E996E00E9439436DE21B
:1023300073E081E996E00E941C424AE050E06B8124
:1023400081E996E00E94394363E872E081E996E012
:102350000E941C424AE050E06C8181E996E00E94B4
:10236000394363E872E081E996E00E941C424AE04A
:1023700050E06D8181E996E0DF91CF910C94394373
:102380000F931F93CF93DF9300D000D0CDB7DEB76C
:102390008C0181E996E00E94AF1F811106C063EABB
:1023A00073E08DEF99E00E944D42CE0101960E94AC
:1023B0009C3486E0FE013196A9E8B6E001900D92CA
:1023C0008A95E1F7B80181E996E00E940E426AE53C
:1023D00072E081E996E00E941C420E9471116AE558
:1023E00072E081E996E00E941C4226960FB6F894AE
:1023F000DEBF0FBECDBFDF91CF911F910F9108952A
:102400000F931F93CF93DF93CDB7DEB76B970FB6C4
:10241000F894DEBF0FBECDBF61E089E00E948A3D27
:1024200060E089E00E94C33D61E08AE00E948A3D4D
:1024300060E08AE00E94C33D88E00E94F93D21E00F
:10244000892B09F420E02093740626E040E05BE449
:1024500060E070E08AE99AE00E94343F26E040E8BC
:1024600055E260E070E08DEF99E00E94343F26E095
:1024700040E855E260E070E087E39BE00E94343F73
:1024800089E796E00E94B8328DE296E00E942F35EF
:102490008CE196E00E942F358BE096E00E942F356C
:1024A00061E085E30E948A3D8AE693E090932807E5
:1024B0008093270765E38BED96E00E94BD2088237B
:1024C00019F081E08093900610E00AE0812F602FE0
:1024D0000E94BE49805D80931702905D9093180220
:1024E00061E172E08BED96E00E946422811137C0B9
:1024F00023E141E152E06BED76E0CE0101960E94CE
:10250000D6218B819C8190939406809393068D8134
:102510009E81AF81B8858093950690939606A0938F
:102520009706B093980689859A85AB85BC8580937C
:10253000990690939A06A0939B06B0939C068DE013
:10254000FE013D96ADE9B6E001900D928A95E1F766
:102550008A8D9B8D9093AB068093AA0604C01F5F63
:10256000143609F0B3CF81E996E00E94AF1F8823AB
:1025700019F081E080938F0684E399E00E94583936
:102580008CEA96E00E949634811106C060EC73E0FC
:1025900081E996E00E944D426BEC73E0CE0101961A
:1025A0000E94B943CE0101960E94C011CE0101964E
:1025B0000E944B4360E174E081E996E00E94294269
:1025C00081E996E00E949F1E87E896E00E942E36E1
:1025D00029E436E042E060914B0687E896E00E94ED
:1025E000763887E896E00E94433880E090E00E94C9
:1025F000674D80930A026AEC75E08AED95E00E94CF
:1026000031444AE050E061E070E0CE0101960E9462
:10261000C303BE016F5F7F4F8AED95E00E942544A2
:10262000CE0101960E944B434EE050E06BE070E01B
:10263000CE0101960E94C303CE0101960E942E4650
:102640007093EF056093EE05CE0101960E944B4317
:1026500042E150E06FE070E0CE0101960E94C303BA
:10266000CE0101960E942E467093ED056093EC0515
:10267000CE0101960E944B4346E150E063E170E0D9
:10268000CE0101960E94C303CE0101960E942E4600
:102690007093EB056093EA05CE0101960E944B43CF
:1026A0004AE150E067E170E0CE0101960E94C30369
:1026B000CE0101960E942E469B01AC01A8EEB3E02C
:1026C0000E94294A6093E6057093E7058093E80528
:1026D0009093E905CE0101960E944B434EE150E0F4
:1026E0006BE170E0CE0101960E94C303CE0101961A
:1026F0000E942E467093E1056093E005CE0101969D
:102700000E944B4342E250E06FE170E0CE0101963F
:102710000E94C303CE0101960E942E46CE0101966F
:102720000E944B4346E250E063E270E0CE01019626
:102730000E94C303CE0101960E942E4648EE53E04C
:10274000649F9001659F300D749F300D112430936C
:10275000730620937206CE0101960E944B430E949D
:1027600044104091720650917306BA01882777FD94
:102770008095982F0E946F106091E6057091E70593
:102780008091E8059091E905AB010E94F0106B96ED
:102790000FB6F894DEBF0FBECDBFDF91CF911F9172
:1027A0000F910895EF92FF920F931F93CF93DF93B2
:1027B000CDB7DEB760970FB6F894DEBF0FBECDBFC2
:1027C0006AEC75E0CE0107960E94B9436091490614
:1027D00070914A0680E090E00E947C3CAE01435F2D
:1027E0005F4FBE01615F7F4F87E896E00E94F3373D
:1027F000882309F485C00D851E852F853889409171
:10280000490650914A06E5E4EE2EE6E0FE2E609180
:102810004B0687E896E00E94373680934406609125
:10282000450670914606809147069091480608E556
:1028300016E021E045E00E94384AB8018EE396E0B8
:102840000E94314480914406882319F06EEC73E0B5
:1028500002C065ED73E0CE0107960E9431446EE33D
:1028600076E0CE0101960E941C446AE572E0CE013A
:1028700001960E945345BE01695F7F4F0E9440450B
:10288000BC01CE0107960E940544CE0101960E942C
:102890004B430E944D3C0091B1061091B20620912D
:1028A000B3063091B406601B710B820B930B60333F
:1028B00075478105910540F10E944D3C6093B1063A
:1028C0007093B2068093B3069093B40663E372E00C
:1028D000CE0101960E94B943CE0101960E94C0111B
:1028E000CE0101960E944B43BE01695F7F4F81E993
:1028F00096E00E943B4281E996E00E949F1E04C040
:1029000087E896E00E945D37CE0107960E944B4310
:1029100060960FB6F894DEBF0FBECDBFDF91CF91AA
:102920001F910F91FF90EF9008950F931F93CF93F6
:10293000DF93CDB7DEB72C970FB6F894DEBF0FBE8E
:10294000CDBF6AEC75E0CE0107960E94B94389E7D6
:1029500096E00E94EC3360936A0670936B06809356
:102960006C0690936D0608E516E021E045E00E94B4
:10297000384AB80182E596E00E94314460E089E778
:1029800096E00E94783360936606709367068093A2
:1029900068069093690621E045E00E94384AB80134
:1029A0008CE496E00E94314461E089E796E00E9461
:1029B0007833609362067093630680936406909305
:1029C00065066CE476E0CE0101960E941C446AE53F
:1029D00072E0CE0101960E94534562E576E00E94C6
:1029E0004045BC01CE0107960E940544CE010196E8
:1029F0000E944B430E944D3C0091B5061091B606D3
:102A00002091B7063091B806601B710B820B930BB7
:102A100060367A4E8105910518F10E944D3C609315
:102A2000B5067093B6068093B7069093B8066BED23
:102A300073E0CE0101960E94B943CE0101960E9437
:102A4000C011CE0101960E944B43BE01695F7F4FCA
:102A500081E996E00E943B4281E996E00E949F1E38
:102A6000CE0107960E944B432C960FB6F894DEBF1A
:102A70000FBECDBFDF91CF911F910F910895CF93DE
:102A8000DF93CDB7DEB72C970FB6F894DEBF0FBE3D
:102A9000CDBF6EED73E0CE0107960E94B943BE0133
:102AA000695F7F4F8DEF99E00E943B4260E074E0E8
:102AB000CE0101960E94B943BE01695F7F4FCE01EE
:102AC00001960E94404567E974E00E945345BC01AD
:102AD00087E39BE00E940E42CE0101960E944B4389
:102AE00061E087E00E94C33D68EE73E080E090E023
:102AF0000E947C3C60E087E00E94C33D68E873E18F
:102B000080E090E00E947C3C63E074E0CE01079698
:102B10000E943144BE01695F7F4F8DEF99E00E94B2
:102B20003B4260E074E0CE0101960E94B943BE01D1
:102B3000695F7F4FCE0101960E94404567E974E0CE
:102B40000E945345BC0187E39BE00E940E42CE01E8
:102B500001960E944B43CE0107960E944B432C9650
:102B60000FB6F894DEBF0FBECDBFDF91CF910895B1
:102B70000F931F93CF93DF93CDB7DEB76E970FB64A
:102B8000F894DEBF0FBECDBF8C016AEC75E0CE01BC
:102B900049960E94B94361E274E0CE0149960E94D1
:102BA0003144BE01675E7F4F8DEF99E00E943B424A
:102BB00060E074E0CE0101960E94B943BE01675EF9
:102BC0007F4FCE0101960E94404567E974E00E9464
:102BD0005345BC0187E39BE00E940E42CE01019663
:102BE0000E944B436EE274E0CE0143960E94B943CB
:102BF00060E374E0CE010D960E94B943BE01635FAD
:102C00007F4FCE0101960E941C44BE016D5E7F4F36
:102C1000CE0101960E9440456AED75E00E94404554
:102C2000BE016D5E7F4F0E944045BC01CE010796FC
:102C30000E941C44CE0101960E944B436DE374E058
:102C40008AE99AE00E941C4264E670E080E090E02D
:102C50000E947C3CBE01695F7F4F8AE99AE00E9436
:102C60003B4264E670E080E090E00E947C3C60E8DB
:102C700072E0C8010E946D45882361F065ED76E041
:102C80008AE99AE00E943B4265ED76E08DEF99E09B
:102C90000E943B426AE272E0C8010E946D458823AF
:102CA00061F06FEC76E08AE99AE00E943B426FECBB
:102CB00076E08DEF99E00E943B4268E472E0C80143
:102CC0000E946D45882361F069EC76E08AE99AE01C
:102CD0000E943B4269EC76E08DEF99E00E943B4216
:102CE00068E672E0C8010E946D45882361F063ECDC
:102CF00076E08AE99AE00E943B4263EC76E08DEF51
:102D000099E00E943B426FEB72E0C8010E946D4562
:102D1000882361F06DEB76E08AE99AE00E943B42FD
:102D20006DEB76E08DEF99E00E943B4264E670E047
:102D300080E090E00E947C3C6AE18AE99AE00E948F
:102D40005F4264E670E080E090E00E947C3C8AE9AB
:102D50009AE00E94254268E873E180E090E00E94DA
:102D60007C3C68E474E08DEF99E00E941C42BE0157
:102D7000695F7F4F8DEF99E00E943B42CE0107963D
:102D80000E944B43CE010D960E944B43CE014396C9
:102D90000E944B43CE0149960E944B436E960FB65C
:102DA000F894DEBF0FBECDBFDF91CF911F910F9181
:102DB00008950F931F93CF93DF93CDB7DEB72C9772
:102DC0000FB6F894DEBF0FBECDBF8C0166E574E090
:102DD000CE0107960E94B94380910A02813309F01F
:102DE00004C160E074E0CE0101960E94B943BE01C7
:102DF000695F7F4FCE0101960E94404567E974E00C
:102E00000E945345BC0187E39BE00E940E42CE0125
:102E100001960E944B4360E872E0C8010E946D4534
:102E20008823C9F061E774E0CE0101960E94B9439E
:102E300065ED76E0CE0101960E94404567E974E0B9
:102E40000E945345BC0187E39BE00E940E42CE01E5
:102E500001960E944B436AE272E0C8010E946D45F0
:102E60008823C9F061E774E0CE0101960E94B9435E
:102E70006FEC76E0CE0101960E94404567E974E070
:102E80000E945345BC0187E39BE00E940E42CE01A5
:102E900001960E944B4368E472E0C8010E946D45B0
:102EA0008823C9F061E774E0CE0101960E94B9431E
:102EB00069EC76E0CE0101960E94404567E974E036
:102EC0000E945345BC0187E39BE00E940E42CE0165
:102ED00001960E944B4368E672E0C8010E946D456E
:102EE0008823C9F061E774E0CE0101960E94B943DE
:102EF00063EC76E0CE0101960E94404567E974E0FC
:102F00000E945345BC0187E39BE00E940E42CE0124
:102F100001960E944B436FEB72E0C8010E946D4521
:102F20008823C9F061E774E0CE0101960E94B9439D
:102F30006DEB76E0CE0101960E94404567E974E0B2
:102F40000E945345BC0187E39BE00E940E42CE01E4
:102F500001960E944B430E943F1564E774E0CE0146
:102F600007960E943144BE01695F7F4F8DEF99E063
:102F70000E943B4260E074E0CE0101960E94B9439A
:102F8000BE01695F7F4FCE0101960E94404567E90F
:102F900074E00E945345BC0187E39BE00E940E420F
:102FA000CE0101960E944B4360E177E280E090E021
:102FB0000E947C3CB801CE0101960E941C44CE01C7
:102FC00001960E94B815CE0101960E944B430E94C3
:102FD0003F1564E974E087E39BE00E941C4269E9C5
:102FE00074E087E39BE00E941C42B801CE01019689
:102FF0000E941C44CE0101960E94C011CE01019690
:103000000E944B4360E872E0C8010E946D4588232E
:1030100031F06CE673E081E996E00E9429426AE2B1
:1030200072E0C8010E946D45882369F080910A0210
:10303000813319F460E573E002C06FE273E081E967
:1030400096E00E94294268E472E0C8010E946D4542
:10305000882369F080910A02813319F463E173E0F7
:1030600002C062EF72E081E996E00E94294268E6C0
:1030700072E0C8010E946D45882331F065ED72E071
:1030800081E996E00E9429426FEB72E0C8010E943C
:103090006D45882369F080910A02813319F460EB51
:1030A00072E002C066E872E081E996E00E9429427F
:1030B00081E996E00E949F1ECE0107960E944B4335
:1030C0002C960FB6F894DEBF0FBECDBFDF91CF9127
:1030D0001F910F910895CF93DF9300D000D0CDB70B
:1030E000DEB780918C068C3021F480918D06882388
:1030F00019F01092D90515C08091D905811111C020
:1031000068E672E0CE0101960E94B943CE010196B5
:103110000E94D916CE0101960E944B4381E0809314
:10312000D90526960FB6F894DEBF0FBECDBFDF914E
:10313000CF910895CF92DF92EF92FF920F931F935A
:10314000CF93DF9300D000D0CDB7DEB7E091770604
:10315000F0917806E830F10508F0CFC0EE58FF4F47
:103160000C94144A89E090E09093100280930F022F
:1031700024C060E080910F020E94C33D80910E0246
:103180008111BBC0B4C061E080910F020E94C33DB9
:103190000E944D3C6093E2057093E3058093E40543
:1031A0009093E50583E090E090937806809377060E
:1031B00080910E02882309F4A0C081E090E099C0BC
:1031C000E090E605F090E7050E944D3C0091E20595
:1031D0001091E3052091E4053091E505601B710B2A
:1031E000820B930BA7010E94F0100E944D3C6B01D3
:1031F0007C016091E6057091E7058091E80590916A
:10320000E9050091E2051091E3052091E405309174
:10321000E505C01AD10AE20AF30A6C157D058E0590
:103220009F0530F424E030E0309378062093770651
:1032300020910E02222309F460C021E030E0309397
:10324000780620937706AB010E94F01056C080915B
:103250000E02882331F081E090E09093780680930D
:10326000770680910B02882309F447C085E090E03F
:1032700040C060E080910F020E94C33D10926E0634
:1032800010926F06109270061092710686E090E020
:1032900030C080910F0290911002099749F48AE0A2
:1032A00090E09093100280930F0287E090E021C09D
:1032B00068E472E0CE0101960E94B943CE01019606
:1032C0000E94D916CE0101960E944B4388E090E0FF
:1032D00010C06AE272E0CE0101960E94B943CE01AD
:1032E00001960E94D916CE0101960E944B4382E0BE
:1032F00090E0909378068093770626960FB6F89420
:10330000DEBF0FBECDBFDF91CF911F910F91FF9018
:10331000EF90DF90CF9008950F931F93CF93DF939B
:1033200000D000D0CDB7DEB70E944D3C0091AD0675
:103330001091AE062091AF063091B006601B710B64
:10334000820B930B0091B9061091BA062091BB062F
:103350003091BC06061717072807390720F50E9489
:103360004D3C6093AD067093AE068093AF0690938C
:10337000B00680E497E7ABE1B0E08093B9069093A4
:10338000BA06A093BB06B093BC0660E872E0CE011B
:1033900001960E94B943CE0101960E94D916CE0132
:1033A00001960E944B4326960FB6F894DEBF0FBEDF
:1033B000CDBFDF91CF911F910F9108950F931F9370
:1033C000CF93DF9380910E02882389F188E00E94D9
:1033D000F93D019789F180916E0690916F06A09159
:1033E0007006B0917106892B8A2B8B2B09F442C091
:1033F0000E944D3C00916E0610916F062091700660
:1034000030917106601B710B820B930B0091720659
:1034100010917306222717FD2095322F06171707E4
:103420002807390708F051C010920E024EC088E0FC
:103430000E94F93D892B91F410926E0610926F064E
:1034400010927006109271064091720650917306A8
:10345000BA01882777FD8095982F4AC080916E0623
:1034600090916F06A0917006B0917106892B8A2BFE
:103470008B2B59F40E944D3C60936E0670936F063F
:10348000809370069093710620C00E944D3C00917D
:103490006E0610916F062091700630917106601BC8
:1034A000710B820B930B0091720610917306222709
:1034B00017FD2095322F061717072807390728F41C
:1034C00081E080930E020E948C19C0917206D09107
:1034D00073060E944D3C00916E0610916F0620917C
:1034E000700630917106601B710B820B930BAE015D
:1034F000DF91CF911F910F910C946F108F929F923B
:10350000AF92BF92CF92DF92EF92FF920F931F93F1
:10351000CF93DF9300D000D0CDB7DEB76C017B0135
:103520008A010E944D3C8090B1069090B206A09016
:10353000B306B090B406681979098A099B09603C02
:1035400077428940910508F44DC00E944D3C60933C
:10355000B1067093B2068093B3069093B4066DE201
:1035600072E0CE0101960E94B943CE0101960E94FD
:10357000C011CE0101960E944B434AE050E0B601D3
:1035800081E996E00E94144360E372E0CE01019667
:103590000E94B943CE0101960E94C011CE0101964E
:1035A0000E944B434AE050E0B70181E996E00E9457
:1035B00014436EE974E0CE0101960E94B943CE0136
:1035C00001960E94C011CE0101960E944B434AE031
:1035D00050E0B80181E996E00E94144381E996E049
:1035E0000E949F1E26960FB6F894DEBF0FBECDBF79
:1035F000DF91CF911F910F91FF90EF90DF90CF90CF
:10360000BF90AF909F908F900895CF93DF9300D09D
:1036100000D0CDB7DEB780E00E94113D90930A063E
:103620008093090681E00E94113D909308068093E3
:10363000070682E00E94113D9093060680930506DE
:1036400064E670E080E090E00E947C3C40910506DA
:103650005091060660910706709108068091090650
:1036600090910A060E947E1A6091090670910A06DE
:10367000882777FD8095982F0E943E47AB01BC01BB
:103680008DE296E00E946935609107067091080608
:10369000882777FD8095982F0E943E47AB01BC019B
:1036A0008CE196E00E9469356091050670910606EE
:1036B000882777FD8095982F0E943E47AB01BC017B
:1036C0008BE096E00E9469358DE296E00E94E63537
:1036D0000E940B4770930406609303068CE196E00A
:1036E0000E94E6350E940B47709302066093010624
:1036F0008BE096E00E94E6350E940B47709300062F
:103700006093FF058091F305811112C02091090695
:1037100030910A068091EE059091EF05821793078C
:103720001CF410920B0241C081E080930B023DC05B
:103730008091F205811109C0209107063091080699
:103740008091EC059091ED05E9CF8091F105811113
:1037500009C020910506309106068091EA059091F6
:10376000EB05DCCF88E090E09093780680937706B5
:103770008091F005811111C063E372E0CE010196E2
:103780000E94B943CE0101960E94D916CE0101963E
:103790000E944B4381E08093F00560E089E00E9445
:1037A000C33D61E08AE00E94C33D26960FB6F894BF
:1037B000DEBF0FBECDBFDF91CF9108958091770618
:1037C00090917806049709F0DDC08091FD059091F5
:1037D000FE0501969093FE058093FD054091090634
:1037E00050910A062091030630910406421B530BA8
:1037F0002091E0053091E10566277727621B730B66
:10380000F091F605461757077CF4FF2369F04091C5
:10381000FB055091FC054F5F5F4F5093FC054093B3
:10382000FB051092F60512C0241735077CF4E1E081
:10383000FE1761F04091FB055091FC054F5F5F4F13
:103840005093FC054093FB05E093F6054091070675
:1038500050910806E0910106F09102064E1B5F0BA5
:10386000F091F505461757077CF4FF2369F0409166
:10387000F9055091FA054F5F5F4F5093FA05409359
:10388000F9051092F50512C0241735077CF4E1E024
:10389000FE1761F04091F9055091FA054F5F5F4FB7
:1038A0005093FA054093F905E093F505409105061C
:1038B00050910606E091FF05F09100064E1B5F0B4C
:1038C000E091F405461757077CF4EE2369F0209148
:1038D000F7053091F8052F5F3F4F3093F80520939F
:1038E000F7051092F40512C0241735077CF441E067
:1038F000E41761F02091F7053091F8052F5F3F4FF5
:103900003093F8052093F7054093F4058531910530
:10391000CCF1959587952091FB053091FC05821798
:10392000930724F421E02093F30502C01092F305DD
:103930002091F9053091FA058217930724F421E0CC
:103940002093F20502C01092F2052091F705309104
:10395000F8058217930724F481E08093F10502C0F3
:103960001092F1051092FE051092FD051092FC05D3
:103970001092FB051092FA051092F9051092F805C5
:103980001092F7050895CF93DF9361EA74E085ED17
:1039900096E00E94B9436FEC74E08FEC96E00E94D1
:1039A000B9436DEF74E089EC96E00E94B9436BE295
:1039B00075E083EC96E00E94B94368E475E08DEB16
:1039C00096E00E94B94381E996E00E942C1F40E0F6
:1039D00050E0BA0189E896E00E94383487E896E022
:1039E0000E942D3626E046E162E089E796E00E94DB
:1039F000B1326AEC75E082E596E00E94B9436AEC68
:103A000075E08CE496E00E94B9436AEC75E08EE3C1
:103A100096E00E94B943CCE0D2E068818DE296E066
:103A20000E94553568818CE196E00E945535688189
:103A30008BE096E00E9455356AEC75E08AED95E0E2
:103A4000DF91CF910C94B9438AED95E00E944B43EE
:103A50008BE096E00E9427358CE196E00E942735A6
:103A60008DE296E00E9427358EE396E00E944B435C
:103A70008CE496E00E944B4382E596E00E944B4323
:103A80008DEB96E00E944B4383EC96E00E944B4303
:103A900089EC96E00E944B438FEC96E00E944B43EA
:103AA00085ED96E00C944B431F93CF93DF93CDB7F6
:103AB000DEB768970FB6F894DEBF0FBECDBF6AECD5
:103AC00075E0CE0143960E94B9436AEC75E0CE01E1
:103AD0000D960E94B94387E39BE00E94223E892B0A
:103AE00009F4D8C087E39BE00E943B3E182F682F63
:103AF000CE0107960E944944BE01635F7F4FCE010D
:103B000001960E941C44BE01695F7F4FCE01019661
:103B10000E944045BC01CE010D960E940544CE0195
:103B200001960E944B43CE0107960E944B431332ED
:103B3000C9F660E070E0CE010D960E949D45182FF9
:103B400029893A892150310941E050E0BE01635F83
:103B50007F4FCE0101960E94E945BE016F5F7F4F06
:103B6000CE0143960E942544CE0101960E944B430C
:103B700066E775E08DEF99E00E941C42612F8DEFA2
:103B800099E00E941E426EE775E08DEF99E00E9479
:103B90001C42BE016D5E7F4F8DEF99E00E943B425B
:103BA000113611F481E303C0123631F480E38093BF
:103BB0000A020E9415046EC0143619F40E944C05C6
:103BC00069C0153619F40E94050664C0163619F44A
:103BD0000E9492075FC0173661F4BE016D5E7F4F91
:103BE000CE0101960E941C44CE0101960E9402085B
:103BF0003DC0183619F40E9476044CC01C3619F4E6
:103C00000E94090547C01B3661F4BE016D5E7F4FFF
:103C1000CE0101960E941C44CE0101960E94F30D34
:103C200025C0113761F4BE016D5E7F4FCE01019654
:103C30000E941C44CE0101960E94C30A17C012378D
:103C400019F40E94690B26C0133719F40E947C0BEB
:103C500021C0143781F4BE016D5E7F4FCE01019605
:103C60000E941C44CE0101960E94DE0BCE010196FB
:103C70000E944B430FC0153719F40E94870C0AC0ED
:103C8000193719F40E94441005C01A3719F482E05C
:103C90000E94B103CE010D960E944B43CE01439684
:103CA0000E944B4368960FB6F894DEBF0FBECDBF9F
:103CB000DF91CF911F9108950E949A180E94951448
:103CC0000E94D2130E94051B0E94DE1B0E94DE1977
:103CD0000E946B180E94541D0C94E00CCF93DF934C
:103CE0001F92CDB7DEB76983DC01ED91FC910280B4
:103CF000F381E02D41E050E0BE016F5F7F4F1995E9
:103D00000F90DF91CF910895CF93DF93EC01898DD0
:103D10009A8D009759F0FC01138212820E94562C52
:103D2000E98DFA8D22813381232B31F081E090E0FF
:103D30009B838A8380E090E0DF91CF910895FC011E
:103D4000818D928D009711F00C94B1290895CF9335
:103D5000DF931F92CDB7DEB741E050E0BE016F5F49
:103D60007F4F0E948E27019719F4898190E002C04D
:103D70008FEF9FEF0F90DF91CF910895FC01818D20
:103D8000928D009711F00C94A71E8FEF9FEF08956E
:103D90000F931F93CF93DF938C01FC01818D928D44
:103DA0000097B9F00E94A71EEC018F3FFFEF9F071D
:103DB00099F0F801818D928DFC01428553856485CF
:103DC000758541505109610971090E941529CE017B
:103DD00005C080E090E002C08FEF9FEFDF91CF91B0
:103DE0001F910F910895CF92DF92EF92FF920F9360
:103DF0001F93CF93DF93EC017B016A011B821A8230
:103E000008EE13E020E030E00C831D832E833F8317
:103E100084E995E0998388838DE190E00E94594A76
:103E20009A8F898F009779F02DE1F701DC010190DD
:103E30000D922A95E1F74CE050E0B601CE010C96C8
:103E40000E94C14C188EDF91CF911F910F91FF906E
:103E5000EF90DF90CF900895FC011382128248EE1C
:103E600053E060E070E0448355836683778384E9A0
:103E700095E091838083128E118E148608950C969E
:103E80000895DC015996ED91FC915A97309721F0F5
:103E900081E09581923008F480E00895DC01599624
:103EA000ED91FC915A97309729F06285738584854E
:103EB000958508956FEF7FEFCB010895DC0159964A
:103EC000ED91FC915A97309729F06389748985891F
:103ED0009689089560E070E0CB010895CF92DF925B
:103EE000EF92FF92CF93DF93EC01898D9A8D892B0E
:103EF000D9F0CE010E945E1F6B017C01CE010E94B1
:103F00004E1FA7019601261B370B480B590BDA01F0
:103F1000C901811530E89307A105B10538F08FEF8D
:103F20009FE7A0E0B0E002C080E090E0DF91CF9199
:103F3000FF90EF90DF90CF900895CF93DF93EC0147
:103F4000898D9A8D009741F00E94F829898D9A8D6C
:103F50000E94F14A1A8E198EDF91CF910895DC01EB
:103F60005996ED91FC915A97309721F081E0958117
:103F7000911101C080E008951F93CF93DF93CDB7D7
:103F8000DEB76D970FB6F894DEBF0FBECDBFAB01A5
:103F90001C821B8224EA35E03A8329831E8221E0B9
:103FA000BC01CE0101960E942C2B11E0811102C0B0
:103FB00010E004C0CE0101960E94F829812F6D9671
:103FC0000FB6F894DEBF0FBECDBFDF91CF911F912A
:103FD0000895442339F00E942D2C91E0811103C0F3
:103FE00090E001C091E0892F0895CF93DF93FB010A
:103FF00020813181FC01E20FF31FE081EF3211F4E7
:104000002F5F3F4FDA01E0E0F0E0EC01C20FD31F79
:10401000C881CF3249F0CC2339F031962F5F3F4F22
:10402000CD93EC30F10589F7E40FF51F1082FC0108
:10403000E20FF31F40814F3211F42F5F3F4FFB011E
:1040400031832083FC01E20FF31F81E09081911105
:1040500001C080E0DF91CF9108954F925F926F92FF
:104060007F928F929F92AF92BF92CF92DF92EF9208
:10407000FF920F931F93CF93DF93CDB7DEB7C95451
:10408000D1090FB6F894DEBF0FBECDBF5C016B0146
:104090003A01490119A218A284EA95E09F8F8E8FF8
:1040A0001BA21C821B829A8389831E822A961FAEC2
:1040B0001EAE2A978B017E018EE1E80EF11C44248E
:1040C0004394AE01455C5F4FBE01685B7F4FC50105
:1040D0000E94F51F582E482F44259401BE01655CAF
:1040E0007F4FC801F3011995811108C00C151D05FA
:1040F00019F0C8010E94F82980E027C05520B9F0C6
:1041000021E0AE01455C5F4FB801C7010E942C2B36
:10411000582E0C151D0599F0C8010E94F82955204C
:1041200059F3902F812F8701E92EF82ECACF0C1555
:104130001D0519F0C8010E94F82981E006C08823F6
:10414000D9F28E010F5F1F4FECCFC75BDF4F0FB669
:10415000F894DEBF0FBECDBFDF91CF911F910F91BD
:10416000FF90EF90DF90CF90BF90AF909F908F9097
:104170007F906F905F904F9008950F931F93CF9310
:10418000DF93EC01462F61E00E943524811102C0CB
:1041900080E01DC08E01045F1F4F41E0BE01C801D9
:1041A0000E949D31882359F0B801CE018A960E9461
:1041B0003E2791E0811101C090E0892F08C040E0C6
:1041C000BE01C8010E949D31882311F3EDCFDF911C
:1041D000CF911F910F910895FC01DB0112968D91F3
:1041E0009C9113979383828384EA95E091838083E3
:1041F00014968C911497848315968C9115978583CA
:1042000016964D915D916D917C91199746835783D8
:10421000608771871A964D915D916D917C911D9784
:1042200042875387648775871E964D915D916D9186
:104230007C91519746875787608B718B52968C91F2
:104240005297828B53964D915D916D917C915697CB
:10425000438B548B658B768B57964D915D916D9109
:104260007C915A97478B508F618F728F5B968D919F
:104270009C915C97948F838F08954F925F926F9279
:104280007F928F929F92AF92BF92CF92DF92EF92E6
:10429000FF920F931F93CF93DF93CDB7DEB7C75431
:1042A000D1090FB6F894DEBF0FBECDBF6C014A0135
:1042B0003901665D7F4F5E018EE1A80EB11CC5011C
:1042C0000E94EC201C821B8284EA95E09A838983F9
:1042D0001E828401FE0131967F015A2C4B2C6FE225
:1042E00070E0C8010E94A64C0097E9F1F801208116
:1042F0002F3219F40F5F1F4FF2CF801B8D3008F063
:104300008CE0A82EB12CA501B801CE01CB960E945D
:10431000C14CEBE3F0E0EC0FFD1FEA0DFB1D10823A
:10432000C7010E94F82921E0AE01455C5F4F652D71
:10433000742DC7010E942C2B811109C0F601138234
:10434000128284EA95E091838083158216C00A0D5B
:104350001B1D852D942D0E94F829C2015E2C4F2C27
:10436000E92EF82EBCCF08191909F3011183008337
:10437000652D742DC6010E94EC20C601C95BDF4F7C
:104380000FB6F894DEBF0FBECDBFDF91CF911F9166
:104390000F91FF90EF90DF90CF90BF90AF909F90E4
:1043A0008F907F906F905F904F9008959F92AF9203
:1043B000BF92CF92DF92EF92FF920F931F93CF9312
:1043C000DF93CDB7DEB7C955D1090FB6F894DEBF7C
:1043D0000FBECDBF7C016B015A01922E9E01285A5F
:1043E0003F4FCE01CB960E943D216A960EAD1FAD88
:1043F0006A970A0D1B1DF801808181110AC0BE0158
:10440000655C7F4FCE0101960E94EC204CE552E0A6
:1044100041C019A218A284EA95E09F8F8E8F1BA23B
:1044200021968FAD2197811104C0C7010E942C1FD6
:1044300037C08250823060F4B601665D7F4F292D0F
:10444000A801CE014E960E942C2B811110C0EDCFF9
:10445000292DA801BE01655C7F4FCE014E960E94BA
:104460002C2B882311F3CE01CB960E94F829892D9D
:10447000867041F049A95AA96BA97CA9CE014E9634
:104480000E941529BE01625E7F4FCE0101960E94F7
:10449000EC20A801BE016F5F7F4FC7010E94F31E91
:1044A000C701C75ADF4F0FB6F894DEBF0FBECDBFAE
:1044B000DF91CF911F910F91FF90EF90DF90CF9000
:1044C000BF90AF909F900895FB01BC01665D7F4F48
:1044D00020E030E04CEB5FE1CF010C942D20FB019C
:1044E000BC01665D7F4F20E030E049EE5FE1CF0127
:1044F0000C942D20DF92EF92FF920F931F93CF9396
:10450000DF93CDB7DEB7C756D1090FB6F894DEBF3B
:104510000FBECDBF8C017B01D42EBE016F5F7F4FDC
:10452000F701818D928D0E9496281816D4F5898105
:104530008823B9F1853E89F38E3279F38C8583FD2A
:10454000ECCF22961FAE1EAE229784EA95E09FAF75
:104550008EAF24961FAE2497BE01655A7F4FCE01C1
:1045600001960E94E826F701618D728D2D2DAE0116
:10457000455A5F4FCE01CE960E942C2B882389F09E
:10458000BE01625C7F4FCE0181960E94EC20AE019D
:10459000455A5F4FBE016F5D7F4FC8010E94F31EF9
:1045A00003C0C8010E942C1FC801C959DF4F0FB6B4
:1045B000F894DEBF0FBECDBFDF91CF911F910F9159
:1045C000FF90EF90DF900895CF93DF93EC010E946E
:1045D000411F882351F0E98DFA8D168217821086CB
:1045E00011861286138614861586DF91CF91089561
:1045F0001092E0061092E1061092E4061092E60690
:1046000082E090E0A0E0B0E08093E7069093E806B7
:10461000A093E906B093EA061092FE0610920807EE
:104620001092070784EA95E09093060780930507A8
:1046300010920A0708959FB7F8942091320980914B
:104640003009213019F48DBB9FBF08958FBF0895A5
:1046500020913209222399F03FB7F8942091320932
:10466000213059F42DB3209330094DB320913109F5
:10467000209524232DBB3FBF02C0309330098CBD51
:104680009DBD08958EBD00000DB407FEFDCF8EB513
:1046900008958FEF0C94422361E0FC0184810E9415
:1046A000C33D80912407882339F01092240780911C
:1046B000320981110C941B230895CF93DF93EC01F1
:1046C00080912407811109C081E0809324078091A3
:1046D0002507909126070E94282360E08C81DF91B6
:1046E000CF910C94C33DCF93DF93EC018E8188234F
:1046F00089F08F8198859C012F5F3F4F38872F83EA
:104700008230924018F40E944923F3CFCE010E94D8
:104710004C231E82DF91CF910895673028F026E167
:10472000FC01258380E00895623081F030F4662337
:1047300059F06130B1F480E515C0643059F040F0B3
:10474000653079F482E50EC080E505C081E503C0DF
:1047500081E508C082E58093250781E080932607E4
:10476000089583E5809325071092260781E0089538
:104770000F931F93CF93DF93EB010E944D3C8B016E
:104780000E9449238F3F49F00E944D3C601B710BF2
:104790006C177D07A8F380E001C081E0DF91CF9125
:1047A0001F910F910895CF92DF92FF920F931F9365
:1047B000CF93DF9300D01F92CDB7DEB76C01F62EFA
:1047C00029833A834B835C830E947323C6010E9432
:1047D0005D236CE271E0C6010E94B8238F2D8064D6
:1047E0000E94422308E110E05C814B813A812981DB
:1047F000DA01C901002E04C0B695A7959795879553
:104800000A94D2F729833A834B835C830E94422324
:104810000850110929813A814B815C81083F8FEF53
:10482000180731F7FF2029F0E8E0FE1621F08FEF9E
:1048300003C085E901C087E80E94422310E00E947E
:104840004923F601828787FF04C01F3F11F01F5FD5
:10485000F6CF0F900F900F900F90DF91CF911F9197
:104860000F91FF90DF90CF900895BF92CF92DF928B
:10487000EF92FF920F931F93CF93DF93EC01B62E2D
:104880001B8619861E821D824C830E944D3C8B0123
:1048900061E08C810E948A3D61E08C810E94C33D71
:1048A0000E948B3882E5809325071092260780911D
:1048B0002507909126070E9428232AE0F22E8FEFE9
:1048C0000E944223FA94D9F78091320981110E9403
:1048D0001B23CE010E945D2320E030E0A90160E0AF
:1048E000CE010E94D323F82E8A8781E0F81649F082
:1048F0000E944D3C601B710B613D774068F381E085
:104900004BC02AEA31E040E050E068E0CE010E946E
:10491000D32382FF02C0FB860DC094E0F92E0E94D3
:1049200049238A87FA94D9F78A3A11F082E034C091
:1049300082E08B878B85823031F4C12CD12CE12C25
:1049400080E4F82E03C0C12CD12C760120E030E0A9
:10495000A90167E3CE010E94D323A701960169E272
:10496000CE010E94D3238A87882349F00E944D3CC0
:10497000601B710B613D774048F388E00DC08B856B
:10498000823031F520E030E0A9016AE3CE010E94D7
:10499000D323882381F086E08D83CE010E944C23AF
:1049A00080E0DF91CF911F910F91FF90EF90DF900A
:1049B000CF90BF9008950E944923807C803C11F4E1
:1049C00083E08B870E9449230E9449230E94492348
:1049D000CE010E944C236B2DCE01DF91CF911F9110
:1049E0000F91FF90EF90DF90CF90BF900C948D23AC
:1049F0000F931F93CF93DF93EC010E944D3C8B01EB
:104A00000E9449238A878F3F49F40E944D3C601BD6
:104A1000710B6D327140A0F38FE003C08E3F39F00F
:104A20008DE08D83CE010E944C2380E001C081E0A7
:104A3000DF91CF911F910F910895CF92DF92EF9266
:104A4000FF920F931F93CF93DF93EC016901011540
:104A5000110509F462C0C801820F931F8130924092
:104A600008F05DC08E81882371F088819981AA81C8
:104A7000BB81481759076A077B0729F48F819885FE
:104A8000C816D90610F5488359836A837B838B85C2
:104A9000833039F039E0440F551F661F771F3A9570
:104AA000D1F79A01AB0161E1CE010E94D3238823A3
:104AB00019F083E08D8333C0CE010E94F82488234F
:104AC00071F118861F8281E08E838F8198858C1505
:104AD0009D0540F40E9449238F819885019698870F
:104AE0008F83F3CF6701E00EF11ECE14DF0431F0A7
:104AF0000E944923F60181936F01F7CF8F8198853A
:104B0000800F911F98878F832985222319F08115A3
:104B1000924018F0CE010E94732381E004C0CE01C0
:104B20000E944C2380E0DF91CF911F910F91FF9065
:104B3000EF90DF90CF900895EF92FF920F931F9325
:104B4000790100E012E020E030E00E941D251F9175
:104B50000F91FF90EF900895CF92DF92EF92FF9226
:104B60000F931F93CF93DF931F921F92CDB7DEB7A2
:104B70008C01862F49835A830E9442234981C42E87
:104B80005A81D52EE12CF12CF60181916F010E9402
:104B90004223FFEFEF1AFF0AE11482E0F806A1F7C3
:104BA0008FEF0E9442238FEF0E9442230E944923ED
:104BB000F80182878F71853039F081E18583C801E2
:104BC0000E944C2380E001C081E00F900F90DF91A4
:104BD000CF911F910F91FF90EF90DF90CF900895AC
:104BE0000F931F93CF93DF93EC018901411551057A
:104BF0006105710511F482E132C08B85833039F093
:104C000089E0440F551F661F771F8A95D1F79A01D7
:104C1000AB0168E1CE010E94D323882311F084E028
:104C20001EC0A8016EEFCE010E94AC258823C1F002
:104C300068E572E0CE010E94B823811102C085E1CF
:104C40000EC020E030E0A9016DE0CE010E94D32328
:104C5000811104C00E944923882339F084E18D83A7
:104C6000CE010E944C2380E004C0CE010E944C2360
:104C700081E0DF91CF911F910F91089580E580939E
:104C80002507109226070895CF93DF93EC019C012E
:104C90002A5F3F4F41E050E060E070E08B8D9C8DDB
:104CA0000E9432308823A1F04F89588D698D7A8D0A
:104CB000452B462B472B71F44E815F8168857985A2
:104CC0004F8B588F698F7A8F8C8180688C8302C05C
:104CD00080E001C081E0DF91CF910895CF92DF9213
:104CE000EF92FF921F93CF93DF93EC010E94442633
:104CF000811102C080E04BC0EB8DFC8DCE80DF8047
:104D0000E884F98482E0C81AD108E108F108058432
:104D100004C0CC0CDD1CEE1CFF1C0A94D2F74685A7
:104D2000578560897189C40ED51EE61EF71E148151
:104D300081E0C81AD108E108F108112361F0C70128
:104D4000B601610F711D811D911D0E947C2E88236B
:104D500089F21150F2CFEB8DFC8DC12C82E0D82E60
:104D6000E12CF12C058404C0CC0CDD1CEE1CFF1CD6
:104D70000A94D2F74B895C896D897E894C0D5D1D43
:104D80006E1D7F1D4B8B5C8B6D8B7E8B81E0DF916D
:104D9000CF911F91FF90EF90DF90CF900895CF9328
:104DA000DF93EC01462F6E857F85888999890E9463
:104DB000412E882341F08A8920E2829FC00111247C
:104DC000805D984F02C080E090E0DF91CF91089520
:104DD00030E020E04EE2DC015C91503271F038307E
:104DE00029F4FB01E20FF11D40832F5FFB01E20F6D
:104DF000F11DDC015C9150832F5F3F5F01963B30DA
:104E000051F7FB01E20FF11D10820895282FFB01DD
:104E10008BE030E231938150E9F7A22FB92F20E0E7
:104E200037E09D91992319F19E3219F0E7E2F4E001
:104E300008C03A3011F128E03AE0F3CF3196491733
:104E4000E1F044914111FACF3217B8F04FED490F1C
:104E50004E3598F441E0420FFB01E20FF11D2FE9BE
:104E6000290F2A3108F490529083242FDACF81E061
:104E7000FB019081903209F480E008950F931F9315
:104E8000CF93DF93EC018B018D81882311F080E0BB
:104E900040C0FB0187898031B1F482E08D831F8A95
:104EA000188E198E1A8E408D518D60E070E095E05D
:104EB000440F551F661F771F9A95D1F74B8B5C8B5C
:104EC0006D8B7E8B15C0803211F783E08D83FB01E3
:104ED000428D538D648D758D4F8B588F698F7A8F6E
:104EE0009E012D5E3F4FC8010E94262F882379F234
:104EF0001C8F0B8F81E08C831E821F82188619867F
:104F00001A861B861C861D861E861F86188A198A8D
:104F10001A8ADF91CF911F910F9108952F923F929E
:104F20004F925F926F927F928F929F92AF92BF92B9
:104F3000CF92DF92EF92FF920F931F93CF93DF9365
:104F4000EC016B015A018D81811103C08FEF9FEF3E
:104F5000DAC08C8180FFFACF4B895C896D897E89AC
:104F60008A859B85AC85BD852501612C712C8A01C4
:104F70009B01081B190B2A0B3B0B04151505260575
:104F8000370518F45A01A81AB90A25011E0126E0AE
:104F9000220E311C4114510409F47BC04A855B8503
:104FA0006C857D854A0181E09822ED818A019B0113
:104FB000F9E03695279517950795FA95D1F78B8DDA
:104FC0009C8DE23051F4FC01628D738D848D958D42
:104FD000600F711F821F931F3EC0FC0174807A9482
:104FE000702281149104C9F4711017C0452B462B0F
:104FF000472B49F48F89988DA98DBA8D8E839F8315
:10500000A887B9870AC04E815F816885798591013B
:105010000E94A22E882309F499CFEB8DFC8D6E811E
:105020007F8188859985625071098109910905847C
:1050300004C0660F771F881F991F0A94D2F7068550
:10504000178520893189600F711F821F931F670D9B
:10505000711D811D911D20E032E0281939093201AE
:105060002415350508F439012C8126FD04C061148E
:10507000F2E07F06A1F500911E0210911F0220911F
:10508000200230912102601771078207930719F4FB
:1050900026C0C50138C0760183019401AB01BC0173
:1050A00080912E0790912F070E941D25882309F4D7
:1050B0004DCFC60CD71C04C0E81BF90BCE0EDF1E6B
:1050C0008A859B85AC85BD85860D971DA11DB11D6B
:1050D0008A879B87AC87BD87461857085BCF40E01F
:1050E0000E94412E882309F431CFC401805D984F7E
:1050F000D6019C01260D371DFC01E217F307E1F2F2
:1051000041914D93FACFDF91CF911F910F91FF9075
:10511000EF90DF90CF90BF90AF909F908F907F9057
:105120006F905F904F903F902F9008950F931F9333
:10513000CF93DF93EC018B018D81823010F48FEFE0
:1051400024C04A855B856C857D854F715527662710
:105150007727452B462B472B91F740E250E0B801CB
:10516000CE010E948E27803269F4F8018081882365
:1051700059F0853E91F38E3281F3838583FDEDCF27
:1051800080E203C087FDDBCF80E0DF91CF911F91EC
:105190000F910895FF920F931F93CF93DF931F9268
:1051A000CDB7DEB78C01FC018581823018F480E038
:1051B00090E034C0F8014285538564857585A5E08B
:1051C0007695679557954795AA95D1F7F42FFF7077
:1051D000FF2E41E050E0BE016F5F7F4FC8010E948B
:1051E0008E27019719F4298130E002C02FEF3FEF9D
:1051F0002F3F3F4FE1F2F801428553856485758565
:10520000415E5F4F6F4F7F4F42875387648775873B
:10521000F0E2FF9EC0011124805D984F0F90DF9156
:10522000CF911F910F91FF9008954F925F926F92CF
:105230007F92AF92BF92CF92DF92EF92FF920F9345
:105240001F93CF93DF93EC016A017B012D81222311
:1052500009F457C08B899C89AD89BE89841795074D
:10526000A607B70708F44DC04EC08A859B85AC855C
:10527000BD85EB8DFC8DE585F0E03996AC01BD0177
:1052800041505109610971090E2E04C07695679548
:10529000579547950A94D2F7970186010150110955
:1052A0002109310904C03695279517950795EA9588
:1052B000D2F70417150726073707B0F58F89988DA1
:1052C000A98DBA8D8E839F83A887B987280139015C
:1052D0005E0186E0A80EB11C411451046104710402
:1052E00061F14E815F816885798595018B8D9C8DFB
:1052F0000E94A22E91E0491A51086108710881119B
:10530000EBCF80E01FC02230C1F0C114D104E10412
:10531000F10409F0AACF1E821F82188619861A8608
:105320001B861C861D860DC0892B8A2B8B2B31F288
:10533000041B150B260B370BC9CFCA86DB86EC8600
:10534000FD8681E0DF91CF911F910F91FF90EF904B
:10535000DF90CF90BF90AF907F906F905F904F9015
:1053600008950F931F93CF93DF93EC018D818823D2
:10537000C9F18C8187FF30C061E0CE010E94CF2649
:105380008C01009779F18D81823048F44B895C89DA
:105390006D897E89F801448F558F668F778F4F898D
:1053A000588D698D7A8DF801538F428F758B648B80
:1053B000E0912707F0912807309759F0B8016A5E0D
:1053C0007F4FC80148961995F801808D918D938B78
:1053D000828B8C818F778C83DF91CF911F910F917E
:1053E0000C94062E80E0DF91CF911F910F910895CC
:1053F000CF93DF93EC010E94B129882319F01D821D
:1054000081E001C080E0DF91CF9108954F925F92DB
:105410006F927F92AF92BF92CF92DF92EF92FF9204
:105420000F931F93CF93DF9300D01F92CDB7DEB7BA
:105430005C016A017B01FC0185818130F1F484818A
:1054400081FF1BC0F50183899489A589B6898417DA
:105450009507A607B70788F0892B8A2B8B2B09F4B1
:1054600079C0F5014284538464847584B701A60130
:10547000C5010E941529811102C080E06CC0F501B0
:10548000838D948DC114D104E104F10471F4478932
:10549000508D618D728D0E944731882371F3F50123
:1054A000178A108E118E128E3AC0F50146815781EF
:1054B000608571859E012F5F3F4F0E94A22E882339
:1054C000E1F249815A816B817C81F501838D948D54
:1054D000FC012789203129F408EF1FEF20E030E09C
:1054E00004C008EF1FEF2FEF3FE04017510762079E
:1054F0007307A8F40E944731882309F4BECFF50151
:1055000046815781608571850FEF1FEF2FEF3FE0D8
:10551000838D948D0E94912F882309F4AECFF501DD
:10552000C38AD48AE58AF68A848180688483C50127
:105530000E94B129882309F4A0CFB701A6014C1419
:105540005D046E047F0410F4B301A201C5010E9442
:10555000152901C081E00F900F900F900F90DF91FF
:10556000CF911F910F91FF90EF90DF90CF90BF9060
:10557000AF907F906F905F904F900895FF920F9340
:105580001F93CF93DF93EC01F42E80E2689FF0012C
:105590001124E05DF84F8385817129F0842F827496
:1055A00011F080E053C06A8B80911E0290911F021F
:1055B000A0912002B09121028E879F87A88BB98B82
:1055C0004489558960E070E0BA0155274427028D6F
:1055D000138D20E030E0402B512B622B732B4F8B2F
:1055E000588F698F7A8F8385887151F4048D158D5A
:1055F000268D378D0B8B1C8B2D8B3E8B81E00CC049
:10560000803179F69E012D5E3F4F8B8D9C8D0E94DF
:10561000262F882331F284E08D838F2D8F708C8329
:105620001E821F82188619861A861B861C861D8676
:10563000F6FE0BC040E050E0BA01CE01DF91CF9101
:105640001F910F91FF900C94062A81E0DF91CF917A
:105650001F910F91FF900895AF92BF92CF92DF926A
:10566000EF92FF920F931F93CF93DF93CDB7DEB7E7
:105670002B970FB6F894DEBF0FBECDBF7C016B0138
:10568000CA01B22EF70125812111B9C0BE016F5F99
:105690007F4F0E940627882309F4B1C0F601838D4D
:1056A000948DF701948F838FF601168217821086EE
:1056B00011861286138614861586A12CF6010285A2
:1056C00013852485358583899489A589B68908172A
:1056D00019072A073B07E8F545E036952795179502
:1056E00007954A95D1F70F70C6010E94CA28009706
:1056F00009F485C0FC012081222311F0253EB9F474
:10570000A1100EC0F701028B40911E0250911F02A2
:10571000609120027091210246875787608B718BC0
:10572000FC018081AA24A3948111C8CF12C04BE050
:1057300050E0BC01CE0101960E94904C892B09F0EB
:10574000BDCF8B2D8073803309F459C04B2D602F52
:1057500052C08B2D8271823109F051C0AA2041F0D4
:1057600061E0C7010E94CF268C01009779F447C001
:10577000F6018581823009F442C0C6010E946E267E
:105780008823E9F1F701128A00E317E080E2F801CB
:1057900011928A95E9F78BE0FE013196D8010190CC
:1057A0000D928A95E1F7E0912707F091280730974D
:1057B00039F0B801625F7F4FC8014096199509C062
:1057C00081E298E2F801918B808B80E098E09787E6
:1057D0008687F80180899189938B828B918F808F46
:1057E00086859785978B868B0E94062E882339F0B5
:1057F0004B2DF7016289C7010E94BE2A01C080E0DB
:105800002B960FB6F894DEBF0FBECDBFDF91CF91C0
:105810001F910F91FF90EF90DF90CF90BF90AF90CE
:105820000895CF93DF93EC0140E050E0BA010E946D
:10583000062A882371F061E0CE010E94CF260097EE
:1058400041F025EEFC0120831D82DF91CF910C9465
:10585000062E80E0DF91CF910895CF93DF93CDB7EF
:10586000DEB76D970FB6F894DEBF0FBECDBFAB01AC
:105870001C821B8224EA35E03A8329831E8222E0BF
:10588000BC01CE0101960E942C2B882329F0CE0169
:1058900001960E94112C01C080E06D960FB6F8941D
:1058A000DEBF0FBECDBFDF91CF9108952F923F9203
:1058B0004F925F926F927F928F929F92AF92BF9220
:1058C000CF92DF92EF92FF920F931F93CF93DF93CC
:1058D00000D01F921F92CDB7DEB78C017B013A0139
:1058E000DC0115968C9115978130C9F414968C9132
:1058F00081FF15C082FF1BC0F80143895489658967
:10590000768982859385A485B58584179507A60732
:10591000B70769F0C8010E941529811108C081E00C
:1059200090E0F8019383828380E090E046C16301B8
:1059300080C0D8015B968D919C915C97FC01F481AD
:10594000F150B501A40129E07695679557954795E3
:105950002A95D1F7F423FD8321E09222FF2309F455
:1059600074C080E092E08819990956018C159D0554
:1059700008F45C01D8015B96ED91FC915C9716965A
:105980002D903D904D905C901997B2E02B1A310804
:1059900041085108058404C0220C331C441C551CCA
:1059A0000A94D2F786859785A089B189280E391E79
:1059B0004A1E5B1EED812E0E311C411C511CA11490
:1059C000F2E0BF0609F088C080911E0290911F028C
:1059D000A0912002B091210282159305A405B5057E
:1059E00059F48FEF9FEFDC0180931E0290931F020A
:1059F000A0932002B09321029701B201A1018091EE
:105A00002E0790912F070E94F025882309F487CF55
:105A10009EEFF91ACA18DB08F80182859385A485E0
:105A2000B5858A0D9B1DA11DB11D82879387A48713
:105A3000B587D8011A968D909D90AD90BC901D971A
:105A4000C114D10409F075CF8AC08114910409F002
:105A500088CF16964D915D916D917C911997411566
:105A600051056105710559F457968D919D910D90E1
:105A7000BC91A02D0097A105B10541F521C09E0163
:105A80002F5F3F4F0E94A22E882309F44ECF8981B9
:105A90009A81AB81BC81F801238D348DF90127896E
:105AA000203129F448EF5FEF60E070E004C048EF78
:105AB0005FEF6FEF7FE084179507A607B70730F019
:105AC000C8010E94442681114CCF29CFF80186835A
:105AD0009783A087B18745CF8114910429F5D80118
