:100000000C9437030C9468030C9468030C946803F5
:100010000C9468030C9468030C9468030C946803B4
:100020000C9468030C9468030C9468030C946803A4
:100030000C9468030C9468030C9468030C94680394
:100040000C9468030C9468030C9468030C94680384
:100050000C9468030C9468030C9468030C94663A3F
:100060000C9468030C94F93D0C942F3E0C94680397
:100070000C9468030C9468030C9468030C94680354
:100080000C9468030C9468030C9468030C94680344
:100090000C94A63E0C94DC3E0C9468030C94353909
:1000A0000C9468030C9468030C9468030C94680324
:1000B0000C9468030C9468030C9468030C94680314
:1000C0000C9468030C9468030C9468030C94680304
:1000D0000C9468030C9468030C94533F0C94893F70
:1000E0000C9468036217691773178517AE17C0174A
:1000F000D017F017B23BB53BA43BA83BAE3BEC3B63
:10010000B93BBD3BC33BC73BCB3BD13BD53BD93BCD
:10011000EC3BDF3BE33BE73B07634236B79BD8A7AB
:100120001A39685618AEBAAB558C1D3CB7CC57631C
:10013000BD6DEDFD753EF6177231BF000000803FCA
:1001400008000000BE922449123EABAAAA2ABECDE6
:10015000CCCC4C3E00000080BEABAAAAAA3E000058
:100160000000BF000000803F000000000008417850
:10017000D3BB4387D1133D190E3CC3BD4282AD2B87
:100180003E68EC8276BED98FE1A93E4C80EFFFBE7F
:1001900001C4FF7F3F00000000000C94C33B0C949F
:1001A000DF3B0C94AE170C94063F0C9473170C9421
:1001B000A83B0C946A030C944B380C94021D0C94CD
:1001C000D0170C94593E0C94E71C0C942B1D0C94E6
:1001D000BD3F0C94E33B0C94C73B0C94633E0C94E2
:1001E000B33F0C94853C0C947C370C94CB3B0C9423
:1001F00062170C944F370C94A1240C94582C0C9437
:10020000323D0C942C370C943F370C94BD3B0C942E
:10021000E73B0C94903C0C94103D0C94C0170C944C
:1002200024370C941F1E0C94D13B0C94B93B0C94B6
:10023000B53B0C9485170C94871B0C944E370C948B
:100240005B210C944C1E0C94AE3B0C94D11C0C9472
:10025000103F0C94A43B0C94D53B0C94211D0C94A2
:100260009E3C0C9410400C94261B0C94B23B0C94B6
:10027000EC3B0C94D11D0C94B23C0C94F0170C94F4
:10028000D93B0C946917302C302C416C6C65207371
:10029000656E736F72656E207374756B3A20676557
:1002A000656E20534D5320676573747575726400D5
:1002B000302C302C416C6C652053656E736F726509
:1002C0006E207374756B3A20534D532067657374B9
:1002D0007575726400302C302C546573746D6573C1
:1002E0007361676520534D5320676573747575722C
:1002F0006400302C302C506F6D7032207569743A68
:10030000206765656E20534D53206765737475755E
:10031000726400302C302C506F6D7032207569740F
:100320003A20534D532067657374757572640030BD
:100330002C302C506F6D7031207569743A206765D0
:10034000656E20534D532067657374757572640034
:10035000302C302C506F6D7031207569743A2053F9
:100360004D5320676573747575726400302C302CA2
:100370004C4C20534D53206765737475757264003F
:1003800030354661696C656420746F207265616404
:100390002066726F6D204448542073656E736F72CF
:1003A00021230030344661696C656420746F2072CB
:1003B0006561642066726F6D204448542073656ED9
:1003C000736F722123003037636F756C646E742015
:1003D0006372656174652066696C6523003036431D
:1003E000617264206661696C65642C206F72206E96
:1003F0006F742070726573656E74230030366361AC
:10040000726420696E697469616C697A656423003D
:10041000302C302C42657374616E642061616E67AC
:10042000656D61616B74007C3C3E5E2B3D3F2F5BD4
:100430005D3B2C2A225C001F1C1F1E1F1E1F1F1E3F
:100440001F1E1F00000A0B02090C0D0E08070304F3
:10045000010000000000000000000000000000009B
:10046000000000000000000000000000000000127A
:10047000111000000000000000000000000000005B
:100480000000000000000000000102102020080809
:1004900010204010204080020102010804020101E6
:1004A00002040810204080804020100804020180CF
:1004B0000402018040201008040201080402010126
:1004C000020408102040800102040810204080052A
:1004D000050505070508080808020202020A0A08BD
:1004E00008040404040101010101010101030303E3
:1004F0000303030303040707070C0C0C0C0C0C0C80
:100500000C0202020206060606060606060B0B0B86
:100510000B0B0B0B0B000020002300260029002CE6
:10052000002F003200000100000301060109010054
:10053000002200250028002B002E0031003400028C
:10054000010000050108010B010000210024002723
:10055000002A002D003000330001010000040107D3
:10056000010A0100407A10F35A00A0724E180900E7
:1005700010A5D4E80000E87648170000E40B540208
:100580000000CA9A3B000000E1F505000080969843
:1005900000000040420F000000A086010000001093
:1005A0002700000000E803000000006400000000D5
:1005B000000A00000000000100000000002C76D8B6
:1005C00088DC674F0823DFC1DFAE59E1B1B796E59C
:1005D000E3E453C63AE651997696E8E6C28426EB00
:1005E000898C9B62ED407C6FFCEFBC9C9F40F2BA13
:1005F000A56FA5F490055A2AF75C936B6CF9676DAB
:10060000C11BFCE0E40D47FEF520E6B500D0ED90FF
:100610002E0300943577050080841E080000204ECC
:100620000A000000C80C333333330F986E12831165
:1006300041EF8D2114893BE65516CFFEE6DB18D13C
:10064000844B381BF77C1D901DA4BBE4242032840E
:10065000725E228100C9F124ECA1E53D2700261B32
:100660005B21A1244B38633E103FBD3F871B112403
:100670001FBECFEFD1E2DEBFCDBF00E00CBF15E063
:10068000A0E0B2E0E0EBFCE900E00BBF02C00790A5
:100690000D92A03AB107D9F72BE0A0EAB5E001C06E
:1006A0001D92AF39B207E1F716E0CCE6D6E000E0E4
:1006B00006C022970109FE010BBF0E949748CE3564
:1006C000D10780E00807A9F70E9401400C94464E2C
:1006D0000C940000EF92FF920F931F93CF93DF9340
:1006E00000D000D0CDB7DEB77C018B01CE010196E2
:1006F0000E94FF322A8180E2289F900111248B8181
:10070000282B498150E04C5E5F4F542F4427550FF2
:10071000242B352BF701318320838D81F0E28F9FCD
:10072000C00111242C8130E0322F2227330F330FE8
:10073000330F822B932B2E8130E035952795822B1A
:10074000932BF8019183808326960FB6F894DEBF31
:100750000FBECDBFDF91CF911F910F91FF90EF9012
:10076000089583FF02C098E201C098E08770892B4A
:1007700028E130E00FB6F894A895209360000FBEF2
:1007800080936000FFCFCF92DF92EF92FF920F93A2
:100790001F93CF93DF93CDB7DEB72C970FB6F894A6
:1007A000DEBF0FBECDBF8C017B016A0162E975E03F
:1007B0000E941C42CE14DF0444F1C7010E94CA4BC0
:1007C000682F70E0605371094AE0CE0107960E94DD
:1007D000F242B801CE0101960E947F42BE01695FDC
:1007E0007F4FCE0101960E94A343BC01C8010E9425
:1007F0006842CE0101960E94AE41CE0107960E944A
:10080000AE418FEFE81AF80AD5CFC8012C960FB683
:10081000F894DEBF0FBECDBFDF91CF911F910F9136
:10082000FF90EF90DF90CF9008951F93CF93DF93C9
:10083000CDB7DEB768970FB6F894DEBF0FBECDBF59
:10084000182F62E975E0CE0143960E941C421033D6
:1008500019F463E272E002C067E272E0CE014396EF
:100860000E949442BE016D5E7F4FCE0107960E94AA
:100870007F426AE272E0CE0101960E941C42BE01F4
:10088000695F7F4FCE0101960E94A3436FE574E03C
:100890000E94B643BC01CE010D960E947F42CE015C
:1008A00001960E94AE41CE0107960E94AE41BE0164
:1008B000635F7F4F8EEF9AE00E94714060910A0261
:1008C00080E090E00E94D24BCE010D960E94AE4196
:1008D000CE0143960E94AE4168960FB6F894DEBFF3
:1008E0000FBECDBFDF91CF911F910895CF93DF93BE
:1008F000CDB7DEB72C970FB6F894DEBF0FBECDBFD5
:1009000061E172E0CE0107960E941C428091570679
:10091000882319F06CEF73E002C06DED73E08EEF89
:100920009AE00E944E4064E170E080E090E00E9416
:10093000DF3A80915606882311F16DE272E0CE0114
:1009400001960E941C42BE01695F7F4FCE01019655
:100950000E94A3436FE574E00E94B643BC01CE0140
:1009600007960E946842CE0101960E94AE41BE01E8
:10097000695F7F4F8EEF9AE00E94714006C066EC7F
:1009800073E08EEF9AE00E944E4064E170E080E0F8
:1009900090E00E94DF3ACE0107960E94AE412C966D
:1009A0000FB6F894DEBF0FBECDBFDF91CF91089593
:1009B0008091A005882319F060E372E002C065E32E
:1009C00072E08EEF9AE00E947F4064E170E080E088
:1009D00090E00C94DF3ACF93DF93CDB7DEB72C973E
:1009E0000FB6F894DEBF0FBECDBF62E975E0CE0151
:1009F00007960E941C426AE372E0CE0101960E94B3
:100A00001C4269E176E0CE0101960E94A3436FE5A6
:100A100074E00E94B643BC01CE0107960E94684272
:100A2000CE0101960E94AE4160913106709132066E
:100A300080913306909134069B01AC010E940447DB
:100A4000882339F063EA73E08EEF9AE00E944E400B
:100A500007C0BE01695F7F4F8EEF9AE00E94714030
:100A600064E170E080E090E00E94DF3A6DE372E0C4
:100A7000CE0101960E941C4263E176E0CE01019610
:100A80000E94A3436FE574E00E94B643BC01CE010F
:100A900007960E946842CE0101960E94AE41609185
:100AA0002D0670912E0680912F06909130069B01A5
:100AB000AC010E940447882339F060E873E08EEFB0
:100AC0009AE00E944E4007C0BE01695F7F4F8EEFE3
:100AD0009AE00E94714064E170E080E090E00E9442
:100AE000DF3ACE0107960E94AE412C960FB6F894DD
:100AF000DEBF0FBECDBFDF91CF910895CF93DF93BF
:100B0000CDB7DEB72C970FB6F894DEBF0FBECDBFC2
:100B100062E975E0CE0107960E941C4260E472E033
:100B2000CE0101960E941C4265E076E0CE0101965E
:100B30000E94A3436FE574E00E94B643BC01CE015E
:100B400007960E946842CE0101960E94AE41BE0106
:100B5000695F7F4F8EEF9AE00E94714064E170E020
:100B600080E090E00E94DF3ACE0107960E94AE41FD
:100B70002C960FB6F894DEBF0FBECDBFDF91CF919C
:100B80000895CF93DF93CDB7DEB762970FB6F89491
:100B9000DEBF0FBECDBF62E975E0CE010D960E94AB
:100BA0001C426091D0057091D1054AE0CE010796B4
:100BB0000E94F24263E472E0CE0101960E941C4260
:100BC000BE01695F7F4FCE0101960E94A3436FE58E
:100BD00074E00E94B643BC01CE010D960E946842AB
:100BE000CE0101960E94AE41CE0107960E94AE4111
:100BF000BE01635F7F4F8EEF9AE00E94714064E117
:100C000070E080E090E00E94DF3A6091CE05709144
:100C1000CF054AE0CE0107960E94F24266E472E0F8
:100C2000CE0101960E941C42BE01695F7F4FCE013A
:100C300001960E94A3436FE574E00E94B643BC0195
:100C4000CE010D960E946842CE0101960E94AE41EF
:100C5000CE0107960E94AE41BE01635F7F4F8EEFCB
:100C60009AE00E94714064E170E080E090E00E94B0
:100C7000DF3A6091CC057091CD054AE0CE01079630
:100C80000E94F24269E472E0CE0101960E941C4289
:100C9000BE01695F7F4FCE0101960E94A3436FE5BD
:100CA00074E00E94B643BC01CE010D960E946842DA
:100CB000CE0101960E94AE41CE0107960E94AE4140
:100CC000BE01635F7F4F8EEF9AE00E94714064E146
:100CD00070E080E090E00E94DF3ACE010D960E9425
:100CE000AE4162960FB6F894DEBF0FBECDBFDF9166
:100CF000CF910895CF93DF93CDB7DEB762970FB64C
:100D0000F894DEBF0FBECDBF62E975E0CE010D964F
:100D10000E941C426091CA057091CB054AE0CE0149
:100D200007960E94F2426CE472E0CE0101960E94A6
:100D30001C42BE01695F7F4FCE0101960E94A34312
:100D40006FE574E00E94B643BC01CE010D960E948F
:100D50006842CE0101960E94AE41CE0107960E94E4
:100D6000AE41BE01635F7F4F8EEF9AE00E947140FB
:100D700064E170E080E090E00E94DF3A6091C80595
:100D80007091C9054AE0CE0107960E94F2426FE4D5
:100D900072E0CE0101960E941C42BE01695F7F4F46
:100DA000CE0101960E94A3436FE574E00E94B64312
:100DB000BC01CE010D960E946842CE0101960E94B0
:100DC000AE41CE0107960E94AE41BE01635F7F4FE8
:100DD0008EEF9AE00E94714064E170E080E090E064
:100DE0000E94DF3A6091C6057091C7054AE0CE01C6
:100DF00007960E94F24262E572E0CE0101960E94DF
:100E00001C42BE01695F7F4FCE0101960E94A34341
:100E10006FE574E00E94B643BC01CE010D960E94BE
:100E20006842CE0101960E94AE41CE0107960E9413
:100E3000AE41BE01635F7F4F8EEF9AE00E9471402A
:100E400064E170E080E090E00E94DF3ACE010D9610
:100E50000E94AE4162960FB6F894DEBF0FBECDBFC2
:100E6000DF91CF910895CF93DF93CDB7DEB762972F
:100E70000FB6F894DEBF0FBECDBF62E975E0CE01BC
:100E80000D960E941C428091BA05882319F065E5F1
:100E900072E010C02091D0053091D1058091B50548
:100EA0009091B605281739071CF462E672E002C07B
:100EB00068E672E0CE010D960E949442BE01635F27
:100EC0007F4FCE0107960E947F426CE672E0CE0112
:100ED00001960E941C42BE01695F7F4FCE010196C0
:100EE0000E94A3436FE574E00E94B643BC01CE01AB
:100EF0000D960E946842CE0101960E94AE41CE013D
:100F000007960E94AE41BE01635F7F4F8EEF9AE06D
:100F10000E94714064E170E080E090E00E94DF3A5E
:100F20008091B905882319F065E572E010C0209121
:100F3000CE053091CF058091B3059091B405281767
:100F400039071CF462E672E002C068E672E0CE0186
:100F50000D960E949442BE01635F7F4FCE010796BB
:100F60000E947F426FE672E0CE0101960E941C4211
:100F7000BE01695F7F4FCE0101960E94A3436FE5DA
:100F800074E00E94B643BC01CE010D960E946842F7
:100F9000CE0101960E94AE41CE0107960E94AE415D
:100FA000BE01635F7F4F8EEF9AE00E94714064E163
:100FB00070E080E090E00E94DF3A8091B8058823DD
:100FC00019F065E572E010C02091CC053091CD0597
:100FD0008091B1059091B205281739071CF462E69B
:100FE00072E002C068E672E0CE010D960E94944263
:100FF000BE01635F7F4FCE0107960E947F4262E78A
:1010000072E0CE0101960E941C42BE01695F7F4FD3
:10101000CE0101960E94A3436FE574E00E94B6439F
:10102000BC01CE010D960E946842CE0101960E943D
:10103000AE41CE0107960E94AE41BE01635F7F4F75
:101040008EEF9AE00E94714064E170E080E090E0F1
:101050000E94DF3ACE010D960E94AE4162960FB615
:10106000F894DEBF0FBECDBFDF91CF910895EF9210
:10107000FF920F931F93CF93DF93CDB7DEB72C97DB
:101080000FB6F894DEBF0FBECDBF7C0165E772E0FE
:10109000CE0101960E941C42B701CE0101960E942A
:1010A000A3436FE574E00E94B643BC01CE010796EE
:1010B0000E947F42CE0101960E94AE41BE01695F4F
:1010C0007F4F8EEF9AE00E94714064E170E080E013
:1010D00090E00E94DF3A01E010E0B8016150710930
:1010E000C7010E940044682FC8010E94D24B0F5FC5
:1010F0001F4F0B30110589F7CE0107960E94AE41B4
:101100002C960FB6F894DEBF0FBECDBFDF91CF9106
:101110001F910F91FF90EF900895CF92DF92EF9281
:10112000FF920F931F93CF93DF938C017B016A0192
:10113000EC01EC16FD0664F0BE01601B710BC601EC
:101140000E940044682FCE010E94D24B2196F1CF1D
:10115000DF91CF911F910F91FF90EF90DF90CF9093
:101160000895CF93DF93CDB7DEB7E6970FB6F89427
:10117000DEBF0FBECDBF8091390690913A0668EE72
:1011800073E00E9441484AE0CE0101960E94F2427B
:1011900060910C0270910D024AE0CE0107960E9408
:1011A000F2426091A7057091A8054AE0CE010D9624
:1011B0000E94F2426091AD057091AE058091AF053D
:1011C0009091B00528EE33E040E050E00E94554891
:1011D000BA01A9012AE0CE0143960E944A436091D8
:1011E000B1057091B2054AE0CE0149960E94F242E3
:1011F0006091B3057091B4054AE0CE014F960E940C
:10120000F2426091B5057091B6054AE0CE018B9629
:101210000E94F24268E772E0CE0185960E941C426D
:10122000BE01655D7F4FCE0185960E94A3436BE7AB
:1012300072E00E94B643BE01615E7F4F0E94A343ED
:101240006BE772E00E94B643BE01675E7F4F0E946B
:10125000A3436BE772E00E94B643BE016D5E7F4F11
:101260000E94A3436BE772E00E94B643BE01635F36
:101270007F4F0E94A3436BE772E00E94B643BE011A
:10128000695F7F4F0E94A3436BE772E00E94B64301
:10129000BE016F5F7F4F0E94A3436FE574E00E9421
:1012A000B643BC01CE01C1960E947F42CE01859615
:1012B0000E94AE41CE018B960E94AE41CE014F9668
:1012C0000E94AE41CE0149960E94AE41CE014396A6
:1012D0000E94AE41CE010D960E94AE41CE0107960E
:1012E0000E94AE41CE0101960E94AE41BE016F5CEC
:1012F0007F4F8EEF9AE00E94714064E170E080E0E1
:1013000090E00E94DF3ACE01C1960E94AE41E6967F
:101310000FB6F894DEBF0FBECDBFDF91CF91089519
:101320004F925F926F927F928F929F92AF92BF92F5
:10133000CF92DF92EF92FF92CF93DF93CDB7DEB7DC
:10134000E0970FB6F894DEBF0FBECDBF5C016BE730
:1013500072E0CE0101960E941C42BE016F5F7F4F7A
:10136000C5010E9448447C01CE0101960E94AE4115
:10137000970140E050E0B501CE018B960E944C44AD
:10138000CE018B960E9491447093B6056093B5058B
:10139000BE01655D7F4FCE0101960E947F42AE0186
:1013A0004F5F5F4F6EE070E08BE090E00E948D0831
:1013B000CE0101960E94AE416DE772E084EC99E0A7
:1013C0000E947F406091B5057091B6054AE050E0FB
:1013D00084EC99E00E9477418FEFE81AF80A6BE7F6
:1013E00072E0CE0101960E941C42A701BE016F5F10
:1013F0007F4FC5010E942C446C01CE0101960E94D2
:10140000AE419601A701B501CE0185960E944C44DC
:10141000CE0185960E9491447093B4056093B30504
:10142000BE016B5D7F4FCE0101960E947F42AE01EF
:101430004F5F5F4F62E170E08FE090E00E948D08A7
:10144000CE0101960E94AE416BE872E084EC99E017
:101450000E947F406091B3057091B4054AE050E06E
:1014600084EC99E00E9477418FEFC81AD80A6BE7A5
:1014700072E0CE0101960E941C42A601BE016F5F80
:101480007F4FC5010E942C447C01CE0101960E9431
:10149000AE419701A601B501CE014F960E944C4482
:1014A000CE014F960E9491447093B2056093B105AE
:1014B000BE01615E7F4FCE0101960E947F42AE0168
:1014C0004F5F5F4F66E170E083E190E00E948D081E
:1014D000CE0101960E94AE4169E972E084EC99E088
:1014E0000E947F406091B1057091B2054AE050E0E2
:1014F00084EC99E00E9477418FEFE81AF80A6BE7D5
:1015000072E0CE0101960E941C42A701BE016F5FEE
:101510007F4FC5010E942C443C01CE0101960E94E0
:10152000AE419301A701B501CE0149960E944C44FA
:10153000CE0149960E9491446B017C01BE01675E19
:101540007F4FCE0101960E947F42AE014F5F5F4FF9
:101550006AE170E087E190E00E948D08CE0101967B
:101560000E94AE4167EA72E084EC99E00E947F40FD
:101570004AE050E0B60184EC99E00E9477418FEF99
:10158000681A780A6BE772E0CE0101960E941C424D
:10159000A301BE016F5F7F4FC5010E942C444C0127
:1015A000CE0101960E94AE419401A301B501CE0186
:1015B00043960E944C44CE0143960E9491447093FE
:1015C000A8056093A705BE016D5E7F4FCE01019611
:1015D0000E947F42AE014F5F5F4F6EE170E08BE192
:1015E00090E00E948D08CE0101960E94AE4166EB0C
:1015F00072E084EC99E00E947F406091A7057091B1
:10160000A8054AE050E084EC99E00E94774134015B
:101610008FEF681A780A6BE772E0CE0101960E949C
:101620001C42A301BE016F5F7F4FC5010E942C4485
:101630004C01CE0101960E94AE419401A301B50177
:10164000CE010D960E944C44CE010D960E9491440D
:101650002B013C01BE01635F7F4FCE0101960E94CA
:101660007F42AE014F5F5F4F62E270E08FE190E03A
:101670000E948D08CE0101960E94AE4167EC72E097
:1016800084EC99E00E947F404AE050E0B20184EC93
:1016900099E00E9477418FEF881A980A6BE772E011
:1016A000CE0101960E941C42A401BE016F5F7F4FD4
:1016B000C5010E942C443C01CE0101960E94AE411E
:1016C0009301A401B501CE0107960E944C44CE01BE
:1016D00007960E9491444B015C01BE01695F7F4FF8
:1016E000CE0101960E947F42AE014F5F5F4F66E2DE
:1016F00070E083E290E00E948D08CE0101960E9486
:10170000AE4166ED72E084EC99E00E947F404AE0D1
:1017100050E0B40184EC99E00E94774128EE33E078
:101720002C9DC0012D9D900D3C9D900D1124AA274C
:1017300097FDA095BA2F8093AD059093AE05A09329
:10174000AF05B093B005289DC001299D900D389D2F
:10175000900D112490933A06809339060E94B108A7
:10176000CE0107960E94AE41CE010D960E94AE4179
:10177000CE0143960E94AE41CE0149960E94AE41F1
:10178000CE014F960E94AE41CE0185960E94AE4199
:10179000CE018B960E94AE41E0960FB6F894DEBF64
:1017A0000FBECDBFDF91CF91FF90EF90DF90CF9034
:1017B000BF90AF909F908F907F906F905F904F9071
:1017C00008959F92AF92BF92CF92DF92EF92FF92D5
:1017D0000F931F93CF93DF93CDB7DEB7E6970FB686
:1017E000F894DEBF0FBECDBF8C017B0168EE72E0C6
:1017F0008EEF9AE00E947F406CE5C62E65E0D62E03
:101800007DE0972E57018FEFA81AB80A41E0B80182
:10181000CE014C960E94DD20CE014C960E94121EF5
:10182000882311F020E021C06BEE72E084EC99E097
:101830000E94B0406FE574E08EEF9AE00E947F4016
:10184000C8010E944721E6960FB6F894DEBF0FBE8E
:10185000CDBFDF91CF911F910F91FF90EF90DF905F
:10186000CF90BF90AF909F900895822F90E08E15FB
:101870009F0514F42F5FF9CFCE014C960E94A21D54
:10188000BC018EEF9AE00E947F40CE014C960E94F0
:10189000A41D882349F18E8D9F8D9C838B8388A105
:1018A00099A1AAA1BBA18D839E83AF83B8878CA188
:1018B0009DA1AEA1BFA189879A87AB87BC87DA8239
:1018C000C982FE01B896DE011D96892D01900D9208
:1018D0008A95E1F78DA99EA99B8F8A8FB501CE01CC
:1018E00001960E94E10B18C069E872E08EEF9AE061
:1018F0000E947F40CE014C960E94C11DAB01BC01ED
:101900002AE030E08EEF9AE00E948F416AEF72E0A9
:101910008EEF9AE00E947F40CE014C960E94001EFE
:1019200075CFCF93DF93CDB7DEB7E6970FB6F894B8
:10193000DEBF0FBECDBFCE014C960E948F1D21E0B1
:101940004CEF52E062EA76E0CE0101960E94392027
:101950008B819C819F8F8E8F8D819E81AF81B88579
:1019600088A399A3AAA3BBA389859A85AB85BC85C7
:101970008CA39DA3AEA3BFA38DE0FE013D96DE0127
:10198000989601900D928A95E1F78A8D9B8D9EAB7A
:101990008DABCE014C960E9447218E8D9F8D9C83EE
:1019A0008B8388A199A1AAA1BBA18D839E83AF83BC
:1019B000B8878CA19DA1AEA1BFA189879A87AB876B
:1019C000BC878CE595E09A8389838DE0FE01B8960B
:1019D000DE011D9601900D928A95E1F78DA99EA9D1
:1019E0009B8F8A8F60E070E0CE0101960E94E10B30
:1019F000E6960FB6F894DEBF0FBECDBFDF91CF9154
:101A00000895AF92BF92CF92DF92EF92FF920F9321
:101A10001F93CF93DF93CDB7DEB76B970FB6F894D4
:101A2000DEBF0FBECDBF6C01ADB6BEB6FC010481FA
:101A300015810F5F1F4F6EEF72E084EC99E00E94FA
:101A40007F40B60184EC99E00E949E408DB79EB71E
:101A5000801B910B0FB6F8949EBF0FBE8DBFEDB7E4
:101A6000FEB731967F0120E030E0A801BF01C6013A
:101A70000E94024421E0A70162EA76E0CE010196CD
:101A80000E943920CE0101960E94121E8823E1F1A6
:101A9000CE0101960E94D11D892BF9F068E073E018
:101AA0008EEF9AE00E947F40CE0101960E94211D98
:101AB0008A3061F0E091FE0AF091FF0A0190F08116
:101AC000E02D682F8EEF9AE01995EECF6FE574E068
:101AD0008EEF9AE00E947F40DBCFCE0101960E94FC
:101AE000001E68E073E08EEF9AE00E947F406BE09A
:101AF00073E08EEF9AE00E947F406FE574E08EEF16
:101B00009AE00E947F4019C061E173E084EC99E0A3
:101B10000E947F406701C6018E199F0980179107B7
:101B200044F4F60161916F0184EC99E00E948140D8
:101B3000F2CF84EC99E00E9488400FB6F894BEBEC4
:101B40000FBEADBE6B960FB6F894DEBF0FBECDBF15
:101B5000DF91CF911F910F91FF90EF90DF90CF9089
:101B6000BF90AF900895CF92DF92EF92FF920F93C4
:101B70001F93CF93DF93CDB7DEB78C01CDB6DEB622
:101B8000FC01448155814F5F5F4F8DB79EB7841B29
:101B9000950B0FB6F8949EBF0FBE8DBFEDB7FEB785
:101BA00031967F0120E030E0BF01C8010E9402446D
:101BB000B70182EA96E00E94C720882321F1B7018D
:101BC00082EA96E00E94D22060E273E084EC99E021
:101BD0000E947F40B80184EC99E00E94714067E266
:101BE00073E084EC99E00E94B04061E373E08EEF13
:101BF0009AE00E947F40B8018EEF9AE00E94714007
:101C000064E373E01EC060E273E084EC99E00E943C
:101C10007F40B80184EC99E00E9471406EE373E06C
:101C200084EC99E00E94B04061E373E08EEF9AE0AB
:101C30000E947F40B8018EEF9AE00E9471406DE4EF
:101C400073E08EEF9AE00E947F400FB6F894DEBEFC
:101C50000FBECDBEDF91CF911F910F91FF90EF90FE
:101C6000DF90CF900895CF93DF93CDB7DEB7629723
:101C70000FB6F894DEBF0FBECDBF62E975E0CE01AE
:101C80000D960E941C4260910F02709110026850E4
:101C900071094AE0CE0107960E94F2426DE573E0B9
:101CA000CE0101960E941C42BE01695F7F4FCE01AA
:101CB00001960E94A3436FE574E00E94B643BC0105
:101CC000CE010D960E946842CE0101960E94AE415F
:101CD000CE0107960E94AE41BE01635F7F4F8EEF3B
:101CE0009AE00E94714064E170E080E090E00E9420
:101CF000DF3ACE010D960E94AE4162960FB6F8947F
:101D0000DEBF0FBECDBFDF91CF910895CF93DF939C
:101D1000CDB7DEB762970FB6F894DEBF0FBECDBF6A
:101D200080913E0690913F06049711F40E94330E75
:101D300062E975E0CE010D960E941C4260913E065C
:101D400070913F064AE0CE0107960E94F24260E69B
:101D500073E0CE0101960E941C42BE01695F7F4F75
:101D6000CE0101960E94A3436FE574E00E94B64342
:101D7000BC01CE010D960E946842CE0101960E94E0
:101D8000AE41CE0107960E94AE41BE01635F7F4F18
:101D90008EEF9AE00E94714064E170E080E090E094
:101DA0000E94DF3ACE010D960E94AE4162960FB6B8
:101DB000F894DEBF0FBECDBFDF91CF9108950F9392
:101DC0001F93CF93DF93CDB7DEB76E970FB6F8941E
:101DD000DEBF0FBECDBFCE0101960E94FF3286E06E
:101DE000FE013196A0E5B6E001900D928A95E1F7EB
:101DF00000E516E04AE0F8016581CE0101960E94F7
:101E0000C5424AE0F8016481CE0107960E94C542AE
:101E10004AE0F8016381CE0143960E94C54263E621
:101E200073E0CE010D960E941C42BE016D5E7F4F95
:101E3000CE010D960E94A34366E673E00E94B6436E
:101E4000BE01695F7F4F0E94A34366E673E00E9474
:101E5000B643BE016F5F7F4F0E94A3436FE574E0FE
:101E60000E94B643BC01CE0149960E947F42CE013A
:101E70000D960E94AE41CE0143960E94AE41CE0126
:101E800007960E94AE41CE0101960E94AE41BE016E
:101E9000675E7F4F8EEF9AE00E94714064E170E0D0
:101EA00080E090E00E94DF3ACE0149960E94AE4168
:101EB0006E960FB6F894DEBF0FBECDBFDF91CF9107
:101EC0001F910F91089520913E0630913F06809119
:101ED0003C0690913D062817390751F00E94860E66
:101EE00080913E0690913F0690933D0680933C067C
:101EF0000E94EB040E947E050E94C1050E947A06A2
:101F00000E94330788E00E945C3C21E0892B09F4A1
:101F100020E02093A00580913B06281731F00E9415
:101F2000D8048091A00580933B060C94DF0E0F939C
:101F30001F93CF93DF93CDB7DEB76E970FB6F894AC
:101F4000DEBF0FBECDBFCE0101960E94FF3286E0FC
:101F5000FE013196A0E5B6E001900D928A95E1F779
:101F600000E516E0F801608170E06053784F4AE0C8
:101F7000CE0101960E941E434AE0F8016181CE0124
:101F800007960E94C5424AE0F8016281CE0143965D
:101F90000E94C54268E673E0CE010D960E941C4285
:101FA000BE016D5E7F4FCE010D960E94A34366E693
:101FB00073E00E94B643BE01695F7F4F0E94A34356
:101FC00066E673E00E94B643BE016F5F7F4F0E94DA
:101FD000A3436FE574E00E94B643BC01CE0149966D
:101FE0000E947F42CE010D960E94AE41CE014396E3
:101FF0000E94AE41CE0107960E94AE41CE010196ED
:102000000E94AE41BE01675E7F4F8EEF9AE00E9454
:10201000714064E170E080E090E00E94DF3ACE0120
:1020200049960E94AE416E960FB6F894DEBF0FBE81
:10203000CDBFDF91CF911F910F910895CF93DF9383
:1020400000D000D0CDB7DEB780910A020E941504FF
:1020500061EA75E0CE0101960E947F42CE010196B1
:102060000E943708CE0101960E94AE410E94970F50
:102070000E94D8040E94B10826960FB6F894DEBFDD
:102080000FBECDBFDF91CF910895CF93DF93C0E511
:10209000D6E0688170E06053784F4AE050E088E510
:1020A00096E00E94A3416DE288E596E00E9481409F
:1020B0004AE050E0698188E596E00E949C416DE22B
:1020C00088E596E00E9481404AE050E06A8188E518
:1020D00096E00E949C4169E872E088E596E00E94E3
:1020E0007F404AE050E06B8188E596E00E949C4189
:1020F00066E673E088E596E00E947F404AE050E0A3
:102100006C8188E596E00E949C4166E673E088E574
:1021100096E00E947F404AE050E06D8188E596E0BD
:10212000DF91CF910C949C410F931F93CF93DF933A
:1021300000D000D0CDB7DEB78C0188E596E00E94D4
:10214000121E811106C06BE673E084EC99E00E94D8
:10215000B040CE0101960E94FF3286E0FE0131962A
:10216000A0E5B6E001900D928A95E1F7B80188E507
:1021700096E00E9471406AEF72E088E596E00E9466
:102180007F400E9445106AEF72E088E596E00E9469
:102190007F4026960FB6F894DEBF0FBECDBFDF910D
:1021A000CF911F910F9108950F931F93CF93DF93BA
:1021B000CDB7DEB76B970FB6F894DEBF0FBECDBFBD
:1021C00061E089E00E94ED3B60E089E00E94263CEE
:1021D00061E08AE00E94ED3B60E08AE00E94263CDC
:1021E00088E00E945C3C21E0892B09F420E02093E8
:1021F0003B0626E040E05BE460E070E081E69AE0C8
:102200000E94973D26E040E855E260E070E084ECF3
:1022100099E00E94973D26E040E855E260E070E0DA
:102220008EEF9AE00E94973D80E496E00E941B3179
:1022300084EF95E00E94923383EE95E00E94923302
:1022400082ED95E00E94923361E085E30E94ED3BD0
:102250008AE693E09093EF068093EE0665E382EAC8
:1022600096E00E94201F882319F081E08093570692
:1022700010E00AE0812F602F0E942148805D80934A
:102280001702905D9093180261E172E082EA96E095
:102290000E94C720811137C023E141E152E062EA88
:1022A00076E0CE0101960E9439208B819C8190932B
:1022B0005B0680935A068D819E81AF81B88580939D
:1022C0005C0690935D06A0935E06B0935F068985D9
:1022D0009A85AB85BC858093600690936106A09338
:1022E0006206B09363068DE0FE013D96A4E6B6E07B
:1022F00001900D928A95E1F78A8D9B8D90937206DD
:102300008093710604C01F5F143609F0B3CF88E5CF
:1023100096E00E94121E882319F081E080935606F1
:102320008BEF98E00E94BB3783E796E00E94F9327A
:10233000811106C068E873E088E596E00E94B0402D
:1023400063E973E0CE0101960E941C42CE01019622
:102350000E949410CE0101960E94AE4160E174E0AB
:1023600088E596E00E948C4088E596E00E94021D78
:102370008EE496E00E94913420E136E042E06091E4
:1023800012068EE496E00E94D9368EE496E00E9412
:10239000A63680E090E00E94CA4B80930A0262E970
:1023A00075E081EA95E00E9494424AE050E061E0E5
:1023B00070E0CE0101960E94C303BE016F5F7F4FA4
:1023C00081EA95E00E948842CE0101960E94AE41CA
:1023D0004EE050E06BE070E0CE0101960E94C30336
:1023E000CE0101960E9491447093B6056093B505A5
:1023F000CE0101960E94AE4142E150E06FE070E0F4
:10240000CE0101960E94C303CE0101960E94914421
:102410007093B4056093B305CE0101960E94AE415E
:1024200046E150E063E170E0CE0101960E94C303F3
:10243000CE0101960E9491447093B2056093B1055C
:10244000CE0101960E94AE414AE150E067E170E0A2
:10245000CE0101960E94C303CE0101960E949144D1
:102460009B01AC01A8EEB3E00E948C486093AD05DF
:102470007093AE058093AF059093B005CE010196A1
:102480000E94AE414EE150E06BE170E0CE0101965A
:102490000E94C303CE0101960E9491447093A80547
:1024A0006093A705CE0101960E94AE4142E250E042
:1024B0006FE170E0CE0101960E94C303CE01019648
:1024C0000E949144CE0101960E94AE4146E250E046
:1024D00063E270E0CE0101960E94C303CE01019633
:1024E0000E94914448EE53E0649F9001659F300D37
:1024F000749F300D112430933A0620933906CE0193
:1025000001960E94AE410E941E106B960FB6F89481
:10251000DEBF0FBECDBFDF91CF911F910F91089508
:10252000EF92FF920F931F93CF93DF93CDB7DEB758
:1025300060970FB6F894DEBF0FBECDBF62E975E0BD
:10254000CE0107960E941C42609110067091110600
:1025500080E090E00E94DF3AAE01435F5F4FBE0132
:10256000615F7F4F8EE496E00E945636882309F41F
:1025700085C00D851E852F853889409110065091A4
:102580001106ECE0EE2EE6E0FE2E609112068EE4DF
:1025900096E00E949A3480930B0660910C0670912D
:1025A0000D0680910E0690910F060FE116E021E0D6
:1025B00045E00E949B48B80185E096E00E94944265
:1025C00080910B06882319F066E973E002C06DE97B
:1025D00073E0CE0107960E94944265E076E0CE015A
:1025E00001960E947F426AEF72E0CE0101960E943E
:1025F000B643BE01695F7F4F0E94A343BC01CE0179
:1026000007960E946842CE0101960E94AE410E9448
:10261000B03A009178061091790620917A063091AF
:102620007B06601B710B820B930B60337547810532
:10263000910540F10E94B03A609378067093790654
:1026400080937A0690937B0660E472E0CE01019657
:102650000E941C42CE0101960E949410CE01019668
:102660000E94AE41BE01695F7F4F88E596E00E94FF
:102670009E4088E596E00E94021D04C08EE496E02C
:102680000E94C035CE0107960E94AE4160960FB6FB
:10269000F894DEBF0FBECDBFDF91CF911F910F9198
:1026A000FF90EF9008950F931F93CF93DF93CDB7D3
:1026B000DEB72C970FB6F894DEBF0FBECDBF62E930
:1026C00075E0CE0107960E941C4280E496E00E94CD
:1026D0004F326093310670933206809333069093A5
:1026E00034060FE116E021E045E00E949B48B80166
:1026F00089E196E00E94944260E080E496E00E94C6
:10270000DB3160932D0670932E0680932F069093F5
:10271000300621E045E00E949B48B80183E196E045
:102720000E94944261E080E496E00E94DB31609375
:10273000290670932A0680932B0690932C0663E15A
:1027400076E0CE0101960E947F426AEF72E0CE01F0
:1027500001960E94B64369E176E00E94A343BC0162
:10276000CE0107960E946842CE0101960E94AE41BA
:102770000E94B03A00917C0610917D0620917E0661
:1027800030917F06601B710B820B930B60367A4E83
:102790008105910518F10E94B03A60937C06709310
:1027A0007D0680937E0690937F0663EA73E0CE01F8
:1027B00001960E941C42CE0101960E949410CE0107
:1027C00001960E94AE41BE01695F7F4F88E596E0A9
:1027D0000E949E4088E596E00E94021DCE01079669
:1027E0000E94AE412C960FB6F894DEBF0FBECDBF4F
:1027F000DF91CF911F910F910895CF93DF93CDB7C4
:10280000DEB72C970FB6F894DEBF0FBECDBF66EAD9
:1028100073E0CE0107960E941C42BE01695F7F4FA4
:1028200084EC99E00E949E4068EC73E0CE01019632
:102830000E941C42BE01695F7F4FCE0101960E943B
:10284000A3436FE574E00E94B643BC018EEF9AE0AB
:102850000E947140CE0101960E94AE4161E087E086
:102860000E94263C68EE73E080E090E00E94DF3A30
:1028700060E087E00E94263C68E873E180E090E039
:102880000E94DF3A6BEC73E0CE0107960E949442FF
:10289000BE01695F7F4F84EC99E00E949E4068EC26
:1028A00073E0CE0101960E941C42BE01695F7F4F1A
:1028B000CE0101960E94A3436FE574E00E94B643E7
:1028C000BC018EEF9AE00E947140CE0101960E94F9
:1028D000AE41CE0107960E94AE412C960FB6F894F9
:1028E000DEBF0FBECDBFDF91CF9108950F931F9331
:1028F000CF93DF93CDB7DEB76E970FB6F894DEBFF8
:102900000FBECDBF8C0162E975E0CE0149960E94F1
:102910001C4269EE73E0CE0149960E949442BE01CA
:10292000675E7F4F84EC99E00E949E4068EC73E004
:10293000CE0101960E941C42BE01675E7F4FCE0110
:1029400001960E94A3436FE574E00E94B643BC0168
:102950008EEF9AE00E947140CE0101960E94AE4136
:1029600066EF73E0CE0143960E941C4268EF73E06D
:10297000CE010D960E941C42BE01635F7F4FCE01C7
:1029800001960E947F42BE016D5E7F4FCE0101968F
:102990000E94A34361EA75E00E94A343BE016D5EFD
:1029A0007F4F0E94A343BC01CE0107960E947F4245
:1029B000CE0101960E94AE4165E074E081E69AE0A6
:1029C0000E947F4064E670E080E090E00E94DF3A81
:1029D000BE01695F7F4F81E69AE00E949E4064E6F7
:1029E00070E080E090E00E94DF3A63E673E0C801A7
:1029F0000E94D043882361F06CE976E081E69AE09A
:102A00000E949E406CE976E084EC99E00E949E4032
:102A10006AE272E0C8010E94D043882361F066E94F
:102A200076E081E69AE00E949E4066E976E084ECDA
:102A300099E00E949E4068EE72E0C8010E94D04377
:102A4000882361F060E976E081E69AE00E949E408A
:102A500060E976E084EC99E00E949E4068E073E0D3
:102A6000C8010E94D043882361F06AE876E081E6DD
:102A70009AE00E949E406AE876E084EC99E00E9429
:102A80009E4061E373E0C8010E94D043882361F057
:102A900064E876E081E69AE00E949E4064E876E091
:102AA00084EC99E00E949E4064E670E080E090E053
:102AB0000E94DF3A6AE181E69AE00E94C24064E641
:102AC00070E080E090E00E94DF3A81E69AE00E94A8
:102AD000884068E873E180E090E00E94DF3A60E1BE
:102AE00074E084EC99E00E947F40BE01695F7F4FF3
:102AF00084EC99E00E949E40CE0107960E94AE4170
:102B0000CE010D960E94AE41CE0143960E94AE4189
:102B1000CE0149960E94AE416E960FB6F894DEBF84
:102B20000FBECDBFDF91CF911F910F9108950F93ED
:102B30001F93CF93DF93CDB7DEB72C970FB6F894E2
:102B4000DEBF0FBECDBF8C016EE174E0CE010796F3
:102B50000E941C4280910A02813309F004C168EC92
:102B600073E0CE0101960E941C42BE01695F7F4F57
:102B7000CE0101960E94A3436FE574E00E94B64324
:102B8000BC018EEF9AE00E947140CE0101960E9436
:102B9000AE4163E673E0C8010E94D0438823C9F0C8
:102BA00069E374E0CE0101960E941C426CE976E074
:102BB000CE0101960E94A3436FE574E00E94B643E4
:102BC000BC018EEF9AE00E947140CE0101960E94F6
:102BD000AE416AE272E0C8010E94D0438823C9F086
:102BE00069E374E0CE0101960E941C4266E976E03A
:102BF000CE0101960E94A3436FE574E00E94B643A4
:102C0000BC018EEF9AE00E947140CE0101960E94B5
:102C1000AE4168EE72E0C8010E94D0438823C9F03B
:102C200069E374E0CE0101960E941C4260E976E0FF
:102C3000CE0101960E94A3436FE574E00E94B64363
:102C4000BC018EEF9AE00E947140CE0101960E9475
:102C5000AE4168E073E0C8010E94D0438823C9F008
:102C600069E374E0CE0101960E941C426AE876E0B6
:102C7000CE0101960E94A3436FE574E00E94B64323
:102C8000BC018EEF9AE00E947140CE0101960E9435
:102C9000AE4161E373E0C8010E94D0438823C9F0CC
:102CA00069E374E0CE0101960E941C4264E876E07C
:102CB000CE0101960E94A3436FE574E00E94B643E3
:102CC000BC018EEF9AE00E947140CE0101960E94F5
:102CD000AE410E94FD136CE374E0CE0107960E94A2
:102CE0009442BE01695F7F4F84EC99E00E949E4050
:102CF00068EC73E0CE0101960E941C42BE01695F40
:102D00007F4FCE0101960E94A3436FE574E00E94BD
:102D1000B643BC018EEF9AE00E947140CE0101964D
:102D20000E94AE4160E177E280E090E00E94DF3AED
:102D3000B801CE0101960E947F42CE0101960E9409
:102D40007614CE0101960E94AE410E94FD136CE5FF
:102D500074E08EEF9AE00E947F4061E674E08EEFAF
:102D60009AE00E947F40B801CE0101960E947F4206
:102D7000CE0101960E949410CE0101960E94AE41B0
:102D800063E673E0C8010E94D043882331F06CE60B
:102D900073E088E596E00E948C406AE272E0C80128
:102DA0000E94D043882369F080910A02813319F48C
:102DB00060E573E002C06FE273E088E596E00E9490
:102DC0008C4068EE72E0C8010E94D043882369F00D
:102DD00080910A02813319F463E173E002C062EF6B
:102DE00072E088E596E00E948C4068E073E0C801DC
:102DF0000E94D043882331F065ED72E088E596E0CB
:102E00000E948C4061E373E0C8010E94D043882394
:102E100069F080910A02813319F460EB72E002C01C
:102E200066E872E088E596E00E948C4088E596E0CE
:102E30000E94021DCE0107960E94AE412C960FB64D
:102E4000F894DEBF0FBECDBFDF91CF911F910F91E0
:102E50000895CF93DF9300D000D0CDB7DEB7809137
:102E600053068C3091F48091540681110EC068E0B5
:102E700073E0CE0101960E941C42CE0101960E9491
:102E80009715CE0101960E94AE4126960FB6F89492
:102E9000DEBF0FBECDBFDF91CF9108950F931F937B
:102EA000CF93DF9300D000D0CDB7DEB7E0913E06E0
:102EB000F0913F06E830F10508F0A6C0EE58FF4F4C
:102EC0000C94774889E090E09093100280930F0271
:102ED00042C060E080910F020E94263C80910E0269
:102EE000811192C08BC061E080910F020E94263C4C
:102EF0000E94B03A6093A9057093AA058093AB0530
:102F00009093AC0583E090E01DC00E94B03A009120
:102F1000A9051091AA052091AB053091AC05601B65
:102F2000710B820B930B0091AD051091AE052091B2
:102F3000AF053091B005061717072807390730F499
:102F400084E090E090933F0680933E0680910E02CD
:102F5000882309F459C081E090E052C080910E02AC
:102F6000882331F081E090E090933F0680933E0605
:102F700080910B02882309F447C085E090E040C0AF
:102F800060E080910F020E94263C1092350610925C
:102F90003606109237061092380686E090E030C070
:102FA00080910F0290911002099749F48AE090E015
:102FB0009093100280930F0287E090E021C068EEAA
:102FC00072E0CE0101960E941C42CE0101960E9441
:102FD0009715CE0101960E94AE4188E090E010C0A6
:102FE0006AE272E0CE0101960E941C42CE01019677
:102FF0000E949715CE0101960E94AE4182E090E0BA
:1030000090933F0680933E0626960FB6F894DEBF57
:103010000FBECDBFDF91CF911F910F9108950F93F8
:103020001F93CF93DF9300D000D0CDB7DEB70E94BF
:10303000B03A009174061091750620917606309191
:103040007706601B710B820B930B00918006109129
:1030500081062091820630918306061717072807FC
:10306000390720F50E94B03A609374067093750694
:10307000809376069093770680E497E7ABE1B0E023
:103080008093800690938106A0938206B093830676
:1030900063E673E0CE0101960E941C42CE010196C8
:1030A0000E949715CE0101960E94AE4126960FB65A
:1030B000F894DEBF0FBECDBFDF91CF911F910F916E
:1030C00008950F931F9380910E028823C9F188E021
:1030D0000E945C3C019749F4109235061092360626
:1030E000109237061092380669C08091350690918B
:1030F0003606A0913706B0913806892B8A2B8B2B88
:1031000081F10E94B03A0091350610913606209167
:10311000370630913806601B710B820B930B0091C0
:10312000390610913A06222717FD2095322F0617EF
:1031300017072807390708F041C010920E023EC059
:1031400088E00E945C3C892B39F280913506909191
:103150003606A0913706B0913806892B8A2B8B2B27
:1031600059F40E94B03A6093350670933606809306
:1031700037069093380622C00E94B03A0091350677
:10318000109136062091370630913806601B710B7E
:10319000820B930B0091390610913A06222717FDF6
:1031A0002095322F061717072807390738F481E0D2
:1031B00080930E021F910F910C940F181F910F9185
:1031C00008958F929F92AF92BF92CF92DF92EF922B
:1031D000FF920F931F93CF93DF9300D000D0CDB712
:1031E000DEB76C017B018A010E94B03A80907806BC
:1031F00090907906A0907A06B0907B0668197909BC
:103200008A099B09603C77428940910508F44DC0CA
:103210000E94B03A609378067093790680937A069C
:1032200090937B066AE372E0CE0101960E941C42F5
:10323000CE0101960E949410CE0101960E94AE41EB
:103240004AE050E0B60188E596E00E9477416DE3E0
:1032500072E0CE0101960E941C42CE0101960E94AE
:103260009410CE0101960E94AE414AE050E0B701B1
:1032700088E596E00E94774166E674E0CE0101960B
:103280000E941C42CE0101960E949410CE0101962C
:103290000E94AE414AE050E0B80188E596E00E9405
:1032A000774188E596E00E94021D26960FB6F894B5
:1032B000DEBF0FBECDBFDF91CF911F910F91FF9069
:1032C000EF90DF90CF90BF90AF909F908F90089538
:1032D000CF93DF9300D000D0CDB7DEB780E00E945F
:1032E000743B9093D1058093D00581E00E94743B9C
:1032F0009093CF058093CE0582E00E94743B90931B
:10330000CD058093CC0564E670E080E090E00E94FB
:10331000DF3A4091CC055091CD056091CE0570917A
:10332000CF058091D0059091D1050E94E118609160
:10333000D0057091D105882777FD8095982F0E9440
:10334000A145AB01BC0184EF95E00E94CC336091B4
:10335000CE057091CF05882777FD8095982F0E9424
:10336000A145AB01BC0183EE95E00E94CC33609196
:10337000CC057091CD05882777FD8095982F0E9408
:10338000A145AB01BC0182ED95E00E94CC3384EFF6
:1033900095E00E9449340E946E457093CB0560937E
:1033A000CA0583EE95E00E9449340E946E457093F1
:1033B000C9056093C80582ED95E00E9449340E94DA
:1033C0006E457093C7056093C6058091BA0581115B
:1033D00012C02091D0053091D1058091B505909112
:1033E000B605821793071CF410920B0241C081E0CE
:1033F00080930B023DC08091B905811109C02091D5
:10340000CE053091CF058091B3059091B405E9CFF9
:103410008091B805811109C02091CC053091CD056E
:103420008091B1059091B205DCCF88E090E0909357
:103430003F0680933E068091B705811111C060E47C
:1034400072E0CE0101960E941C42CE0101960E94BC
:103450009715CE0101960E94AE4181E08093B70599
:1034600060E089E00E94263C61E08AE00E94263C00
:1034700026960FB6F894DEBF0FBECDBFDF91CF9179
:10348000089580913E0690913F06049709F0DDC0B3
:103490008091C4059091C50501969093C5058093D0
:1034A000C4054091D0055091D1052091CA053091B5
:1034B000CB05421B530B2091A7053091A805662729
:1034C0007727621B730BF091BD05461757077CF4F5
:1034D000FF2369F04091C2055091C3054F5F5F4FD4
:1034E0005093C3054093C2051092BD0512C0241726
:1034F00035077CF4E1E0FE1761F04091C205509180
:10350000C3054F5F5F4F5093C3054093C205E093DF
:10351000BD054091CE055091CF05E091C805F091D1
:10352000C9054E1B5F0BF091BC05461757077CF48D
:10353000FF2369F04091C0055091C1054F5F5F4F77
:103540005093C1054093C0051092BC0512C02417CA
:1035500035077CF4E1E0FE1761F04091C005509121
:10356000C1054F5F5F4F5093C1054093C005E09385
:10357000BC054091CC055091CD05E091C605F09178
:10358000C7054E1B5F0BE091BB05461757077CF440
:10359000EE2369F02091BE053091BF052F5F3F4FAC
:1035A0003093BF052093BE051092BB0512C02417AF
:1035B00035077CF441E0E41761F02091BE053091BD
:1035C000BF052F5F3F4F3093BF052093BE0540934B
:1035D000BB0585319105CCF1959587952091C20564
:1035E0003091C3058217930724F421E02093BA0594
:1035F00002C01092BA052091C0053091C105821712
:10360000930724F421E02093B90502C01092B90574
:103610002091BE053091BF058217930724F481E005
:103620008093B80502C01092B8051092C50510929B
:10363000C4051092C3051092C2051092C1051092E4
:10364000C0051092BF051092BE050895CF93DF9379
:1036500069E674E08CE996E00E941C4267E974E038
:1036600086E996E00E941C4265EC74E080E996E0F1
:103670000E941C4263EF74E08AE896E00E941C42BC
:1036800060E175E084E896E00E941C4288E596E0DF
:103690000E948F1D40E050E0BA0180E596E00E9454
:1036A0009B328EE496E00E94903426E046E162E090
:1036B00080E496E00E94143162E975E089E196E0C9
:1036C0000E941C4262E975E083E196E00E941C4280
:1036D00062E975E085E096E00E941C42CCE0D2E011
:1036E000688184EF95E00E94B833688183EE95E0AD
:1036F0000E94B833688182ED95E00E94B83362E998
:1037000075E081EA95E0DF91CF910C941C4281EA4B
:1037100095E00E94AE4182ED95E00E948A3383EEEF
:1037200095E00E948A3384EF95E00E948A3385E019
:1037300096E00E94AE4183E196E00E94AE4189E1AD
:1037400096E00E94AE4184E896E00E94AE418AE88D
:1037500096E00E94AE4180E996E00E94AE4186E983
:1037600096E00E94AE418CE996E00C94AE411F9326
:10377000CF93DF93CDB7DEB768970FB6F894DEBF6F
:103780000FBECDBF62E975E0CE0143960E941C4298
:1037900062E975E0CE010D960E941C428EEF9AE020
:1037A0000E94853C892B09F4D8C08EEF9AE00E94D4
:1037B0009E3C182F682FCE0107960E94AC42BE0196
:1037C000635F7F4FCE0101960E947F42BE01695F19
:1037D0007F4FCE0101960E94A343BC01CE010D96FE
:1037E0000E946842CE0101960E94AE41CE0107962A
:1037F0000E94AE411332C9F660E070E0CE010D9632
:103800000E940044182F29893A892150310941E04A
:1038100050E0BE01635F7F4FCE0101960E944C4491
:10382000BE016F5F7F4FCE0143960E948842CE015A
:1038300001960E94AE416EE375E084EC99E00E942F
:103840007F40612F84EC99E00E94814066E475E03E
:1038500084EC99E00E947F40BE016D5E7F4F84EC56
:1038600099E00E949E40113611F481E303C01236A4
:1038700031F480E380930A020E9415046EC014366E
:1038800019F40E94C10569C0153619F40E947A0620
:1038900064C0163619F40E94910C5FC0173661F4AB
:1038A000BE016D5E7F4FCE0101960E947F42CE0128
:1038B00001960E94010D3DC0183619F40E94EB04D8
:1038C0004CC01C3619F40E947E0547C01B3661F4BB
:1038D000BE016D5E7F4FCE0101960E947F42CE01F8
:1038E00001960E94900925C0113761F4BE016D5EFA
:1038F0007F4FCE0101960E947F42CE0101960E9429
:10390000B30D17C0123719F40E94D80426C013371C
:1039100019F40E94760421C0143781F4BE016D5E53
:103920007F4FCE0101960E947F42CE0101960E94F8
:103930003708CE0101960E94AE410FC0153719F429
:103940000E94860E0AC0193719F40E941E1005C085
:103950001A3719F482E00E94B103CE010D960E943D
:10396000AE41CE0143960E94AE4168960FB6F894E0
:10397000DEBF0FBECDBFDF91CF911F9108950E9492
:103980004E170E9453130E9490120E9468190E94C1
:10399000411A0E9461180E9429170E94B71B0C94BB
:1039A000630FCF93DF931F92CDB7DEB76983DC013E
:1039B000ED91FC910280F381E02D41E050E0BE01E9
:1039C0006F5F7F4F19950F90DF91CF910895CF933F
:1039D000DF93EC01898D9A8D009759F0FC011382D9
:1039E00012820E94B92AE98DFA8D22813381232B1C
:1039F00031F081E090E09B838A8380E090E0DF916A
:103A0000CF910895FC01818D928D009711F00C9457
:103A100014280895CF93DF931F92CDB7DEB741E00E
:103A200050E0BE016F5F7F4F0E94F125019719F4AE
:103A3000898190E002C08FEF9FEF0F90DF91CF91CF
:103A40000895FC01818D928D009711F00C940A1D50
:103A50008FEF9FEF08950F931F93CF93DF938C0108
:103A6000FC01818D928D0097B9F00E940A1DEC0136
:103A70008F3FFFEF9F0799F0F801818D928DFC0138
:103A800042855385648575854150510961097109E5
:103A90000E947827CE0105C080E090E002C08FEF41
:103AA0009FEFDF91CF911F910F910895CF92DF92F9
:103AB000EF92FF920F931F93CF93DF93EC017B0163
:103AC0006A011B821A8208EE13E020E030E00C83CA
:103AD0001D832E833F838CE595E0998388838DE158
:103AE00090E00E94BC489A8F898F009779F02DE171
:103AF000F701DC0101900D922A95E1F74CE050E0CE
:103B0000B601CE010C960E94244B188EDF91CF9106
:103B10001F910F91FF90EF90DF90CF900895FC01DF
:103B20001382128248EE53E060E070E044835583D4
:103B3000668377838CE595E091838083128E118E66
:103B4000148608950C960895DC015996ED91FC9128
:103B50005A97309721F081E09581923008F480E007
:103B60000895DC015996ED91FC915A97309729F010
:103B7000628573858485958508956FEF7FEFCB010E
:103B80000895DC015996ED91FC915A97309729F0F0
:103B90006389748985899689089560E070E0CB0116
:103BA0000895CF92DF92EF92FF92CF93DF93EC01D3
:103BB000898D9A8D892BD9F0CE010E94C11D6B0190
:103BC0007C01CE010E94B11DA7019601261B370B77
:103BD000480B590BDA01C901811530E89307A1059B
:103BE000B10538F08FEF9FE7A0E0B0E002C080E0C1
:103BF00090E0DF91CF91FF90EF90DF90CF9008950C
:103C0000CF93DF93EC01898D9A8D009741F00E944C
:103C10005B28898D9A8D0E9454491A8E198EDF91E6
:103C2000CF910895DC015996ED91FC915A97309708
:103C300021F081E09581911101C080E008951F93EA
:103C4000CF93DF93CDB7DEB76D970FB6F894DEBF95
:103C50000FBECDBFAB011C821B822CE635E03A8340
:103C600029831E8221E0BC01CE0101960E948F298A
:103C700011E0811102C010E004C0CE0101960E9443
:103C80005B28812F6D960FB6F894DEBF0FBECDBFB7
:103C9000DF91CF911F910895442339F00E94902A1B
:103CA00091E0811103C090E001C091E0892F089557
:103CB000CF93DF93FB0120813181FC01E20FF31FE1
:103CC000E081EF3211F42F5F3F4FDA01E0E0F0E0E6
:103CD000EC01C20FD31FC881CF3249F0CC2339F099
:103CE00031962F5F3F4FCD93EC30F10589F7E40F0C
:103CF000F51F1082FC01E20FF31F40814F3211F4D7
:103D00002F5F3F4FFB0131832083FC01E20FF31F44
:103D100081E09081911101C080E0DF91CF91089501
:103D20004F925F926F927F928F929F92AF92BF92CB
:103D3000CF92DF92EF92FF920F931F93CF93DF9377
:103D4000CDB7DEB7C954D1090FB6F894DEBF0FBEA8
:103D5000CDBF5C016B013A01490119A218A28CE6A2
:103D600095E09F8F8E8F1BA21C821B829A83898372
:103D70001E822A961FAE1EAE2A978B017E018EE10F
:103D8000E80EF11C44244394AE01455C5F4FBE0134
:103D9000685B7F4FC5010E94581E582E482F44254E
:103DA0009401BE01655C7F4FC801F3011995811133
:103DB00008C00C151D0519F0C8010E945B2880E0A1
:103DC00027C05520B9F021E0AE01455C5F4FB80136
:103DD000C7010E948F29582E0C151D0599F0C801A6
:103DE0000E945B28552059F3902F812F8701E92EDF
:103DF000F82ECACF0C151D0519F0C8010E945B28CA
:103E000081E006C08823D9F28E010F5F1F4FECCFEF
:103E1000C75BDF4F0FB6F894DEBF0FBECDBFDF919B
:103E2000CF911F910F91FF90EF90DF90CF90BF90B7
:103E3000AF909F908F907F906F905F904F9008957C
:103E40000F931F93CF93DF93EC01462F61E00E9405
:103E50009822811102C080E01DC08E01045F1F4FB7
:103E600041E0BE01C8010E940030882359F0B8012A
:103E7000CE018A960E94A12591E0811101C090E0B7
:103E8000892F08C040E0BE01C8010E94003088238D
:103E900011F3EDCFDF91CF911F910F910895FC01A8
:103EA000DB0112968D919C911397938382838CE60C
:103EB00095E09183808314968C9114978483159652
:103EC0008C911597858316964D915D916D917C919E
:103ED000199746835783608771871A964D915D9134
:103EE0006D917C911D9742875387648775871E96D5
:103EF0004D915D916D917C91519746875787608B6D
:103F0000718B52968C915297828B53964D915D9105
:103F10006D917C915697438B548B658B768B57961E
:103F20004D915D916D917C915A97478B508F618F28
:103F3000728F5B968D919C915C97948F838F08957F
:103F40004F925F926F927F928F929F92AF92BF92A9
:103F5000CF92DF92EF92FF920F931F93CF93DF9355
:103F6000CDB7DEB7C754D1090FB6F894DEBF0FBE88
:103F7000CDBF6C014A013901665D7F4F5E018EE164
:103F8000A80EB11CC5010E944F1F1C821B828CE62B
:103F900095E09A8389831E828401FE0131967F0118
:103FA0005A2C4B2C6FE270E0C8010E94094B00971D
:103FB000E9F1F80120812F3219F40F5F1F4FF2CF82
:103FC000801B8D3008F08CE0A82EB12CA501B80123
:103FD000CE01CB960E94244BEBE3F0E0EC0FFD1FEB
:103FE000EA0DFB1D1082C7010E945B2821E0AE0193
:103FF000455C5F4F652D742DC7010E948F2981118B
:1040000009C0F601138212828CE695E091838083C9
:10401000158216C00A0D1B1D852D942D0E945B284C
:10402000C2015E2C4F2CE92EF82EBCCF08191909BD
:10403000F30111830083652D742DC6010E944F1F6B
:10404000C601C95BDF4F0FB6F894DEBF0FBECDBF10
:10405000DF91CF911F910F91FF90EF90DF90CF9064
:10406000BF90AF909F908F907F906F905F904F9098
:1040700008959F92AF92BF92CF92DF92EF92FF92FC
:104080000F931F93CF93DF93CDB7DEB7C955D109F7
:104090000FB6F894DEBF0FBECDBF7C016B015A0195
:1040A000922E9E01285A3F4FCE01CB960E94A01F10
:1040B0006A960EAD1FAD6A970A0D1B1DF80180812F
:1040C00081110AC0BE01655C7F4FCE0101960E943E
:1040D0004F1F4CEF52E041C019A218A28CE695E0A8
:1040E0009F8F8E8F1BA221968FAD2197811104C0C7
:1040F000C7010E948F1D37C08250823060F4B60124
:10410000665D7F4F292DA801CE014E960E948F2912
:10411000811110C0EDCF292DA801BE01655C7F4F34
:10412000CE014E960E948F29882311F3CE01CB96A3
:104130000E945B28892D867041F049A95AA96BA974
:104140007CA9CE014E960E947827BE01625E7F4F09
:10415000CE0101960E944F1FA801BE016F5F7F4FE5
:10416000C7010E94561DC701C75ADF4F0FB6F8940A
:10417000DEBF0FBECDBFDF91CF911F910F91FF909A
:10418000EF90DF90CF90BF90AF909F900895FB018C
:10419000BC01665D7F4F20E030E04FE15EE1CF0182
:1041A0000C94901EFB01BC01665D7F4F20E030E067
:1041B0004CE45EE1CF010C94901EDF92EF92FF92EF
:1041C0000F931F93CF93DF93CDB7DEB7C756D109B7
:1041D0000FB6F894DEBF0FBECDBF8C017B01D42E8D
:1041E000BE016F5F7F4FF701818D928D0E94F9268E
:1041F0001816D4F589818823B9F1853E89F38E326A
:1042000079F38C8583FDECCF22961FAE1EAE2297EC
:104210008CE695E09FAF8EAF24961FAE2497BE012B
:10422000655A7F4FCE0101960E944B25F701618DA3
:10423000728D2D2DAE01455A5F4FCE01CE960E9454
:104240008F29882389F0BE01625C7F4FCE01819661
:104250000E944F1FAE01455A5F4FBE016F5D7F4FF9
:10426000C8010E94561D03C0C8010E948F1DC801CD
:10427000C959DF4F0FB6F894DEBF0FBECDBFDF9137
:10428000CF911F910F91FF90EF90DF900895CF9302
:10429000DF93EC010E94A41D882351F0E98DFA8D73
:1042A000168217821086118612861386148615864A
:1042B000DF91CF9108951092A7061092A806109250
:1042C000AB061092AD0682E090E0A0E0B0E08093F3
:1042D000AE069093AF06A093B006B093B1061092CD
:1042E000C5061092CF061092CE068CE695E090930C
:1042F000CD068093CC061092D10608959FB7F8940E
:104300002091F9088091F708213019F48DBB9FBFE7
:1043100008958FBF08952091F908222399F03FB79F
:10432000F8942091F908213059F42DB32093F7081F
:104330004DB32091F808209524232DBB3FBF02C028
:104340003093F7088CBD9DBD08958EBD00000DB45F
:1043500007FEFDCF8EB508958FEF0C94A52161E087
:10436000FC0184810E94263C8091EB06882339F071
:104370001092EB068091F90881110C947E2108952A
:10438000CF93DF93EC018091EB06811109C081E0AE
:104390008093EB068091EC069091ED060E948B21B4
:1043A00060E08C81DF91CF910C94263CCF93DF931A
:1043B000EC018E81882389F08F8198859C012F5F85
:1043C0003F4F38872F838230924018F40E94AC21EF
:1043D000F3CFCE010E94AF211E82DF91CF910895CD
:1043E000673028F026E1FC01258380E008956230E3
:1043F00081F030F4662359F06130B1F480E515C0E6
:10440000643059F040F0653079F482E50EC080E503
:1044100005C081E503C081E508C082E58093EC0614
:1044200081E08093ED06089583E58093EC06109279
:10443000ED0681E008950F931F93CF93DF93EB0177
:104440000E94B03A8B010E94AC218F3F49F00E943C
:10445000B03A601B710B6C177D07A8F380E001C0B8
:1044600081E0DF91CF911F910F910895CF92DF925C
:10447000FF920F931F93CF93DF9300D01F92CDB77E
:10448000DEB76C01F62E29833A834B835C830E944E
:10449000D621C6010E94C0216CE271E0C6010E94D3
:1044A0001B228F2D80640E94A52108E110E05C8111
:1044B0004B813A812981DA01C901002E04C0B695E9
:1044C000A795979587950A94D2F729833A834B83CA
:1044D0005C830E94A5210850110929813A814B81F2
:1044E0005C81083F8FEF180731F7FF2029F0E8E0E3
:1044F000FE1621F08FEF03C085E901C087E80E9416
:10450000A52110E00E94AC21F601828787FF04C03C
:104510001F3F11F01F5FF6CF0F900F900F900F907D
:10452000DF91CF911F910F91FF90DF90CF90089571
:10453000BF92CF92DF92EF92FF920F931F93CF9390
:10454000DF93EC01B62E1B8619861E821D824C83DA
:104550000E94B03A8B0161E08C810E94ED3B61E0EA
:104560008C810E94263C0E94EE3682E58093EC0608
:104570001092ED068091EC069091ED060E948B2141
:104580002AE0F22E8FEF0E94A521FA94D9F78091AC
:10459000F90881110E947E21CE010E94C02120E0F5
:1045A00030E0A90160E0CE010E943622F82E8A8711
:1045B00081E0F81649F00E94B03A601B710B613D32
:1045C000774068F381E04BC02AEA31E040E050E0F8
:1045D00068E0CE010E94362282FF02C0FB860DC039
:1045E00094E0F92E0E94AC218A87FA94D9F78A3A8E
:1045F00011F082E034C082E08B878B85823031F409
:10460000C12CD12CE12C80E4F82E03C0C12CD12C7C
:10461000760120E030E0A90167E3CE010E94362256
:10462000A701960169E2CE010E9436228A8788237B
:1046300049F00E94B03A601B710B613D774048F32E
:1046400088E00DC08B85823031F520E030E0A90193
:104650006AE3CE010E943622882381F086E08D83B2
:10466000CE010E94AF2180E0DF91CF911F910F9189
:10467000FF90EF90DF90CF90BF9008950E94AC2103
:10468000807C803C11F483E08B870E94AC210E94E7
:10469000AC210E94AC21CE010E94AF216B2DCE0136
:1046A000DF91CF911F910F91FF90EF90DF90CF900E
:1046B000BF900C94F0210F931F93CF93DF93EC01E5
:1046C0000E94B03A8B010E94AC218A878F3F49F447
:1046D0000E94B03A601B710B6D327140A0F38FE005
:1046E00003C08E3F39F08DE08D83CE010E94AF2153
:1046F00080E001C081E0DF91CF911F910F9108957B
:10470000CF92DF92EF92FF920F931F93CF93DF939D
:10471000EC0169010115110509F462C0C801820F9D
:10472000931F8130924008F05DC08E81882371F024
:1047300088819981AA81BB81481759076A077B073D
:1047400029F48F819885C816D90610F548835983B6
:104750006A837B838B85833039F039E0440F551FA2
:10476000661F771F3A95D1F79A01AB0161E1CE013F
:104770000E943622882319F083E08D8333C0CE0156
:104780000E945B23882371F118861F8281E08E834B
:104790008F8198858C159D0540F40E94AC218F81F6
:1047A0009885019698878F83F3CF6701E00EF11EFD
:1047B000CE14DF0431F00E94AC21F60181936F0129
:1047C000F7CF8F819885800F911F98878F832985D8
:1047D000222319F08115924018F0CE010E94D621B3
:1047E00081E004C0CE010E94AF2180E0DF91CF9133
:1047F0001F910F91FF90EF90DF90CF900895EF926F
:10480000FF920F931F93790100E012E020E030E067
:104810000E9480231F910F91FF90EF900895CF92F7
:10482000DF92EF92FF920F931F93CF93DF931F922C
:104830001F92CDB7DEB78C01862F49835A830E9421
:10484000A5214981C42E5A81D52EE12CF12CF601E7
:1048500081916F010E94A521FFEFEF1AFF0AE11479
:1048600082E0F806A1F78FEF0E94A5218FEF0E944A
:10487000A5210E94AC21F80182878F71853039F023
:1048800081E18583C8010E94AF2180E001C081E001
:104890000F900F90DF91CF911F910F91FF90EF90AC
:1048A000DF90CF9008950F931F93CF93DF93EC0188
:1048B0008901411551056105710511F482E132C08C
:1048C0008B85833039F089E0440F551F661F771FB1
:1048D0008A95D1F79A01AB0168E1CE010E94362298
:1048E000882311F084E01EC0A8016EEFCE010E9463
:1048F0000F248823C1F068E572E0CE010E941B22DC
:10490000811102C085E10EC020E030E0A9016DE018
:10491000CE010E943622811104C00E94AC2188235E
:1049200039F084E18D83CE010E94AF2180E004C084
:10493000CE010E94AF2181E0DF91CF911F910F91B5
:10494000089580E58093EC061092ED060895CF93CC
:10495000DF93EC019C012A5F3F4F41E050E060E0B3
:1049600070E08B8D9C8D0E94952E8823A1F04F893D
:10497000588D698D7A8D452B462B472B71F44E81CE
:104980005F81688579854F8B588F698F7A8F8C818D
:1049900080688C8302C080E001C081E0DF91CF910C
:1049A0000895CF92DF92EF92FF921F93CF93DF9300
:1049B000EC010E94A724811102C080E04BC0EB8D66
:1049C000FC8DCE80DF80E884F98482E0C81AD108AB
:1049D000E108F108058404C0CC0CDD1CEE1CFF1CB2
:1049E0000A94D2F74685578560897189C40ED51E11
:1049F000E61EF71E148181E0C81AD108E108F1080B
:104A0000112361F0C701B601610F711D811D911D58
:104A10000E94DF2C882389F21150F2CFEB8DFC8DA0
:104A2000C12C82E0D82EE12CF12C058404C0CC0CE2
:104A3000DD1CEE1CFF1C0A94D2F74B895C896D8942
:104A40007E894C0D5D1D6E1D7F1D4B8B5C8B6D8BB0
:104A50007E8B81E0DF91CF911F91FF90EF90DF90EF
:104A6000CF900895CF93DF93EC01462F6E857F851D
:104A7000888999890E94A42C882341F08A8920E2A0
:104A8000829FC00111248950994F02C080E090E0BC
:104A9000DF91CF91089530E020E04EE2DC015C919F
:104AA000503271F0383029F4FB01E20FF11D4083E0
:104AB0002F5FFB01E20FF11DDC015C9150832F5F42
:104AC0003F5F01963B3051F7FB01E20FF11D108271
:104AD0000895282FFB018BE030E231938150E9F7F4
:104AE000A22FB92F20E037E09D91992319F19E3232
:104AF00019F0E7E2F4E008C03A3011F128E03AE0BA
:104B0000F3CF31964917E1F044914111FACF3217B2
:104B1000B8F04FED490F4E3598F441E0420FFB01DC
:104B2000E20FF11D2FE9290F2A3108F490529083EA
:104B3000242FDACF81E0FB019081903209F480E0EC
:104B400008950F931F93CF93DF93EC018B018D8119
:104B5000882311F080E040C0FB0187898031B1F4E7
:104B600082E08D831F8A188E198E1A8E408D518D8A
:104B700060E070E095E0440F551F661F771F9A951F
:104B8000D1F74B8B5C8B6D8B7E8B15C0803211F710
:104B900083E08D83FB01428D538D648D758D4F8B2A
:104BA000588F698F7A8F9E012D5E3F4FC8010E94FA
:104BB000892D882379F21C8F0B8F81E08C831E82D4
:104BC0001F82188619861A861B861C861D861E86DD
:104BD0001F86188A198A1A8ADF91CF911F910F9127
:104BE00008952F923F924F925F926F927F928F9291
:104BF0009F92AF92BF92CF92DF92EF92FF920F936C
:104C00001F93CF93DF93EC016B015A018D818111CA
:104C100003C08FEF9FEFDAC08C8180FFFACF4B8902
:104C20005C896D897E898A859B85AC85BD852501DA
:104C3000612C712C8A019B01081B190B2A0B3B0B61
:104C4000041515052605370518F45A01A81AB90ADE
:104C500025011E0126E0220E311C4114510409F4E5
:104C60007BC04A855B856C857D854A0181E0982201
:104C7000ED818A019B01F9E03695279517950795F7
:104C8000FA95D1F78B8D9C8DE23051F4FC01628D49
:104C9000738D848D958D600F711F821F931F3EC091
:104CA000FC0174807A94702281149104C9F471100B
:104CB00017C0452B462B472B49F48F89988DA98D1A
:104CC000BA8D8E839F83A887B9870AC04E815F8182
:104CD0006885798591010E94052D882309F499CF73
:104CE000EB8DFC8D6E817F8188859985625071097D
:104CF00081099109058404C0660F771F881F991FD9
:104D00000A94D2F70685178520893189600F711FB3
:104D1000821F931F670D711D811D911D20E032E0E0
:104D20002819390932012415350508F439012C8177
:104D300026FD04C06114F2E07F06A1F500911E0279
:104D400010911F02209120023091210260177107FB
:104D50008207930719F426C0C50138C07601830184
:104D60009401AB01BC018091F5069091F6060E947A
:104D70008023882309F44DCFC60CD71C04C0E81B40
:104D8000F90BCE0EDF1E8A859B85AC85BD85860D11
:104D9000971DA11DB11D8A879B87AC87BD874618CB
:104DA00057085BCF40E00E94A42C882309F431CF40
:104DB000C4018950994FD6019C01260D371DFC0175
:104DC000E217F307E1F241914D93FACFDF91CF91D2
:104DD0001F910F91FF90EF90DF90CF90BF90AF9019
:104DE0009F908F907F906F905F904F903F902F900B
:104DF00008950F931F93CF93DF93EC018B018D8167
:104E0000823010F48FEF24C04A855B856C857D85E8
:104E10004F71552766277727452B462B472B91F750
:104E200040E250E0B801CE010E94F125803269F4E1
:104E3000F8018081882359F0853E91F38E3281F309
:104E4000838583FDEDCF80E203C087FDDBCF80E06B
:104E5000DF91CF911F910F910895FF920F931F93B0
:104E6000CF93DF931F92CDB7DEB78C01FC01858114
:104E7000823018F480E090E034C0F8014285538518
:104E800064857585A5E07695679557954795AA95AC
:104E9000D1F7F42FFF70FF2E41E050E0BE016F5FAD
:104EA0007F4FC8010E94F125019719F4298130E054
:104EB00002C02FEF3FEF2F3F3F4FE1F2F801428555
:104EC000538564857585415E5F4F6F4F7F4F428785
:104ED000538764877587F0E2FF9EC00111248950D3
:104EE000994F0F90DF91CF911F910F91FF900895EF
:104EF0004F925F926F927F92AF92BF92CF92DF926A
:104F0000EF92FF920F931F93CF93DF93EC016A010F
:104F10007B012D81222309F457C08B899C89AD899F
:104F2000BE8984179507A607B70708F44DC04EC081
:104F30008A859B85AC85BD85EB8DFC8DE585F0E094
:104F40003996AC01BD0141505109610971090E2E1C
:104F500004C076956795579547950A94D2F79701BF
:104F60008601015011092109310904C036952795A0
:104F700017950795EA95D2F70417150726073707FF
:104F8000B0F58F89988DA98DBA8D8E839F83A88760
:104F9000B987280139015E0186E0A80EB11C4114D1
:104FA00051046104710461F14E815F8168857985E6
:104FB00095018B8D9C8D0E94052D91E0491A510819
:104FC000610871088111EBCF80E01FC02230C1F071
:104FD000C114D104E104F10409F0AACF1E821F829A
:104FE000188619861A861B861C861D860DC0892B7D
:104FF0008A2B8B2B31F2041B150B260B370BC9CFD9
:10500000CA86DB86EC86FD8681E0DF91CF911F9119
:105010000F91FF90EF90DF90CF90BF90AF907F9077
:105020006F905F904F9008950F931F93CF93DF93EE
:10503000EC018D818823C9F18C8187FF30C061E04C
:10504000CE010E9432258C01009779F18D8182304A
:1050500048F44B895C896D897E89F801448F558FAE
:10506000668F778F4F89588D698D7A8DF801538FB0
:10507000428F758B648BE091EE06F091EF063097CE
:1050800059F0B8016A5E7F4FC80148961995F8013A
:10509000808D918D938B828B8C818F778C83DF9128
:1050A000CF911F910F910C94692C80E0DF91CF91EB
:1050B0001F910F910895CF93DF93EC010E94142864
:1050C000882319F01D8281E001C080E0DF91CF913B
:1050D00008954F925F926F927F92AF92BF92CF925C
:1050E000DF92EF92FF920F931F93CF93DF9300D045
:1050F0001F92CDB7DEB75C016A017B01FC0185819F
:105100008130F1F4848181FF1BC0F501838994898A
:10511000A589B68984179507A607B70788F0892B54
:105120008A2B8B2B09F479C0F50142845384648463
:105130007584B701A601C5010E947827811102C0BC
:1051400080E06CC0F501838D948DC114D104E1041D
:10515000F10471F44789508D618D728D0E94AA2FE0
:10516000882371F3F501178A108E118E128E3AC0C2
:10517000F50146815781608571859E012F5F3F4F04
:105180000E94052D8823E1F249815A816B817C813F
:10519000F501838D948DFC012789203129F408EFD6
:1051A0001FEF20E030E004C008EF1FEF2FEF3FE0DB
:1051B0004017510762077307A8F40E94AA2F88239B
:1051C00009F4BECFF50146815781608571850FEFE7
:1051D0001FEF2FEF3FE0838D948D0E94F42D8823E5
:1051E00009F4AECFF501C38AD48AE58AF68A8481B0
:1051F00080688483C5010E941428882309F4A0CF05
:10520000B701A6014C145D046E047F0410F4B301D1
:10521000A201C5010E94782701C081E00F900F9084
:105220000F900F90DF91CF911F910F91FF90EF9012
:10523000DF90CF90BF90AF907F906F905F904F9036
:105240000895FF920F931F93CF93DF93EC01F42EF9
:1052500080E2689FF0011124E950F94F8385817144
:1052600029F0842F827411F080E053C06A8B809102
:105270001E0290911F02A0912002B09121028E8700
:105280009F87A88BB98B4489558960E070E0BA018B
:1052900055274427028D138D20E030E0402B512B01
:1052A000622B732B4F8B588F698F7A8F8385887110
:1052B00051F4048D158D268D378D0B8B1C8B2D8B0A
:1052C0003E8B81E00CC0803179F69E012D5E3F4F10
:1052D0008B8D9C8D0E94892D882331F284E08D83F3
:1052E0008F2D8F708C831E821F82188619861A86D6
:1052F0001B861C861D86F6FE0BC040E050E0BA01FE
:10530000CE01DF91CF911F910F91FF900C946928EE
:1053100081E0DF91CF911F910F91FF900895AF929F
:10532000BF92CF92DF92EF92FF920F931F93CF9392
:10533000DF93CDB7DEB72B970FB6F894DEBF0FBE65
:10534000CDBF7C016B01CA01B22EF701258121116D
:10535000B9C0BE016F5F7F4F0E946925882309F4A1
:10536000B1C0F601838D948DF701948F838FF60180
:105370001682178210861186128613861486158669
:10538000A12CF601028513852485358583899489AE
:10539000A589B689081719072A073B07E8F545E0EC
:1053A00036952795179507954A95D1F70F70C60141
:1053B0000E942D27009709F485C0FC01208122233B
:1053C00011F0253EB9F4A1100EC0F701028B4091F7
:1053D0001E0250911F0260912002709121024687A7
:1053E0005787608B718BFC018081AA24A394811163
:1053F000C8CF12C04BE050E0BC01CE0101960E9424
:10540000F34A892B09F0BDCF8B2D8073803309F4CB
:1054100059C04B2D602F52C08B2D8271823109F003
:1054200051C0AA2041F061E0C7010E9432258C01E1
:10543000009779F447C0F6018581823009F442C0B3
:10544000C6010E94D1248823E9F1F701128A07EFEF
:1054500016E080E2F80111928A95E9F78BE0FE01EF
:105460003196D80101900D928A95E1F7E091EE0610
:10547000F091EF06309739F0B801625F7F4FC801B5
:105480004096199509C081E298E2F801918B808BD2
:1054900080E098E097878687F80180899189938BCF
:1054A000828B918F808F86859785978B868B0E94C4
:1054B000692C882339F04B2DF7016289C7010E94BE
:1054C000212901C080E02B960FB6F894DEBF0FBEF5
:1054D000CDBFDF91CF911F910F91FF90EF90DF90A3
:1054E000CF90BF90AF900895CF93DF93EC0140E051
:1054F00050E0BA010E946928882371F061E0CE0172
:105500000E943225009741F025EEFC0120831D8288
:10551000DF91CF910C94692C80E0DF91CF910895B9
:10552000CF93DF93CDB7DEB76D970FB6F894DEBF9C
:105530000FBECDBFAB011C821B822CE635E03A8347
:1055400029831E8222E0BC01CE0101960E948F2990
:10555000882329F0CE0101960E94742A01C080E0C0
:105560006D960FB6F894DEBF0FBECDBFDF91CF9121
:1055700008952F923F924F925F926F927F928F92F7
:105580009F92AF92BF92CF92DF92EF92FF920F93D2
:105590001F93CF93DF9300D01F921F92CDB7DEB73A
:1055A0008C017B013A01DC0115968C9115978130B5
:1055B000C9F414968C9181FF15C082FF1BC0F801BD
:1055C000438954896589768982859385A485B585C3
:1055D00084179507A607B70769F0C8010E947827C6
:1055E000811108C081E090E0F8019383828380E01C
:1055F00090E046C1630180C0D8015B968D919C917B
:105600005C97FC01F481F150B501A40129E0769585
:105610006795579547952A95D1F7F423FD8321E0A7
:105620009222FF2309F474C080E092E0881999095E
:1056300056018C159D0508F45C01D8015B96ED912F
:10564000FC915C9716962D903D904D905C9019972B
:10565000B2E02B1A310841085108058404C0220C1D
:10566000331C441C551C0A94D2F786859785A08963
:10567000B189280E391E4A1E5B1EED812E0E311C8B
:10568000411C511CA114F2E0BF0609F088C08091B2
:105690001E0290911F02A0912002B091210282155A
:1056A0009305A405B50559F48FEF9FEFDC018093B6
:1056B0001E0290931F02A0932002B0932102970133
:1056C000B201A1018091F5069091F6060E94532443
:1056D000882309F487CF9EEFF91ACA18DB08F8016E
:1056E00082859385A485B5858A0D9B1DA11DB11D5D
:1056F00082879387A487B587D8011A968D909D904D
:10570000AD90BC901D97C114D10409F075CF8AC02B
:105710008114910409F088CF16964D915D916D9199
:105720007C911997411551056105710559F45796FA
:105730008D919D910D90BC91A02D0097A105B10573
:1057400041F521C09E012F5F3F4F0E94052D882308
:1057500009F44ECF89819A81AB81BC81F801238DF8
:10576000348DF9012789203129F448EF5FEF60E09B
:1057700070E004C048EF5FEF6FEF7FE0841795079C
:10578000A607B70730F0C8010E94A72481114CCFAB
:1057900029CFF80186839783A087B18745CF8114ED
:1057A000910429F5D8011A964D915D916D917C91E6
:1057B0001D9753968D919D910D90BC91A02D4817EA
:1057C00059076A077B0798F00E94692C882309F41F
:1057D00009CF20921E0230921F0240922002509266
:1057E00021028091F40681608093F40608C041E0B4
:1057F000C201B1010E94A42C882309F4F3CEC40194
:105800008950994FD7019C012A0D3B1DFC01E217DD
:10581000F30719F04D914193FACFE81BF90BEE0E07
:10582000FF1E5BCF53968D919D910D90BC91A02D45
:10583000F801248188159905AA05BB0538F4838AE7
:10584000948AA58AB68A206824830CC08091EE06CB
:105850009091EF06892B31F06114710419F02068E2
:10586000F8012483D80114968C9183FD02C0C301F2
:1058700007C0C8010E941428882309F4B3CEF7CFCB
:105880000F900F900F900F900F90DF91CF911F917D
:105890000F91FF90EF90DF90CF90BF90AF909F90CF
:1058A0008F907F906F905F904F903F902F900895D2
:1058B000CF93DF931F92CDB7DEB7698341E050E00D
:1058C000BE016F5F7F4F0E94B92A0F90DF91CF9189
:1058D00008958091F406882399F140911E02509119
:1058E0001F02609120027091210227EF36E0809123
:1058F000F5069091F6060E945324882319F14091F1
:10590000F0065091F1066091F2067091F306411590
:1059100051056105710591F027EF36E08091F5069C
:105920009091F6060E945324882361F01092F006AD
:105930001092F1061092F2061092F3061092F406FD
:1059400081E0089580E00895CF92DF92EF92FF9278
:10595000CF936B017C01C42F80911E0290911F0296
:10596000A0912002B09121028C159D05AE05BF05C6
:10597000D1F00E94692C811102C080E01AC027EF8B
:1059800036E0B701A6018091F5069091F6060E94D7
:10599000FF23882391F3C0921E02D0921F02E0924F
:1059A0002002F09221028091F4068C2B8093F40661
:1059B00081E0CF91FF90EF90DF90CF900895CF924C
:1059C000DF92EF92FF926B017C010E94692C882389
:1059D000B1F0E7EFF6E0119288E0E73FF807D9F77A
:1059E000C0921E02D0921F02E0922002F092210289
:1059F0008091F40681608093F40681E001C080E02C
:105A0000FF90EF90DF90CF9008958F929F92AF928A
:105A1000BF92CF92DF92EF92FF920F931F93CF939B
:105A2000DF938C016A017B01E901FC01818592858C
:105A3000A385B4850196A11DB11D84179507A607FE
:105A4000B70710F480E058C0F8014389548965898C
:105A500076898789803129F4BB27AF2D9E2D8D2D26
:105A600009C0D701C60127E0B695A79597958795F8
:105A70002A95D1F74C015D01840E951EA61EB71E16
:105A8000C501B40180901E0290901F02A0902002D8
:105A9000B0902102681579058A059B0589F4F80103
:105AA0008789803199F4DD24EE24FF24F601EE0F7E
:105AB000FF1FE950F94F80819181A0E0B0E017C04D
:105AC00040E00E94A42C8111EACFBCCFE894C7F833
:105AD000DD24EE24FF24F601EE0FFF1FEE0FFF1F63
